:020000040000FA
:1000000020030020C9020000D1020000D30200003A
:10001000D5020000D7020000D90200000000000055
:10002000000000000000000000000000DB020000F3
:10003000DD02000000000000DF020000B90F000038
:10004000E3020000E5020000E7020000E902000010
:10005000EB020000911D0000EF020000F102000021
:10006000F3020000F5020000F7020000F9020000B0
:10007000FB020000FD020000FF020000010300007F
:10008000030300000503000007030000090300004C
:100090000B0300000D0300000F030000110300001C
:1000A00013030000150300001703000019030000EC
:1000B0001B0300001D0300001F03000021030000BC
:1000C000230300002503000027030000290300008C
:1000D0002B0300002D0300002F030000310300005C
:1000E000330300003503000037030000390300002C
:1000F0003B0300003D0300003F03000041030000FC
:1001000043030000450300004703000049030000CB
:100110004B0300004D0300004F030000510300009B
:10012000530300005503000057030000590300006B
:100130005B0300005D0300005F030000610300003B
:1001400063030000650300006703000081030000F3
:100150000000000000000000830300008503000091
:100160008703000089030000000000008B030000EB
:100170008D0300008F030000910300009303000033
:100180009503000097030000990300009B03000003
:100190009D0300009F030000A1030000A3030000D3
:1001A000A5030000A7030000A9030000AB030000A3
:1001B000AD030000AF030000B1030000B303000073
:1001C000B5030000B7030000B9030000BB03000043
:1001D000BD030000BF030000C1030000C303000013
:1001E000C5030000C7030000C9030000CB030000E3
:1001F000CD030000CF030000D1030000D3030000B3
:1002000000F002F800F03CF80AA090E8000C8244EC
:100210008344AAF10107DA4501D100F031F8AFF2C9
:10022000090EBAE80F0013F0010F18BFFB1A43F0D4
:1002300001031847C4230000E4230000103A24BF40
:1002400078C878C1FAD8520724BF30C830C144BF3B
:1002500004680C607047000000230024002500267D
:10026000103A28BF78C1FBD8520728BF30C148BF19
:100270000B6070471FB501F0DDFE1FBD10B510BD4E
:1002800000F0B9F91146FFF7F5FF01F093FE00F019
:10029000D7F903B4FFF7F2FF03BC00F0DFF9000069
:1002A000EFF3108072B67047EFF310807047EFF3F2
:1002B000108062B6704730BF704780F31188704776
:1002C000EFF31180704700004548804745480047DC
:1002D000FEE7FEE7FEE7FEE7FEE7FEE7FEE7FEE7F6
:1002E000FEE7FEE7FEE7FEE7FEE7FEE7FEE7FEE7E6
:1002F000FEE7FEE7FEE7FEE7FEE7FEE7FEE7FEE7D6
:10030000FEE7FEE7FEE7FEE7FEE7FEE7FEE7FEE7C5
:10031000FEE7FEE7FEE7FEE7FEE7FEE7FEE7FEE7B5
:10032000FEE7FEE7FEE7FEE7FEE7FEE7FEE7FEE7A5
:10033000FEE7FEE7FEE7FEE7FEE7FEE7FEE7FEE795
:10034000FEE7FEE7FEE7FEE7FEE7FEE7FEE7FEE785
:10035000FEE7FEE7FEE7FEE7FEE7FEE7FEE7FEE775
:10036000FEE7FEE7FEE7FEE7FEE7FEE7FEE7FEE765
:10037000FEE7FEE7FEE7FEE7FEE7FEE7FEE7FEE755
:10038000FEE7FEE7FEE7FEE7FEE7FEE7FEE7FEE745
:10039000FEE7FEE7FEE7FEE7FEE7FEE7FEE7FEE735
:1003A000FEE7FEE7FEE7FEE7FEE7FEE7FEE7FEE725
:1003B000FEE7FEE7FEE7FEE7FEE7FEE7FEE7FEE715
:1003C000FEE7FEE7FEE7FEE7FEE7FEE7FEE7FEE705
:1003D000FEE7FEE704480549034A054B7047000065
:1003E000711D0000010200002001002020030020F8
:1003F0002001002053EA020C00F069802DE9F04B47
:100400004FF00006002B1FBFB3FA83F503FA05F483
:1004100024FA05F65E4012BF1643B2FA82F502FADC
:1004200005F4C5F120051EBF22FA05FC44EA0C04C0
:10043000203556EA044C4FEA144418BF641C4FF0B0
:1004400000084FF00009904271EB030C39D30029EA
:1004500019BFB1FA81F701FA07F6B0FA80F700FA8E
:1004600007F6C7F120071EBF20FA07FC46EA0C0674
:100470002037B6FBF4FCA7EB0507103F07F01F0B76
:10048000CBF120060CFA0BFB2CFA06F644BFB34660
:100490000026202FA4BF5E464FF0000B5BEA060C3F
:1004A00008BF4FF0010B19EB0B09ABFB027C48EBCB
:1004B0000608C01B06FB02CC0BFB03CC71EB0C0146
:1004C000C1E70B46024641464846BDE8F08B13B5EE
:1004D0004FF000004FF00001AFF30080BDE81C407A
:1004E0007047401ECAB210F8011F8A4202D000298C
:1004F000F9D10020704740EA010370B59B072ED167
:100500004FF00136042A2AD308C810C99D1B9D4309
:10051000121F15EAC61517D0D8B2E1B2401A50EA38
:10052000056110D198B2A1B2401A50EA05410AD132
:1005300023F07F4024F07F41401A50EA052102D188
:10054000180EA0EB146070BDA342DBD018BA21BA1C
:10055000884201D9012070BD4FF0FF3070BD0AB94B
:10056000002070BD10F8013B11F8014B63B1A342AC
:100570000AD1521E08D010F8013B11F8014B1BB1F3
:10058000A34201D1521EEDD1181B70BD10B5203A07
:10059000C0F00B80B1E81850203AA0E81850B1E83C
:1005A0001850A0E81850BFF4F5AF5FEA027C24BFF2
:1005B000B1E81850A0E8185044BF18C918C0BDE8E9
:1005C00010405FEA827C24BF51F8043B40F8043BB2
:1005D00008BF7047D20728BF31F8023B48BF11F867
:1005E000012B28BF20F8023B48BF00F8012B7047C1
:1005F000704770477047754600F02CF8AE4605000E
:100600006946534620F00700854618B020B5FFF72D
:10061000E1FEBDE820404FF000064FF000074FF02C
:1006200000084FF0000B21F00701AC46ACE8C00910
:10063000ACE8C009ACE8C009ACE8C0098D46704719
:1006400010B50446AFF300802046BDE81040FFF728
:1006500020BE000000487047BC000020014918205F
:10066000ABBEFEE7260002007047002100E0491CF7
:100670008142FCD37047D0F8003412F0010F14BF50
:100680000B438B43C0F8003412F0020FD0F8202443
:1006900014BF114322EA0101C0F8201470472DE96C
:1006A000F00301264FF0000C0325C2F3411706FAB0
:1006B0000CF40C4211D0D0F8C48F4FEA4C0405FA68
:1006C00004F928EA0908C0F8C48FD0F8C48F07FAE3
:1006D00004F448EA0404C0F8C44F0CF1010C0CF017
:1006E000FF0CBCF1080FE2D3D0F800C512F0010FE7
:1006F00014BF4CEA010C2CEA010CC0F800C5D0F87C
:1007000004C512F0020F14BF4CEA010C2CEA010CD4
:10071000C0F804C5D0F808C512F0040F14BF4CEAA5
:10072000010C2CEA010CC0F808C5D0F818C512F06D
:10073000080F14BF4CEA010C2CEA010CC0F818C5D4
:1007400012F0100FD0F83C2514BF0A438A43C0F8BA
:100750003C25D0F80C2513F0010F14BF0A438A433F
:10076000C0F80C25D0F8102513F0020F14BF0A436F
:100770008A43C0F81025D0F8142513F0040F14BFD5
:100780000A438A43C0F81425D0F81C2513F0080F3B
:1007900014BF0A438A43C0F81C25D0F8442513F43B
:1007A000007F14BF0A438A43C0F84425D0F840258F
:1007B00013F4407F14BF0A438A43C0F84025D0F8A1
:1007C0002825002B0CBF114322EA0101C0F828158F
:1007D000BDE8F003704700000E4AC0F30741D26E37
:1007E00001238B401A420C4A1ABF02EBC10149682F
:1007F00052F83110020AD1F82C354FF00F0C0CFAD8
:1008000002FC00F00F0023EA0C0390401843C1F8EB
:100810002C05704700E00F400822000050F821002E
:10082000704730B50C4605460022FFF724FF2146ED
:100830002846BDE8304008230122FFF730BF30B51D
:100840000C46054608230122FFF729FF21462846CA
:10085000BDE830400122FFF70EBF30B50C4605461B
:100860000222FFF708FF21462846BDE83040092351
:100870000122FFF714BF30B50C4605460222FFF7F0
:10088000FAFE21462846BDE8304008230122FFF742
:1008900006BF30B50C4605460222FFF7ECFE2146A6
:1008A0002846BDE8304008230122FFF7F8BE0000CB
:1008B0002DE9F04104460E4600BF1C4800F078F8D0
:1008C0000028FAD100222146184800F0B9F8314634
:1008D000164800F077F80721144800F06FF800BFC1
:1008E000124800F05FF80028FAD1104800F071F8C3
:1008F000C7B20120FFF7B9FE012221460B4800F0E4
:100900009FF80721094800F059F800BF074800F098
:1009100049F80028FAD1054800F052F8C5B2012084
:10092000FFF7A3FE2846BDE8F0810000000002406A
:100930002DE9F04104460F46154600BF184800F067
:1009400037F80028FAD100222146154800F078F83F
:100950003946134800F036F80321114800F02EF80C
:1009600000BF0F4800F024F80028FAD10C4800F02E
:1009700030F8C6B229460A4800F024F80521084894
:1009800000F01CF800BF064800F012F80028FAD169
:10099000034800F01EF8C6B23046BDE8F081000002
:1009A00000000240406810F0400018BF012070476E
:1009B000406810F0010018BF012070474160704787
:1009C0008068704781607047016A41F010010162E0
:1009D0007047406810F0010F05D110F0120F1CBFD6
:1009E00000F01C007047002070470000036A43F0CD
:1009F00010030362002A14BF0E4A0F4A02EB82035F
:100A000001EB830302EB820292005B1EB3FBF2F266
:100A1000521EC260D0F8C02F12F0010F08BF7047FD
:100A2000064A1144521CB1FBF2F1491E41F080010B
:100A3000C1607047801A0600A08601007F47370119
:100A400042EA4101016070471649042804BF086862
:100A500040F4803018D0052804BF086840F4003006
:100A600012D0062812D00F2815D0102838BF704792
:100A7000103800F01F01012202FA01F142090A4870
:100A800050F822000160704708607047086840F421
:100A90008020086070474FF0E020016941F00201BA
:100AA0000161704724ED00E05423000010B5FFF70A
:100AB000FEFB002818BF012010BD000010B5114832
:100AC00000F03CFA00BF0F4800F04CFA0028FAD0C2
:100AD0000C48C01C00F032FA00BF0A48C01C00F0ED
:100AE00041FA0028F9D001210748FFF7A8FE0321A9
:100AF0000648FFF796FE0A23012203210348FFF769
:100B0000CEFD10BD050800F00050024000D00340AB
:100B100010B51E4800F012FA1D4800F00FFA1D48EB
:100B2000FFF75AFE1C48FFF757FE04211B48FFF74A
:100B3000A2FE08211948FFF790FE0122184801681B
:100B40001848FFF753FF1748FFF73EFFFF220C211D
:100B50002220FFF7EDFE044600220D212220FFF7A0
:100B6000E7FE044600220E212220FFF7E1FE0446A4
:100B7000002203211820FFF7DBFE0446FF2201219B
:100B80001820FFF7D5FE044610BD0000002000F03D
:100B9000010800F002080100020C010000500040B2
:100BA000000000200000024010B50B4800684FF420
:100BB0007A71B0FBF1F4204600F0F8F900F0E8F9A2
:100BC00000F0EDF95021054801F054F91520FFF728
:100BD0003BFFFFF76BFF10BD0000002000C000408E
:100BE00010B5124800F0AAF9114800F0A7F900BFAB
:100BF0000F4800F0B7F90028FAD00120FFF7ECFD0C
:100C000040F20140FFF7E8FD03214FF04020FFF7DD
:100C100040FE60234FF4E13206480168064801F0C7
:100C2000F0F806A001F030F910BD0000001800F047
:100C3000000800F00000002000C000400D0A4865D8
:100C40006C6C6F2C20776F726C64210D0A000000B1
:100C50002DE9F003AF4D02462868AF4B1840A0F1D4
:100C60008053B3F5A02359D002F03809DFF8AC82E5
:100C7000C2F38414B9F1100F25D0B9F1300F04BFBD
:100C800047F230504FF400130DD04FF0380090432E
:100C900004BF4FF40040C30105D012F0380F1CBF51
:100CA0000020034613D09E4F12F4605F4FF0000601
:100CB00018BF00222CD057F8324044457DD307EBB3
:100CC000C2025268E1E0002340461524EBE7A4F19C
:100CD0000900122822D29348D5F87CC04FF04C73FB
:100CE00050F824002CF01C0C072CA8BF4CF0100C62
:100CF000C5F87CC02E6D4FF4002C16F4807FD2D145
:100D0000BCF1010C0AD02E6D16F4807FF8D0CAE732
:100D100012F0380F18BFB9F1100F04D0BDE8F0037E
:100D20004FF000007047C2F30268DFF8FCC14FF0DB
:100D3000000257F83290E14503D307EBC202526834
:100D400003E0521C062AF4D33246C5F8C020D5F879
:100D5000B020DFF8D8C102EA0C0242F00042C5F828
:100D6000B020DFF8CCC1A4F109024C1E5CF828C009
:100D7000A444BCFBF1FCD5F8B0101943C5F8B01081
:100D800008EBC80101EB41046A4902EB420201EBA6
:100D9000C40101EB82046468C5F86441D5F864417C
:100DA0006FF0FF0808EB0C2C44EA0C0CC5F864C18A
:100DB00051F82210D5F8602100E061E002F4000251
:100DC0001143C5F86011D5F86011D5F86021C1F361
:100DD0008921C2F30904D5F86421C2F3042202F187
:100DE000010CD5F8642102F01F02521CB0FBF2F096
:100DF0004A09C2F100084443424301EB481104EBA5
:100E00005212484302EB9020B0FBFCF04108084628
:100E1000002257F832C0844503D307EBC20046686E
:100E200002E0521C062AF4D3C5F8C060D5F8600170
:100E300010F4000F1DBFD5F8B00040F08040C5F899
:100E4000B000D5F8600104BF40F40000C5F86001AF
:100E50004FF40040D5F8682112F0010F02D1401E76
:100E60000028F7DC002808BF002148D0D5F8B000E2
:100E7000184340F0010040F01040C5F8B0003EE0DB
:100E8000521C062AFFF417AF3246C5F8C020D5F829
:100E9000602122F40002C5F86021D5F8B020DFF807
:100EA00098C002EA0C0242F00042C5F8B0200029C6
:100EB00008BF4FF0000C0AD0B0FBF1FCBCF1000FF2
:100EC00018BFACF1010C0CF10101B0FBF1F10846C7
:100ED000002257F83240844203D307EBC200466831
:100EE00002E0521C062AF4D3C5F8C060D5F8B00061
:100EF00043EA8C22104340F00040C5F8B000D5F81A
:100F0000B00020F47000C5F8B000BDE8F00308465A
:100F10007047000000E00F400000FF700024F40064
:100F2000C8250000AC23000040787D0100FC0FE0E4
:100F3000A423000018240000FF0300EFC0F30723E0
:100F40000749C0B2194401F07043C1F3130143EAE9
:100F5000411141EA800040F00070012202607047B8
:100F600000E60F40C0F307220849C0B2114401F067
:100F70007042C1F3130142EA411141EA800040F09E
:100F800000700068002818BF0120704700EA0F4079
:100F90004FF0E020016941F00501016170474FF019
:100FA000E020016941F00201016170474FF0E0214A
:100FB000401E4861704700002DE9F04FA1B04FF08E
:100FC00000081822FE4918A8FFF7E0FA1822FC4989
:100FD000183112A8FFF7DAFA40F26D1B4FF4B77020
:100FE0001190002010900B900C900A9006900790A2
:100FF0000890099002900390049005900190009051
:101000008146DFF8C0A3F0480068401CEE49086044
:10101000AAF10200B0F86C00642809DAAAF1020013
:10102000B0F86C00401CAAF10201A1F86C000FE0BE
:10103000E448801EB0F86C00642809D140F2867044
:10104000E049891EA1F86C004FF00109881C8866F0
:10105000DD4800683221B0FBF1F201FB12000028EC
:101060007DD1804639E0D748801E0078C04340FAE1
:1010700008F000F001000BA901F808000BA810F817
:10108000080028B1D14810F8080008B9012000E094
:10109000002006A921F81800CB4800684FF4FA7127
:1010A000B0FBF1F201FB120048B90BA810F80800E0
:1010B00028B1C64810F8080008B1012000E000205F
:1010C00002A921F818000BA810F80800BF4901F880
:1010D000080008F1010000F0FF08B8F1080FC2DBBA
:1010E0004FF0000838E0B748801E4078C04340FA0F
:1010F00008F000F001000AA901F808000AA810F899
:10110000080028B1B24810F8080008B9012000E032
:10111000002001A921F81800AB4800684FF4FA71CB
:10112000B0FBF1F201FB120048B90AA810F8080060
:1011300028B1A74810F8080008B1012000E00020FD
:101140002DF818000AA810F80800A14901F80800B5
:1011500008F1010000F0FF08B8F1020FC3DB9D4861
:10116000407880B9984800680A21B0FBF1F201FB91
:10117000120040B99848D0E90010491C40F1000025
:10118000954AC2E9001064220023934903C9FFF77E
:1011900031F904463C220023FFF72CF990B2ADF858
:1011A0008200642200238C4903C9FFF723F9064615
:1011B0004FF461620023FFF71DF9144619463C22E3
:1011C00000232046FFF716F980B2ADF880006422B4
:1011D0000023814903C9FFF70DF906467F4A002322
:1011E000FFF708F9144619464FF4616200232046C0
:1011F000FFF700F9083080B2ADF87E004FF06402CE
:101200004FF00003744903C9FFF7F4F80446734A2A
:101210000023FFF7EFF880B2ADF87C00BDF87E0048
:1012200018280BDBBDF87E00183880B2ADF87E00C0
:10123000BDF87C00401C80B2ADF87C0040F2B2707A
:10124000ADF878000020ADF87A0015E0BDF8780020
:1012500000F096FE10B14FF4B77001E040F26D104F
:10126000BDF87C10081A80B2ADF87C00BDF878009B
:10127000401C80B2ADF87800BDF8780000F080FE28
:1012800010B14FF4B77001E040F26D10BDF87C1062
:101290008842DBDD1BE0BDF8780000F071FE28B16C
:1012A000BDF87A0012A931F8100004E0BDF87A0008
:1012B00018A931F81000BDF87C10081A80B2ADF8FA
:1012C0007C00BDF87A00401C80B2ADF87A00BDF811
:1012D000780000F055FE28B1BDF87A0012A931F867
:1012E000100004E0BDF87A0018A931F81000BDF82C
:1012F0007C108842CFDD3748C078012813D13248AE
:1013000000680A21B0FBF1F201FB120058B9344821
:10131000006818B903202F49C87004E030480068FD
:10132000401E2F4908602E4800686421B0FBF1F090
:101330003C21B0FBF1F201FB1200ADF83E00284861
:1013400000686421B0FBF1F04FF46161B0FBF1F291
:1013500001FB12003C21B0FBF1F0ADF83C0020484D
:1013600000686421B0FBF1F01C49B0FBF1F201FB15
:1013700012004FF46161B0FBF1F080B2ADF83A00B9
:10138000BDF8040048B113480078001D052190FB0A
:10139000F1F201FB12000F490870BDF8060048B1D8
:1013A0000C480078401C052190FBF1F201FB120073
:1013B000084908700749087800F074FD044611E0F8
:1013C00040200000420000201C0000202F000020D0
:1013D0003700002020000020100000208051010074
:1013E000180000202146FE4800F000FDFD4800786E
:1013F00005287DD2DFE800F0EEED03ECEB00BDF850
:10140000220030B10120F74948700720F6490870E2
:1014100005E0BDF8260010B10020F2494870BDF883
:101420007E000A2190FBF1F0C2B2104600F03AFDB6
:10143000EE490870BDF87E000A2190FBF1F301FB34
:101440001300C2B2104600F02DFDE8494870BDF807
:1014500080000A2190FBF1F0C2B2104600F022FD9C
:10146000E2498870BDF880000A2190FBF1F301FB8E
:101470001300C2B2104600F015FDDC49C870BDF87B
:1014800082000A2190FBF1F0C2B2104600F00AFD82
:10149000D6490871BDF882000A2190FBF1F301FBE7
:1014A0001300C2B2104600F0FDFCD049487164221E
:1014B0000023CF4903C9FEF79DFF144619460A22AF
:1014C00000232046FEF796FFC6B2304600F0EAFC45
:1014D000C64988710A220023C54903C9FEF78AFF5D
:1014E000D4B2204600F0DEFCC049C871BD4800E01F
:1014F000F0E3407801286ED1BDF8180048B1BA4831
:101500000078401D062190FBF1F201FB1200B64964
:101510000870BDF81C0048B1B3480078401C062193
:1015200090FBF1F201FB1200AF490870BDF82400F6
:10153000B0B3AD48007806284ED2DFE800F0030EC5
:101540001925323EAA48D0E90020AA4BD21840F112
:101550000000A749C1E900203FE0A548D0E90020EC
:10156000A54BD21840F10000A149C1E9002034E0A8
:101570009F48D0E900104EF66022891840F1000023
:101580009B4AC2E9001028E09948D0E9001041F2D6
:101590007073C91840F10000954AC2E900101CE0C0
:1015A0001CE09348D0E900204FF47A73D21840F140
:1015B00000008F49C1E900200FE08D48D0E90010FC
:1015C000643140F100008A4AC2E9001005E09AE364
:1015D00049E236E265E063E000BF00BFBDF81A00F3
:1015E000B0B38148007806284AD2DFE800F0030E45
:1015F0001925323E7E48D0E900107E4A891A60F1F2
:1016000000007B4AC2E900103BE07948D0E90010B5
:10161000794BC91A60F10000754AC2E9001030E048
:101620007348D0E900204EF66021511A60F10000A5
:101630006F4AC2E9001024E06D48D0E9001041F281
:101640007072891A60F10000694AC2E9001018E05E
:1016500018E06748D0E900304FF47A71591A60F108
:101660000000634AC2E900100BE06148D0E9003095
:1016700064229A1A60F100005D49C1E9002000E08F
:1016800000BF00BF5D480068C821B0FBF1F201FB5C
:101690001200642804D220205449534A12788854F6
:1016A00033E3BDF8220030B101204E4948700720D5
:1016B0005349087005E0BDF8260010B100204949E3
:1016C0004870BDF8780042F2107190FBF1F301FB15
:1016D00013004FF47A7190FBF1F0C2B2104600F0A3
:1016E000E1FB42490870BDF878004FF47A7190FB35
:1016F000F1F301FB1300642190FBF1F0C2B210463C
:1017000000F0D0FB39494870BDF87800642190FBA7
:10171000F1F301FB13000A2190FBF1F0C2B2104675
:1017200000F0C0FB31498870BDF878000A2190FBB9
:10173000F1F301FB1300C2B2104600F0B3FB2B49DA
:10174000C870BDF87A00401C642190FBF1F301FBE6
:1017500013000A2190FBF1F0C2B2104600F0A2FB88
:1017600022490871BDF87A00401C0A2190FBF1F370
:1017700001FB1300C2B2104600F094FB1B494871F4
:10178000BDF87C00401C642190FBF1F301FB1300C9
:101790000A2190FBF1F0C2B2104600F083FB13491E
:1017A0008871BDF87C00401C0A2190FBF1F301FB1D
:1017B0001300C2B2104600F075FB0C49C87109480D
:1017C0004078012878D1BDF8180078B300BF0C49E3
:1017D0000978C81DC11700EB5171C91012E0000053
:1017E00000C000402000002024000020270000202E
:1017F0001000002080EE3600407E05001C00002016
:1018000025000020A0EBC101FB4A117010460078B2
:1018100003280BD010460078052807D01046007822
:10182000062803D0104600780728D0D1BDF81C0048
:10183000D8B100BFF0490978481CC11700EB5171BD
:10184000C910A0EBC101EC4A1170104600780328C2
:101850000BD010460078052807D0104600780628DF
:1018600003D0104600780728E4D1BDF8240098B3CF
:10187000E1480078082863D2DFE800F00405060795
:101880002F304C575DE05CE05BE0BDF87A00022849
:1018900004DCBDF8780000F073FB50B9BDF87A00A5
:1018A00002280ADDBDF87810491C88B200F068FBF8
:1018B00018B14FF4B77002E0C2E040F26D10CF49AA
:1018C000484364214843CE4AD2E90032C01842F16D
:1018D0000001CB4A03C234E034E032E0BDF87800C6
:1018E00000F04EFB28B1BDF87A0012A931F81000C3
:1018F00004E0BDF87A0018A931F81000BF49484348
:1019000064214843C117BE4B0CCB80185941BC4AD7
:1019100003C216E0BA48D0E90020BA4BD21840F111
:101920000000B749C1E900200BE0B548D0E900202C
:10193000B549511840F10000B14AC2E9001000E079
:1019400000BF00BFBDF81A0098B3AB480078082864
:1019500066D2DFE800F0040506072F304F5A60E03A
:101960005FE05EE0BDF87A00022804DCBDF8780094
:1019700000F006FB50B9BDF87A00022809DDBDF879
:101980007810491C88B200F0FBFA10B14FF4B77020
:1019900001E040F26D109949484364214143984861
:1019A000D0E90030591A60F10000954AC2E90010F0
:1019B00037E037E035E0BDF8780000F0E1FA28B113
:1019C000BDF87A0012A931F8100004E0BDF87A00E1
:1019D00018A931F810008949484364214143CA17C6
:1019E0008748D0E90030591A60EB0200844AC2E906
:1019F000001016E08248D0E90010824A891A60F18E
:101A000000007F4AC2E900100BE07D48D0E90030B9
:101A10007D49591A60F10000794AC2E9001000E0DE
:101A200000BF00BF79480068C821B0FBF1F201FB9C
:101A30001200642804D2202175486F4A127881541C
:101A400063E1412072490870422048704320887049
:101A50004420C8704520087146204871472088718D
:101A60004820C87151E1BDF8220048B16948C078EA
:101A7000042801D1022000E004206649C8700BE070
:101A8000BDF8260040B16348C078022801D101208A
:101A900000E002205F49C870BDF83A000A2190FBBF
:101AA000F1F0C2B2104600F0FDF959490870BDF8D6
:101AB0003A000A2190FBF1F301FB1300C2B2104679
:101AC00000F0F0F952494870BDF83C000A2190FB43
:101AD000F1F0C2B2104600F0E5F94D498870BDF84A
:101AE0003C000A2190FBF1F301FB1300C2B2104647
:101AF00000F0D8F94649C870BDF83E000A2190FBB5
:101B0000F1F0C2B2104600F0CDF941490871BDF8BC
:101B10003E000A2190FBF1F301FB1300C2B2104614
:101B200000F0C0F93A4948713B4800686421B0FBB5
:101B3000F1F301FB13000A21B0FBF1F2104600F0B3
:101B4000B1F933498871344800680A21B0FBF1F3D8
:101B500001FB1302104600F0A5F92D49C8712D486C
:101B6000C078032816D129480068C821B0FBF1F2DB
:101B700001FB120064280DD24FF0000807E020207E
:101B8000234901F8080008F1010000F0FF08B8F14E
:101B9000080FF4DB1F48C07804287CD1BDF818007A
:101BA00048B11E480078401D062190FBF1F201FB70
:101BB00012001A490870BDF81C0048B11748007897
:101BC000401C062190FBF1F201FB12001349087042
:101BD000BDF8240078B111480078062846D2DFE825
:101BE00000F003212830383F0B4800680C490844B6
:101BF000094908603BE03BE02500002080510100DE
:101C000010000020005C260500D683001C00002088
:101C100027000020200000201800002026000020BF
:101C200080EE36004A4800684A490844484908603E
:101C30001DE0474800684EF66021084444490860AA
:101C400015E04348006841F270710844404908605B
:101C50000DE03F48006800F57A703D49086006E0F5
:101C60003B48006864303A49086000E000BF00BFAC
:101C7000BDF81A0078B338480078062832D2DFE879
:101C800000F0030B121A222B314800683349401A26
:101C90002F49086027E035E02D4800682D49401A9B
:101CA0002B4908601FE02A480068A0F56A406038A8
:101CB0002749086017E026480068A0F5B85070383A
:101CC000234908600FE022480068A0F57A70204997
:101CD000086008E018E007E01D48006864381C4907
:101CE000086000E000BF00BF1D480068C821B0FBCD
:101CF000F1F201FB1200642804D220211948164A8F
:101D00001278815401E000E000BF00BF4FF00008EE
:101D10000FE0144911F8080000F0EAF8124901F840
:101D2000080020200F4901F8080008F1010000F028
:101D3000FF08B8F1080FECDBB9F1000F04D0032263
:101D40000AA15046FEF7D7FB21B0BDE8F08F000096
:101D500018000020407E05002600002080EE36009E
:101D60001C00002027000020B000002073657400D4
:101D70000448006840F470000249086002480349C2
:101D80000860704788ED00E00024F4003C0000206B
:101D900010B501210F4800F071F8044621460D48A6
:101DA00000F066F80AE00B4800F018F80A49896E5E
:101DB00008700948806E401C07498866054800F095
:101DC0001BF80028EFD10449896E08700249A1F878
:101DD0006C0010BD00C0004040000020816911F07F
:101DE000100F0CBF00684FF0FF307047826912F08F
:101DF000200FFBD1016070478069012121EA10109A
:101E00007047D0F818C01CF0080FFAD1D0F82CC0D9
:101E10002CF0100CC0F82CC0D0F830C02CF0010C05
:101E20002CF4407CC0F830C0D0F830C0B1EB021FB9
:101E300034BF4CF0200C2CF0200CC0F830C038BF60
:101E40005208C900B1FBF2F1491C49088A094262F3
:101E500001F03F018162C36200218161C16A41F0EA
:101E60001001C162016B40F20132114301637047FE
:101E700041647047826B114381637047002914BF2E
:101E8000006CC06B7047000010B5044604E014F805
:101E9000011B0348FFF7AAFF20780028F7D110BDE7
:101EA00000C000400146002905DB092903DC01F1DF
:101EB0003000C0B2704701F16100C0B2FAE770B5FE
:101EC00004460D462A4605212220FEF731FD012059
:101ED000A040C2B206212220FEF72AFD4FF47A600C
:101EE000FEF7C3FB002206212220FEF721FD70BD74
:101EF00030B597B004462C220BA10CA8FEF746FB88
:101F00002C2214A101A8FEF741FB21460CA8FEF7E4
:101F1000E8FA05462DB10CA8281A01A9085C17B0EB
:101F200030BD0020FBE70000303132333435363726
:101F30003839416242436444454647484A4B4C4D18
:101F40004E506F4F5152545355565758595A2E2D83
:101F50005F2000003F065B4F666D7D077F6F777CDB
:101F60007C395E5E79713D760D72385554735C5CD8
:101F70006F50786D3E1C6A1D6E498040080000005D
:101F800001460A46C81701EB90708010A1EB800053
:101F900070B9642091FBF0F300FB131030B94FF4DB
:101FA000C87091FBF0F300FB131008B901207047D3
:101FB0000020FCE70024FF25194943F65050FEF7A6
:101FC00047FE184908601848057040F286701649A7
:101FD000A1F86C00881C8866FEF770FDFEF798FD7E
:101FE000FEF7FEFDFEF7E0FD18E0002406E00F48D6
:101FF000015D2046FFF763FF601CC4B2082CF6DBCE
:1020000000212220FEF754FC05460DB1064805705C
:1020100003210748FEF702FC03494870E5E700008A
:102020000024F4000000002040000020B000002048
:1020300000D003404FF04070E1EE100A70470000FE
:102040001F001C001F001E001F001E001F001F009D
:102050001E001F001E001F001F001D001F001E008D
:102060001F001E001F001F001E001F001E001F007B
:1020700000400040100000000080054010000000FB
:1020800000500040110000000090054011000000C9
:10209000006000401200000000A005401200000097
:1020A000007000401300000000B005401300000065
:1020B000004002401400000000C005401400000071
:1020C000005002402E00000000D005402E0000000D
:1020D000006002402F00000000E005402F000000DB
:1020E000007002403000000000F0054030000000A9
:1020F00000D00340460000000000064046000000FB
:102100000010064047000000002006404800000084
:10211000003006407F0000000040064080000000C4
:102120000050064084000000006006408C00000063
:10213000004000401000000000800540100000003A
:102140000050004011000000009005401100000008
:10215000006000401200000000A0054012000000D6
:10216000007000401300000000B0054013000000A4
:10217000004002401400000000C0054014000000B0
:10218000005002402E00000000D005402E0000004C
:10219000006002402F00000000E005402F0000001A
:1021A000007002403000000000F0054030000000E8
:1021B00000D0034043000000000006404300000040
:1021C00000100640440000000020064045000000CA
:1021D0000030064058000000004006405900000052
:1021E000005006405C0000000060064064000000F3
:1021F000007006406C000000008006406D0000008A
:10220000009006407F000000004000400080054034
:1022100000500040009005400060004000A00540D4
:102220000070004000B005400040024000C0054082
:102230000050024000D005400060024000E0054030
:102240000070024000F0054000D00340000006404E
:102250000010064000100640002006400020064006
:102260000030064000300640004006400040064076
:1022700000500640005006400060064000600640E6
:102280000070064000700640008006400080064056
:102290000090064000900640000700000006000085
:1022A0000005000000040000000300000002000020
:1022B00000010000000000000000000018ED00E038
:1022C0001CED00E020ED00E000E400E004E400E0AC
:1022D00008E400E00CE400E010E400E014E400E0B6
:1022E00018E400E01CE400E020E400E024E400E066
:1022F00028E400E02CE400E030E400E034E400E016
:1023000038E400E03CE400E040E400E044E400E0C5
:1023100048E400E04CE400E050E400E054E400E075
:1023200058E400E05CE400E060E400E064E400E025
:1023300068E400E06CE400E070E400E074E400E0D5
:1023400078E400E07CE400E080E400E084E400E085
:1023500088E400E000E100E004E100E008E100E0E2
:102360000CE100E010E100E080E100E084E100E049
:1023700088E100E08CE100E090E100E000E200E0B4
:1023800004E200E008E200E00CE200E010E200E01D
:1023900080E200E084E200E088E200E08CE200E01D
:1023A00090E200E000688909001C4E0E40420F00D8
:1023B00000201C0080841E0000802500999E3600AD
:1023C0000040380000093D0000803E0000004B0046
:1023D000404B4C0000204E00808D5B0000C05D0033
:1023E0000080700000127A0000007D008096980046
:1023F000001BB7000080BB00C0E8CE00647ADA00A2
:102400000024F4000000FA0080A81201002D310120
:1024100000366E0140787D014000000000000000A1
:10242000000100003E000800000000000001000064
:10243000A000000002000000000100003454010070
:1024400000000000000100002B70060000000000EA
:102450000001000028000000000000000001000052
:102460002700010000000000000100002000000023
:102470000000000000010000500000000200000009
:10248000000100001AAC0000000000000001000084
:1024900017940900000000000001000016980500D4
:1024A0000000000000010000140000000000000017
:1024B000000100001380080000000000000100007F
:1024C000A000000008000000000100001000000053
:1024D00000000000000100002800000002000000D1
:1024E00000010000400000000400000000010000A6
:1024F0006000000000000000000100005D000C0012
:10250000000000000001000050000000000000007A
:10251000000100004E000200000000000001000069
:1025200041AC010000000000000100003C00000080
:1025300000000000000100003A80090000000000D7
:102540000001000030000000000000000001000059
:10255000280000000000000000010000270001002A
:1025600000000000000100002360060000000000E1
:1025700000010000216008000000000000010000D0
:102580001E00000000000000000100001DC004004B
:1025900000000000000100005000000002000000E8
:1025A0000001000018000000000000000001000011
:1025B00014000000000000000001000060000000A6
:1025C00004000000000100000024F400300030008E
:1025D000005A62029100910000879303D200D2005A
:1025E00000B4C4041301130100E1F50554015401C2
:1025F000000E270795019501182600000000002015
:10260000400000003C02000058260000400000206E
:10261000E00200005802000000000000000000007E
:10262000000000000000000080966CCA2500000039
:102630000000000000000000000000020000000098
:10264000000000000000000000000000000000008A
:08265000000000000024F4006A
:0400000500000201F4
:00000001FF
