:020000040000FA
:1000000010030020C9020000D1020000D30200004A
:10001000D5020000D7020000D90200000000000055
:10002000000000000000000000000000DB020000F3
:10003000DD02000000000000DF020000210F0000D0
:10004000E3020000E5020000E7020000E902000010
:10005000EB02000055190000EF020000F102000061
:10006000F3020000F5020000F7020000F9020000B0
:10007000FB020000FD020000FF020000010300007F
:10008000030300000503000007030000090300004C
:100090000B0300000D0300000F030000110300001C
:1000A00013030000150300001703000019030000EC
:1000B0001B0300001D0300001F03000021030000BC
:1000C000230300002503000027030000290300008C
:1000D0002B0300002D0300002F030000310300005C
:1000E000330300003503000037030000390300002C
:1000F0003B0300003D0300003F03000041030000FC
:1001000043030000450300004703000049030000CB
:100110004B0300004D0300004F030000510300009B
:10012000530300005503000057030000590300006B
:100130005B0300005D0300005F030000610300003B
:1001400063030000650300006703000081030000F3
:100150000000000000000000830300008503000091
:100160008703000089030000000000008B030000EB
:100170008D0300008F030000910300009303000033
:100180009503000097030000990300009B03000003
:100190009D0300009F030000A1030000A3030000D3
:1001A000A5030000A7030000A9030000AB030000A3
:1001B000AD030000AF030000B1030000B303000073
:1001C000B5030000B7030000B9030000BB03000043
:1001D000BD030000BF030000C1030000C303000013
:1001E000C5030000C7030000C9030000CB030000E3
:1001F000CD030000CF030000D1030000D3030000B3
:1002000000F002F800F03CF80AA090E8000C8244EC
:100210008344AAF10107DA4501D100F031F8AFF2C9
:10022000090EBAE80F0013F0010F18BFFB1A43F0D4
:10023000010318472C1F00004C1F0000103A24BF78
:1002400078C878C1FAD8520724BF30C830C144BF3B
:1002500004680C607047000000230024002500267D
:10026000103A28BF78C1FBD8520728BF30C148BF19
:100270000B6070471FB501F091FC1FBD10B510BD9C
:1002800000F06EF91146FFF7F5FF01F04FFC00F0AA
:100290008CF903B4FFF7F2FF03BC00F093F9000000
:1002A000EFF3108072B67047EFF310807047EFF3F2
:1002B000108062B6704730BF704780F31188704776
:1002C000EFF31180704700004548804745480047DC
:1002D000FEE7FEE7FEE7FEE7FEE7FEE7FEE7FEE7F6
:1002E000FEE7FEE7FEE7FEE7FEE7FEE7FEE7FEE7E6
:1002F000FEE7FEE7FEE7FEE7FEE7FEE7FEE7FEE7D6
:10030000FEE7FEE7FEE7FEE7FEE7FEE7FEE7FEE7C5
:10031000FEE7FEE7FEE7FEE7FEE7FEE7FEE7FEE7B5
:10032000FEE7FEE7FEE7FEE7FEE7FEE7FEE7FEE7A5
:10033000FEE7FEE7FEE7FEE7FEE7FEE7FEE7FEE795
:10034000FEE7FEE7FEE7FEE7FEE7FEE7FEE7FEE785
:10035000FEE7FEE7FEE7FEE7FEE7FEE7FEE7FEE775
:10036000FEE7FEE7FEE7FEE7FEE7FEE7FEE7FEE765
:10037000FEE7FEE7FEE7FEE7FEE7FEE7FEE7FEE755
:10038000FEE7FEE7FEE7FEE7FEE7FEE7FEE7FEE745
:10039000FEE7FEE7FEE7FEE7FEE7FEE7FEE7FEE735
:1003A000FEE7FEE7FEE7FEE7FEE7FEE7FEE7FEE725
:1003B000FEE7FEE7FEE7FEE7FEE7FEE7FEE7FEE715
:1003C000FEE7FEE7FEE7FEE7FEE7FEE7FEE7FEE705
:1003D000FEE7FEE704480549034A054B7047000065
:1003E0003519000001020000100100201003002058
:1003F0001001002053EA020C00F069802DE9F04B57
:100400004FF00006002B1FBFB3FA83F503FA05F483
:1004100024FA05F65E4012BF1643B2FA82F502FADC
:1004200005F4C5F120051EBF22FA05FC44EA0C04C0
:10043000203556EA044C4FEA144418BF641C4FF0B0
:1004400000084FF00009904271EB030C39D30029EA
:1004500019BFB1FA81F701FA07F6B0FA80F700FA8E
:1004600007F6C7F120071EBF20FA07FC46EA0C0674
:100470002037B6FBF4FCA7EB0507103F07F01F0B76
:10048000CBF120060CFA0BFB2CFA06F644BFB34660
:100490000026202FA4BF5E464FF0000B5BEA060C3F
:1004A00008BF4FF0010B19EB0B09ABFB027C48EBCB
:1004B0000608C01B06FB02CC0BFB03CC71EB0C0146
:1004C000C1E70B46024641464846BDE8F08B13B5EE
:1004D0004FF000004FF00001AFF30080BDE81C407A
:1004E0007047401ECAB210F8011F8A4202D000298C
:1004F000F9D10020704710B5203AC0F00B80B1E868
:100500001850203AA0E81850B1E81850A0E8185048
:10051000BFF4F5AF5FEA027C24BFB1E81850A0E851
:10052000185044BF18C918C0BDE810405FEA827C6B
:1005300024BF51F8043B40F8043B08BF7047D20782
:1005400028BF31F8023B48BF11F8012B28BF20F823
:10055000023B48BF00F8012B704770477047704757
:10056000754600F02BF8AE4605006946534620F06C
:100570000700854618B020B5FFF72CFFBDE82040E6
:100580004FF000064FF000074FF000084FF0000B4F
:1005900021F00701AC46ACE8C009ACE8C009ACE802
:1005A000C009ACE8C0098D46704710B50446AFF3EA
:1005B00000802046BDE81040FFF76BBE0048704742
:1005C000B000002001491820ABBEFEE72600020063
:1005D0007047002100E0491C8142FCD37047D0F8ED
:1005E000003412F0010F14BF0B438B43C0F80034EA
:1005F00012F0020FD0F8202414BF114322EA0101A7
:10060000C0F8201470472DE9F00301264FF0000CCC
:100610000325C2F3411706FA0CF40C4211D0D0F8AE
:10062000C48F4FEA4C0405FA04F928EA0908C0F817
:10063000C48FD0F8C48F07FA04F448EA0404C0F861
:10064000C44F0CF1010C0CF0FF0CBCF1080FE2D30D
:10065000D0F800C512F0010F14BF4CEA010C2CEACF
:10066000010CC0F800C5D0F804C512F0020F14BF89
:100670004CEA010C2CEA010CC0F804C5D0F808C5FE
:1006800012F0040F14BF4CEA010C2CEA010CC0F864
:1006900008C5D0F818C512F0080F14BF4CEA010CB9
:1006A0002CEA010CC0F818C512F0100FD0F83C2548
:1006B00014BF0A438A43C0F83C25D0F80C2513F038
:1006C000010F14BF0A438A43C0F80C25D0F8102547
:1006D00013F0020F14BF0A438A43C0F81025D0F864
:1006E000142513F0040F14BF0A438A43C0F81425DD
:1006F000D0F81C2513F0080F14BF0A438A43C0F832
:100700001C25D0F8442513F4007F14BF0A438A4304
:10071000C0F84425D0F8402513F4407F14BF0A43A5
:100720008A43C0F84025D0F82825002B0CBF114380
:1007300022EA0101C0F82815BDE8F0037047000067
:100740000E4AC0F30741D26E01238B401A420C4A75
:100750001ABF02EBC101496852F83110020AD1F800
:100760002C354FF00F0C0CFA02FC00F00F0023EABE
:100770000C0390401843C1F82C05704700E00F406F
:10078000701D000050F82100704730B50C4605463A
:100790000022FFF724FF21462846BDE83040082309
:1007A0000122FFF730BF30B50C4605460823012271
:1007B000FFF729FF21462846BDE830400122FFF718
:1007C0000EBF30B50C4605460222FFF708FF214652
:1007D0002846BDE8304009230122FFF714BF30B599
:1007E0000C4605460222FFF7FAFE21462846BDE8E0
:1007F000304008230122FFF706BF30B50C460546FE
:100800000222FFF7ECFE21462846BDE830400823CF
:100810000122FFF7F8BE00002DE9F04104460E4624
:1008200000BF1C4800F078F80028FAD100222146C9
:10083000184800F0B9F83146164800F077F807215B
:10084000144800F06FF800BF124800F05FF800286D
:10085000FAD1104800F071F8C7B20120FFF7B9FED5
:10086000012221460B4800F09FF80721094800F0BB
:1008700059F800BF074800F049F80028FAD10548A8
:1008800000F052F8C5B20120FFF7A3FE2846BDE8EC
:10089000F0810000000002402DE9F04104460F46BF
:1008A000154600BF184800F037F80028FAD100229A
:1008B0002146154800F078F83946134800F036F81C
:1008C0000321114800F02EF800BF0F4800F024F873
:1008D0000028FAD10C4800F030F8C6B229460A4880
:1008E00000F024F80521084800F01CF800BF064875
:1008F00000F012F80028FAD1034800F01EF8C6B242
:100900003046BDE8F081000000000240406810F071
:10091000400018BF01207047406810F0010018BF68
:100920000120704741607047806870478160704760
:10093000016A41F0100101627047406810F0010F38
:1009400005D110F0120F1CBF00F01C0070470020F2
:1009500070470000036A43F010030362002A14BFCB
:100960000E4A0F4A02EB820301EB830302EB820281
:1009700092005B1EB3FBF2F2521EC260D0F8C02F91
:1009800012F0010F08BF7047064A1144521CB1FB18
:10099000F2F1491E41F08001C1607047801A0600E3
:1009A000A08601007F47370142EA4101016070479C
:1009B0001649042804BF086840F4803018D0052880
:1009C00004BF086840F4003012D0062812D00F2867
:1009D00015D0102838BF7047103800F01F010122D1
:1009E00002FA01F142090A4850F8220001607047FA
:1009F00008607047086840F48020086070474FF036
:100A0000E020016941F002010161704724ED00E03E
:100A1000BC1E000010B5FFF74AFC002818BF0120DB
:100A200010BD000010B5114800F03CFA00BF0F489F
:100A300000F04CFA0028FAD00C48C01C00F032FA42
:100A400000BF0A48C01C00F041FA0028F9D001217B
:100A50000748FFF7A8FE03210648FFF796FE0A2382
:100A6000012203210348FFF7CEFD10BD050800F069
:100A70000050024000D0034010B51E4800F012FAAA
:100A80001D4800F00FFA1D48FFF75AFE1C48FFF7FB
:100A900057FE04211B48FFF7A2FE08211948FFF763
:100AA00090FE0122184801681848FFF753FF1748C5
:100AB000FFF73EFFFF220C212220FFF7EDFE044648
:100AC00000220D212220FFF7E7FE044600220E211E
:100AD0002220FFF7E1FE0446002203211820FFF741
:100AE000DBFE0446FF2201211820FFF7D5FE044655
:100AF00010BD0000002000F0010800F00208010015
:100B0000020C0100005000400000002000000240E4
:100B100010B50B4800684FF47A71B0FBF1F4204631
:100B200000F0F8F900F0E8F900F0EDF9502105487F
:100B300000F05DFF1520FFF73BFFFFF76BFF10BDD7
:100B40000000002000C0004010B5124800F0AAF9D3
:100B5000114800F0A7F900BF0F4800F0B7F90028CE
:100B6000FAD00120FFF7ECFD40F20140FFF7E8FD6D
:100B700003214FF04020FFF740FE60234FF4E132A5
:100B800006480168064800F0F9FE06A000F038FFAC
:100B900010BD0000001800F0000800F00000002068
:100BA00000C000400D0A48656C6C6F2C20776F7296
:100BB0006C64210D0A0000002DE9F003AF4D0246E0
:100BC0002868AF4B1840A0F18053B3F5A02359D04B
:100BD00002F03809DFF8AC82C2F38414B9F1100FC7
:100BE00025D0B9F1300F04BF47F230504FF4001355
:100BF0000DD04FF03800904304BF4FF40040C301C4
:100C000005D012F0380F1CBF0020034613D09E4FB2
:100C100012F4605F4FF0000618BF00222CD057F886
:100C2000324044457DD307EBC2025268E1E0002325
:100C300040461524EBE7A4F10900122822D293487C
:100C4000D5F87CC04FF04C7350F824002CF01C0CED
:100C5000072CA8BF4CF0100CC5F87CC02E6D4FF4CB
:100C6000002C16F4807FD2D1BCF1010C0AD02E6D7D
:100C700016F4807FF8D0CAE712F0380F18BFB9F128
:100C8000100F04D0BDE8F0034FF000007047C2F32E
:100C90000268DFF8FCC14FF0000257F83290E145DE
:100CA00003D307EBC202526803E0521C062AF4D3B6
:100CB0003246C5F8C020D5F8B020DFF8D8C102EA26
:100CC0000C0242F00042C5F8B020DFF8CCC1A4F11C
:100CD00009024C1E5CF828C0A444BCFBF1FCD5F80A
:100CE000B0101943C5F8B01008EBC80101EB41047E
:100CF0006A4902EB420201EBC40101EB8204646821
:100D0000C5F86441D5F864416FF0FF0808EB0C2C7E
:100D100044EA0C0CC5F864C151F82210D5F86021E2
:100D200000E061E002F400021143C5F86011D5F85B
:100D30006011D5F86021C1F38921C2F30904D5F807
:100D40006421C2F3042202F1010CD5F8642102F0FF
:100D50001F02521CB0FBF2F04A09C2F100084443E2
:100D6000424301EB481104EB5212484302EB90203E
:100D7000B0FBFCF041080846002257F832C0844519
:100D800003D307EBC200466802E0521C062AF4D3E4
:100D9000C5F8C060D5F8600110F4000F1DBFD5F88C
:100DA000B00040F08040C5F8B000D5F8600104BF45
:100DB00040F40000C5F860014FF40040D5F8682108
:100DC00012F0010F02D1401E0028F7DC002808BFF6
:100DD000002148D0D5F8B000184340F0010040F0A1
:100DE0001040C5F8B0003EE0521C062AFFF417AFD1
:100DF0003246C5F8C020D5F8602122F40002C5F8BB
:100E00006021D5F8B020DFF898C002EA0C0242F069
:100E10000042C5F8B020002908BF4FF0000C0AD0EE
:100E2000B0FBF1FCBCF1000F18BFACF1010C0CF1F0
:100E30000101B0FBF1F10846002257F8324084422C
:100E400003D307EBC200466802E0521C062AF4D323
:100E5000C5F8C060D5F8B00043EA8C22104340F0DA
:100E60000040C5F8B000D5F8B00020F47000C5F817
:100E7000B000BDE8F00308467047000000E00F40F6
:100E80000000FF700024F40030210000141F000057
:100E900040787D0100FC0FE00C1F0000801F000067
:100EA000FF0300EFC0F307230749C0B2194401F064
:100EB0007043C1F3130143EA411141EA800040F05D
:100EC000007001220260704700E60F40C0F3072265
:100ED0000849C0B2114401F07042C1F3130142EA63
:100EE000411141EA800040F000700068002818BFFE
:100EF0000120704700EA0F404FF0E020016941F007
:100F00000501016170474FF0E020016941F00201E5
:100F1000016170474FF0E021401E486170470000BA
:100F20002DE9F0479CB04FF000081822FE4913A8A5
:100F3000FFF7E1FA1822FC4918310DA8FFF7DBFA98
:100F400040F26D194FF4B77A00200B900C900A9084
:100F500006900790089009900290039004900590E5
:100F600001900090F1480068401CF0490860084674
:100F700000683221B0FBF1F201FB120000287BD1A6
:100F800000BF38E0EA480078C04340FA08F000F0BB
:100F900001000BA901F808000BA810F8080028B1FF
:100FA000E44810F8080008B9012000E0002006A974
:100FB00021F81800DD4800684FF4FA71B0FBF1F237
:100FC00001FB120048B90BA810F8080028B1D94855
:100FD00010F8080008B1012000E0002002A921F863
:100FE00018000BA810F80800D24901F8080008F111
:100FF000010000F0FF08B8F1080FC3DB4FF0000854
:1010000037E0CB484078C04340FA08F000F00100D8
:101010000AA901F808000AA810F8080028B1C64873
:1010200010F8080008B9012000E0002001A921F80B
:101030001800BE4800684FF4FA71B0FBF1F201FBF2
:10104000120048B90AA810F8080028B1BA4810F8E8
:10105000080008B1012000E000202DF818000AA8BF
:1010600010F80800B44901F8080008F1010000F088
:10107000FF08B8F1020FC4DBB048407880B9AB4834
:1010800000680A21B0FBF1F201FB120040B9AC4844
:10109000D0E90020511C40F10000A94AC2E900102B
:1010A00064220023A64903C9FFF7A4F904463C22A1
:1010B0000023FFF79FF990B2ADF86E006422002381
:1010C0009F4903C9FFF796F906464FF46162002372
:1010D000FFF790F9144619463C2200232046FFF7FB
:1010E00089F980B2ADF86C0064220023944903C9E9
:1010F000FFF780F90446934A0023FFF77BF9164671
:1011000019464FF4616200233046FFF773F9083047
:1011100080B2ADF86A004FF064024FF000038849D6
:1011200003C9FFF767F90446864A0023FFF762F90F
:1011300080B2ADF86800BDF86A0018280BDBBDF876
:101140006A00183880B2ADF86A00BDF86800401C2B
:1011500080B2ADF8680040F2B270ADF864000020D3
:10116000ADF8660015E0BDF8640000F0C5FC10B1F4
:101170004FF4B77001E040F26D10BDF86810081A26
:1011800080B2ADF86800BDF86400401C80B2ADF8D4
:101190006400BDF8640000F0AFFC10B14FF4B7700C
:1011A00001E040F26D10BDF868108842DBDD1BE005
:1011B000BDF8640000F0A0FC28B1BDF866000DA9E0
:1011C00031F8100004E0BDF8660013A931F81000F2
:1011D000BDF86810081A80B2ADF86800BDF8660066
:1011E000401C80B2ADF86600BDF8640000F084FCDD
:1011F00028B1BDF866000DA931F8100004E0BDF873
:10120000660013A931F81000BDF868108842CFDDE0
:10121000BDF86600401C80B2ADF86600BDF86800FD
:10122000401C80B2ADF86800BDF8040048B14348E6
:101230000078801C032190FBF1F201FB12003F4972
:101240000870BDF8060048B13C480078401C0321F6
:1012500090FBF1F201FB1200384908703748007822
:10126000002873D0012872D0022871D1BDF8220065
:1012700018B101203149487005E0BDF8260010B1D1
:1012800000202E494870BDF86A000A2190FBF1F059
:10129000C2B2104600F0C2FB2B490870BDF86A00CC
:1012A0000A2190FBF1F301FB1300C2B2104600F0DB
:1012B000B5FB25494870BDF86C000A2190FBF1F0A0
:1012C000C2B2104600F0AAFB1F498870BDF86C003E
:1012D0000A2190FBF1F301FB1300C2B2104600F0AB
:1012E0009DFB1949C870BDF86E000A2190FBF1F012
:1012F000C2B2104600F092FB13490871BDF86E00AF
:101300000A2190FBF1F301FB1300C2B2104600F07A
:1013100085FB0D49487164220023094903C9FFF781
:1013200069F81446194614E0A81B000018000020B4
:101330003800002029000020310000201C0000207F
:10134000100000208051010021000020ECE0B7E2F5
:10135000C8E20A2200232046FFF74CF8C6B2304606
:1013600000F05CFBF74988710A220023F64903C9A3
:10137000FFF740F8D4B2204600F050FBF149C871A5
:10138000F2484078012873D1BDF8180048B1F04800
:101390000078401D062190FBF1F201FB1200EC49A0
:1013A0000870BDF81C0048B1E9480078401C0621CF
:1013B00090FBF1F201FB1200E5490870BDF8240032
:1013C000A8B3E3480078062848D2DFE800F0030E0F
:1013D0001924313DDC48D0E90010DE4A891840F17B
:1013E0000000D94AC2E9001039E0D748D0E900101E
:1013F000D94BC91840F10000D34AC2E900102EE0D1
:10140000D1494EF66022D1E90040A21840F1000017
:10141000C1E9002023E0CC48D0E9003041F27072ED
:101420009A1840F10000C849C1E9002017E017E010
:10143000C548D0E900104FF47A73C91840F1000094
:10144000C14AC2E900100AE0BF48D0E90010643187
:1014500040F10000BC4AC2E9001000E000BF00BF3C
:10146000BDF81A00C0B3BA48007806284BD200E095
:1014700059E0DFE800F0030E1925323EB248D0E90A
:101480000010B44A891A60F10000AF4AC2E90010A6
:101490003AE0AD48D0E90020AF4BD21A60F100002D
:1014A000A949C1E900202FE0A748D0E900204EF665
:1014B0006023D21A60F10000A349C1E9002023E0B3
:1014C000A148D0E9002041F27073D21A60F1000007
:1014D0009D49C1E9002017E017E09B48D0E90020B2
:1014E0004FF47A73D21A60F100009749C1E90020E5
:1014F0000AE09548D0E90010643960F10000924A92
:10150000C2E9001000E000BF00BF94480068C82195
:10151000B0FBF1F201FB1200642804D220208949BB
:101520008B4A12788854DEE1BDF8220018B1012000
:101530008649487005E0BDF8260010B100208349B7
:101540004870BDF8640042F2107190FBF1F301FBAA
:1015500013004FF47A7190FBF1F0C2B2104600F024
:101560005DFA78490870BDF864004FF47A7190FB19
:10157000F1F301FB1300642190FBF1F0C2B21046BD
:1015800000F04CFA6F494870BDF86400642190FB8C
:10159000F1F301FB13000A2190FBF1F0C2B21046F7
:1015A00000F03CFA67498870BDF864000A2190FB9E
:1015B000F1F301FB1300C2B2104600F02FFA6149AB
:1015C000C870BDF86600642190FBF1F301FB1300C5
:1015D0000A2190FBF1F0C2B2104600F01FFA5949FF
:1015E0000871BDF866000A2190FBF1F301FB1300BE
:1015F000C2B2104600F012FA52494871BDF86800B4
:10160000642190FBF1F301FB13000A2190FBF1F040
:10161000C2B2104600F002FA4A498871BDF868006B
:101620000A2190FBF1F301FB1300C2B2104600F057
:10163000F5F94449C87145484078012872D1BDF890
:101640001800D8B100BF46490978C81DC11700EB82
:101650005171C910A0EBC101414A117010460078C8
:101660000328F0D0104600780528ECD0104600780A
:101670000628E8D0104600780728E4D0BDF81C0002
:10168000D8B100BF36490978481CC11700EB517129
:10169000C910A0EBC101324A11701046007803282E
:1016A000F0D0104600780528ECD0104600780628C7
:1016B000E8D0104600780728E4D0BDF8240090B3A5
:1016C00027480078082878D2DFE800F004050607EC
:1016D0002E2F606B72E071E070E0BDF866000228AA
:1016E00004DCBDF8640000F007FA50B9BDF86600EC
:1016F000022809DDBDF86410491C88B200F0FCF92D
:1017000010B14FF4B77001E040F26D101549484335
:10171000642148430C4B0CCB801843F100010A4A6A
:1017200003C24BE0CBE04AE048E0BDF8640000F0C3
:10173000E3F9C8B1BDF86600401E0DA931F81000EC
:1017400018E0000021000020100000201C000020F4
:101750001F00002080EE3600407E050018000020AB
:101760002000002080510100BDF86600401E13A932
:1017700031F810006749484364214843C117664B5C
:101780000CCB80185941644A03C217E06248D0E983
:101790000020624BD21840F100005F49C1E90020EF
:1017A0000CE05D48D0E900205D4BD21840F100000C
:1017B0005949C1E9002001E0FFE700BF00BFBDF8C3
:1017C0001A0098B357480078082868D2DFE800F07C
:1017D000040506072F30515C62E061E060E0BDF86F
:1017E0006600022804DCBDF8640000F085F950B9F9
:1017F000BDF86600022809DDBDF86410491C88B2F6
:1018000000F07AF910B14FF4B77001E040F26D10BA
:1018100040494843642141433F48D0E90030591AC8
:1018200060F100003C4AC2E9001039E039E037E0DD
:10183000BDF8640000F060F930B1BDF86600401EEC
:101840000DA931F8100005E0BDF86600401E13A98F
:1018500031F810002F49484364214143CA172E48EC
:10186000D0E90030591A60EB02002B4AC2E900109F
:1018700016E02948D0E90010284A891A60F10000D2
:10188000254AC2E900100BE02348D0E90020244B90
:10189000D21A60F100002049C1E9002000E000BF39
:1018A00000BF21480068C821B0FBF1F201FB120023
:1018B000642804D220201D491A4A1278885412E064
:1018C00041201A4908704220487043208870442003
:1018D000C87045200871462048714720887148200B
:1018E000C87100BF00BF00BF4FF000080BE00F49F8
:1018F00011F8080000F0B8F80D4901F8080008F1E7
:10190000010000F0FF08B8F1080FF0DB1CB0BDE8E3
:10191000F08700008051010010000020005C2605C7
:1019200000D68300200000201800002021000020A5
:10193000A40000200448006840F4700002490860D8
:10194000024803490860704788ED00E00024F40075
:101950003400002010B50121044800F04CF8044682
:101960002146024800F041F810BD000000C00040D0
:10197000826912F0200FFBD101607047D0F818C0C7
:101980001CF0080FFAD1D0F82CC02CF0100CC0F8C5
:101990002CC0D0F830C02CF0010C2CF4407CC0F8E6
:1019A00030C0D0F830C0B1EB021F34BF4CF0200C77
:1019B0002CF0200CC0F830C038BF5208C900B1FB71
:1019C000F2F1491C49088A09426201F03F01816233
:1019D000C36200218161C16A41F01001C162016BE3
:1019E00040F2013211430163704741647047826BDA
:1019F000114381637047002914BF006CC06B7047AE
:101A000010B5044604E014F8011B0348FFF7B0FFCB
:101A100020780028F7D110BD00C000400146002901
:101A200005DB092903DC01F13000C0B2704701F188
:101A30006100C0B2FAE770B504460D462A4605219A
:101A40002220FEF729FF0120A040C2B20621222059
:101A5000FEF722FF4FF47A60FEF7BBFD002206215D
:101A60002220FEF719FF70BD30B597B004462C2236
:101A70000BA10CA8FEF73FFD2C2214A101A8FEF734
:101A80003AFD21460CA8FEF72CFD05462DB10CA809
:101A9000281A01A9085C17B030BD0020FBE7000040
:101AA0003031323334353637383941624243644459
:101AB000454647484A4B4C4D4E506F4F5152545338
:101AC00055565758595A2E2D5F2000003F065B4F40
:101AD000666D7D077F6F777C7C395E5E79713D76C0
:101AE0000D72385554735C5C6F50786D3E1C6A1DE6
:101AF0006E4980400800000001460A46C81701EB05
:101B000090708010A1EB800070B9642091FBF0F31D
:101B100000FB131030B94FF4C87091FBF0F300FBD9
:101B2000131008B9012070470020FCE70024FF25AE
:101B3000154943F65050FFF73FF814490860144820
:101B40000570FEF76FFFFEF797FFFEF7FDFFFEF74C
:101B5000DFFF18E0002406E00E48015D2046FFF795
:101B60006AFF601CC4B2082CF6DB00212220FEF7BD
:101B700053FE05460DB10648057003210648FEF7E1
:101B800001FE03494870E5E70024F400000000204E
:101B900038000020A400002000D003404FF0407027
:101BA000E1EE100A704700001F001C001F001E001D
:101BB0001F001E001F001F001E001F001E001F0030
:101BC0001F001D001F001E001F001E001F001F0021
:101BD0001E001F001E001F000040004010000000FB
:101BE000008005401000000000500040110000007F
:101BF000009005401100000000600040120000004D
:101C000000A005401200000000700040130000001A
:101C100000B0054013000000004002401400000026
:101C200000C0054014000000005002402E000000DB
:101C300000D005402E000000006002402F00000090
:101C400000E005402F00000000700240300000005E
:101C500000F005403000000000D0034046000000C6
:101C6000000006404600000000100640470000004B
:101C70000020064048000000003006407F000000C1
:101C80000040064080000000005006408400000034
:101C9000006006408C000000004000401000000082
:101CA00000800540100000000050004011000000BE
:101CB000009005401100000000600040120000008C
:101CC00000A005401200000000700040130000005A
:101CD00000B0054013000000004002401400000066
:101CE00000C0054014000000005002402E0000001B
:101CF00000D005402E000000006002402F000000D0
:101D000000E005402F00000000700240300000009D
:101D100000F005403000000000D003404300000008
:101D20000000064043000000001006404400000090
:101D3000002006404500000000300640580000002A
:101D40000040064059000000005006405C000000C2
:101D50000060064064000000007006406C00000057
:101D6000008006406D000000009006407F000000EB
:101D700000400040008005400050004000900540B9
:101D80000060004000A005400070004000B0054029
:101D90000040024000C005400050024000D0054015
:101DA0000060024000E005400070024000F0054085
:101DB00000D003400000064000100640001006401E
:101DC000002006400020064000300640003006405B
:101DD00000400640004006400050064000500640CB
:101DE000006006400060064000700640007006403B
:101DF00000800640008006400090064000900640AB
:101E000000070000000600000005000000040000BC
:101E100000030000000200000001000000000000BC
:101E20000000000018ED00E01CED00E020ED00E0F7
:101E300000E400E004E400E008E400E00CE400E07A
:101E400010E400E014E400E018E400E01CE400E02A
:101E500020E400E024E400E028E400E02CE400E0DA
:101E600030E400E034E400E038E400E03CE400E08A
:101E700040E400E044E400E048E400E04CE400E03A
:101E800050E400E054E400E058E400E05CE400E0EA
:101E900060E400E064E400E068E400E06CE400E09A
:101EA00070E400E074E400E078E400E07CE400E04A
:101EB00080E400E084E400E088E400E000E100E089
:101EC00004E100E008E100E00CE100E010E100E0E6
:101ED00080E100E084E100E088E100E08CE100E0E6
:101EE00090E100E000E200E004E200E008E200E04F
:101EF0000CE200E010E200E080E200E084E200E0BA
:101F000088E200E08CE200E090E200E000688909ED
:101F1000001C4E0E40420F0000201C0080841E005A
:101F200000802500999E36000040380000093D00E1
:101F300000803E0000004B00404B4C0000204E0053
:101F4000808D5B0000C05D000080700000127A0090
:101F500000007D0080969800001BB7000080BB0049
:101F6000C0E8CE00647ADA000024F4000000FA0031
:101F700080A81201002D310100366E0140787D01EC
:101F80004000000000000000000100003E000800CA
:101F90000000000000010000A0000000020000009E
:101FA00000010000345401000000000000010000A6
:101FB0002B70060000000000000100002800000057
:101FC00000000000000100002700010000000000E8
:101FD00000010000200000000000000000010000DF
:101FE0005000000002000000000100001AAC0000D8
:101FF000000000000001000017940900000000002C
:10200000000100001698050000000000000100001B
:102010001400000000000000000100001380080010
:102020000000000000010000A00000000800000007
:10203000000100001000000000000000000100008E
:102040002800000002000000000100004000000025
:10205000040000000001000060000000000000001B
:10206000000100005D000C00000000000001000005
:102070005000000000000000000100004E000200BF
:10208000000000000001000041AC01000000000061
:10209000000100003C000000000000000001000002
:1020A0003A8009000000000000010000300000003C
:1020B00000000000000100002800000000000000F7
:1020C00000010000270001000000000000010000E6
:1020D00023600600000000000001000021600800ED
:1020E00000000000000100001E00000000000000D1
:1020F000000100001DC004000000000000010000FD
:102100005000000002000000000100001800000064
:1021100000000000000100001400000000000000AA
:102120000001000060000000040000000001000049
:102130000024F40030003000005A62029100910047
:1021400000879303D200D20000B4C404130113012A
:1021500000E1F50554015401000E27079501950192
:102160008021000000000020380000003C02000038
:10217000B821000038000020D802000058020000FA
:10218000000000000000000000000000000000004F
:1021900080966CCA250000000000000002000000CC
:1021A000030000000000000000000000000000002C
:0821B000000000000024F4000F
:0400000500000201F4
:00000001FF
