:020000040000FA
:10000000A0050020F5020000FD020000FF02000034
:1000100001030000030300000503000000000000CE
:1000200000000000000000000000000007030000C6
:1000300009030000000000000B0300001D17000072
:100040000F0300001103000013030000150300005C
:1000500017030000D12D00001B0300001D0300004A
:100060001F030000210300002303000025030000FC
:1000700027030000290300002B0300002D030000CC
:100080002F0300003103000033030000350300009C
:1000900037030000390300003B0300003D0300006C
:1000A0003F0300004103000043030000450300003C
:1000B00047030000490300004B0300004D0300000C
:1000C0004F030000510300005303000055030000DC
:1000D00057030000590300005B0300005D030000AC
:1000E0005F0300006103000063030000650300007C
:1000F00067030000690300006B0300006D0300004C
:100100006F0300007103000073030000750300001B
:1001100077030000790300007B0300007D030000EB
:100120007F030000810300008303000085030000BB
:1001300087030000890300008B0300008D0300008B
:100140008F0300009103000093030000AD03000043
:100150000000000000000000AF030000B103000039
:10016000B3030000B503000000000000B703000067
:10017000B9030000BB030000BD030000BF03000083
:10018000C1030000C3030000C5030000C703000053
:10019000C9030000CB030000CD030000CF03000023
:1001A000D1030000D3030000D5030000D7030000F3
:1001B000D9030000DB030000DD030000DF030000C3
:1001C000E1030000E3030000E5030000E703000093
:1001D000E9030000EB030000ED030000EF03000063
:1001E000F1030000F3030000F5030000F703000033
:1001F000F9030000FB030000FD030000FF03000003
:1002000000F002F800F04FF80AA090E8000C8244D9
:100210008344AAF10107DA4501D100F044F8AFF2B6
:10022000090EBAE80F0013F0010F18BFFB1A43F0D4
:1002300001031847C04D0000E04D0000103A24BFF4
:1002400078C878C1FAD8520724BF30C830C144BF3B
:1002500004680C607047000000230024002500267D
:10026000103A28BF78C1FBD8520728BF30C148BF19
:100270000B60704703681B0A28BF41F08001F52915
:1002800000F05A81002070471FB503F067F900F0B5
:100290003DFB04000020002103F04AF9401C60608F
:1002A0001FBD10B510BD00F00BFB1146FFF7ECFFB2
:1002B00002F0C6FF00F02EFB03B4FFF7F2FF03BC11
:1002C00000F076FB0138FDD170470000EFF310809D
:1002D00072B67047EFF310807047EFF3108062B68C
:1002E000704730BF704780F311887047EFF311807B
:1002F000704700004548804745480047FEE7FEE755
:10030000FEE7FEE7FEE7FEE7FEE7FEE7FEE7FEE7C5
:10031000FEE7FEE7FEE7FEE7FEE7FEE7FEE7FEE7B5
:10032000FEE7FEE7FEE7FEE7FEE7FEE7FEE7FEE7A5
:10033000FEE7FEE7FEE7FEE7FEE7FEE7FEE7FEE795
:10034000FEE7FEE7FEE7FEE7FEE7FEE7FEE7FEE785
:10035000FEE7FEE7FEE7FEE7FEE7FEE7FEE7FEE775
:10036000FEE7FEE7FEE7FEE7FEE7FEE7FEE7FEE765
:10037000FEE7FEE7FEE7FEE7FEE7FEE7FEE7FEE755
:10038000FEE7FEE7FEE7FEE7FEE7FEE7FEE7FEE745
:10039000FEE7FEE7FEE7FEE7FEE7FEE7FEE7FEE735
:1003A000FEE7FEE7FEE7FEE7FEE7FEE7FEE7FEE725
:1003B000FEE7FEE7FEE7FEE7FEE7FEE7FEE7FEE715
:1003C000FEE7FEE7FEE7FEE7FEE7FEE7FEE7FEE705
:1003D000FEE7FEE7FEE7FEE7FEE7FEE7FEE7FEE7F5
:1003E000FEE7FEE7FEE7FEE7FEE7FEE7FEE7FEE7E5
:1003F000FEE7FEE7FEE7FEE7FEE7FEE7FEE7FEE7D5
:1004000004480549034A054B70470000B12D000020
:1004100001020000A0030020A0050020A00300208E
:1004200053EA020C00F069802DE9F04B4FF0000612
:10043000002B1FBFB3FA83F503FA05F424FA05F67F
:100440005E4012BF1643B2FA82F502FA05F4C5F116
:1004500020051EBF22FA05FC44EA0C04203556EAAA
:10046000044C4FEA144418BF641C4FF000084FF0CE
:100470000009904271EB030C39D3002919BFB1FA7E
:1004800081F701FA07F6B0FA80F700FA07F6C7F12C
:1004900020071EBF20FA07FC46EA0C062037B6FBF1
:1004A000F4FCA7EB0507103F07F01F0BCBF120066C
:1004B0000CFA0BFB2CFA06F644BFB3460026202F9D
:1004C000A4BF5E464FF0000B5BEA060C08BF4FF07E
:1004D000010B19EB0B09ABFB027C48EB0608C01BB8
:1004E00006FB02CC0BFB03CC71EB0C01C1E70B4606
:1004F000024641464846BDE8F08B13B54FF0000078
:100500004FF00001AFF30080BDE81C4070470000D1
:100510000FB41CB5074B06AA7B44694600900598AA
:1005200000F0ADF90020694600F0BCF91CBC5DF894
:1005300014FB0000890300002DE9F0418046D21D24
:1005400022F007020025D2E90002F52915A614D0F1
:10055000011E72F1000106DA0023D0EB030063EB09
:10056000020211A608E0D8F800108B0701D50FA6EB
:1005700002E0490701D50EA601251146002408F125
:10058000240704E000F0CAF830323A55641C50EAFF
:100590000102F7D12B46324621464046BDE8F041E4
:1005A00000F00EB9000000002D0000002B0000003C
:1005B000200000002DE9F0410F460546002028628A
:1005C0002846E968884770B3252805D0D5E9012178
:1005D0009047286A401CF2E7E968284600268847C9
:1005E0006C2804460AD0682C08D04C2C35D06A2CD4
:1005F00031D0742C31D07A2C2FD016E0E968064621
:1006000028468847B042044608D16C2E23D04FF4C8
:1006100080662846E9688847044606E06C2E03D0C9
:100620004FF4807601E01EE04026E4B1A4F14100E1
:10063000192802D8203446F400663A462146284656
:100640002E60FFF717FE60B1012808D0FF1D27F0CC
:1006500007070837B4E78026DBE70026D9E73F1D08
:10066000AEE72046B2E7286ABDE8F081401ECAB274
:1006700010F8011F8A4202D00029F9D100207047EA
:100680002DE9F041054690460E460020044600E064
:10069000641C44450BD2285D00F085F80746305DA8
:1006A00000F081F8381A02D1295D0029F0D1BDE8A7
:1006B000F08110B5203AC0F00B80B1E81850203A14
:1006C000A0E81850B1E81850A0E81850BFF4F5AFF2
:1006D0005FEA027C24BFB1E81850A0E8185044BF7C
:1006E00018C918C0BDE810405FEA827C24BF51F8E9
:1006F000043B40F8043B08BF7047D20728BF31F8DD
:10070000023B48BF11F8012B28BF20F8023B48BF2D
:1007100000F8012B704770477047704730B5B0F153
:100720000A024FEA900E71F100034EEA817EB0EBAF
:100730000E0061EB91014FEA101E4EEA017E10EBB4
:100740000E0041EB11114FEA102E4EEA016E10EB34
:100750000E0041EB11214FEA104E4EEA014E10EB14
:100760000E0041EB1141401841F100014FEAD00069
:1007700040EA41704FEAD10110EB80054FEA810455
:1007800044EA907444EB01046D1944EB0404521BD9
:10079000A3414FF0000348BF0A3200D530BD401CD2
:1007A00041F1000130BD10B5044600F081F8006849
:1007B000005DC00602D504F1200010BD204610BD2A
:1007C0002DE9F0470D4699469246044600F124086B
:1007D0000168880604D5E06921F01001216000E07D
:1007E0000120A84201DD471B00E00027A1697A191A
:1007F00002EB0900081AA0612078C00602D4204646
:10080000AFF30080002608E0D4E901211AF80600C1
:100810009047206A401C761C20624E45F4DB20780D
:10082000C0060AD52046AFF3008006E0D4E90121D6
:1008300030209047206A401C2062381EA7F1010733
:10084000F4DC07E0D4E9012118F805009047206A9C
:10085000401C2062281EA5F10105F3DC2046AFF301
:1008600000802078000602D50220BDE8F087012034
:10087000FBE7000001694A1C02610878704700B577
:100880008FB0CDE901310021059105497944CDE9C9
:10089000031011466846FFF78DFE0FB000BD000043
:1008A000E5FFFFFF0A6802F8010B0A6070470000CD
:1008B00010B500F02BF8001D10BD00BF752C000016
:1008C000754600F031F8AE4605006946534620F003
:1008D0000700854618B020B5FFF792FDBDE820401F
:1008E0004FF000064FF000074FF000084FF0000BEC
:1008F00021F00701AC46ACE8C009ACE8C009ACE89F
:10090000C009ACE8C0098D46704700000048704738
:100910006003002010B50446AFF300802046BDE818
:100920001040FFF7C9BC000000487047400300209A
:100930004FF0013C50F8042B51F8043B9A4221D16E
:10094000A2EB0C03934313EACC1317D150F8042BFA
:1009500051F8043B9A4215D1A2EB0C03934313EADE
:10096000CC130BD150F8042B51F8043B9A4209D117
:10097000A2EB0C03934313EACC13DBD04FF000003F
:10098000704700BFD01A01BAB1FA81F101F0180125
:1009900022FA01F0CB40C1F12001DBB2C0B2C01A93
:1009A0002CFA01F3D11A914311EAC311E6D1704731
:1009B00001491820ABBEFEE7260002007047002167
:1009C00000E0491C8142FCD37047000010B50220B2
:1009D000FFF778FC0C4CA06910F0010FFBD1E06927
:1009E00010F00C0F0ED1094800F05EFE0220FFF758
:1009F00069FCA06910F0010FFBD1E06910F00C0058
:100A000008BF10BD022010BD00F00A40005800F0E1
:100A10002DE9F05FDFF848810646D8F8180010F09D
:100A2000010FFAD18809C8F80400C1F38300C8F89F
:100A30000800DFF83091DFF830A195084FF0000B87
:100A400067D0C809012101FA00F0C743DAF80010A5
:100A500046480140A1F18050B0F5A02002BFDAF86D
:100A6000000080B2002813D10A20FFF72BFC0320DE
:100A7000C9F8FC000A20FFF725FC3D48C0F8C07209
:100A80000A20FFF71FFCC9F8FCB00A20FFF71AFC88
:100A90003068C8F814000A20FFF714FCD8F8184092
:100AA00014F0010FFAD114F0100F24D0DAF800106E
:100AB0002E480140A1F18050B0F5A02002BFDAF825
:100AC000000080B2002813D10A20FFF7FBFB0320AF
:100AD000C9F8FC000A20FFF7F5FB2548C0F8C0B2B2
:100AE0000A20FFF7EFFBC9F8FCB00A20FFF7EAFB8A
:100AF0002046BDE8F09F6D1E06F1040609D0D8F827
:100B000008000028A2D1D8F80400401CC8F804004E
:100B10009CE7DAF8001015480140A1F18050B0F5CB
:100B2000A02002BFDAF8000080B2002813D10A200A
:100B3000FFF7C8FB0320C9F8FC000A20FFF7C2FB3F
:100B40000B48C0F8C0B20A20FFF7BCFBC9F8FCB0E4
:100B50000A20FFF7B7FBD8F81800BDE8F09F0000A7
:100B600000F00A4000D00F4000E00F400000FF708E
:100B700000E00A400B4B4FEA911CC3F804C0C1F3DC
:100B800083019960910808BF70475A6940F8042BA7
:100B9000491E08BF70479A68002AF6D15A68521C4D
:100BA0005A60F2E700F00A40D0F8003412F0010F6A
:100BB00014BF0B438B43C0F8003412F0020FD0F87F
:100BC000202414BF114322EA0101C0F82014704709
:100BD0002DE9F00301264FF0000C0325C2F3411765
:100BE00006FA0CF40C4211D0D0F8C48F4FEA4C0432
:100BF00005FA04F928EA0908C0F8C48FD0F8C48FB0
:100C000007FA04F448EA0404C0F8C44F0CF1010CDC
:100C10000CF0FF0CBCF1080FE2D3D0F800C512F0C5
:100C2000010F14BF4CEA010C2CEA010CC0F800C5FE
:100C3000D0F804C512F0020F14BF4CEA010C2CEAE4
:100C4000010CC0F804C5D0F808C512F0040F14BF99
:100C50004CEA010C2CEA010CC0F808C5D0F818C504
:100C600012F0080F14BF4CEA010C2CEA010CC0F87A
:100C700018C512F0100FD0F83C2514BF0A438A4360
:100C8000C0F83C25D0F80C2513F0010F14BF0A431F
:100C90008A43C0F80C25D0F8102513F0020F14BFBA
:100CA0000A438A43C0F81025D0F8142513F0040F26
:100CB00014BF0A438A43C0F81425D0F81C2513F04A
:100CC000080F14BF0A438A43C0F81C25D0F84425F6
:100CD00013F4007F14BF0A438A43C0F84425D0F8B8
:100CE000402513F4407F14BF0A438A43C0F84025CF
:100CF000D0F82825002B0CBF114322EA0101C0F8CF
:100D00002815BDE8F00370470E4AC0F30741D26EC4
:100D100001238B401A420C4A1ABF02EBC1014968F9
:100D200052F83110020AD1F82C354FF00F0C0CFAA2
:100D300002FC00F00F0023EA0C0390401843C1F8B6
:100D40002C05704700E00F40044C000050F82100D3
:100D5000704730B50C4605460022FFF725FF2146B7
:100D60002846BDE8304008230122FFF731BF30B5E7
:100D70000C46054608230122FFF72AFF2146284694
:100D8000BDE830400122FFF70FBF30B50C460546E5
:100D90000222FFF709FF21462846BDE8304009231B
:100DA0000122FFF715BF30B50C4605460222FFF7BA
:100DB000FBFE21462846BDE8304008230122FFF70C
:100DC00007BF30B50C4605460222FFF7EDFE21466F
:100DD0002846BDE8304008230122FFF7F9BE30B5B0
:100DE0000C4605460222FFF7DFFE21462846BDE8F5
:100DF00030400A230122FFF7EBBE30B50C46054612
:100E00000222FFF7D1FE21462846BDE830400823E4
:100E10000122FFF7DDBE40F8212070472DE9F041A7
:100E200004460E4600BF1C4800F078F80028FAD1AE
:100E300000222146184800F0B9F83146164800F063
:100E400077F80721144800F06FF800BF124800F04F
:100E50005FF80028FAD1104800F071F8C7B20120FD
:100E6000FFF7ADFD012221460B4800F09FF8072156
:100E7000094800F059F800BF074800F049F8002879
:100E8000FAD1054800F052F8C5B20120FFF797FDEE
:100E90002846BDE8F0810000000002402DE9F04145
:100EA00004460F46154600BF184800F037F80028E2
:100EB000FAD100222146154800F078F83946134847
:100EC00000F036F80321114800F02EF800BF0F485B
:100ED00000F024F80028FAD10C4800F030F8C6B22F
:100EE00029460A4800F024F80521084800F01CF8BB
:100EF00000BF064800F012F80028FAD1034800F0BD
:100F00001EF8C6B23046BDE8F08100000000024085
:100F1000406810F0400018BF01207047406810F092
:100F2000010018BF0120704741607047806870471A
:100F300081607047016A41F01001016270474068AA
:100F400010F0010F05D110F0120F1CBF00F01C00B3
:100F50007047002070470000036A43F010030362EB
:100F6000002A14BF0E4A0F4A02EB820301EB8303EF
:100F700002EB820292005B1EB3FBF2F2521EC260D1
:100F8000D0F8C02F12F0010F08BF7047064A114475
:100F9000521CB1FBF2F1491E41F08001C160704763
:100FA000801A0600A08601007F47370142EA41010E
:100FB000016070471649042804BF086840F4803077
:100FC00018D0052804BF086840F4003012D0062865
:100FD00012D00F2815D0102838BF7047103800F0F5
:100FE0001F01012202FA01F142090A4850F82200C9
:100FF0000160704708607047086840F4802008600E
:1010000070474FF0E020016941F002010161704733
:1010100024ED00E0504D000010B5FFF75EF9002808
:1010200018BF012010BD084401686FF3520111433D
:10103000016012F0020F14BFB0218C21016214BFB5
:101040004FF4306140F60C0141627047425842F063
:101050000102425070470844016811F0020F14BFAA
:101060005108511E01617047002A826814BF114364
:1010700022EA01018160704721F03F0318440368B0
:1010800013F0020F18BF520803699A1A11F0010FEA
:1010900014BFC26182617047036823F01E031943C5
:1010A0000160C2607047016841F001010160704752
:1010B00010B5114800F0CEFA00BF0F4800F0DEFA7C
:1010C0000028FAD00C48C01C00F0C4FA00BF0A483F
:1010D000C01C00F0D3FA0028F9D00F210748FFF711
:1010E00046FE03210648FFF734FE0A2301220321AE
:1010F0000348FFF76DFD10BD050800F000500240E9
:1011000000D0034010B51E4800F0A4FA1D4800F0BE
:10111000A1FA1D48FFF7F8FD1C48FFF7F5FD042173
:101120001B48FFF740FE08211948FFF72EFE012259
:10113000184801681848FFF70FFF1748FFF7FAFE35
:10114000FF220C212220FFF7A9FE044600220D21D8
:101150002220FFF7A3FE044600220E212220FFF7E3
:101160009DFE0446002203211820FFF797FE044647
:10117000FF2201211820FFF791FE044610BD000058
:10118000002000F0010800F002080100020C01003C
:1011900000500040000000200000024010B50B4845
:1011A00000684FF47A71B0FBF1F4204600F0B0FA19
:1011B00000F0A0FA00F0A5FA5021054801F07AFEEF
:1011C0001520FFF7F7FEFFF727FF10BD00000020F6
:1011D00000C0004010B5002000F032FA1E4800F0B8
:1011E00039FA00BF1C4800F049FA0028FAD01B4821
:1011F00000F030FA00BF194800F040FA0028FAD099
:101200001748FFF781FD20211648FFF7DAFD00227D
:101210004FF480711448FFF706FF144800684FF43C
:101220007A61B0FBF1F422464FF480710E48FFF76B
:1012300012FF0E48006842F6E061B0FBF1F422466E
:1012400040F207110848FFF717FF4FF48071064876
:10125000FFF7FCFE10BD0000004000F0090800F0A0
:101260000614090000100640008002400000002023
:1012700010B5164800F0EEF9154800F0EBF900BF84
:10128000134800F0FBF90028FAD01248FFF73CFDA4
:101290001148FFF739FD08211048FFF768FD0022CB
:1012A00008210E48FFF7B7FD02210C48FFF797FD14
:1012B00004210A48FFF793FD642208210848FFF73C
:1012C000EBFE0748FFF7EFFE10BD00000A0800F034
:1012D000004400F006040A0006080A000020064048
:1012E00000C0024010B5124800F0B4F9114800F0F7
:1012F000B1F900BF0F4800F0C1F90028FAD0012071
:10130000FFF702FD40F20140FFF7FEFC03214FF022
:101310004020FFF772FD60234FF4E1320648016878
:10132000064801F08EFD06A001F0CEFD10BD0000C4
:10133000001800F0000800F00000002000C000408D
:101340000D0A48656C6C6F2C20776F726C64210DF0
:101350000A0000002DE9F003AF4D02462868AF4BAC
:101360001840A0F18053B3F5A02359D002F03809FA
:10137000DFF8AC82C2F38414B9F1100F25D0B9F1B3
:10138000300F04BF47F230504FF400130DD04FF030
:101390003800904304BF4FF40040C30105D012F061
:1013A000380F1CBF0020034613D09E4F12F4605F1D
:1013B0004FF0000618BF00222CD057F832404445A9
:1013C0007DD307EBC2025268E1E0002340461524BA
:1013D000EBE7A4F10900122822D29348D5F87CC08B
:1013E0004FF04C7350F824002CF01C0C072CA8BFB5
:1013F0004CF0100CC5F87CC02E6D4FF4002C16F488
:10140000807FD2D1BCF1010C0AD02E6D16F4807F02
:10141000F8D0CAE712F0380F18BFB9F1100F04D096
:10142000BDE8F0034FF000007047C2F30268DFF838
:10143000FCC14FF0000257F83290E14503D307EBAF
:10144000C202526803E0521C062AF4D33246C5F8A1
:10145000C020D5F8B020DFF8D8C102EA0C0242F073
:101460000042C5F8B020DFF8CCC1A4F109024C1E3F
:101470005CF828C0A444BCFBF1FCD5F8B0101943BB
:10148000C5F8B01008EBC80101EB41046A4902EB52
:10149000420201EBC40101EB82046468C5F86441B7
:1014A000D5F864416FF0FF0808EB0C2C44EA0C0CF3
:1014B000C5F864C151F82210D5F8602100E061E060
:1014C00002F400021143C5F86011D5F86011D5F897
:1014D0006021C1F38921C2F30904D5F86421C2F364
:1014E000042202F1010CD5F8642102F01F02521C03
:1014F000B0FBF2F04A09C2F100084443424301EB59
:10150000481104EB5212484302EB9020B0FBFCF070
:1015100041080846002257F832C0844503D307EB40
:10152000C200466802E0521C062AF4D3C5F8C06027
:10153000D5F8600110F4000F1DBFD5F8B00040F0E1
:101540008040C5F8B000D5F8600104BF40F4000049
:10155000C5F860014FF40040D5F8682112F0010F82
:1015600002D1401E0028F7DC002808BF002148D027
:10157000D5F8B000184340F0010040F01040C5F825
:10158000B0003EE0521C062AFFF417AF3246C5F801
:10159000C020D5F8602122F40002C5F86021D5F8FA
:1015A000B020DFF898C002EA0C0242F00042C5F811
:1015B000B020002908BF4FF0000C0AD0B0FBF1FCAE
:1015C000BCF1000F18BFACF1010C0CF10101B0FB34
:1015D000F1F10846002257F83240844203D307EB6A
:1015E000C200466802E0521C062AF4D3C5F8C06067
:1015F000D5F8B00043EA8C22104340F00040C5F813
:10160000B000D5F8B00020F47000C5F8B000BDE817
:10161000F00308467047000000E00F400000FF7034
:101620000024F400C44F0000A84D000040787D0164
:1016300000FC0FE0A04D0000144E0000FF0300EF7F
:1016400003490A6E22F4F012104308667047000046
:1016500000E00F40C0F307230749C0B2194401F06E
:101660007043C1F3130143EA411141EA800040F0A5
:10167000007001220260704700E60F40C0F30722AD
:101680000849C0B2114401F07042C1F3130142EAAB
:10169000411141EA800040F000700068002818BF46
:1016A0000120704700EA0F40C0F307230C49C0B285
:1016B000194401F07043C1F3130143EA411141EAB7
:1016C000800040F0007181B001220A600022009287
:1016D0000098401C00901028FAD30A6001B07047AF
:1016E00000E50F40024901480860FEE70400FA05E2
:1016F0000CED00E04FF0E020016941F005010161CF
:1017000070474FF0E020016941F00201016170472C
:101710004FF0E021401E4861704700002DE9F0477E
:10172000AAB00024FE48416829910168289100214F
:101730002491259123911F912091219122911B9118
:101740001C911D911E911A9119918946F54DF648EB
:10175000D0E90010491C40F10000F34AC2E9001032
:10176000A81EB0F86C00642807DAA81EB0F86C0058
:10177000401CA91EA1F86C000FE0EA48801EB0F8DA
:101780006C00642809D140F28670E649891EA1F8F0
:101790006C004FF00109881C88660A220023E24988
:1017A00003C9FEF73DFE00214A404B401A4377D162
:1017B00000243DE0DB48801E0078C043204100F05B
:1017C000010024A9085524A8005D20B1D748005D78
:1017D00008B9012000E000201FA921F8140024A866
:1017E000005D38B1D148005D20B1D14830F8140017
:1017F000401C00E00020CE4921F81400084630F8D3
:10180000140000280ADD084630F81400322190FB4D
:10181000F1F201FB120008B9012000E000201BA931
:1018200021F8140024A8005DC0490855601CC4B20A
:10183000082CBFDB00243EE0BA48801E4078C0433D
:10184000204100F0010023A9085523A8005D20B124
:10185000B848005D08B9012000E000201AA921F86D
:10186000140023A8005D38B1B248005D20B1B24831
:1018700030F81400401C00E00020AF4921F81400AB
:10188000084630F8140000280BDD084630F8140034
:10189000322190FBF1F201FB120010B9012001E0AE
:1018A0000BE0002019A921F8140023A8005DA1492C
:1018B0000855601CC4B2022CBEDBBDF8640078B1D0
:1018C000BDF8660060B10422110228A8FFF7A0F855
:1018D000042240F2044129A8FFF79AF8FFF702FF1B
:1018E0009648407808BB0A2200238F4903C9FEF7B7
:1018F00097FD00214A404B401A4316D18848D0E951
:101900000020521C40F100008549C1E900208C48AC
:1019100001F0E8FA8A48808920B901208949887451
:10192000487402E00020874988748448C078012800
:1019300022D10A2200237C4903C9FEF771FD002150
:101940004A404B401A4317D17F48D0E9001000238A
:1019500059405840014303D103207849C8700BE037
:101960007948D0E90020521E60F100007649C1E9B3
:101970000020764801F01CFD002426E0C4EBC400E2
:10198000734901EB4000C0886D49C98888421AD16B
:10199000C4EBC4006E4901EB400000896849098925
:1019A000884210D1C4EBC400694901EB4000408972
:1019B00063494989884206D160480078052802D0E9
:1019C00002205E490871601CC4B2022CD6DB5B4861
:1019D0000079022805D1BDF88A0010B100205749CE
:1019E0000871574800885B49098888421DD05448CF
:1019F00000885849088008460188574801F044FD8E
:101A0000002410E00820544901EBC4010090D1E902
:101A10000063C4EBC401514A02EB4100324601F0BD
:101A20004DFB601CC4B2182CECDBBDF8680048B15B
:101A300042480078001D052190FBF1F201FB1200E5
:101A40003E490870BDF86A0048B13C480078401C27
:101A5000052190FBF1F201FB120038490870BDF836
:101A6000640048B13748007C001D052190FBF1F26D
:101A700001FB120033490874BDF8660048B13148D3
:101A8000007C401C052190FBF1F201FB12002D4966
:101A9000087433480088002868DD022001F08EFABF
:101AA0008DF89800012001F089FA8DF8990009203D
:101AB00001F084FA8DF89A00012001F07FFA8DF888
:101AC0009B00002001F07AFA8DF89C00022001F0C2
:101AD00075FA8DF89D00072001F070FA8DF89E00D0
:101AE000092001F06BFA8DF89F00FF2000900E484E
:101AF0000CC826A801F0A6FCC82200230A4903C985
:101B0000FEF78EFC00214A404B401A4304D10D4899
:101B1000007AC0430B49087211480088401E21E03A
:101B200010000020420000200800002032000020A9
:101B3000200300203A00002030030020280000206D
:101B4000C4000020B000002018000020D2000020B7
:101B5000E00000202000002010010020D001002023
:101B600022000020FE49088001F053B80020FD4902
:101B70000872002404E0202026A90855601CC4B285
:101B8000082CF8DBF8480078062881F04080DFE870
:101B900010F0630153030600DD038905E507042007
:101BA000F0490872BDF8860030B10120EE49487056
:101BB0000520EE49087005E0BDF88A0010B100204C
:101BC000E9494870EA48C0880A2190FBF1F0C2B2A6
:101BD000104601F0F3F98DF89800E548C0880A2115
:101BE00090FBF1F301FB1300C2B2104601F0E6F9DD
:101BF0008DF89900DE4800890A2190FBF1F0C2B20D
:101C0000104601F0DBF98DF89A00D94800890A21C5
:101C100090FBF1F301FB1300C2B2104601F0CEF9C4
:101C20008DF89B00D24840890A2190FBF1F0C2B2A6
:101C3000104601F0C3F98DF89C00CD4840890A2177
:101C400090FBF1F301FB1300C2B2104601F0B6F9AC
:101C50008DF89D00C6488089642190FBF1F301FB5B
:101C600013000A2190FBF1F0C2B2104601F0A6F970
:101C70008DF89E00BE4880890A2190FBF1F301FB9C
:101C80001300C2B2104601F099F98DF89F00B648D2
:101C9000407801287BD1BDF87C0048B1B34800787A
:101CA000401D062190FBF1F201FB1200AF490870C4
:101CB000BDF8800048B1AD480078401C062190FB7B
:101CC000F1F201FB1200A9490870BDF88800B0B319
:101CD000A6480078062849D2DFE800F0030E19254F
:101CE000323EA448D0E90020A34BD21840F10000B6
:101CF000A049C1E900203AE09E48D0E900209F4B6E
:101D0000D21840F100009B49C1E900202FE099481A
:101D1000D0E900204EF66023D21840F1000095492A
:101D2000C1E9002023E09348D0E9003041F270710E
:101D3000591840F100008F4AC2E9001017E01EE078
:101D40008C48D0E900104FF47A73C91840F10000B4
:101D5000884AC2E900100AE08648D0E900106431E0
:101D600040F10000834AC2E9001000E000BF00BF5C
:101D7000082000907F480CC87D4801F09FF9BDF80D
:101D80007E00C0B37948007806284BD200E062E0BC
:101D9000DFE800F0030E1925323E7648D0E9003026
:101DA0007549591A60F10000724AC2E900103AE020
:101DB0007048D0E90030714A9A1A60F100006D490C
:101DC000C1E900202FE06B48D0E900104EF66022F8
:101DD000891A60F10000674AC2E9001023E06548F3
:101DE000D0E9002041F27073D21A60F1000061491D
:101DF000C1E9002017E01EE05E48D0E900104FF472
:101E00007A72891A60F100005A4AC2E900100AE0A9
:101E10005848D0E90020643A60F100005549C1E912
:101E2000002000E000BF00BF0820009051480CC80F
:101E30004F4801F043F9C8220023514903C9FEF776
:101E4000EFFA6421511A73F1000304D2202026A96D
:101E5000464A1278885478E2012042490872BDF857
:101E6000860030B10120404988700720454908703C
:101E700005E0BDF88A0010B100203B4988703C485D
:101E8000008842F2107190FBF1F301FB13004FF454
:101E90007A7190FBF1F0C2B2104601F08FF88DF824
:101EA0009800334800884FF47A7190FBF1F301FBFE
:101EB0001300642190FBF1F0C2B2104601F07EF8ED
:101EC0008DF899002A480088642190FBF1F301FB0A
:101ED00013000A2190FBF1F0C2B2104601F06EF837
:101EE0008DF89A00224800880A2190FBF1F301FB4B
:101EF0001300C2B2104601F061F88DF89B001C4837
:101F00004088401C642190FBF1F301FB13000A217F
:101F100090FBF1F0C2B2104601F050F88DF89C0031
:101F200013484088401C0A2190FBF1F301FB130089
:101F3000C2B2104601F042F88DF89D000C4880882E
:101F4000401C642190FBF1F301FB13000A2190FB7C
:101F5000F1F0C2B2104601F031F88DF89E0013E0A6
:101F600022000020B0000020280000202D000020CA
:101F7000C40000201000002080EE3600407E0500E6
:101F8000080000202E000020F8488088401C0A210C
:101F900090FBF1F301FB1300C2B2104601F00EF802
:101FA0008DF89F00F2488078012872D1BDF87C003E
:101FB000D8B100BFEF490978C81DC11700EB5171B6
:101FC000C910A0EBC101EB4A11701046007803283C
:101FD0000BD010460078052807D010460078062858
:101FE00003D0104600780728E4D1BDF88000D8B1AE
:101FF00000BFE0490978481CC11700EB5171C910B6
:10200000A0EBC101DB4A11701046007803280BD009
:1020100010460078052807D010460078062803D01F
:10202000104600780728E4D1BDF8880090B3D14865
:102030000078082863D2DFE800F0040506072E2F99
:102040004C575DE05CE05BE0C8484088022804DC57
:10205000C649088801F0DAF850B9C4484088022817
:1020600009DDC2490988491C88B201F0CFF810B1D6
:102070004FF4B77001E040F26D10BF49484364214E
:102080004843BE4B0CCB801843F10001BB4A03C24E
:1020900036E0D0E03CE033E0B449088801F0B6F81F
:1020A00028B1B2484088B64931F8100004E0AF4882
:1020B0004088B44931F81000AF494843642148438F
:1020C000C117AE4AD2E90032C0185141AB4A03C22F
:1020D00016E0AA48D0E90010AB4BC91840F1000047
:1020E000A64AC2E900100BE0A448D0E90020A74BA3
:1020F000D21840F10000A149C1E9002000E000BF72
:1021000000BF082000909D480CC8984800F0D6FFFA
:10211000BDF87E0090B397480078082872D2DFE8B7
:1021200000F0040506072E2F5A656CE06BE06AE0AC
:102130008E484088022804DC8C49088801F066F843
:1021400050B98A484088022809DD88490988491C15
:1021500088B201F05BF810B14FF4B77001E040F2C3
:102160006D1085494843642148438449D1E90031D1
:10217000181A61F10001814A03C244E04BE042E0D9
:102180007A49088801F042F858B1784840880B3005
:102190000C2190FBF1F201FB1200794931F810009B
:1021A0000AE0724840880B300C2190FBF1F201FBF1
:1021B0001200744931F810006F49484364214143CB
:1021C000CA176E48D0E90030591A60EB02006B4A1A
:1021D000C2E9001017E06948D0E900206A4BD21A22
:1021E00060F100006549C1E900200CE06348D0E9D6
:1021F0000020664BD21A60F100006049C1E900205E
:1022000001E0FFE700BF00BF082000905B480CC85A
:10221000564800F053FFC82200235D4903C9FEF76A
:10222000FFF86421511A73F1000304D2202026A97B
:10223000504A127888540EE60220564908724B48DC
:10224000008842F2107190FBF1F301FB13004FF490
:102250007A7190FBF1F0C2B2104600F0AFFE8DF83B
:102260009800424800884FF47A7190FBF1F301FB2B
:102270001300642190FBF1F0C2B2104600F09EFE04
:102280008DF8990039480088642190FBF1F301FB37
:1022900013000A2190FBF1F0C2B2104600F08EFE4E
:1022A0008DF89A00314800880A2190FBF1F301FB78
:1022B0001300C2B2104600F081FE8DF89B0000248E
:1022C00040E0C4EBC400344901EB4000408827499A
:1022D0004988884234D1C4EBC4002F4901EB400047
:1022E00080882249898888422AD153218DF89C1000
:1022F00050218DF89D1004F11600182190FBF1F388
:1023000001FB1300401C0A2190FBF1F0C2B2104601
:1023100000F054FE8DF89E0004F11600182190FB89
:10232000F1F301FB1300401C0A2190FBF1F301FBC8
:102330001300C2B2104600F041FE8DF89F0003E08A
:10234000601CC4B2182CBCDB00BFFDE3082011499F
:102350000872BDF8860008B30548C078042801D18A
:10236000022000E004200249C87023E0C4000020DD
:10237000280000202E0000208051010010000020C5
:102380008035000068350000005C260500D683001B
:1023900008000020B0000020D0010020BDF88A0015
:1023A00040B1FE48C078022801D1012000E002209F
:1023B000FA49C870FA48C0880A2190FBF1F0C2B20D
:1023C000104600F0FBFD8DF89800F548C0880A2102
:1023D00090FBF1F301FB1300C2B2104600F0EEFDDA
:1023E0008DF89900EE4800890A2190FBF1F0C2B205
:1023F000104600F0E3FD8DF89A00E94800890A21B3
:1024000090FBF1F301FB1300C2B2104600F0D6FDC1
:102410008DF89B00E24840890A2190FBF1F0C2B29E
:10242000104600F0CBFD8DF89C00DD4840890A2164
:1024300090FBF1F301FB1300C2B2104600F0BEFDA9
:102440008DF89D00D6488089642190FBF1F301FB53
:1024500013000A2190FBF1F0C2B2104600F0AEFD6D
:102460008DF89E00CE4880890A2190FBF1F301FB94
:102470001300C2B2104600F0A1FD8DF89F00C748BE
:10248000C078032813D1C8220023C64903C9FDF729
:10249000C7FF6421511A73F1000308D2002404E03D
:1024A000202026A90855601CC4B2082CF8DBBB48C4
:1024B000C078042875D1BDF87C0048B1BA480078CE
:1024C000401D062190FBF1F201FB1200B649087095
:1024D000BDF8800048B1B4480078401C062190FB4C
:1024E000F1F201FB1200B0490870B048D0E90020B9
:1024F000AF4BD21840F10000AC49C1E90020BDF853
:102500008800B0B3A848007806284BD2DFE800F076
:10251000030E1925323EA548D0E90020A54BD2185C
:1025200040F10000A149C1E900203CE09F48D0E90A
:102530000020A14BD21840F100009C49C1E90020C5
:1025400031E09A48D0E900104EF66023C91840F1F6
:102550000000964AC2E9001025E09448D0E9001036
:1025600041F27073C91840F10000904AC2E90010AE
:1025700019E028E08D48D0E900204FF47A73D21892
:1025800040F100008949C1E900200CE08748D0E90A
:10259000003064229A1840F100008449C1E900200B
:1025A00001E07EE000BF00BF814A00237F4903C9EC
:1025B000FDF736FF7D480CC0002000907B480CC81A
:1025C000774800F07BFDBDF87E00B0B37648007818
:1025D00006284AD2DFE800F0030E1925323E734880
:1025E000D0E900207349511A60F100006F4AC2E936
:1025F00000103BE06D48D0E900206F4BD21A60F12B
:1026000000006A49C1E9002030E06848D0E90020B4
:102610004EF66023D21A60F100006449C1E900203F
:1026200024E06248D0E9002041F27073D21A60F1D0
:1026300000005E49C1E9002018E027E05B48D0E9CE
:1026400000104FF47A73C91A60F10000574AC2E9CA
:1026500000100BE05548D0E9003064229A1A60F16E
:1026600000005249C1E9002000E000BF00BF504A0D
:1026700000234E4903C9FDF7D3FE4C480CC000208F
:1026800000904A480CC8464800F018FD46480178BA
:1026900001208840C0B2009042480CC826A800F033
:1026A000D1FEB5E2102045490872BDF8840048B15A
:1026B00043490978481C00EBD0714910A0EB410157
:1026C0003F4A1170BDF8820048B13D490978481C65
:1026D00000EBD0714910A0EB4101394A1170BDF8EF
:1026E000860030B101202D49087107203549087056
:1026F00005E0BDF88A0010B1002028490871304873
:10270000007800F05BFC8DF8980020218DF899107E
:102710002B480078C0EBC0002B4901EB4000C0887B
:102720000A2190FBF1F0C2B2104600F047FC8DF890
:102730009A0023480078C0EBC000234901EB400019
:10274000C0880A2190FBF1F301FB1300C2B21046CE
:1027500000F034FC8DF89B0019480078C0EBC000F5
:10276000194901EB400000890A2190FBF1F0C2B247
:10277000104600F023FC8DF89C0011480078C0EB57
:10278000C000114901EB400000890A2190FBF1F3E0
:1027900001FB1300C2B2104618E000002800002020
:1027A000D2000020080000202F0000201800002088
:1027B00000D6830080EE3600407E0500B000002089
:1027C0003100002030000020E000002000F0F6FB87
:1027D0008DF89D00FE480078C0EBC000FD4901EB7C
:1027E000400040890A2190FBF1F0C2B2104600F08F
:1027F000E5FB8DF89E00F6480078C0EBC000F54977
:1028000001EB400040890A2190FBF1F301FB13002A
:10281000C2B2104600F0D2FB8DF89F00EE4800795E
:10282000012875D1BDF87C0050B1EC480078C01C7F
:10283000062190FBF1F201FB1200801CE7490870B1
:10284000BDF8800050B1E5480078401E062190FB9D
:10285000F1F201FB1200801CE0490870E048DC49FD
:10286000097800EBC100D0E90020DE4BD21840F11E
:102870000000DB49D64B1B7801EBC301C1E9002006
:10288000BDF8880078B3D5480078801E06287BD232
:10289000DFE800F003162A3F5367D148CC49097896
:1028A00000EBC100D0E90020CF4BD21840F100006E
:1028B000CB49C74B1B7801EBC301C1E9002064E0A1
:1028C000C748C349097800EBC100D0E90020C74BD5
:1028D000D21840F10000C249BD4B1B7801EBC30187
:1028E000C1E9002051E076E0BD48B949097800EB24
:1028F000C100D0E900304EF660229A1840F1000085
:10290000B749B34B1B7801EBC301C1E900203CE0A0
:1029100016E1B348AE49097800EBC100D0E90020C8
:1029200041F27073D21840F10000AD49A84B1B78FA
:1029300001EBC301C1E9002027E0A948A4490978B7
:1029400000EBC100D0E900104FF47A73C91840F1D0
:102950000000A34A9E4B1B7802EBC302C2E90010A1
:1029600013E09F489A49097800EBC100D0E90010B4
:10297000643140F100009A4A954B1B7802EBC30288
:10298000C2E9001001E0FFE700BF00BF9448904992
:10299000097800EBC100934A0023D0E9006130467A
:1029A000FDF73EFD8E488A49097800EBC1000CC056
:1029B00000208B49864A0090127801EBC201D1E9D0
:1029C000006383490978C1EBC101824A02EB4100EF
:1029D000324600F073FBBDF87E0078B37F48007884
:1029E000801E06287AD2DFE800F003162A3E5266DF
:1029F0007B487749097800EBC100D0E900207A498B
:102A0000511A60F10000764A714B1B7802EBC30249
:102A1000C2E9001063E072486D49097800EBC1001B
:102A2000D0E90020714BD21A60F100006C49684B6C
:102A30001B7801EBC301C1E9002050E075E0684854
:102A40006349097800EBC100D0E900104EF660231D
:102A5000C91A60F10000624A5D4B1B7802EBC302A9
:102A6000C2E900103BE05E485949097800EBC1001B
:102A7000D0E9001041F27072891A60F10000584AE2
:102A8000534B1B7802EBC302C2E9001027E0544805
:102A90004F49097800EBC100D0E900204FF47A7368
:102AA000D21A60F100004E49494B1B7801EBC3017B
:102AB000C1E9002013E04A484549097800EBC1000C
:102AC000D0E90010643960F10000454A404B1B78A2
:102AD00002EBC302C2E9001001E0FFE700BF00BF44
:102AE0003F483B49097800EBC1003E4A0023D0E94A
:102AF00000613046FDF794FC39483549097800EB10
:102B0000C1000CC000203649314A0090127801EB18
:102B1000C201D1E900632E490978C1EBC1012D4AF8
:102B200002EB4100324600F0C9FA2C48017801203E
:102B30008840C0B200902E480CC826A800F082FC45
:102B400025480079022800E062E006D1FF200090CD
:102B500027480CC826A800F075FC59E002201E4941
:102B600008700422410228A8FEF704F8042240F26B
:102B7000044129A8FDF7FEFF0023DDE928105918BC
:102B800058411C4AC2E900100820009010460CC8A9
:102B9000194800F093FA0020009018480CC8184813
:102BA00000F08CFA002410E000200D4901EBC40174
:102BB0000090D1E90063C4EBC401064A02EB410076
:102BC000324600F07BFA601CC4B2022CECDB19E048
:102BD00031000020E000002028000020300000200C
:102BE0000001002000D6830080EE3600407E050004
:102BF0000800002010000020C40000201800002061
:102C0000D200002041F270704D49088000E000BF02
:102C100000BF00240AE026A9085D00F007FA494930
:102C20000855202026A90855601CC4B2082CF2DBE8
:102C300045480079022803D04348C078032804D1CE
:102C40004FF4FA603F49C8603CE00A2200233F4944
:102C500003C9FDF7E5FB00214A404B401A4304D16C
:102C60003B480088401C3A4908803A483A4909885C
:102C700030F8210058B937483749098800EB8100FE
:102C8000408820B90020324908803349088004E098
:102C900031480088401C304908802E492E48008861
:102CA000401C01EB80004088294909888842EFDDFB
:102CB00028482949098830F82100284931F81000AE
:102CC0002049C86000201F49C860B9F1000F34D006
:102CD000032223A12846FDF7D3FC70BB092221A1C2
:102CE000281DFDF7CDFC40BB4FF00E080020064626
:102CF000074612E00A224FF0000C3046A0FB021AF1
:102D000007FB02A206FB0C224046431C1FFA83F875
:102D1000285C30380E1842EBE07715F808000028E0
:102D2000E8D132463B4612A16846FDF7F1FB684602
:102D300000F0CAF81D48C0C000BF2AB0BDE8F08747
:102D400022000020B0000020280000200800002001
:102D50002400002060360000260000209449000076
:102D60007365740074696D657374616D7000000043
:102D70005570646174696E672063757272656E74F4
:102D80002074696D657374616D7020746F3A256C81
:102D90006C752874696D65732074656E206D696C3F
:102DA0006C697365636F6E64732900001000002006
:102DB0000448006840F47000024908600248034972
:102DC0000860704788ED00E00024F4003C0000201B
:102DD00010B501210F4800F071F8044621460D4856
:102DE00000F066F80AE00B4800F018F80A49896E0E
:102DF00008700948806E401C07498866054800F045
:102E00001BF80028EFD10449896E08700249A1F827
:102E10006C0010BD00C0004040000020816911F02E
:102E2000100F0CBF00684FF0FF307047826912F03E
:102E3000200FFBD1016070478069012121EA101049
:102E40007047D0F818C01CF0080FFAD1D0F82CC089
:102E50002CF0100CC0F82CC0D0F830C02CF0010CB5
:102E60002CF4407CC0F830C0D0F830C0B1EB021F69
:102E700034BF4CF0200C2CF0200CC0F830C038BF10
:102E80005208C900B1FBF2F1491C49088A094262A3
:102E900001F03F018162C36200218161C16A41F09A
:102EA0001001C162016B40F20132114301637047AE
:102EB00041647047826B114381637047002914BFDE
:102EC000006CC06B7047000010B5044604E014F8B5
:102ED000011B0348FFF7AAFF20780028F7D110BD97
:102EE00000C0004010B50446A089401CA081A08904
:102EF00064285EDBA0896438A0816089401C608101
:102F000060893C2855DB60893C3860812089401C01
:102F1000208120893C284CDB20893C382081E088B6
:102F2000401CE080E088182843DBE0881838E08007
:102F3000A088401CA080208800F068F910B14FF4F0
:102F4000B77001E040F26D10A188884231DC208822
:102F500000F05CF910B14FF4B77001E040F26D1071
:102F6000A188081AA0802088401C2080208800F0BA
:102F70004DF920B160880F4931F8100003E06088F6
:102F80000D4931F81000A188884212DC208800F039
:102F90003DF920B16088074931F8100003E06088EE
:102FA000054931F81000A188081AA0806088401CEB
:102FB000608010BD803500006835000001460029A2
:102FC00005DB092903DC01F13000C0B2704701F1D3
:102FD0006100C0B2FAE7000070B504460D462A460B
:102FE00005212220FDF75AFF0120A040C2B2062190
:102FF0002220FDF753FF0C49097C4FF47A6211FB44
:1030000002F0FDF7DCFC002206212220FDF746FF3E
:103010000549097CC1F104014FF47A6211FB02F009
:10302000FDF7CDFC70BD0000B000002030B597B0BA
:1030300004462C220BA10CA8FDF73BFB2C2214A16B
:1030400001A8FDF736FB21460CA8FDF70FFB05464E
:103050002DB10CA8281A01A9085C17B030BD0020BA
:10306000FBE70000303132333435363738394162CE
:1030700042436444454647484A4B4C4D4E506F4F7F
:103080005152545355565758595A2E2D5F2000000F
:103090003F065B4F666D7D077F6F777C7C395E5E98
:1030A00079713D760D72385554735C5C6F50786D54
:1030B0003E1C6A1D6E498040080000002DE9F05F4B
:1030C000044615461E46DDF8289040F2B270208076
:1030D0006422002328463146FDF7A2F9A28164222A
:1030E000002328463146FDF79BF907463C22002382
:1030F000FDF796F962816422002328463146FDF7E8
:103100008FF907464FF461620023FDF789F9924673
:1031100019463C2200235046FDF782F920816422A3
:10312000002328463146FDF77BF90746344A002341
:10313000FDF776F9924619464FF461620023504636
:10314000FDF76EF910EB0900E0804FF064024FF0DC
:10315000000328463146FDF763F90746284A002355
:10316000FDF75EF9A080E088182805DBE0881838B4
:10317000E080A088401CA080002060800EE02088B5
:1031800000F044F810B14FF4B77001E040F26D1058
:10319000A188081AA0802088401C2080208800F088
:1031A00035F810B14FF4B77001E040F26D10A1880E
:1031B0008842E4DD12E0208800F028F820B1608821
:1031C000104931F8100003E060880F4931F8100011
:1031D000A188081AA0806088401C6080208800F0C8
:1031E00015F820B16088074931F8100003E06088C5
:1031F000054931F81000A1888842DCDDBDE8F09F68
:1032000080510100803500006835000001460A4603
:10321000C81701EB90708010A1EB800070B964209A
:1032200091FBF0F300FB131030B94FF4C87091FB21
:10323000F0F300FB131008B9012070470020FCE7F1
:103240000024FF2500BF504943F65050FEF782F896
:103250004E4908604E48057040F286704C49A1F80E
:103260006C00881C886600204A49C86004200874E5
:103270000120487400208874FDF71AFFFDF742FF13
:10328000FEF730F8FDF78AFFFDF7F2FFFDF7A2FF2A
:103290004148FEF7DFF900BF3F48FEF7EFF900288D
:1032A000FAD0FDF793FB6DE03A48007AC043C2B212
:1032B00001211820FDF7F2FD002412E00021222058
:1032C000FDF7ACFD05460DB1314805703148007C75
:1032D000002804DD2F48015D2046FFF77DFE601CBD
:1032E000C4B2082CEADB2B48C06808B1012000E01A
:1032F0000020024680212948FDF7B6FE2548807C43
:10330000F0B100241AE000202549087010E025489B
:1033100023490978425C0F212348FDF77CFD4FF4D7
:103320007A60FDF74CFB1E480078401C1C49087071
:103330001B4800780828EADB601CC4B2082CE2DBDA
:103340001448C068C0B11348C06810490968B1FB8F
:10335000F0F632464FF480711048FDF77CFE0D48C0
:10336000C0680A490968B1FBF0F08608324640F2AD
:1033700007110A48FDF780FE03210C48FDF7E6FC23
:103380000349487090E700000024F400000000208A
:1033900040000020B0000020005800F000800240F3
:1033A000040000208C4900000050024000D003407F
:1033B00010B50446A08900283BD16320A081608914
:1033C000002832D13B206081208950BB3B202081E6
:1033D000E08810BB1720E080A088D0B9608828B9A9
:1033E0002088401E20800B20608002E06088401E04
:1033F00060802088FFF70AFF20B160880F4931F80C
:10340000100003E060880E4931F81000401EA080D3
:1034100012E0A088401EA0800EE0E088401EE08000
:103420000AE02089401E208106E06089401E6081FC
:1034300002E0A089401EA08110BD00008035000080
:10344000683500002DE9F041054616461F46DDF8B7
:103450001880C822002330463946FCF7E1FF64217A
:10346000511A73F100030CD2002408E00120A0409F
:1034700000EA080008B120202855601CC4B2082CBE
:10348000F4DBBDE8F081000070B5024600200AE0E0
:10349000254B03EBC003D3E9004302EBC005C5E9AC
:1034A0000043431C98B21828F2DB40F2E5739942BE
:1034B0001ADA11E000200DE002EBC003D3E900436B
:1034C0001A4EA41B63F1000302EBC005C5E90043DB
:1034D000431C98B21828EFDB0B464C1CA1B240F2FB
:1034E000E574A342E6D11DE040F2E573994219DD8F
:1034F00011E000200DE002EBC003D3E900530B4EB6
:10350000AD1943F1000302EBC004C4E90053431CAE
:1035100098B21828EFDB0B464C1EA1B240F2E574BE
:10352000A342E6D170BD0000A0350000D40B18BC4A
:1035300010B500290AD00878002807D0054878443B
:10354000FDF7F6F9002801D0002010BD02487844AC
:1035500010BD0000D61A0000CE1A00004FF04070D7
:10356000E1EE100A704700001F001C001F001E0043
:103570001F001E001F001F001E001F001E001F0056
:103580001F001D001F001E001F001E001F001F0047
:103590001E001F001E001F006D016E0100000000D4
:1035A00094CF417B250000009866D682250000005C
:1035B0003CB7708A2500000030EC12922500000014
:1035C000D05DC29925000000FCE97FA12500000024
:1035D000E8354FA925000000080B2FB12500000099
:1035E000F8C620B92500000048CE20C12500000003
:1035F000341D2EC925000000443643D125000000AB
:10360000602F5DD925000000400676E1250000000E
:10361000F4F989E925000000002C94F12500000050
:103620007C4691F9250000001CD47E012600000094
:10363000B4F85A0926000000D4192611260000000B
:103640005856E01826000000BC988C202600000088
:103650005CCE2C28260000009897C52F260000007D
:10366000220015002700150022004100270041001C
:1036700022006C0027006C0022008D0027008D00C6
:103680002200A3002700A3002200C3002700C300DC
:103690002200EF002700EF0022001A0127001A0184
:1036A000220071012700710122009D0127009D0168
:1036B0002200C8012700C8012200E9012700E90112
:1036C0002200FE012700FE0122001F0227001F0228
:1036D00022004A0227004A022200760227007602D0
:1036E0002200CD022700CD022200F8022700F802B6
:1036F000220024032700240322004403270044035C
:1037000022005A0327005A0322007B0327007B0371
:103710002200A6032700A6032200D2032700D2031B
:1037200022002904270029042200540427005404FD
:1037300022008004270080042200A0042700A004A7
:103740002200B6042700B6042200D7042700D704BD
:1037500022000205270002055800430556004505D2
:1037600057004505540046055500460553004805D9
:103770005200490551004A0550004A054F004B05CB
:103780004E004D054D004D054C004E054A005005BC
:103790004B005005480051054900510547005305AD
:1037A00046005405450054054400550543005605A0
:1037B00042005805410058054000590522008F0578
:1037C00027008F052200A5052700A5052500B005C7
:1037D0002700BB052200E6052700E6052200FC05C0
:1037E0002700FC05250007062700120622003D06DB
:1037F00027003D06220053062700530625005E06DB
:1038000027006906270089062A0094062A00B506C3
:103810002C00C0062200EB062700EB062200010761
:103820002700010725000C07270017072200420781
:103830002700420722005807270058072500630782
:1038400027006E0722009907270099072200AF077B
:103850002700AF072500BA072700C5072A00E5079C
:103860002C00F007270011082A001C082200470836
:103870002700470822005D0827005D08250068082A
:103880002700730822009E0827009E082200B40823
:103890002700B4082500BF082700CA082200F50841
:1038A0002700F50822000B0927000B09250016093F
:1038B00027002009270041092A004C092A006D0928
:1038C0002C0077092200A3092700A3092200B909C7
:1038D0002700B9092500C4092700CE092200FA09EA
:1038E0002700FA092200100A2700100A25001A0AE8
:1038F0002700250A2200510A2700510A2200670AE0
:103900002700670A2500710A27007C0A2C00870A15
:103910002A00960A2C00A40A2A00B30A2700C10A2A
:103920002A00D00A3300DE0A3500F40A36000A0BFA
:1039300038001F0B3A00350B3F00610B3D00760B42
:103940003A008C0B3300B80B3A00E30B3800F90B4C
:1039500036000E0C3500240C33003A0C3500500CA8
:103960003600650C38007B0C3A00910C3800BC0C1A
:103970003600D20C3500E80C3300FE0C3500130D78
:103980003600290D35003F0D3300550D32006A0D0C
:103990003500800D3300960D3500AC0D3600C10D9D
:1039A0003800D70D3A00ED0D3F00180E3D002E0EE9
:1039B0003A00440E33006F0E3A009B0E3800B00EF2
:1039C0003600C60E3500DC0E3300F20E3500070F50
:1039D00036001D0F3800330F3A00490F3800740FBE
:1039E00036008A0F3500A00F3600CB0F3800F60FD7
:1039F0003A0022102E004D1033004D103500631098
:103A00003600791038008F103600A4103A00A41048
:103A10003F00D0103D00E6103600FB103A00FB10CE
:103A20002E002711330027113A0052113800681177
:103A300036007E11350094112F00A9113300A91111
:103A40003500BF113600D5113800EA1136000012DA
:103A50003A00001238002C12360041123100571281
:103A60003500571233006D1235008312360098125C
:103A70003100AE123500AE123300C4123200DA1239
:103A80003500EF122E0005133300051335001B130C
:103A9000360031133800461336005C133A005C13CD
:103AA0003F0088133D009D133600B3133A00B31353
:103AB0002E00DE133300DE133A000A1438002014FF
:103AC0003600351435004B142F0061143300611497
:103AD0003500771436008C143800A2143600B81460
:103AE0003A00B8143800E3143600F91435000F1505
:103AF00036003A15380066153A0091153D00BD159F
:103B00003F00D2153A00E8153800FE1536001416AD
:103B10003A00141638003F163A0055163D006B1651
:103B20003F0080163A0096163800AC163500C216D3
:103B30003A00C2163800ED163A000317380019177C
:103B400036002E173500441731005A172E00701713
:103B50003300701731009B173300B1173500C617BB
:103B60003600DC173800F2173A0008182E001D182E
:103B700033001D183A0049183D005F183D007418C5
:103B80003F008A183A00A0183800B6183600CB1843
:103B90003A00CB183800F7183A000D193D002219E9
:103BA0003F0038193A004E19380064193500791968
:103BB0003A0079193800A5193A00BA193800D01915
:103BC0003600E6193500FC193100111A2E00271AAB
:103BD0003300271A3100531A3300681A35007E1A51
:103BE0003600941A3800AA1A3A00BF1A2E00D51AC5
:103BF0003300D51A3A00011B4600011B3D00161B7D
:103C00004900161B3D002C1B49002C1B3F00421B8A
:103C10004B00421B3A00581B4600581B38006D1BD6
:103C200044006D1B3A00831B4600831B3800AE1B0B
:103C30004400AE1B3A00C41B4600C41B3D00DA1B07
:103C40004900DA1B3F00F01B4B00F01B3A00051C3B
:103C50004600051C38001B1C44001B1C3A00311C8C
:103C60004600311C38005C1C44005C1C3A00721C8D
:103C70004600721C3800881C4400881C36009E1CBC
:103C800042009E1C3500B31C4100B31C3100C91C0E
:103C90003D00C91C3300DF1C3F00DF1C31000A1D42
:103CA0003D000A1D3300201D3F00201D3500361D3C
:103CB0004100361D36004C1D42004C1D3800611D70
:103CC0004400611D3A00771D4600771D33008D1DAD
:103CD0003F008D1D3A00B81D4600B81D3D00CE1DA9
:103CE0004900CE1D3D00E41D4900E41D3F00F91DC3
:103CF0004B00F91D3A000F1E46000F1E3800251E0E
:103D00004400251E3A003B1E46003B1E3800661E3E
:103D10004400661E3A007C1E46007C1E3D00921E3A
:103D20004900921E3F00A71E4B00A71E3A00BD1E71
:103D30004600BD1E3800D31E4400D31E3A00E91EC3
:103D40004600E91E3F00141F4B00141F41002A1FAC
:103D50004D002A1F4200401F4E00401F4100551FCA
:103D60004D00551F3F006B1F4B006B1F3D00811F17
:103D70004900811F3A00961F4600961F3800C21F57
:103D80004400C21F3A00D81F4600D81F3800ED1F5C
:103D90004400ED1F360003204200032035001920A7
:103DA0004100192031002F203D002F2033004420F6
:103DB0003F0044203A0070203D0086203D009B20BB
:103DC0003F00B1203A00C7203800DD203A00F22041
:103DD00038001E213A0034213D0049213F005F2177
:103DE0003A00752138008A213A00A0213800CC2100
:103DF0003A00E1213800F72136000D223500232258
:103E00003100382233004E2231007A2233008F22D3
:103E10003500A5223600BB223800D1223A00E62226
:103E20003300FC223A0028233D003D233D0053236C
:103E30003F0069233A007E23380094233A00AA23E6
:103E40003800D5233A00EB233D0001243F0017241E
:103E50003A002C24380042243A00582438008324A5
:103E60003A0099243800AF243600C5243500DA24FE
:103E70003100F02433000625310031253300472579
:103E800035005D2536007225380088253A009E25CC
:103E90003300B4253A00DF254600DF253D00F52537
:103EA0004900F5253D000B2649000B263F00202642
:103EB0004B0020263A0036264600362638004C268F
:103EC00044004C263A0062264600622638008D26C1
:103ED00044008D263A00A3264600A3263D00B926BD
:103EE0004900B9263F00CE264B00CE263A00E426F4
:103EF0004600E4263800FA264400FA263A00102745
:103F00004600102738003B2744003B273A00512742
:103F100046005127380066274400662736007C2774
:103F200042007C2735009227410092273100A827C4
:103F30003D00A8273300BD273F00BD273100E927FA
:103F40003D00E9273300FF273F00FF2735001428F5
:103F50004100142836002A2842002A283800402828
:103F6000440040283A0056284600562833006B2863
:103F70003F006B283A009728460097283D00AD285F
:103F80004900AD283D00C2284900C2283F00D8287A
:103F90004B00D8283A00EE284600EE2838000429C5
:103FA000440004293A0019294600192938004529F6
:103FB000440045293A005A2946005A293D007029F3
:103FC000490070293F0086294B0086293A009C2928
:103FD00046009C293800B1294400B1293A00C7297C
:103FE0004600C7293F00F3294B00F3294100082A66
:103FF0004D00082A42001E2A4E001E2A4100342A83
:104000004D00342A3F004A2A4B004A2A3D005F2ACD
:1040100049005F2A3A00752A4600752A3800A12A0D
:104020004400A12A3A00B62A4600B62A3800CC2A13
:104030004400CC2A3600E22A4200E22A3500F82A5F
:104040004100F82A31000D2B3D000D2B3300232BAE
:104050003F00232B22009B2B27009B2B2200B02B01
:104060002700B02B2500BB2B2700C62B2200F22BEC
:104070002700F22B2200072C2700072C2500122CEA
:1040800027001D2C2200482C2700482C22005E2CE3
:1040900027005E2C2500692C2700742C2700952C06
:1040A0002A009F2C2A00C02C2C00CB2C2200F62C9E
:1040B0002700F62C22000C2D27000C2D2500172D93
:1040C0002700222D22004D2D27004D2D2200632D8B
:1040D0002700632D25006E2D2700792D2200A42DA9
:1040E0002700A42D2200BA2D2700BA2D2500C52DAA
:1040F0002700D02D2A00F02D2C00FB2D27001C2E90
:104100002A00272E2200522E2700522E2200682E2F
:104110002700682E2500732E27007E2E2200A92E50
:104120002700A92E2200BF2E2700BF2E2500CA2E51
:104130002700D52E2200002F2700002F2200162F47
:104140002700162F2500212F27002C2F27004C2F6A
:104150002A00572F2A00782F2C00832F2200AE2F01
:104160002700AE2F2200C42F2700C42F2500CF2FF9
:104170002700DA2F220005302700053022001B30EF
:1041800027001B30250026302700303022005C300D
:1041900027005C30220072302700723025007D300D
:1041A000270087302C0092302A00A1302C00AF303D
:1041B0002A00BE302700CC302A00DB303300E93043
:1041C0003500FF303600153138002A313A004031D1
:1041D0003F006C313D0081313A0097313300C331EB
:1041E0003A00EE313800043236001A3235002F32F0
:1041F0003300453235005B3236007132380086328A
:104200003A009C323800C8323600DD323500F332D5
:104210003300093335001E333600343335004A335A
:10422000330060333200753335008B333300A133F4
:104230003500B7333600CC333800E2333A00F83378
:104240003F0023343D0039343A004F3433007A3490
:104250003A00A6343800BC343600D1343500E73497
:104260003300FD34350012353600283538003E3530
:104270003A00543538007F35360095353500AB357A
:104280003600D635380002363A002D362E00593623
:104290003300593635006E363600843638009A368B
:1042A0003600B0363A00B0363F00DB363D00F1361E
:1042B000360006373A0006372E00323733003237E1
:1042C0003A005D37380073373600893735009F373D
:1042D0002F00B4373300B4373500CA373600E03723
:1042E0003800F63736000B383A000B3838003738CC
:1042F00036004D3831006238350062383300783886
:1043000035008E383600A4383100B9383500B93858
:104310003300CF383200E5383500FA382E00103936
:10432000330010393500263936003C393800513910
:10433000360067393A0067393F0093393D00A839A4
:104340003600BE393A00BE392E00EA393300EA3968
:104350003A00153A38002B3A3600413A3500563AC1
:104360002F006C3A33006C3A3500823A3600983AA6
:104370003800AD3A3600C33A3A00C33A3800EE3A54
:104380003600043B35001A3B3600453B3800713B94
:104390003A009C3B3D00C83B3F00DE3B3A00F33B0C
:1043A0003800093C36001F3C3A001F3C38004A3CAC
:1043B0003A00603C3D00763C3F008C3C3A00A13C1A
:1043C0003800B73C3500CD3C3A00CD3C3800F83CD5
:1043D0003A000E3D3800243D3600393D35004F3D52
:1043E0003100653D2E007B3D33007B3D3100A63D15
:1043F0003300BC3D3500D23D3600E73D3800FD3D81
:104400003A00133E2E00293E3300293E3A00543E26
:104410003D006A3E3D00803E3F00953E3A00AB3E87
:104420003800C13E3600D63E3A00D63E3800023F44
:104430003A00183F3D002D3F3F00433F3A00593FAF
:1044400038006F3F3500843F3A00843F3800B03F6A
:104450003A00C63F3800DB3F3600F13F35000740E9
:1044600031001D402E0032403300324031005E40AA
:10447000330074403500894036009F403800B54015
:104480003A00CA402E00E0403300E0403A000C41C0
:1044900046000C413D002141490021413D0037418A
:1044A000490037413F004D414B004D413A006341C7
:1044B0004600634138007841440078413A008E411B
:1044C00046008E413800BA414400BA413A00CF411B
:1044D0004600CF413D00E5414900E5413F00FB4139
:1044E0004B00FB413A00114246001142380026427F
:1044F000440026423A003C4246003C4238006842B2
:10450000440068423A007D4246007D4238009342B2
:10451000440093423600A9424200A9423500BE42FF
:104520004100BE423100D4423D00D4423300EA4251
:104530003F00EA42310015433D00154333002B4351
:104540003F002B4335004143410041433600574370
:104550004200574338006C4344006C433A008243A6
:1045600046008243330098433F0098433A00C343D8
:104570004600C3433D00D9434900D9433D00EF43C2
:104580004900EF433F0005444B0005443A001A44FC
:1045900046001A4438003044440030443A0046444F
:1045A0004600464438007144440071443A00874450
:1045B000460087443D009D4449009D443F00B2446D
:1045C0004B00B2443A00C8444600C8443800DE44B8
:1045D0004400DE443A00F4444600F4443F001F45E2
:1045E0004B001F45410035454D00354542004B45C8
:1045F0004E004B45410060454D0060453F0076450B
:104600004B0076453D008C4549008C453A00A2455B
:104610004600A2453800CD454400CD453A00E3456B
:104620004600E3453800F9454400F94536000E469A
:1046300042000E46350024464100244631003A46E9
:104640003D003A46330050463F0050463B007B4613
:104650003E0091463E00A6464000BC463B00D24686
:104660003900E8463B00FD46390029473B003F47FB
:104670003E00544740006A473B0080473900964758
:104680003B00AB473900D7473B00ED4739000248B4
:104690003700184836002E48320044483400594844
:1046A0003200854834009A483600B0483700C64882
:1046B0003900DC483B00F148340007493B003349EE
:1046C0003E0048493E005E49400074493B008A492B
:1046D00039009F493B00B5493900E1493B00F649A3
:1046E0003E000C4A4000224A3B00384A39004D4AFD
:1046F0003B00634A39008E4A3B00A44A3900BA4A5B
:104700003700D04A3600E54A3200FB4A3400114BEC
:1047100032003C4B3400524B3600684B37007E4B26
:104720003900934B3B00A94B3400BF4B3B00EA4B95
:104730004700EA4B3E00004C4A00004C3E00164C3D
:104740004A00164C40002C4C4C002C4C3B00414C79
:104750004700414C3900574C4500574C3B006D4CCD
:1047600047006D4C3900984C4500984C3B00AE4CCE
:104770004700AE4C3E00C44C4A00C44C4000D94CEB
:104780004C00D94C3B00EF4C4700EF4C3900054D35
:104790004500054D3B001B4D47001B4D3900464D64
:1047A0004500464D3B005C4D47005C4D3900724D65
:1047B0004500724D3700874D4300874D36009D4DB3
:1047C00042009D4D3200B34D3E00B34D3400C94D03
:1047D0004000C94D3200F44D3E00F44D34000A4E05
:1047E00040000A4E3600204E4200204E3700354E23
:1047F0004300354E39004B4E45004B4E3B00614E59
:104800004700614E3400764E4000764E3B00A24E8B
:104810004700A24E3E00B84E4A00B84E3E00CD4E74
:104820004A00CD4E4000E34E4C00E34E3B00F94EB3
:104830004700F94E39000F4F45000F4F3B00244F02
:104840004700244F3900504F4500504F3B00664F02
:104850004700664F3E007B4F4A007B4F4000914F20
:104860004C00914F3B00A74F4700A74F3900BD4F69
:104870004500BD4F3B00D24F4700D24F4000FE4F96
:104880004C00FE4F420014504E001450430029507B
:104890004F00295042003F504E003F5040005550BD
:1048A0004C0055503E006A504A006A503B00805010
:1048B000470080503900AC504500AC503B00C1501F
:1048C0004700C1503900D7504500D7503700ED5050
:1048D0004300ED503600035142000351320018519D
:1048E0003E00185134002E5140002E512D008551AC
:1048F0002D009B512F00A6512D00BB512F00C651FA
:104900002D00DC512D00F2512F00FD512D001252CF
:104910002F001D522D0033522D0049522F005452AA
:104920002D0069522F0074522D008A522D00A05282
:104930002F00AB522D00C0522F00CB522D00E15260
:104940002D00F7522F0002532D0017532F00225332
:104950002D0038532D004E532F0058532D006E5309
:104960002F0079532D008F532D00A5532F00AF53E7
:104970002D00C5532F00D0532D00E6532D00FC53BE
:104980002F0006542D001C542F0027540901030248
:1049900006040C08000023002500270029002C0035
:1049A0002E003100340037003A003E00420046003D
:1049B0004A004E00530058005D00620068006E001F
:1049C00075007C0083008B0093009C00A500AF0065
:1049D000BA00C500D000DD00EA00F80007011601AA
:1049E000270138014B015F0173018901A101BA015F
:1049F000D401F0010D022C024E0271029602BD029A
:104A0000E702130342037303A803E0031B045904E2
:104A10009B04E1042C057A05CE0526068406E706EC
:104A20005007BF073508B2083609C309570AF40A08
:104A30009B0B4C0C070DCD0DA00E7E0F6A10641160
:104A40006D128513AE14E915371798180E1A9B1BB3
:104A50003F1DFC1ED420C822D9240A275C29D22B52
:104A60006D2E30311D3436377E3AF93D004000401E
:104A700010000000008005401000000000500040C1
:104A8000110000000090054011000000006000408F
:104A90001200000000A0054012000000007000405D
:104AA0001300000000B00540130000000040024069
:104AB0001400000000C00540140000000050024037
:104AC0002E00000000D005402E00000000600240D3
:104AD0002F00000000E005402F00000000700240A1
:104AE0003000000000F005403000000000D003401E
:104AF000460000000000064046000000001006408E
:104B0000470000000020064048000000003006403A
:104B10007F0000000040064080000000005006407A
:104B200084000000006006408C000000004000404F
:104B30001000000000800540100000000050004000
:104B400011000000009005401100000000600040CE
:104B50001200000000A0054012000000007000409C
:104B60001300000000B005401300000000400240A8
:104B70001400000000C00540140000000050024076
:104B80002E00000000D005402E0000000060024012
:104B90002F00000000E005402F00000000700240E0
:104BA0003000000000F005403000000000D003405D
:104BB00043000000000006404300000000100640D3
:104BC0004400000000200640450000000030064080
:104BD0005800000000400640590000000050064008
:104BE0005C000000006006406400000000700640A9
:104BF0006C000000008006406D0000000090064040
:104C00007F00000000400040008005400050004050
:104C1000009005400060004000A00540007000408A
:104C200000B005400040024000C005400050024076
:104C300000D005400060024000E0054000700240E6
:104C400000F0054000D00340000006400010064080
:104C500000100640002006400020064000300640BC
:104C6000003006400040064000400640005006402C
:104C7000005006400060064000600640007006409C
:104C8000007006400080064000800640009006400C
:104C9000009006400007000000060000000500002C
:104CA00000040000000300000002000000010000FA
:104CB000000000000000000018ED00E01CED00E026
:104CC00020ED00E000E400E004E400E008E400E09F
:104CD0000CE400E010E400E014E400E018E400E07C
:104CE0001CE400E020E400E024E400E028E400E02C
:104CF0002CE400E030E400E034E400E038E400E0DC
:104D00003CE400E040E400E044E400E048E400E08B
:104D10004CE400E050E400E054E400E058E400E03B
:104D20005CE400E060E400E064E400E068E400E0EB
:104D30006CE400E070E400E074E400E078E400E09B
:104D40007CE400E080E400E084E400E088E400E04B
:104D500000E100E004E100E008E100E00CE100E037
:104D600010E100E080E100E084E100E088E100E0A3
:104D70008CE100E090E100E000E200E004E200E00D
:104D800008E200E00CE200E010E200E080E200E077
:104D900084E200E088E200E08CE200E090E200E0E3
:104DA00000688909001C4E0E40420F0000201C00C4
:104DB00080841E0000802500999E36000040380047
:104DC00000093D0000803E0000004B00404B4C00BD
:104DD00000204E00808D5B0000C05D0000807000F0
:104DE00000127A0000007D0080969800001BB7003A
:104DF0000080BB00C0E8CE00647ADA000024F40032
:104E00000000FA0080A81201002D310100366E0169
:104E100040787D014000000000000000000100001B
:104E20003E0008000000000000010000A00000009B
:104E300002000000000100003454010000000000E6
:104E4000000100002B7006000000000000010000BF
:104E50002800000000000000000100002700010001
:104E60000000000000010000200000000000000021
:104E700000010000500000000200000000010000DE
:104E80001AAC0000000000000001000017940900A7
:104E9000000000000001000016980500000000005E
:104EA00000010000140000000000000000010000EC
:104EB000138008000000000000010000A0000000B6
:104EC00008000000000100001000000000000000C9
:104ED00000010000280000000200000000010000A6
:104EE000400000000400000000010000600000001D
:104EF00000000000000100005D000C000000000048
:104F0000000100005000000000000000000100004F
:104F10004E000200000000000001000041AC010052
:104F200000000000000100003C0000000000000044
:104F3000000100003A8009000000000000010000AC
:104F40003000000000000000000100002800000008
:104F50000000000000010000270001000000000028
:104F600000010000236006000000000000010000B6
:104F70002160080000000000000100001E00000089
:104F800000000000000100001DC00400000000003F
:104F900000010000500000000200000000010000BD
:104FA00018000000000000000001000014000000D4
:104FB000000000000001000060000000040000008C
:104FC000000100000024F40030003000005A6202AA
:104FD0009100910000879303D200D20000B4C40472
:104FE0001301130100E1F50554015401000E2707D8
:104FF00095019501245100000000002040000000B0
:105000003C020000645100004000002060050000E8
:10501000580200001001000043000000F8FFFFFFED
:1050200000404040404040404040414141414140BB
:105030004040404040404040404040404040404070
:1050400040050202020202020202020202020202FF
:105050000220202020202020202020020202020204
:10506000020290909090909010101010101010105C
:105070001010101010101010101010100202020268
:1050800002028888888888880808080808080808AC
:1050900008080808080808080808080802020202A8
:1050A00040000000000000000000000000000000C0
:1050B00000000000000000000000000000000000F0
:1050C00000000000000000000000000000000000E0
:1050D00000000000000000000000000000000000D0
:1050E00000000000000000000000000000000000C0
:1050F00000000000000000000000000000000000B0
:10510000000000000000000000000000000000009F
:10511000000000000000000000000000000000008F
:10512000000000000000000000000000000000007F
:105130000000000080966CCA2500000000000000FE
:105140000000000000000000000000000500000258
:10515000000000000000000000000000000000004F
:045160000024F40033
:0400000500000201F4
:00000001FF
