:020000040000FA
:1000000028030020C9020000D1020000D302000032
:10001000D5020000D7020000D90200000000000055
:10002000000000000000000000000000DB020000F3
:10003000DD02000000000000DF020000A11100004E
:10004000E3020000E5020000E7020000E902000010
:10005000EB02000001230000EF020000F1020000AB
:10006000F3020000F5020000F7020000F9020000B0
:10007000FB020000FD020000FF020000010300007F
:10008000030300000503000007030000090300004C
:100090000B0300000D0300000F030000110300001C
:1000A00013030000150300001703000019030000EC
:1000B0001B0300001D0300001F03000021030000BC
:1000C000230300002503000027030000290300008C
:1000D0002B0300002D0300002F030000310300005C
:1000E000330300003503000037030000390300002C
:1000F0003B0300003D0300003F03000041030000FC
:1001000043030000450300004703000049030000CB
:100110004B0300004D0300004F030000510300009B
:10012000530300005503000057030000590300006B
:100130005B0300005D0300005F030000610300003B
:1001400063030000650300006703000081030000F3
:100150000000000000000000830300008503000091
:100160008703000089030000000000008B030000EB
:100170008D0300008F030000910300009303000033
:100180009503000097030000990300009B03000003
:100190009D0300009F030000A1030000A3030000D3
:1001A000A5030000A7030000A9030000AB030000A3
:1001B000AD030000AF030000B1030000B303000073
:1001C000B5030000B7030000B9030000BB03000043
:1001D000BD030000BF030000C1030000C303000013
:1001E000C5030000C7030000C9030000CB030000E3
:1001F000CD030000CF030000D1030000D3030000B3
:1002000000F002F800F03CF80AA090E8000C8244EC
:100210008344AAF10107DA4501D100F031F8AFF2C9
:10022000090EBAE80F0013F0010F18BFFB1A43F0D4
:1002300001031847242B0000442B0000103A24BF70
:1002400078C878C1FAD8520724BF30C830C144BF3B
:1002500004680C607047000000230024002500267D
:10026000103A28BF78C1FBD8520728BF30C148BF19
:100270000B6070471FB502F08AFA1FBD10B510BDA4
:1002800000F0B9F91146FFF7F5FF02F0EDF900F0C3
:10029000D7F903B4FFF7F2FF03BC00F0DFF9000069
:1002A000EFF3108072B67047EFF310807047EFF3F2
:1002B000108062B6704730BF704780F31188704776
:1002C000EFF31180704700004548804745480047DC
:1002D000FEE7FEE7FEE7FEE7FEE7FEE7FEE7FEE7F6
:1002E000FEE7FEE7FEE7FEE7FEE7FEE7FEE7FEE7E6
:1002F000FEE7FEE7FEE7FEE7FEE7FEE7FEE7FEE7D6
:10030000FEE7FEE7FEE7FEE7FEE7FEE7FEE7FEE7C5
:10031000FEE7FEE7FEE7FEE7FEE7FEE7FEE7FEE7B5
:10032000FEE7FEE7FEE7FEE7FEE7FEE7FEE7FEE7A5
:10033000FEE7FEE7FEE7FEE7FEE7FEE7FEE7FEE795
:10034000FEE7FEE7FEE7FEE7FEE7FEE7FEE7FEE785
:10035000FEE7FEE7FEE7FEE7FEE7FEE7FEE7FEE775
:10036000FEE7FEE7FEE7FEE7FEE7FEE7FEE7FEE765
:10037000FEE7FEE7FEE7FEE7FEE7FEE7FEE7FEE755
:10038000FEE7FEE7FEE7FEE7FEE7FEE7FEE7FEE745
:10039000FEE7FEE7FEE7FEE7FEE7FEE7FEE7FEE735
:1003A000FEE7FEE7FEE7FEE7FEE7FEE7FEE7FEE725
:1003B000FEE7FEE7FEE7FEE7FEE7FEE7FEE7FEE715
:1003C000FEE7FEE7FEE7FEE7FEE7FEE7FEE7FEE705
:1003D000FEE7FEE704480549034A054B7047000065
:1003E000E122000001020000280100202803002073
:1003F0002801002053EA020C00F069802DE9F04B3F
:100400004FF00006002B1FBFB3FA83F503FA05F483
:1004100024FA05F65E4012BF1643B2FA82F502FADC
:1004200005F4C5F120051EBF22FA05FC44EA0C04C0
:10043000203556EA044C4FEA144418BF641C4FF0B0
:1004400000084FF00009904271EB030C39D30029EA
:1004500019BFB1FA81F701FA07F6B0FA80F700FA8E
:1004600007F6C7F120071EBF20FA07FC46EA0C0674
:100470002037B6FBF4FCA7EB0507103F07F01F0B76
:10048000CBF120060CFA0BFB2CFA06F644BFB34660
:100490000026202FA4BF5E464FF0000B5BEA060C3F
:1004A00008BF4FF0010B19EB0B09ABFB027C48EBCB
:1004B0000608C01B06FB02CC0BFB03CC71EB0C0146
:1004C000C1E70B46024641464846BDE8F08B13B5EE
:1004D0004FF000004FF00001AFF30080BDE81C407A
:1004E0007047401ECAB210F8011F8A4202D000298C
:1004F000F9D10020704740EA010370B59B072ED167
:100500004FF00136042A2AD308C810C99D1B9D4309
:10051000121F15EAC61517D0D8B2E1B2401A50EA38
:10052000056110D198B2A1B2401A50EA05410AD132
:1005300023F07F4024F07F41401A50EA052102D188
:10054000180EA0EB146070BDA342DBD018BA21BA1C
:10055000884201D9012070BD4FF0FF3070BD0AB94B
:10056000002070BD10F8013B11F8014B63B1A342AC
:100570000AD1521E08D010F8013B11F8014B1BB1F3
:10058000A34201D1521EEDD1181B70BD10B5203A07
:10059000C0F00B80B1E81850203AA0E81850B1E83C
:1005A0001850A0E81850BFF4F5AF5FEA027C24BFF2
:1005B000B1E81850A0E8185044BF18C918C0BDE8E9
:1005C00010405FEA827C24BF51F8043B40F8043BB2
:1005D00008BF7047D20728BF31F8023B48BF11F867
:1005E000012B28BF20F8023B48BF00F8012B7047C1
:1005F000704770477047754600F02CF8AE4605000E
:100600006946534620F00700854618B020B5FFF72D
:10061000E1FEBDE820404FF000064FF000074FF02C
:1006200000084FF0000B21F00701AC46ACE8C00910
:10063000ACE8C009ACE8C009ACE8C0098D46704719
:1006400010B50446AFF300802046BDE81040FFF728
:1006500020BE000000487047C80000200149182053
:10066000ABBEFEE7260002007047002100E0491CF7
:100670008142FCD37047D0F8003412F0010F14BF50
:100680000B438B43C0F8003412F0020FD0F8202443
:1006900014BF114322EA0101C0F8201470472DE96C
:1006A000F00301264FF0000C0325C2F3411706FAB0
:1006B0000CF40C4211D0D0F8C48F4FEA4C0405FA68
:1006C00004F928EA0908C0F8C48FD0F8C48F07FAE3
:1006D00004F448EA0404C0F8C44F0CF1010C0CF017
:1006E000FF0CBCF1080FE2D3D0F800C512F0010FE7
:1006F00014BF4CEA010C2CEA010CC0F800C5D0F87C
:1007000004C512F0020F14BF4CEA010C2CEA010CD4
:10071000C0F804C5D0F808C512F0040F14BF4CEAA5
:10072000010C2CEA010CC0F808C5D0F818C512F06D
:10073000080F14BF4CEA010C2CEA010CC0F818C5D4
:1007400012F0100FD0F83C2514BF0A438A43C0F8BA
:100750003C25D0F80C2513F0010F14BF0A438A433F
:10076000C0F80C25D0F8102513F0020F14BF0A436F
:100770008A43C0F81025D0F8142513F0040F14BFD5
:100780000A438A43C0F81425D0F81C2513F0080F3B
:1007900014BF0A438A43C0F81C25D0F8442513F43B
:1007A000007F14BF0A438A43C0F84425D0F840258F
:1007B00013F4407F14BF0A438A43C0F84025D0F8A1
:1007C0002825002B0CBF114322EA0101C0F828158F
:1007D000BDE8F003704700000E4AC0F30741D26E37
:1007E00001238B401A420C4A1ABF02EBC10149682F
:1007F00052F83110020AD1F82C354FF00F0C0CFAD8
:1008000002FC00F00F0023EA0C0390401843C1F8EB
:100810002C05704700E00F406829000050F82100C7
:10082000704730B50C4605460022FFF724FF2146ED
:100830002846BDE8304008230122FFF730BF30B51D
:100840000C46054608230122FFF729FF21462846CA
:10085000BDE830400122FFF70EBF30B50C4605461B
:100860000222FFF708FF21462846BDE83040092351
:100870000122FFF714BF30B50C4605460222FFF7F0
:10088000FAFE21462846BDE8304008230122FFF742
:1008900006BF30B50C4605460222FFF7ECFE2146A6
:1008A0002846BDE8304008230122FFF7F8BE30B5E6
:1008B0000C4605460222FFF7DEFE21462846BDE82B
:1008C00030400A230122FFF7EABE30B50C46054648
:1008D0000222FFF7D0FE21462846BDE8304008231B
:1008E0000122FFF7DCBE40F8212070472DE9F041DE
:1008F00004460E4600BF1C4800F078F80028FAD1E4
:1009000000222146184800F0B9F83146164800F098
:1009100077F80721144800F06FF800BF124800F084
:100920005FF80028FAD1104800F071F8C7B2012032
:10093000FFF79BFE012221460B4800F09FF807219C
:10094000094800F059F800BF074800F049F80028AE
:10095000FAD1054800F052F8C5B20120FFF785FE34
:100960002846BDE8F0810000000002402DE9F0417A
:1009700004460F46154600BF184800F037F8002817
:10098000FAD100222146154800F078F8394613487C
:1009900000F036F80321114800F02EF800BF0F4890
:1009A00000F024F80028FAD10C4800F030F8C6B264
:1009B00029460A4800F024F80521084800F01CF8F0
:1009C00000BF064800F012F80028FAD1034800F0F2
:1009D0001EF8C6B23046BDE8F081000000000240BB
:1009E000406810F0400018BF01207047406810F0C8
:1009F000010018BF01207047416070478068704750
:100A000081607047016A41F01001016270474068DF
:100A100010F0010F05D110F0120F1CBF00F01C00E8
:100A20007047002070470000036A43F01003036220
:100A3000002A14BF0E4A0F4A02EB820301EB830324
:100A400002EB820292005B1EB3FBF2F2521EC26006
:100A5000D0F8C02F12F0010F08BF7047064A1144AA
:100A6000521CB1FBF2F1491E41F08001C160704798
:100A7000801A0600A08601007F47370142EA410143
:100A8000016070471649042804BF086840F48030AC
:100A900018D0052804BF086840F4003012D006289A
:100AA00012D00F2815D0102838BF7047103800F02A
:100AB0001F01012202FA01F142090A4850F82200FE
:100AC0000160704708607047086840F48020086043
:100AD00070474FF0E020016941F002010161704769
:100AE00024ED00E0B42A000010B5FFF7E0FB002879
:100AF00018BF012010BD084401686FF35201114373
:100B0000016012F0020F14BFB0218C21016214BFEA
:100B10004FF4306140F60C0141627047425842F098
:100B20000102425070470844016811F0020F14BFDF
:100B30005108511E01617047002A826814BF114399
:100B400022EA01018160704721F03F0318440368E5
:100B500013F0020F18BF520803699A1A11F0010F1F
:100B600014BFC26182617047036823F01E031943FA
:100B70000160C2607047016841F001010160704787
:100B800010B5114800F0CEFA00BF0F4800F0DEFAB1
:100B90000028FAD00C48C01C00F0C4FA00BF0A4874
:100BA000C01C00F0D3FA0028F9D001210748FFF754
:100BB00046FE03210648FFF734FE0A2301220321E3
:100BC0000348FFF76CFD10BD050800F0005002401F
:100BD00000D0034010B51E4800F0A4FA1D4800F0F4
:100BE000A1FA1D48FFF7F8FD1C48FFF7F5FD0421A9
:100BF0001B48FFF740FE08211948FFF72EFE01228F
:100C0000184801681848FFF70FFF1748FFF7FAFE6A
:100C1000FF220C212220FFF7A9FE044600220D210D
:100C20002220FFF7A3FE044600220E212220FFF718
:100C30009DFE0446002203211820FFF797FE04467C
:100C4000FF2201211820FFF791FE044610BD00008D
:100C5000002000F0010800F002080100020C010071
:100C600000500040000000200000024010B50B487A
:100C700000684FF47A71B0FBF1F4204600F08AFA74
:100C800000F07AFA00F07FFA5021054801F0AAFB43
:100C90001520FFF7F7FEFFF727FF10BD000000202B
:100CA00000C0004010B5002000F032FA1E4800F0ED
:100CB00039FA00BF1C4800F049FA0028FAD01B4856
:100CC00000F030FA00BF194800F040FA0028FAD0CE
:100CD0001748FFF781FD20211648FFF7DAFD0022B3
:100CE0004FF480711448FFF706FF144800684FF472
:100CF0007A61B0FBF1F422464FF480710E48FFF7A1
:100D000012FF0E48006842F6E061B0FBF1F42246A3
:100D100040F207110848FFF717FF4FF480710648AB
:100D2000FFF7FCFE10BD0000004000F0090800F0D5
:100D30000614090000100640008002400000002058
:100D400010B5164800F0EEF9154800F0EBF900BFB9
:100D5000134800F0FBF90028FAD01248FFF73CFDD9
:100D60001148FFF739FD08211048FFF768FD002200
:100D700008210E48FFF7B7FD02210C48FFF797FD49
:100D800004210A48FFF793FD642208210848FFF771
:100D9000EBFE0748FFF7EFFE10BD00000A0800F069
:100DA000004400F006040A0006080A00002006407D
:100DB00000C0024010B5124800F0B4F9114800F02C
:100DC000B1F900BF0F4800F0C1F90028FAD00120A6
:100DD000FFF702FD40F20140FFF7FEFC03214FF058
:100DE0004020FFF772FD60234FF4E13206480168AE
:100DF000064801F0BEFA06A001F0FEFA10BD0000A0
:100E0000001800F0000800F00000002000C00040C2
:100E10000D0A48656C6C6F2C20776F726C64210D25
:100E20000A0000002DE9F003AF4D02462868AF4BE1
:100E30001840A0F18053B3F5A02359D002F038092F
:100E4000DFF8AC82C2F38414B9F1100F25D0B9F1E8
:100E5000300F04BF47F230504FF400130DD04FF065
:100E60003800904304BF4FF40040C30105D012F096
:100E7000380F1CBF0020034613D09E4F12F4605F52
:100E80004FF0000618BF00222CD057F832404445DE
:100E90007DD307EBC2025268E1E0002340461524EF
:100EA000EBE7A4F10900122822D29348D5F87CC0C0
:100EB0004FF04C7350F824002CF01C0C072CA8BFEA
:100EC0004CF0100CC5F87CC02E6D4FF4002C16F4BD
:100ED000807FD2D1BCF1010C0AD02E6D16F4807F38
:100EE000F8D0CAE712F0380F18BFB9F1100F04D0CC
:100EF000BDE8F0034FF000007047C2F30268DFF86E
:100F0000FCC14FF0000257F83290E14503D307EBE4
:100F1000C202526803E0521C062AF4D33246C5F8D6
:100F2000C020D5F8B020DFF8D8C102EA0C0242F0A8
:100F30000042C5F8B020DFF8CCC1A4F109024C1E74
:100F40005CF828C0A444BCFBF1FCD5F8B0101943F0
:100F5000C5F8B01008EBC80101EB41046A4902EB87
:100F6000420201EBC40101EB82046468C5F86441EC
:100F7000D5F864416FF0FF0808EB0C2C44EA0C0C28
:100F8000C5F864C151F82210D5F8602100E061E095
:100F900002F400021143C5F86011D5F86011D5F8CC
:100FA0006021C1F38921C2F30904D5F86421C2F399
:100FB000042202F1010CD5F8642102F01F02521C38
:100FC000B0FBF2F04A09C2F100084443424301EB8E
:100FD000481104EB5212484302EB9020B0FBFCF0A6
:100FE00041080846002257F832C0844503D307EB76
:100FF000C200466802E0521C062AF4D3C5F8C0605D
:10100000D5F8600110F4000F1DBFD5F8B00040F016
:101010008040C5F8B000D5F8600104BF40F400007E
:10102000C5F860014FF40040D5F8682112F0010FB7
:1010300002D1401E0028F7DC002808BF002148D05C
:10104000D5F8B000184340F0010040F01040C5F85A
:10105000B0003EE0521C062AFFF417AF3246C5F836
:10106000C020D5F8602122F40002C5F86021D5F82F
:10107000B020DFF898C002EA0C0242F00042C5F846
:10108000B020002908BF4FF0000C0AD0B0FBF1FCE3
:10109000BCF1000F18BFACF1010C0CF10101B0FB69
:1010A000F1F10846002257F83240844203D307EB9F
:1010B000C200466802E0521C062AF4D3C5F8C0609C
:1010C000D5F8B00043EA8C22104340F00040C5F848
:1010D000B000D5F8B00020F47000C5F8B000BDE84D
:1010E000F00308467047000000E00F400000FF706A
:1010F0000024F400282D00000C2B000040787D0116
:1011000000FC0FE0042B0000782B0000FF0300EF31
:1011100003490A6E22F4F01210430866704700007B
:1011200000E00F40C0F307230749C0B2194401F0A3
:101130007043C1F3130143EA411141EA800040F0DA
:10114000007001220260704700E60F40C0F30722E2
:101150000849C0B2114401F07042C1F3130142EAE0
:10116000411141EA800040F000700068002818BF7B
:101170000120704700EA0F404FF0E020016941F084
:101180000501016170474FF0E020016941F0020163
:10119000016170474FF0E021401E48617047000038
:1011A0002DE9F0439DB0002400200D900E900C908E
:1011B000089009900A900B90049005900690079073
:1011C000039002900025DFF8F483FD48D0E9001079
:1011D000491C40F10000FA4AC2E90010A8F10200DF
:1011E000B0F86C00642809DAA8F10200B0F86C00CD
:1011F000401CA8F10201A1F86C000EE0EF48801E2F
:10120000B0F86C00642808D140F28670EB49891E62
:10121000A1F86C000125881C886614220023E84987
:1012200003C9FFF7E7F800214A404B401A436DD14C
:10123000002432E0E148801E0078C043204100F0E5
:1012400001000DA908550DA8005D20B1DD48005D25
:1012500008B9012000E0002008A921F814004FF48B
:10126000FA720023D64903C9FFF7C4F800214A40A7
:101270004B401A4307D10DA8005D20B1D148005D55
:1012800008B1012000E0002004A921F814000DA8F5
:10129000005DCC490855601CC4B2082CCADB002490
:1012A00032E0C648801E4078C043204100F0010073
:1012B0000CA908550CA8005D20B1C348005D08B911
:1012C000012000E0002003A921F814004FF4FA7275
:1012D0000023BB4903C9FFF78DF800214A404B406A
:1012E0001A4307D10CA8005D20B1B748005D08B1D2
:1012F000012000E0002002A921F814000CA8005DE4
:10130000B1490855601CC4B2022CCADBAF48407812
:1013100098B90A220023AA4903C9FFF76BF80021F4
:101320004A404B401A4308D1A948D0E90020521C3A
:1013300040F10000A649C1E9002008200090A4481F
:101340000CC81AA801F0D4F8A048C07801281FD111
:101350000A2200239A4903C9FFF74CF800214A40AA
:101360004B401A4314D19B48D0E900100023594048
:101370005840014303D103209449C87008E09548C0
:10138000D0E90020521E60F100009249C1E900201E
:10139000002000908F480CC817A801F0A9F800247D
:1013A00031E000208C4901EBC4010090D1E90063D9
:1013B00004EB440111AA02EB8100324601F098F8D7
:1013C00004EB440011A901EB8000C088BDF86E1049
:1013D000884216D104EB440011A901EB800000897A
:1013E000BDF8701088420CD104EB440011A901EB48
:1013F00080004089BDF87210884202D102207349F2
:101400000871601CC4B2022CCBDB70480079022842
:1014100005D1BDF82E0010B100206C490871BDF84F
:101420000C0048B169480078001D052190FBF1F2DD
:1014300001FB120065490870BDF80E0048B1634811
:101440000078401C052190FBF1F201FB12005F497E
:1014500008705E49087800F0DDFF064631465F48B7
:1014600000F07CFF5948007805287DD2DFE810F0B5
:101470006C01430305005C03D904BDF82A0030B1B8
:1014800001205249487005205549087005E0BDF813
:101490002E0010B100204D494870BDF86E000A21A1
:1014A00090FBF1F0C2B2104600F0B4FF8DF83C00A2
:1014B000BDF86E000A2190FBF1F301FB1300C2B2EC
:1014C000104600F0A7FF8DF83D00BDF870000A211E
:1014D00090FBF1F0C2B2104600F09CFF8DF83E0088
:1014E000BDF870000A2190FBF1F301FB1300C2B2BA
:1014F000104600F08FFF8DF83F00BDF872000A2102
:1015000090FBF1F0C2B2104600F084FF8DF840006D
:10151000BDF872000A2190FBF1F301FB1300C2B287
:10152000104600F077FF8DF841006422002328491F
:1015300003C9FEF75FFF164619460A22002330460C
:10154000FEF758FF00F0FF09484600F063FF8DF8F2
:1015500042000A2200231E4903C9FEF74BFFD6B200
:10156000304600F057FF00E0F1E38DF843001748E4
:101570004078012876D1BDF8200048B1184800789D
:10158000401D062190FBF1F201FB12001449087086
:10159000BDF8240048B112480078401C062190FB99
:1015A000F1F201FB12000E490870BDF82C00A0B347
:1015B0000B480078062861D214E000003A000020B1
:1015C000080000202A000020320000202000002017
:1015D0001000002018000020B800002000C00040CB
:1015E00025000020DFE800F0030E1A26323FF948FC
:1015F000D0E90030F84A9A1840F10000F549C1E9F5
:1016000000203CE0F348D0E90010F44A891840F18A
:101610000000F04AC2E9001031E031E0ED48D0E9C5
:1016200000104EF66023C91840F10000E94AC2E9F3
:10163000001024E0E748D0E9001041F270728918E8
:1016400040F10000E34AC2E9001018E0E148D0E9A7
:1016500000304FF47A71591840F10000DD4AC2E9B8
:1016600000100CE06FE0DB48D0E900206421511845
:1016700040F10000D74AC2E9001000E000BF00BFFF
:10168000BDF82200B0B3D6480078062849D2DFE87A
:1016900000F0030E1925323ECE48D0E90010CE4BA3
:1016A000C91A60F10000CB4AC2E900103AE0C9480B
:1016B000D0E90020C94BD21A60F10000C549C1E948
:1016C00000202FE0C348D0E900104EF66022891AAE
:1016D00060F10000BF4AC2E9001023E0BD48D0E934
:1016E000003041F270729A1A60F10000B949C1E904
:1016F000002017E017E0B748D0E900204FF47A73D4
:10170000D21A60F10000B349C1E900200AE0B148F3
:10171000D0E90010643960F10000AE4AC2E900105F
:1017200000E000BF00BFC8220023AE4903C9FEF796
:1017300061FE6420101A73F1000304D220200FA967
:10174000A74A127888546BE3BDF82A0030B1012013
:10175000A54948700720A549087005E0BDF82E008E
:1017600010B10020A0494870BDF8680042F2107125
:1017700090FBF1F301FB13004FF47A7190FBF1F051
:10178000C2B2104600F046FE8DF83C00BDF868007D
:101790004FF47A7190FBF1F301FB1300642190FB8D
:1017A000F1F0C2B2104600F035FE8DF83D00BDF8F4
:1017B0006800642190FBF1F301FB13000A2190FB08
:1017C000F1F0C2B2104600F025FE8DF83E00BDF8E3
:1017D00068000A2190FBF1F301FB1300C2B210462E
:1017E00000F018FE8DF83F00BDF86A00401C64212F
:1017F00090FBF1F301FB13000A2190FBF1F0C2B260
:10180000104600F007FE8DF84000BDF86A00401C4D
:101810000A2190FBF1F301FB1300C2B2104600F065
:10182000F9FD8DF84100BDF86C00401C642190FB6F
:10183000F1F301FB13000A2190FBF1F0C2B2104654
:1018400000F0E8FD8DF84200BDF86C00401C0A2154
:1018500090FBF1F301FB1300C2B2104600F0DAFD79
:101860008DF8430060484078012873D1BDF820000E
:10187000D8B100BF5D490978C81DC11700EB51718F
:10188000C910A0EBC101594A117010460078032815
:101890000BD010460078052807D01046007806289F
:1018A00003D0104600780728E4D1BDF82400D8B151
:1018B00000BF4E490978481CC11700EB5171C9108F
:1018C000A0EBC101494A11701046007803280BD0E3
:1018D00010460078052807D010460078062803D067
:1018E000104600780728E4D1BDF82C0098B33F4893
:1018F0000078082864D2DFE800F0040506072F30DE
:101900004D585EE05DE05CE0BDF86A00022804DC52
:10191000BDF8680000F08EFE50B9BDF86A000228DC
:1019200009DDBDF86810491C88B200F083FE10B1D3
:101930004FF4B77001E040F26D102D494843642127
:101940004843244AD2E90032C01842F10001214A3A
:1019500003C236E0CEE035E033E0BDF8680000F0C9
:1019600069FE28B1BDF86A00224931F8100004E090
:10197000BDF86A00204931F810001D494843642130
:101980004843C117134AD2E90032C0185141114AE5
:1019900003C216E00F48D0E90010184A891840F138
:1019A00000000C4AC2E900100BE00A48D0E9001020
:1019B000134BC91840F10000064AC2E9001000E0CC
:1019C00000BF00BFBDF82200E0B108480078082839
:1019D0007ED218E01000002080EE3600407E050028
:1019E0002500002008000020200000202600002004
:1019F00080510100B027000098270000005C2605F8
:101A000000D6830066E0DFE800F0040506072D2E0F
:101A10004C585EE05DE05CE0BDF86A00022804DC42
:101A2000BDF8680000F006FE50B9BDF86A00022853
:101A300009DDBDF86810491C88B200F0FBFD10B14B
:101A40004FF4B77001E040F26D10FE494843642145
:101A50004843FD49D1E90031181A61F10001FA4A01
:101A600003C236E035E0BDF8680000F0E3FD28B1C0
:101A7000BDF86A00F54931F8100004E0BDF86A00CD
:101A8000F34931F81000EF49484364214843C21735
:101A9000ED49D1E90031181A61EB0201EA4A03C2AB
:101AA00017E0E948D0E90010EA4BC91A60F10000DC
:101AB000E54AC2E900100CE00AE0E348D0E9001072
:101AC000E54BC91A60F10000DF4AC2E9001000E0EE
:101AD00000BF00BFC8220023E04903C9FEF78AFC0B
:101AE0006420101A73F1000304D220200FA9DC4AED
:101AF00012788854C9E341208DF83C0042208DF8CB
:101B00003D0043208DF83E0044208DF83F004520E5
:101B10008DF8400046208DF8410047208DF84200A6
:101B200048208DF84300B0E3BDF82A0048B1CD4805
:101B3000C078042801D1022000E00420C949C870FF
:101B40000BE0BDF82E0040B1C648C078022801D194
:101B5000012000E00220C349C870BDF862000A21DC
:101B600090FBF1F0C2B2104600F054FC8DF83C003E
:101B7000BDF862000A2190FBF1F301FB1300C2B231
:101B8000104600F047FC8DF83D00BDF864000A21C6
:101B900090FBF1F0C2B2104600F03CFC8DF83E0024
:101BA000BDF864000A2190FBF1F301FB1300C2B2FF
:101BB000104600F02FFC8DF83F00BDF866000A21AA
:101BC00090FBF1F0C2B2104600F024FC8DF840000A
:101BD000BDF866000A2190FBF1F301FB1300C2B2CD
:101BE000104600F017FC8DF84100642200239E4946
:101BF00003C9FEF7FFFB164619460A2200233046AA
:101C0000FEF7F8FB00F0FF09484600F003FC8DF8F2
:101C100042000A220023944903C9FEF7EBFBD6B227
:101C2000304600F0F7FB8DF843008E48C07803285B
:101C300013D1C8220023894903C9FEF7DBFB6421C5
:101C4000511A73F1000308D2002404E020200FA9E8
:101C50000855601CC4B2082CF8DB8248C078042800
:101C600074D1BDF8200048B180480078401D06219D
:101C700090FBF1F201FB12007C490870BDF82400D2
:101C800048B17A480078401C062190FBF1F201FB34
:101C90001200764908707448D0E900306E4A9A18EC
:101CA00040F100007049C1E90020BDF82C00B0B33C
:101CB0006E48007806284BD2DFE800F0030E1925A5
:101CC000323E6948D0E90010694A891840F10000A5
:101CD000654AC2E900103CE06348D0E9002065494C
:101CE000511840F10000604AC2E9001031E05E483E
:101CF000D0E900104EF66023C91840F100005A4A9E
:101D0000C2E9001025E05848D0E9002041F2707384
:101D1000D21840F100005449C1E9002019E019E04F
:101D20005148D0E900204FF47A73D21840F10000F6
:101D30004D49C1E900200CE04B48D0E90010643166
:101D400040F10000484AC2E9001002E068E09BE26E
:101D500000BF00BFBDF82200B0B344480078062899
:101D600049D2DFE800F0030E1925323E3E48D0E9A3
:101D700000103F4A891A60F100003B4AC2E9001096
:101D80003AE03948D0E900203A4BD21A60F100001D
:101D90003549C1E900202FE03348D0E900104EF664
:101DA0006023C91A60F100002F4AC2E9001023E045
:101DB0002D48D0E9002041F27073D21A60F1000082
:101DC0002949C1E9002017E017E02748D0E90010B1
:101DD0004FF47A72891A60F10000234AC2E90010B8
:101DE0000AE02148D0E90020643A60F100001E4971
:101DF000C1E9002000E000BF00BF174A00231A49D4
:101E000003C9FEF7F7FA18480CC0184801780120FA
:101E10008840C0B2009011480CC80FA800F096FC92
:101E200033E2BDF8280048B113490978481C00EB9B
:101E3000D0714910A0EB41010F4A1170BDF8260086
:101E400030B31BE08051010010000020B0270000DB
:101E500098270000005C260500D6830008000020BB
:101E6000260000202000002018000020270000206D
:101E700080EE3600407E050029000020FA490978EE
:101E8000481C00EBD0714910A0EB4101F64A1170DB
:101E9000BDF82A0030B10120F44908710720F44947
:101EA000087005E0BDF82E0010B10020EF49087160
:101EB000ED48007800F0AEFA8DF83C0020208DF857
:101EC0003D00E948007800EB400011A901EB8000DB
:101ED000C0880A2190FBF1F0C2B2104600F09AFAD5
:101EE0008DF83E00E048007800EB400011A901EBBE
:101EF0008000C0880A2190FBF1F301FB1300C2B2FD
:101F0000104600F087FA8DF83F00D748007800EBC4
:101F1000400011A901EB800000890A2190FBF1F03B
:101F2000C2B2104600F076FA8DF84000CE48007834
:101F300000EB400011A901EB800000890A2190FB11
:101F4000F1F301FB1300C2B2104600F063FA8DF802
:101F50004100C548007800EB400011A901EB80006A
:101F600040890A2190FBF1F0C2B2104600F052FA0B
:101F70008DF84200BC48007800EB400011A901EB4D
:101F8000800040890A2190FBF1F301FB1300C2B2EB
:101F9000104600F03FFA8DF84300B448007901285C
:101FA00075D1BDF8200050B1B1480078C01C0621A1
:101FB00090FBF1F201FB1200801CAD490870BDF8E6
:101FC000240050B1AA480078401E062190FBF1F28F
:101FD00001FB1200801CA6490870A648A249097896
:101FE00000EBC100D0E90020A34BD21840F1000063
:101FF000A0499D4B1B7801EBC301C1E90020BDF84E
:102000002C0078B39A480078801E06287BD2DFE83F
:1020100000F003162A3F536796489349097800EB6E
:10202000C100D0E90010954A891840F10000914A9A
:102030008D4B1B7802EBC302C2E9001064E08D48AF
:102040008949097800EBC100D0E900108C4A891851
:1020500040F10000874A844B1B7802EBC302C2E9BF
:10206000001051E051E083487F49097800EBC1003E
:10207000D0E900204EF66023D11840F100007D4ADF
:10208000794B1B7802EBC302C2E900103CE0DEE0B2
:1020900078487549097800EBC100D0E9003041F279
:1020A00070729A1840F1000072496F4B1B7801EB77
:1020B000C301C1E9002027E06E486B49097800EBB5
:1020C000C100D0E900104FF47A73C91840F1000044
:1020D000684A654B1B7802EBC302C2E9001013E0AB
:1020E00064486149097800EBC100D0E9001064310F
:1020F00040F100005F4A5C4B1B7802EBC302C2E96F
:10210000001001E0FFE700BF00BFBDF8220078B378
:1021100057480078801E06287AD2DFE800F00316C0
:102120002A3E526653485049097800EBC100D0E975
:1021300000305249591A60F100004E4A4A4B1B7850
:1021400002EBC302C2E9001063E04A48464909783D
:1021500000EBC100D0E90030494A9A1A60F1000052
:102160004449414B1B7801EBC301C1E9002050E019
:1021700050E040483C49097800EBC100D0E900201C
:102180004EF66023D21A60F100003A49364B1B78B4
:1021900001EBC301C1E900203BE036483249097830
:1021A00000EBC100D0E9001041F27073C91A60F170
:1021B0000000304A2C4B1B7802EBC302C2E900102E
:1021C00027E02C482849097800EBC100D0E900102D
:1021D0004FF47A72891A60F10000264A224B1B786C
:1021E00002EBC302C2E9001013E022481E4909783D
:1021F00000EBC100D0E90010643960F100001D4A15
:10220000194B1B7802EBC302C2E9001001E0FFE7A3
:1022100000BF00BF17481449097800EBC100164AF7
:102220000023D0E900613046FEF7E4F811480E497A
:10223000097800EBC1000CC00D48017801208840EE
:10224000C0B200900F480CC80FA800F07FFA0748F2
:102250000079022806D1FF2000900A480CC80FA878
:1022600000F074FA11E00000290000202000002096
:1022700028000020B800002000D6830080EE360041
:10228000407E05000800002000BF00BF00240AE0D7
:102290000FA9085D00F0E4F80E49085520200FA9A9
:1022A0000855601CC4B2082CF2DB0B4800790228E8
:1022B00004D14FF4FA600749C86002E000200549E4
:1022C000C86025B1032205A14046FEF714F91DB0F0
:1022D000BDE8F083A8000020200000207365740092
:1022E0000448006840F4700002490860024803494D
:1022F0000860704788ED00E00024F40034000020FE
:1023000010B501210F4800F071F8044621460D4830
:1023100000F066F80AE00B4800F018F80A49896EE8
:1023200008700948806E401C07498866054800F01F
:102330001BF80028EFD10449896E08700249A1F802
:102340006C0010BD00C0004038000020816911F011
:10235000100F0CBF00684FF0FF307047826912F019
:10236000200FFBD1016070478069012121EA101024
:102370007047D0F818C01CF0080FFAD1D0F82CC064
:102380002CF0100CC0F82CC0D0F830C02CF0010C90
:102390002CF4407CC0F830C0D0F830C0B1EB021F44
:1023A00034BF4CF0200C2CF0200CC0F830C038BFEB
:1023B0005208C900B1FBF2F1491C49088A0942627E
:1023C00001F03F018162C36200218161C16A41F075
:1023D0001001C162016B40F2013211430163704789
:1023E00041647047826B114381637047002914BFB9
:1023F000006CC06B7047000010B5044604E014F890
:10240000011B0348FFF7AAFF20780028F7D110BD71
:1024100000C000400146002905DB092903DC01F169
:102420003000C0B2704701F16100C0B2FAE770B588
:1024300004460D462A4605212220FEF797FA012080
:10244000A040C2B206212220FEF790FA4FF4FA60B3
:10245000FEF70BF9002206212220FEF787FA70BD55
:1024600030B597B004462C220BA10CA8FEF78EF8CD
:102470002C2214A101A8FEF789F821460CA8FEF72A
:1024800030F805462DB10CA8281A01A9085C17B030
:1024900030BD0020FBE700003031323334353637B1
:1024A0003839416242436444454647484A4B4C4DA3
:1024B0004E506F4F5152545355565758595A2E2D0E
:1024C0005F2000003F065B4F666D7D077F6F777C66
:1024D0007C395E5E79713D760D72385554735C5C63
:1024E0006F50786D3E1C6A1D6E49804008000000E8
:1024F0002DE9F05F044615461E46DDF8289064225B
:10250000002328463146FDF775FF07463C2200238D
:10251000FDF770FF62816422002328463146FDF7F3
:1025200069FF07464FF461620023FDF763FF92469F
:1025300019463C2200235046FDF75CFF20816422AF
:10254000002328463146FDF755FF0746364A00234B
:10255000FDF750FF924619464FF461620023504642
:10256000FDF748FF10EB0900E0804FF064024FF0E8
:10257000000328463146FDF73DFF07462A4A00235F
:10258000FDF738FFA080E088182805DBE0881838C0
:10259000E080A088401CA08040F2B2702080002023
:1025A00060800EE0208800F045F810B14FF4B7705D
:1025B00001E040F26D10A188081AA0802088401C1C
:1025C0002080208800F036F810B14FF4B77001E099
:1025D00040F26D10A1888842E4DD12E0208800F00E
:1025E00029F820B16088114931F8100003E06088B3
:1025F0000F4931F81000A188081AA0806088401C9B
:102600006080208800F016F820B16088074931F812
:10261000100003E06088064931F81000A188884264
:10262000DCDDBDE8F09F000080510100B027000014
:102630009827000001460A46C81701EB90708010E9
:10264000A1EB800070B9642091FBF0F300FB131044
:1026500030B94FF4C87091FBF0F300FB131008B9C8
:10266000012070470020FCE70024FF25314943F694
:102670005050FEF7D7FB304908603048057040F2F3
:1026800086702E49A1F86C00881C886600202C49B1
:10269000C860FEF775FAFEF79DFAFEF78BFBFEF7B2
:1026A000E5FAFEF74DFBFEF7FDFA41E0002406E0F7
:1026B0002348015D2046FFF7BAFE601CC4B2082C17
:1026C000F6DB1F48C06808B1012000E00020024688
:1026D00080211C48FEF730FA1948C068D0B118486C
:1026E000C06815490968B1FBF0F632464FF48071B5
:1026F0001448FEF718FA1248C0680F490968B1FB80
:10270000F0F00321B0FBF1F6324640F207110D481C
:10271000FEF71AFA00212220FEF7E8F805460DB16F
:102720000648057003210848FEF778F80349487009
:10273000BCE700000024F400000000203800002066
:10274000A80000200080024000D003402DE9F041A5
:10275000054616461F46DDF81880C822002330467D
:102760003946FDF747FE6421511A73F100030CD27C
:10277000002408E00120A04000EA080008B1202061
:102780002855601CC4B2082CF4DBBDE8F0814FF082
:102790004070E1EE100A70471F001C001F001E0071
:1027A0001F001E001F001F001E001F001E001F0034
:1027B0001F001D001F001E001F001E001F001F0025
:1027C0001E001F001E001F006D016E0100000000B2
:1027D0000040004010000000008005401000000094
:1027E0000050004011000000009005401100000062
:1027F000006000401200000000A005401200000030
:10280000007000401300000000B0054013000000FD
:10281000004002401400000000C005401400000009
:10282000005002402E00000000D005402E000000A5
:10283000006002402F00000000E005402F00000073
:10284000007002403000000000F005403000000041
:1028500000D0034046000000000006404600000093
:10286000001006404700000000200640480000001D
:10287000003006407F00000000400640800000005D
:102880000050064084000000006006408C000000FC
:1028900000400040100000000080054010000000D3
:1028A00000500040110000000090054011000000A1
:1028B000006000401200000000A00540120000006F
:1028C000007000401300000000B00540130000003D
:1028D000004002401400000000C005401400000049
:1028E000005002402E00000000D005402E000000E5
:1028F000006002402F00000000E005402F000000B3
:10290000007002403000000000F005403000000080
:1029100000D00340430000000000064043000000D8
:102920000010064044000000002006404500000062
:1029300000300640580000000040064059000000EA
:10294000005006405C00000000600640640000008B
:10295000007006406C000000008006406D00000022
:10296000009006407F0000000040004000800540CD
:1029700000500040009005400060004000A005406D
:102980000070004000B005400040024000C005401B
:102990000050024000D005400060024000E00540C9
:1029A0000070024000F0054000D0034000000640E7
:1029B000001006400010064000200640002006409F
:1029C000003006400030064000400640004006400F
:1029D000005006400050064000600640006006407F
:1029E00000700640007006400080064000800640EF
:1029F000009006400090064000070000000600001E
:102A000000050000000400000003000000020000B8
:102A100000010000000000000000000018ED00E0D0
:102A20001CED00E020ED00E000E400E004E400E044
:102A300008E400E00CE400E010E400E014E400E04E
:102A400018E400E01CE400E020E400E024E400E0FE
:102A500028E400E02CE400E030E400E034E400E0AE
:102A600038E400E03CE400E040E400E044E400E05E
:102A700048E400E04CE400E050E400E054E400E00E
:102A800058E400E05CE400E060E400E064E400E0BE
:102A900068E400E06CE400E070E400E074E400E06E
:102AA00078E400E07CE400E080E400E084E400E01E
:102AB00088E400E000E100E004E100E008E100E07B
:102AC0000CE100E010E100E080E100E084E100E0E2
:102AD00088E100E08CE100E090E100E000E200E04D
:102AE00004E200E008E200E00CE200E010E200E0B6
:102AF00080E200E084E200E088E200E08CE200E0B6
:102B000090E200E000688909001C4E0E40420F0070
:102B100000201C0080841E0000802500999E360045
:102B20000040380000093D0000803E0000004B00DE
:102B3000404B4C0000204E00808D5B0000C05D00CB
:102B40000080700000127A0000007D0080969800DE
:102B5000001BB7000080BB00C0E8CE00647ADA003A
:102B60000024F4000000FA0080A81201002D3101B9
:102B700000366E0140787D0140000000000000003A
:102B8000000100003E0008000000000000010000FD
:102B9000A000000002000000000100003454010009
:102BA00000000000000100002B7006000000000083
:102BB00000010000280000000000000000010000EB
:102BC00027000100000000000001000020000000BC
:102BD00000000000000100005000000002000000A2
:102BE000000100001AAC000000000000000100001D
:102BF000179409000000000000010000169805006D
:102C000000000000000100001400000000000000AF
:102C10000001000013800800000000000001000017
:102C2000A0000000080000000001000010000000EB
:102C30000000000000010000280000000200000069
:102C4000000100004000000004000000000100003E
:102C50006000000000000000000100005D000C00AA
:102C60000000000000010000500000000000000013
:102C7000000100004E000200000000000001000002
:102C800041AC010000000000000100003C00000019
:102C900000000000000100003A8009000000000070
:102CA00000010000300000000000000000010000F2
:102CB00028000000000000000001000027000100C3
:102CC000000000000001000023600600000000007A
:102CD0000001000021600800000000000001000069
:102CE0001E00000000000000000100001DC00400E4
:102CF0000000000000010000500000000200000081
:102D000000010000180000000000000000010000A9
:102D1000140000000000000000010000600000003E
:102D200004000000000100000024F4003000300026
:102D3000005A62029100910000879303D200D200F2
:102D400000B4C4041301130100E1F505540154015A
:102D5000000E270795019501782D00000000002046
:102D6000380000003C020000B02D000038000020B8
:102D7000F002000058020000000000000000000007
:102D8000000000000000000080966CCA25000000D2
:102D90000000000000000000000000020000000031
:102DA0000000000000000000000000000024F4000B
:0400000500000201F4
:00000001FF
