:020000040000FA
:1000000010050020D1020000D9020000DB02000030
:10001000DD020000DF020000E1020000000000003D
:10002000000000000000000000000000E3020000EB
:10003000E502000000000000E7020000D11300000C
:10004000EB020000ED020000EF020000F1020000F0
:10005000F302000051280000F7020000F90200003E
:10006000FB020000FD020000FF020000010300008F
:10007000030300000503000007030000090300005C
:100080000B0300000D0300000F030000110300002C
:1000900013030000150300001703000019030000FC
:1000A0001B0300001D0300001F03000021030000CC
:1000B000230300002503000027030000290300009C
:1000C0002B0300002D0300002F030000310300006C
:1000D000330300003503000037030000390300003C
:1000E0003B0300003D0300003F030000410300000C
:1000F00043030000450300004703000049030000DC
:100100004B0300004D0300004F03000051030000AB
:10011000530300005503000057030000590300007B
:100120005B0300005D0300005F030000610300004B
:10013000630300006503000067030000690300001B
:100140006B0300006D0300006F03000089030000D3
:1001500000000000000000008B0300008D03000081
:100160008F030000910300000000000093030000D3
:100170009503000097030000990300009B03000013
:100180009D0300009F030000A1030000A3030000E3
:10019000A5030000A7030000A9030000AB030000B3
:1001A000AD030000AF030000B1030000B303000083
:1001B000B5030000B7030000B9030000BB03000053
:1001C000BD030000BF030000C1030000C303000023
:1001D000C5030000C7030000C9030000CB030000F3
:1001E000CD030000CF030000D1030000D3030000C3
:1001F000D5030000D7030000D9030000DB03000093
:1002000000F002F800F03CF80AA090E8000C8244EC
:100210008344AAF10107DA4501D100F031F8AFF2C9
:10022000090EBAE80F0013F0010F18BFFB1A43F0D4
:100230000103184780450000A0450000103A24BF84
:1002400078C878C1FAD8520724BF30C830C144BF3B
:1002500004680C607047000000230024002500267D
:10026000103A28BF78C1FBD8520728BF30C148BF19
:100270000B6070471FB502F09DFD1FBD10B510BD8E
:1002800000F0BDF91146FFF7F5FF02F099FC00F010
:10029000DBF903B4FFF7F2FF03BC00F0E3F9000061
:1002A0000138FDD170470000EFF3108072B670473F
:1002B000EFF310807047EFF3108062B6704730BFE5
:1002C000704780F311887047EFF31180704700008A
:1002D0004548804745480047FEE7FEE7FEE7FEE762
:1002E000FEE7FEE7FEE7FEE7FEE7FEE7FEE7FEE7E6
:1002F000FEE7FEE7FEE7FEE7FEE7FEE7FEE7FEE7D6
:10030000FEE7FEE7FEE7FEE7FEE7FEE7FEE7FEE7C5
:10031000FEE7FEE7FEE7FEE7FEE7FEE7FEE7FEE7B5
:10032000FEE7FEE7FEE7FEE7FEE7FEE7FEE7FEE7A5
:10033000FEE7FEE7FEE7FEE7FEE7FEE7FEE7FEE795
:10034000FEE7FEE7FEE7FEE7FEE7FEE7FEE7FEE785
:10035000FEE7FEE7FEE7FEE7FEE7FEE7FEE7FEE775
:10036000FEE7FEE7FEE7FEE7FEE7FEE7FEE7FEE765
:10037000FEE7FEE7FEE7FEE7FEE7FEE7FEE7FEE755
:10038000FEE7FEE7FEE7FEE7FEE7FEE7FEE7FEE745
:10039000FEE7FEE7FEE7FEE7FEE7FEE7FEE7FEE735
:1003A000FEE7FEE7FEE7FEE7FEE7FEE7FEE7FEE725
:1003B000FEE7FEE7FEE7FEE7FEE7FEE7FEE7FEE715
:1003C000FEE7FEE7FEE7FEE7FEE7FEE7FEE7FEE705
:1003D000FEE7FEE7FEE7FEE7FEE7FEE70448054925
:1003E000034A054B7047000031280000010200005D
:1003F00010030020100500201003002053EA020C17
:1004000000F069802DE9F04B4FF00006002B1FBF74
:10041000B3FA83F503FA05F424FA05F65E4012BF39
:100420001643B2FA82F502FA05F4C5F120051EBFA3
:1004300022FA05FC44EA0C04203556EA044C4FEA43
:10044000144418BF641C4FF000084FF0000990429C
:1004500071EB030C39D3002919BFB1FA81F701FA06
:1004600007F6B0FA80F700FA07F6C7F120071EBFBB
:1004700020FA07FC46EA0C062037B6FBF4FCA7EB93
:100480000507103F07F01F0BCBF120060CFA0BFB02
:100490002CFA06F644BFB3460026202FA4BF5E46C2
:1004A0004FF0000B5BEA060C08BF4FF0010B19EB95
:1004B0000B09ABFB027C48EB0608C01B06FB02CC19
:1004C0000BFB03CC71EB0C01C1E70B460246414626
:1004D0004846BDE8F08B13B54FF000004FF0000127
:1004E000AFF30080BDE81C407047401ECAB210F850
:1004F000011F8A4202D00029F9D10020704740EA4A
:10050000010370B59B072ED14FF00136042A2AD380
:1005100008C810C99D1B9D43121F15EAC61517D0A8
:10052000D8B2E1B2401A50EA056110D198B2A1B236
:10053000401A50EA05410AD123F07F4024F07F4160
:10054000401A50EA052102D1180EA0EB146070BDCC
:10055000A342DBD018BA21BA884201D9012070BD6C
:100560004FF0FF3070BD0AB9002070BD10F8013B9C
:1005700011F8014B63B1A3420AD1521E08D010F802
:10058000013B11F8014B1BB1A34201D1521EEDD129
:10059000181B70BD10B5203AC0F00B80B1E81850A0
:1005A000203AA0E81850B1E81850A0E81850BFF45D
:1005B000F5AF5FEA027C24BFB1E81850A0E81850FC
:1005C00044BF18C918C0BDE810405FEA827C24BF50
:1005D00051F8043B40F8043B08BF7047D20728BFDE
:1005E00031F8023B48BF11F8012B28BF20F8023B2D
:1005F00048BF00F8012B7047704770477047754639
:1006000000F02CF8AE4605006946534620F007007E
:10061000854618B020B5FFF7E1FEBDE820404FF059
:1006200000064FF000074FF000084FF0000B21F0DC
:100630000701AC46ACE8C009ACE8C009ACE8C009A9
:10064000ACE8C0098D46704710B50446AFF3008092
:100650002046BDE81040FFF71CBE00000048704770
:10066000B002002001491820ABBEFEE726000200C0
:100670007047002100E0491C8142FCD37047000014
:1006800010B50220FFF70CFE0C4CA06910F0010F12
:10069000FBD1E06910F00C0F0ED1094800F05EFEAE
:1006A0000220FFF7FDFDA06910F0010FFBD1E0690A
:1006B00010F00C0008BF10BD022010BD00F00A4071
:1006C000005800F02DE9F05FDFF848810646D8F8C1
:1006D000180010F0010FFAD18809C8F80400C1F31E
:1006E0008300C8F80800DFF83091DFF830A19508E2
:1006F0004FF0000B67D0C809012101FA00F0C74391
:10070000DAF8001046480140A1F18050B0F5A02071
:1007100002BFDAF8000080B2002813D10A20FFF7E8
:10072000BFFD0320C9F8FC000A20FFF7B9FD3D48D2
:10073000C0F8C0720A20FFF7B3FDC9F8FCB00A2068
:10074000FFF7AEFD3068C8F814000A20FFF7A8FDD7
:10075000D8F8184014F0010FFAD114F0100F24D07B
:10076000DAF800102E480140A1F18050B0F5A02029
:1007700002BFDAF8000080B2002813D10A20FFF788
:100780008FFD0320C9F8FC000A20FFF789FD2548EA
:10079000C0F8C0B20A20FFF783FDC9F8FCB00A20F8
:1007A000FFF77EFD2046BDE8F09F6D1E06F10406B2
:1007B00009D0D8F808000028A2D1D8F80400401CBD
:1007C000C8F804009CE7DAF8001015480140A1F1D0
:1007D0008050B0F5A02002BFDAF8000080B20028F7
:1007E00013D10A20FFF75CFD0320C9F8FC000A20A2
:1007F000FFF756FD0B48C0F8C0B20A20FFF750FDC6
:10080000C9F8FCB00A20FFF74BFDD8F81800BDE886
:10081000F09F000000F00A4000D00F4000E00F40C1
:100820000000FF7000E00A400B4B4FEA911CC3F838
:1008300004C0C1F383019960910808BF70475A69E9
:1008400040F8042B491E08BF70479A68002AF6D169
:100850005A68521C5A60F2E700F00A40D0F800349F
:1008600012F0010F14BF0B438B43C0F8003412F099
:10087000020FD0F8202414BF114322EA0101C0F86E
:10088000201470472DE9F00301264FF0000C0325DA
:10089000C2F3411706FA0CF40C4211D0D0F8C48F01
:1008A0004FEA4C0405FA04F928EA0908C0F8C48F95
:1008B000D0F8C48F07FA04F448EA0404C0F8C44F1F
:1008C0000CF1010C0CF0FF0CBCF1080FE2D3D0F8D6
:1008D00000C512F0010F14BF4CEA010C2CEA010C08
:1008E000C0F800C5D0F804C512F0020F14BF4CEADE
:1008F000010C2CEA010CC0F804C5D0F808C512F0B0
:10090000040F14BF4CEA010C2CEA010CC0F808C516
:10091000D0F818C512F0080F14BF4CEA010C2CEAED
:10092000010CC0F818C512F0100FD0F83C2514BF08
:100930000A438A43C0F83C25D0F80C2513F0010F78
:1009400014BF0A438A43C0F80C25D0F8102513F0D1
:10095000020F14BF0A438A43C0F81025D0F81425AB
:1009600013F0040F14BF0A438A43C0F81425D0F8CB
:100970001C2513F0080F14BF0A438A43C0F81C2536
:10098000D0F8442513F4007F14BF0A438A43C0F80B
:100990004425D0F8402513F4407F14BF0A438A430E
:1009A000C0F84025D0F82825002B0CBF114322EABF
:1009B0000101C0F82815BDE8F00370470E4AC0F3E6
:1009C0000741D26E01238B401A420C4A1ABF02EB38
:1009D000C101496852F83110020AD1F82C354FF0A4
:1009E0000F0C0CFA02FC00F00F0023EA0C039040FD
:1009F0001843C1F82C05704700E00F40C4430000C5
:100A000050F82100704730B50C4605460022FFF72C
:100A100025FF21462846BDE8304008230122FFF784
:100A200031BF30B50C46054608230122FFF72AFFE7
:100A300021462846BDE830400122FFF70FBF30B500
:100A40000C4605460222FFF709FF21462846BDE86D
:100A5000304009230122FFF715BF30B50C4605468B
:100A60000222FFF7FBFE21462846BDE8304008235E
:100A70000122FFF707BF30B50C4605460222FFF7FB
:100A8000EDFE21462846BDE8304008230122FFF74D
:100A9000F9BE30B50C4605460222FFF7DFFE2146BF
:100AA0002846BDE830400A230122FFF7EBBE30B5EF
:100AB0000C4605460222FFF7D1FE21462846BDE836
:100AC000304008230122FFF7DDBE40F821207047A7
:100AD0002DE9F04104460E4600BF1C4800F078F8AE
:100AE0000028FAD100222146184800F0B9F8314612
:100AF000164800F077F80721144800F06FF800BF9F
:100B0000124800F05FF80028FAD1104800F071F8A0
:100B1000C7B20120FFF7ADFD012221460B4800F0CE
:100B20009FF80721094800F059F800BF074800F076
:100B300049F80028FAD1054800F052F8C5B2012062
:100B4000FFF797FD2846BDE8F08100000000024055
:100B50002DE9F04104460F46154600BF184800F045
:100B600037F80028FAD100222146154800F078F81D
:100B70003946134800F036F80321114800F02EF8EA
:100B800000BF0F4800F024F80028FAD10C4800F00C
:100B900030F8C6B229460A4800F024F80521084872
:100BA00000F01CF800BF064800F012F80028FAD147
:100BB000034800F01EF8C6B23046BDE8F0810000E0
:100BC00000000240406810F0400018BF012070474C
:100BD000406810F0010018BF012070474160704765
:100BE0008068704781607047016A41F010010162BE
:100BF0007047406810F0010F05D110F0120F1CBFB4
:100C000000F01C007047002070470000036A43F0AA
:100C100010030362002A14BF0E4A0F4A02EB82033C
:100C200001EB830302EB820292005B1EB3FBF2F244
:100C3000521EC260D0F8C02F12F0010F08BF7047DB
:100C4000064A1144521CB1FBF2F1491E41F08001E9
:100C5000C1607047801A0600A08601007F473701F7
:100C600042EA4101016070471649042804BF086840
:100C700040F4803018D0052804BF086840F40030E4
:100C800012D0062812D00F2815D0102838BF704770
:100C9000103800F01F01012202FA01F142090A484E
:100CA00050F822000160704708607047086840F4FF
:100CB0008020086070474FF0E020016941F0020198
:100CC0000161704724ED00E01045000010B5FFF70A
:100CD000F2FA002818BF012010BD084401686FF324
:100CE00052011143016012F0020F14BFB0218C2198
:100CF000016214BF4FF4306140F60C01416270474D
:100D0000425842F00102425070470844016811F015
:100D1000020F14BF5108511E01617047002A8268FA
:100D200014BF114322EA01018160704721F03F03A3
:100D30001844036813F0020F18BF520803699A1A87
:100D400011F0010F14BFC26182617047036823F084
:100D50001E0319430160C2607047016841F0010140
:100D60000160704710B5114800F0CEFA00BF0F487F
:100D700000F0DEFA0028FAD00C48C01C00F0C4FADB
:100D800000BF0A48C01C00F0D3FA0028F9D00121A6
:100D90000748FFF746FE03210648FFF734FE0A2303
:100DA000012203210348FFF76DFD10BD050800F087
:100DB0000050024000D0034010B51E4800F0A4FAD5
:100DC0001D4800F0A1FA1D48FFF7F8FD1C48FFF789
:100DD000F5FD04211B48FFF740FE08211948FFF7E5
:100DE0002EFE0122184801681848FFF70FFF174828
:100DF000FFF7FAFEFF220C212220FFF7A9FE04468E
:100E000000220D212220FFF7A3FE044600220E211E
:100E10002220FFF79DFE0446002203211820FFF741
:100E200097FE0446FF2201211820FFF791FE044699
:100E300010BD0000002000F0010800F002080100D1
:100E4000020C0100005000400000002000000240A1
:100E500010B50B4800684FF47A71B0FBF1F42046EE
:100E600000F0B0FA00F0A0FA00F0A5FA5021054811
:100E700001F060FD1520FFF7F7FEFFF727FF10BD1B
:100E80000000002000C0004010B5002000F032FA41
:100E90001E4800F039FA00BF1C4800F049FA00284B
:100EA000FAD01B4800F030FA00BF194800F040FAB1
:100EB0000028FAD01748FFF781FD20211648FFF7D8
:100EC000DAFD00224FF480711448FFF706FF144842
:100ED00000684FF47A61B0FBF1F422464FF4807160
:100EE0000E48FFF712FF0E48006842F6E061B0FBC3
:100EF000F1F4224640F207110848FFF717FF4FF4BC
:100F000080710648FFF7FCFE10BD0000004000F0B5
:100F1000090800F006140900001006400080024095
:100F20000000002010B5164800F0EEF9154800F05A
:100F3000EBF900BF134800F0FBF90028FAD0124883
:100F4000FFF73CFD1148FFF739FD08211048FFF776
:100F500068FD002208210E48FFF7B7FD02210C486A
:100F6000FFF797FD04210A48FFF793FD642208214B
:100F70000848FFF7EBFE0748FFF7EFFE10BD000043
:100F80000A0800F0004400F006040A0006080A00FF
:100F90000020064000C0024010B5124800F0B4F92D
:100FA000114800F0B1F900BF0F4800F0C1F9002866
:100FB000FAD00120FFF702FD40F20140FFF7FEFCEE
:100FC00003214FF04020FFF772FD60234FF4E13220
:100FD00006480168064801F074FC06A001F0B4FC64
:100FE00010BD0000001800F0000800F00000002014
:100FF00000C000400D0A48656C6C6F2C20776F7242
:101000006C64210D0A0000002DE9F003AF4D02468B
:101010002868AF4B1840A0F18053B3F5A02359D0F6
:1010200002F03809DFF8AC82C2F38414B9F1100F72
:1010300025D0B9F1300F04BF47F230504FF4001300
:101040000DD04FF03800904304BF4FF40040C3016F
:1010500005D012F0380F1CBF0020034613D09E4F5E
:1010600012F4605F4FF0000618BF00222CD057F832
:10107000324044457DD307EBC2025268E1E00023D1
:1010800040461524EBE7A4F10900122822D2934828
:10109000D5F87CC04FF04C7350F824002CF01C0C99
:1010A000072CA8BF4CF0100CC5F87CC02E6D4FF477
:1010B000002C16F4807FD2D1BCF1010C0AD02E6D29
:1010C00016F4807FF8D0CAE712F0380F18BFB9F1D4
:1010D000100F04D0BDE8F0034FF000007047C2F3DA
:1010E0000268DFF8FCC14FF0000257F83290E1458A
:1010F00003D307EBC202526803E0521C062AF4D362
:101100003246C5F8C020D5F8B020DFF8D8C102EAD1
:101110000C0242F00042C5F8B020DFF8CCC1A4F1C7
:1011200009024C1E5CF828C0A444BCFBF1FCD5F8B5
:10113000B0101943C5F8B01008EBC80101EB410429
:101140006A4902EB420201EBC40101EB82046468CC
:10115000C5F86441D5F864416FF0FF0808EB0C2C2A
:1011600044EA0C0CC5F864C151F82210D5F860218E
:1011700000E061E002F400021143C5F86011D5F807
:101180006011D5F86021C1F38921C2F30904D5F8B3
:101190006421C2F3042202F1010CD5F8642102F0AB
:1011A0001F02521CB0FBF2F04A09C2F1000844438E
:1011B000424301EB481104EB5212484302EB9020EA
:1011C000B0FBFCF041080846002257F832C08445C5
:1011D00003D307EBC200466802E0521C062AF4D390
:1011E000C5F8C060D5F8600110F4000F1DBFD5F838
:1011F000B00040F08040C5F8B000D5F8600104BFF1
:1012000040F40000C5F860014FF40040D5F86821B3
:1012100012F0010F02D1401E0028F7DC002808BFA1
:10122000002148D0D5F8B000184340F0010040F04C
:101230001040C5F8B0003EE0521C062AFFF417AF7C
:101240003246C5F8C020D5F8602122F40002C5F866
:101250006021D5F8B020DFF898C002EA0C0242F015
:101260000042C5F8B020002908BF4FF0000C0AD09A
:10127000B0FBF1FCBCF1000F18BFACF1010C0CF19C
:101280000101B0FBF1F10846002257F832408442D8
:1012900003D307EBC200466802E0521C062AF4D3CF
:1012A000C5F8C060D5F8B00043EA8C22104340F086
:1012B0000040C5F8B000D5F8B00020F47000C5F8C3
:1012C000B000BDE8F00308467047000000E00F40A2
:1012D0000000FF700024F40084470000684500000F
:1012E00040787D0100FC0FE060450000D44500001F
:1012F000FF0300EF03490A6E22F4F0121043086660
:101300007047000000E00F40C0F307230749C0B258
:10131000194401F07043C1F3130143EA411141EA5A
:10132000800040F0007001220260704700E60F402C
:10133000C0F307220849C0B2114401F07042C1F362
:10134000130142EA411141EA800040F00070006858
:10135000002818BF0120704700EA0F40C0F30723A0
:101360000C49C0B2194401F07043C1F3130143EAC0
:10137000411141EA800040F0007181B001220A6011
:10138000002200920098401C00901028FAD30A60B6
:1013900001B0704700E50F40024901480860FEE7D0
:1013A0000400FA050CED00E04FF0E020016941F087
:1013B0000501016170474FF0E020016941F0020131
:1013C000016170474FF0E021401E48617047000006
:1013D0002DE9F0439FB00024FE4841681B9101684D
:1013E0001A9100210D910E910C91089109910A9189
:1013F0000B910491059106910791039102910025AB
:10140000DFF8D483F548D0E90010491C40F1000012
:10141000F24AC2E90010A8F10200B0F86C0064289A
:1014200009DAA8F10200B0F86C00401CA8F1020132
:10143000A1F86C000EE0E848801EB0F86C0064284B
:1014400008D140F28670E449891EA1F86C0001259C
:10145000881C88660A220023E04903C9FEF7CEFFF4
:1014600000214A404B401A436DD1002432E0DA4853
:10147000801E0078C043204100F001000DA90855EE
:101480000DA8005D20B1D648005D08B9012000E03C
:10149000002008A921F814004FF4FA720023CF4964
:1014A00003C9FEF7ABFF00214A404B401A4307D166
:1014B0000DA8005D20B1CA48005D08B1012000E020
:1014C000002004A921F814000DA8005DC4490855A6
:1014D000601CC4B2082CCADB002432E0BE48801E67
:1014E0004078C043204100F001000CA908550CA829
:1014F000005D20B1BB48005D08B9012100E000217A
:1015000003A820F814104FF4FA720023B34903C95A
:10151000FEF774FF00214A404B401A4307D10CA844
:10152000005D20B1AF48005D08B1012000E000205F
:1015300002A921F814000CA8005DAA490855601CF6
:10154000C4B2022CCADBBDF8080078B1BDF80A00AD
:1015500060B1042211021AA8FFF7B4F8042240F285
:1015600004411BA8FFF7AEF8FFF716FF9E4840782E
:1015700098B90A220023994903C9FEF73FFF0021C9
:101580004A404B401A4308D19248D0E90010491C08
:1015900040F100008F4AC2E90010082000908D48F9
:1015A0000CC81CA801F050FA8F48C07801281FD140
:1015B0000A220023894903C9FEF720FF00214A407F
:1015C0004B401A4314D18948D0E9001000235940F8
:1015D0005840014303D103208349C87008E0834881
:1015E000D0E90020521E60F100008049C1E90020CE
:1015F000002000907D480CC817A801F025FA0024AF
:1016000031E000207A4901EBC4010090D1E9006388
:1016100004EB440111AA02EB8100324601F014FAF6
:1016200004EB440011A901EB8000C188BDF87600ED
:10163000814216D104EB440011A901EB800001891D
:10164000BDF8780081420CD104EB440011A901EBF4
:1016500080004189BDF87A00814202D102206249AE
:101660000871601CC4B2022CCBDB5F4800790228F1
:1016700005D1BDF82E0010B100205B490871BDF8FE
:1016800070005C49098888421DD0BDF87000594936
:10169000088008460188584801F038FB002410E013
:1016A0000820554901EBC4010090D1E9006304EB27
:1016B0004401524A02EB8100324601F0C5F9601C38
:1016C000C4B2182CECDBBDF80C0048B146480078D9
:1016D000001D052190FBF1F201FB12004249087048
:1016E000BDF80E0048B140480078401C052190FB31
:1016F000F1F201FB12003C490870414800880028C3
:1017000044DD022001F02EF98DF83C00012001F0AB
:1017100029F98DF83D00092001F024F98DF83E00EB
:10172000012001F01FF98DF83F00002001F01AF9A7
:101730008DF84000022001F015F98DF841000720D6
:1017400001F010F98DF84200092001F00BF98DF835
:101750004300FF20009021480CC80FA801F0B4FA04
:10176000C82200231D4903C9FEF748FE00214A4054
:101770004B401A4304D12348007AC04321490872E0
:101780001F480088401E1E490880F1E300201D49C3
:101790000872002404E020200FA90855601CC4B280
:1017A000082CF8DB1048007806287CD2DFE810F01F
:1017B000780156030600E1037A059B0704201149CE
:1017C0000872BDF82A0018B30120074948700520A7
:1017D0000D491BE0100000204200002008000020FE
:1017E000320000203A0000202800002018000020CD
:1017F000C000002020000020D00000209001002028
:1018000022000020B00000202D000020087005E01C
:10181000BDF82E0010B10020FE494870BDF87600DA
:101820000A2190FBF1F0C2B2104601F09BF88DF84E
:101830003C00BDF876000A2190FBF1F301FB130098
:10184000C2B2104601F08EF88DF83D00BDF8780068
:101850000A2190FBF1F0C2B2104601F083F88DF836
:101860003E00BDF878000A2190FBF1F301FB130064
:10187000C2B2104601F076F88DF83F00BDF87A004C
:101880000A2190FBF1F0C2B2104601F06BF88DF81E
:101890004000BDF87A000A2190FBF1F301FB130030
:1018A000C2B2104600E0FCE301F05CF88DF84100A4
:1018B00064220023D84903C9FEF7A0FD1646194645
:1018C0000A2200233046FEF799FD00F0FF09484642
:1018D00001F048F88DF842000A220023CE4903C9DE
:1018E000FEF78CFDD6B2304601F03CF88DF843008F
:1018F000C8484078012875D1BDF8200048B1C748D4
:101900000078401D062190FBF1F201FB1200C34953
:101910000870BDF8240048B1C0480078401C06217A
:1019200090FBF1F201FB1200BC490870BDF82C00DD
:10193000B0B3BA48007806284AD2DFE800F0030EB8
:101940001925323EB448D0E90020B549511840F17C
:101950000000B14AC2E900103BE0AF48D0E90030D6
:10196000B04A9A1840F10000AB49C1E9002030E0CC
:10197000A948D0E900304EF660229A1840F10000E4
:10198000A549C1E9002024E0A348D0E9002041F2A4
:101990007073D21840F100009F49C1E9002018E09F
:1019A00018E09D48D0E900304FF47A729A1840F15F
:1019B00000009949C1E900200BE09748D0E90030C8
:1019C0006421591840F10000934AC2E9001000E078
:1019D00000BF00BFBDF82200C0B3904800780628C1
:1019E0004BD200E05BE0DFE800F0030E1925323E49
:1019F0008948D0E900308A4A9A1A60F10000864985
:101A0000C1E900203AE08448D0E90020854BD21A91
:101A100060F100008049C1E900202FE07E48D0E954
:101A200000104EF66023C91A60F100007A4AC2E93C
:101A3000001023E07848D0E9001041F27072891A52
:101A400060F10000744AC2E9001017E017E0724824
:101A5000D0E900304FF47A71591A60F100006E4AF3
:101A6000C2E900100AE06C48D0E90020643A60F155
:101A700000006949C1E9002000E000BF00BFC822A2
:101A80000023694903C9FEF7B9FC6420101A73F1F9
:101A9000000304D220200FA9604A1278885466E21D
:101AA000012062490872BDF82A0030B1012059496D
:101AB000887007205E49087005E0BDF82E0010B15F
:101AC000002054498870BDF8700042F2107190FBFC
:101AD000F1F301FB13004FF47A7190FBF1F0C2B205
:101AE000104600F03FFF8DF83C00BDF870004FF449
:101AF0007A7190FBF1F301FB1300642190FBF1F08C
:101B0000C2B2104600F02EFF8DF83D00BDF8700007
:101B1000642190FBF1F301FB13000A2190FBF1F02B
:101B2000C2B2104600F01EFF8DF83E00BDF87000F6
:101B30000A2190FBF1F301FB1300C2B2104600F042
:101B400011FF8DF83F00BDF87200401C642190FB2E
:101B5000F1F301FB13000A2190FBF1F0C2B2104631
:101B600000F000FF8DF84000BDF87200401C0A2113
:101B700090FBF1F301FB1300C2B2104600F0F2FE3D
:101B80008DF84100BDF87400401C642190FBF1F316
:101B900001FB13000A2190FBF1F0C2B2104600F0E5
:101BA000E1FE8DF84200BDF87400401C0A2190FB54
:101BB000F1F301FB1300C2B2104600F0D3FE8DF822
:101BC000430014488078012875D1BDF82000D8B1B1
:101BD00000BF17490978C81DC11700EB5171C91022
:101BE000A0EBC101124A11701046007803280BD0F7
:101BF00010460078052807D010460078062803D044
:101C0000104600780728E4D1BDF8240060B300BF77
:101C100007490FE028000020100000202D000020C0
:101C200080EE3600407E050008000020B000002055
:101C30002E0000200978481CC11700EB5171C91013
:101C4000A0EBC101FE4A11701046007803280BD0AA
:101C500010460078052807D010460078062803D0E3
:101C6000104600780728D3D1BDF82C0090B3F44873
:101C70000078082863D2DFE800F0040506072E2F5D
:101C80004C575DE05CE05BE0BDF87200022804DCCC
:101C9000BDF8700000F07AFF50B9BDF8720002285C
:101CA0000ADDBDF87010491C88B200F06FFF18B152
:101CB0004FF4B77002E0D0E040F26D10E1494843C4
:101CC00064214843E04B0CCB801843F10001DE4A0D
:101CD00003C235E035E033E0BDF8700000F056FF98
:101CE00028B1BDF87200D94931F8100004E0BDF800
:101CF0007200D74931F81000D24948436421484363
:101D0000C117D14AD2E90032C0185141CE4A03C2AC
:101D100016E0CD48D0E90020CE4BD21840F10000AB
:101D2000C949C1E900200BE0C748D0E90010CA4BFF
:101D3000C91840F10000C44AC2E9001000E000BF29
:101D400000BFBDF8220090B3BD480078082872D2C9
:101D5000DFE800F0040506072E2F5A656CE06BE003
:101D60006AE0BDF87200022804DCBDF8700000F0E3
:101D70000DFF50B9BDF87200022809DDBDF87010E2
:101D8000491C88B200F002FF10B14FF4B77001E0B7
:101D900040F26D10AB49484364214843AA49D1E958
:101DA0000031181A61F10001A74A03C244E044E07F
:101DB00042E0BDF8700000F0E9FE58B1BDF87200D5
:101DC0000B300C2190FBF1F201FB12009F4931F81E
:101DD00010000AE0BDF872000B300C2190FBF1F20C
:101DE00001FB12009A4931F81000964948436421DA
:101DF0004143CA179448D0E90030591A60EB0200F9
:101E0000914AC2E9001017E08F48D0E90020914BB9
:101E1000D21A60F100008C49C1E900200CE08A4828
:101E2000D0E900108C4BC91A60F10000864AC2E963
:101E3000001001E0FFE700BF00BFC8220023874970
:101E400003C9FEF7DBFA6421511A73F1000304D2CF
:101E500020200FA97A4A1278885488E0022080490D
:101E60000872BDF8700042F2107190FBF1F301FBB3
:101E700013004FF47A7190FBF1F0C2B2104600F0FB
:101E800071FD8DF83C00BDF870004FF47A7190FB45
:101E9000F1F301FB1300642190FBF1F0C2B2104694
:101EA00000F060FD8DF83D00BDF87000642190FBEE
:101EB000F1F301FB13000A2190FBF1F0C2B21046CE
:101EC00000F050FD8DF83E00BDF870000A2190FB37
:101ED000F1F301FB1300C2B2104600F043FD8DF890
:101EE0003F00002440E004EB44005E4901EB800029
:101EF0004188BDF87200814234D104EB4400594955
:101F000001EB80008188BDF8740081422AD1532101
:101F10008DF8401050218DF8411004F11600182161
:101F200090FBF1F301FB1300401C0A2190FBF1F040
:101F3000C2B2104600F016FD8DF8420004F1160002
:101F4000182190FBF1F301FB1300401C0A2190FBC8
:101F5000F1F301FB1300C2B2104600F003FD8DF84F
:101F6000430003E0601CC4B2182CBCDB00BFD6E306
:101F7000D6E308203A490872BDF82A0048B13A4829
:101F8000C078042801D1022000E004203649C8703E
:101F90000BE0BDF82E0040B13348C078022801D1D3
:101FA000012000E002203049C870BDF862000A211B
:101FB00090FBF1F0C2B2104600F0D4FC8DF83C006A
:101FC000BDF862000A2190FBF1F301FB1300C2B2DD
:101FD000104600F0C7FC8DF83D00BDF864000A21F2
:101FE00090FBF1F0C2B2104600F0BCFC8DF83E0050
:101FF000BDF864000A2190FBF1F301FB1300C2B2AB
:10200000104600F0AFFC8DF83F00BDF866000A21D5
:1020100090FBF1F0C2B2104600F0A4FC8DF8400035
:10202000BDF866000A2190FBF1F301FB1300C2B278
:10203000104600F097FC8DF841006422002315E063
:102040002E0000208051010010000020D82D00003B
:10205000C02D0000005C260500D68300080000208B
:10206000B00000209001002028000020FC4903C996
:10207000FEF7C4F9164619460A2200233046FEF739
:10208000BDF900F0FF09484600F06CFC8DF84200F5
:102090000A220023F24903C9FEF7B0F9D6B230464E
:1020A00000E03BE300F05EFC8DF84300ED48C078B3
:1020B000032813D1C8220023EB4903C9FEF79EF978
:1020C0006421511A73F1000308D2002404E0202097
:1020D0000FA90855601CC4B2082CF8DBE148C07891
:1020E000042875D1BDF8200048B1E0480078401DB3
:1020F000062190FBF1F201FB1200DC490870BDF8EB
:10210000240048B1D9480078401C062190FBF1F228
:1021100001FB1200D5490870D148D0E90010D44B1A
:10212000C91840F10000CE4AC2E90010BDF82C00E9
:10213000B0B3CE48007806284BD2DFE800F0030E9B
:102140001925323EC648D0E90010CA4A891840F124
:102150000000C34AC2E900103CE0C148D0E90030A9
:10216000C54A9A1840F10000BD49C1E9002031E09C
:10217000BB48D0E900204EF66023D21840F10000A1
:10218000B749C1E9002025E0B548D0E9002041F277
:102190007073D21840F10000B149C1E9002019E084
:1021A00019E0AF48D0E900204FF47A73D21840F11B
:1021B0000000AB49C1E900200CE0A948D0E90020AB
:1021C0006421511840F10000A54AC2E9001001E065
:1021D00067E000BF00BFBDF82200B0B3A34800789D
:1021E000062849D2DFE800F0030E1925323E9C484C
:1021F000D0E900209F4BD21A60F100009849C1E954
:1022000000203AE09648D0E900209B4BD21A60F1BA
:1022100000009349C1E900202FE09148D0E9003047
:102220004EF660229A1A60F100008D49C1E9002043
:1022300023E08B48D0E9003041F270729A1A60F1C5
:1022400000008749C1E9002017E017E08448D0E981
:1022500000204FF47A73D21A60F100008049C1E97E
:1022600000200AE07E48D0E90020643A60F10000D6
:102270007B49C1E9002000E000BF00BF7C4A002389
:10228000774903C9FEF7BAF875480CC0774801785A
:1022900001208840C0B2009073480CC80FA800F01D
:1022A00013FD3CE2102075490872BDF8280048B1C2
:1022B00073490978481C00EBD0714910A0EB41012B
:1022C0006F4A1170BDF8260048B16D490978481C65
:1022D00000EBD0714910A0EB4101694A1170BDF8C3
:1022E0002A0030B101205F49087107206549087054
:1022F00005E0BDF82E0010B100205A490871604871
:10230000007800F02FFB8DF83C0020218DF83D1067
:102310005B48007800EB400011A901EB8000C08809
:102320000A2190FBF1F0C2B2104600F01BFB8DF8C1
:102330003E005348007800EB400011A901EB8000FB
:10234000C0880A2190FBF1F301FB1300C2B21046D2
:1023500000F008FB8DF83F004948007800EB400092
:1023600011A901EB800000890A2190FBF1F0C2B2B3
:10237000104600F0F7FA8DF840004148007800EB75
:10238000400011A901EB800000890A2190FBF1F3C4
:1023900001FB1300C2B2104600F0E4FA8DF84100D0
:1023A0003748007800EB400011A901EB800040891C
:1023B0000A2190FBF1F0C2B2104600F0D3FA8DF87A
:1023C00042002F48007800EB400011A901EB80008B
:1023D00040890A2190FBF1F301FB1300C2B21046C1
:1023E00000F0C0FA8DF843001E480079012879D129
:1023F000BDF8200050B123480078C01C062190FB96
:10240000F1F201FB1200801C1E490870BDF8240087
:1024100050B11C480078401E062190FBF1F201FBF0
:102420001200801C1749087017481549097800EBFD
:10243000C100D0E900200E4BD21840F10000124933
:102440000F4B1B7801EBC301C1E90020BDF82C0044
:10245000E0B10C480078801E06287CD217E000000E
:102460001800002028000020080000202F00002075
:1024700000D6830080EE3600407E0500B0000020CC
:102480003100002030000020C00000207DE0DFE8A7
:1024900000F003162A3E5268D548D649097800EB69
:1024A000C100D0E90010D44BC91840F10000D04A57
:1024B000D04B1B7802EBC302C2E9001064E0CC48A9
:1024C000CC49097800EBC100D0E90030CB4959185C
:1024D00040F10000C64AC74B1B7802EBC302C2E9B9
:1024E000001051E0F3E0C248C249097800EBC10096
:1024F000D0E900204EF66023D21840F10000BC491C
:10250000BC4B1B7801EBC301C1E900203CE0B8489B
:10251000B849097800EBC10141F27072D1E900605D
:10252000B21840F10000B249B24B1B7801EBC30175
:10253000C1E9002028E0AE48AE49097800EBC100AF
:10254000D0E900204FF47A73D21840F10000A84976
:10255000A84B1B7800E016E001EBC301C1E90020A5
:1025600012E0A348A349097800EBC100D0E900209C
:10257000643240F100009E499E4B1B7801EBC30181
:10258000C1E9002000E000BF00BFBDF8220078B321
:102590009B480078801E06287AD2DFE800F00316F8
:1025A0002A3E526692489349097800EBC100D0E96F
:1025B0000030914A9A1A60F100008D498D4B1B78CA
:1025C00001EBC301C1E9002063E08948894909782A
:1025D00000EBC100D0E90030884A9A1A60F100008F
:1025E0008349844B1B7801EBC301C1E9002050E013
:1025F00050E07F487F49097800EBC100D0E9002016
:102600004EF66023D21A60F100007949794B1B78AD
:1026100001EBC301C1E900203BE075487549097829
:1026200000EBC100D0E9001041F27072891A60F12C
:1026300000006F4A6F4B1B7802EBC302C2E9001027
:1026400027E06B486B49097800EBC100D0E9002016
:102650004FF47A73D21A60F100006549654B1B781C
:1026600001EBC301C1E9002013E061486149097829
:1026700000EBC100D0E90010643960F100005C4A51
:102680005C4B1B7802EBC302C2E9001001E0FFE7DC
:1026900000BF00BF56485749097800EBC101D1E996
:1026A0000061584A00233046FDF7A8FE50485149C2
:1026B000097800EBC1000CC0514801780120884026
:1026C000C0B2009050480CC80FA800F0FDFA4F4867
:1026D0000079022806D1FF2000904B480CC80FA8B3
:1026E00000F0F2FA1BE0022048490870042241027F
:1026F0001AA8FEF799F8042240F204411BA8FEF73D
:1027000093F80023DDE91A1059185841404AC2E9EC
:10271000001041F270703F49088000E000BF00BF28
:1027200000240AE00FA9085D00F046F93A4908556F
:1027300020200FA90855601CC4B2082CF2DB3348D6
:102740000079022803D03148C078032804D14FF41F
:10275000FA603149C8603FE0642200232A4903C976
:10276000FDF74CFE00214A404B401A4331D12B4823
:102770000088401C2949088029482A49098830F8DE
:10278000210058B926482749098800EB8100408874
:1027900020B90020214908802249088004E021480E
:1027A0000088401C1F4908801D491E480088401CA5
:1027B00001EB80004088194909888842EFDD1848FC
:1027C0001849098830F82100174931F810001249DA
:1027D000C86000201049C86000200F49C86025B1BA
:1027E000032212A14046FDF78AFE1FB0BDE8F08328
:1027F000C00000203100002080EE3600407E050041
:102800003000002000D683000800002028000020AF
:102810001000002022000020B00000202400002032
:10282000B82E000026000020E4410000736574000B
:102830000448006840F470000249086002480349F7
:102840000860704788ED00E00024F4003C000020A0
:1028500010B501210F4800F071F8044621460D48DB
:1028600000F066F80AE00B4800F018F80A49896E93
:1028700008700948806E401C07498866054800F0CA
:102880001BF80028EFD10449896E08700249A1F8AD
:102890006C0010BD00C0004040000020816911F0B4
:1028A000100F0CBF00684FF0FF307047826912F0C4
:1028B000200FFBD1016070478069012121EA1010CF
:1028C0007047D0F818C01CF0080FFAD1D0F82CC00F
:1028D0002CF0100CC0F82CC0D0F830C02CF0010C3B
:1028E0002CF4407CC0F830C0D0F830C0B1EB021FEF
:1028F00034BF4CF0200C2CF0200CC0F830C038BF96
:102900005208C900B1FBF2F1491C49088A09426228
:1029100001F03F018162C36200218161C16A41F01F
:102920001001C162016B40F2013211430163704733
:1029300041647047826B114381637047002914BF63
:10294000006CC06B7047000010B5044604E014F83A
:10295000011B0348FFF7AAFF20780028F7D110BD1C
:1029600000C000400146002905DB092903DC01F114
:102970003000C0B2704701F16100C0B2FAE770B533
:1029800004460D462A4605212220FEF7E1F80120E3
:10299000A040C2B206212220FEF7DAF84FF4FA6016
:1029A000FDF767FE002206212220FEF7D1F8002065
:1029B000FDF75FFE70BD000030B597B004462C22D5
:1029C0000BA10CA8FDF7E6FD2C2214A101A8FDF730
:1029D000E1FD21460CA8FDF788FD05462DB10CA8A8
:1029E000281A01A9085C17B030BD0020FBE70000E1
:1029F00030313233343536373839416242436444FA
:102A0000454647484A4B4C4D4E506F4F51525453D8
:102A100055565758595A2E2D5F2000003F065B4FE0
:102A2000666D7D077F6F777C7C395E5E79713D7660
:102A30000D72385554735C5C6F50786D3E1C6A1D86
:102A40006E498040080000002DE9F05F04461546FD
:102A50001E46DDF8289040F2B270208064220023E8
:102A600028463146FDF7CAFC07463C220023FDF705
:102A7000C5FC62816422002328463146FDF7BEFC76
:102A800007464FF461620023FDF7B8FC92461946F1
:102A90003C2200235046FDF7B1FC20816422002334
:102AA00028463146FDF7AAFC0746354A0023FDF7C4
:102AB000A5FC924619464FF4616200235046FDF78B
:102AC0009DFC10EB0900E0804FF064024FF0000322
:102AD00028463146FDF792FC0746294A0023FDF7B8
:102AE0008DFCA080E088182805DBE0881838E0809D
:102AF000A088401CA080002060800EE0208800F0AC
:102B000045F810B14FF4B77001E040F26D10A188A4
:102B1000081AA0802088401C2080208800F036F809
:102B200010B14FF4B77001E040F26D10A1888842F7
:102B3000E4DD12E0208800F029F820B16088114916
:102B400031F8100003E060880F4931F81000A188C7
:102B5000081AA0806088401C6080208800F016F869
:102B600020B16088074931F8100003E06088064909
:102B700031F81000A1888842DCDDBDE8F09F00003C
:102B800080510100D82D0000C02D000001460A46EA
:102B9000C81701EB90708010A1EB800070B9642021
:102BA00091FBF0F300FB131030B94FF4C87091FBA8
:102BB000F0F300FB131008B9012070470020FCE778
:102BC0000024FF25394943F65050FEF71DFA3849D5
:102BD00008603848057040F286703649A1F86C00EC
:102BE000881C886600203449C860FEF7BBF8FEF7F1
:102BF000E3F8FEF7D1F9FEF72BF9FEF793F9FEF7AC
:102C000043F92E48FEF780FB00BF2C48FEF790FBEF
:102C10000028FAD0FDF734FD47E02748007AC0438A
:102C2000C2B201211820FDF793FF00240EE000211D
:102C30002220FDF74DFF05460DB11E4805701E48C8
:102C4000015D2046FFF79BFE601CC4B2082CEEDB42
:102C50001948C06808B1012000E000200246802128
:102C60001748FEF75BF81448C068C0B11248C06846
:102C70000F490968B1FBF0F632464FF480711048F5
:102C8000FEF743F80C48C06809490968B1FBF0F049
:102C90008608324640F207110948FEF747F803213B
:102CA0000848FDF7ADFE03494870B6E70024F4007C
:102CB0000000002040000020B0000020005800F07C
:102CC0000080024000D003402DE9F0410546164641
:102CD0001F46DDF81880C822002330463946FDF72C
:102CE0008DFB6421511A73F100030CD2002408E01B
:102CF0000120A04000EA080008B120202855601CEF
:102D0000C4B2082CF4DBBDE8F081000070B50246C7
:102D100000200AE0254B03EBC003D3E9004302EB9C
:102D2000C005C5E90043431C98B21828F2DB40F205
:102D3000E57399421ADA11E000200DE002EBC003BE
:102D4000D3E900431A4EA41B63F1FF3302EBC00525
:102D5000C5E90043431C98B21828EFDB0B464C1C16
:102D6000A1B240F2E574A342E6D11DE040F2E57362
:102D7000994219DD11E000200DE002EBC003D3E918
:102D800000530B4EAD1943F1FF3302EBC004C4E90D
:102D90000053431C98B21828EFDB0B464C1EA1B21F
:102DA00040F2E574A342E6D170BD0000F82D0000AA
:102DB000D40B18BC4FF04070E1EE100A70470000D1
:102DC0001F001C001F001E001F001E001F001F0010
:102DD0001E001F001E001F001F001D001F001E0000
:102DE0001F001E001F001F001E001F001E001F00EE
:102DF0006D016E010000000094CF417B25000000B2
:102E00009866D682250000003CB7708A2500000035
:102E100030EC129225000000D05DC2992500000020
:102E2000FCE97FA125000000E8354FA9250000003E
:102E3000080B2FB125000000F8C620B925000000BE
:102E400048CE20C125000000341D2EC925000000F9
:102E5000443643D125000000602F5DD925000000D5
:102E6000400676E125000000F4F989E9250000001C
:102E7000002C94F1250000007C4691F9250000000B
:102E80001CD47E0126000000B4F85A092600000078
:102E9000D4192611260000005856E018260000001C
:102EA000BC988C20260000005CCE2C282600000058
:102EB0009897C52F26000000FEFF020003000200C5
:102EC000FEFF060003000600FEFF0A0003000A00E2
:102ED000FEFF0E0003000E00FEFF100003001000B6
:102EE000FEFF130003001300FEFF1700030017008E
:102EF000FEFF1C0003001C00FEFF24000300240052
:102F0000FEFF290003002900FEFF2D0003002D0015
:102F1000FEFF300003003000FEFF330003003300EB
:102F2000FEFF360003003600FEFF3A0003003A00C1
:102F3000FEFF3F0003003F00FEFF47000300470085
:102F4000FEFF4C0003004C00FEFF50000300500049
:102F5000FEFF530003005300FEFF55000300550021
:102F6000FEFF590003005900FEFF5D0003005D00F5
:102F7000FEFF610003006100FEFF6A0003006A00BB
:102F8000FEFF6E0003006E00FEFF7300030073007F
:102F9000FEFF760003007600FEFF78000300780055
:102FA000FEFF7B0003007B00FEFF8000030080002B
:102FB000340086003200860033008600300087002F
:102FC000310087002F0087002E0087002D0087002A
:102FD0002C0087002B0087002A008700290087002B
:102FE0002800870026008800270088002400880029
:102FF0002500880023008800220088002100880026
:10300000200088001F0088001E0088001D00880026
:103010001C008800FEFF8E0003008E00FEFF900063
:10302000030090000100910003009200FEFF970052
:1030300003009700FEFF99000300990001009A0029
:1030400003009B00FEFF9F0003009F00FEFFA10006
:103050000300A1000100A3000300A4000300A700D7
:103060000600A8000600AB000800AC00FEFFB1009F
:103070000300B100FEFFB3000300B3000100B40081
:103080000300B500FEFFB9000300B900FEFFBC005D
:103090000300BC000100BD000300BE00FEFFC20033
:1030A0000300C200FEFFC4000300C4000100C5000D
:1030B0000300C6000600CA000800CB000300CE00D3
:1030C0000600CF00FEFFD3000300D300FEFFD600B2
:1030D0000300D6000100D7000300D800FEFFDC008B
:1030E0000300DC00FEFFDE000300DE000100DF0065
:1030F0000300E100FEFFE5000300E500FEFFE7003E
:103100000300E7000100E8000300E9000300EC0011
:103110000600EE000600F1000800F200FEFFF600D7
:103120000300F600FEFFF8000300F8000100FA00BB
:103130000300FB00FEFFFF000300FF00FEFF010194
:10314000030001010100020103000301FEFF080169
:1031500003000801FEFF0A0103000A0101000B0140
:1031600003000C0108000D0106000F01080010010A
:103170000600110103001301060014010F001601DF
:103180001100180112001A0114001C0116001E0182
:103190001B00230119002501160027010F002C0137
:1031A0001600300114003201120034011100360102
:1031B0000F00390111003B0112003D0114003F01D5
:1031C00016004101140046011200480111004A0195
:1031D0000F004C0111004E0112005001110053016B
:1031E0000F0055010E005701110059010F005B013E
:1031F00011005E01120060011400620116006401FA
:103200001B00680119006B0116006D010F007101B0
:10321000160075011400780112007A0111007C017A
:103220000F007E011100800112008201140085014F
:103230001600870114008B0112008D01110090010E
:10324000120094011400980116009D010A00A101CA
:103250000F00A1011100A3011200A5011400A70194
:103260001200AA011600AA011B00AE011900B0014C
:103270001200B2011600B2010A00B7010F00B70137
:103280001600BB011400BD011200BF011100C201F4
:103290000B00C4010F00C4011100C6011200C801D7
:1032A0001400CA011200CC011600CC011400D10197
:1032B0001200D3010D00D5011100D5010F00D70177
:1032C0001100D9011200DC010D00DE011100DE0148
:1032D0000F00E0010E00E2011100E4010A00E60126
:1032E0000F00E6011100E9011200EB011400ED01ED
:1032F0001200EF011600EF011B00F4011900F601A6
:103300001200F8011600F8010A00FC010F00FC0190
:103310001600010214000302120005021100070248
:103320000B0009020F00090211000B0212000E022D
:1033300014001002120012021600120214001602EB
:103340001200180211001B0212001F0214002302B7
:103350001600280219002C021B002E021600300253
:10336000140033021200350216003502140039022F
:1033700016003B0219003D021B00400216004202EB
:1033800014004402110046021600460214004A02CC
:1033900016004D0214004F02120051021100530298
:1033A0000D0055020A0058020F0058020D005C0281
:1033B0000F005E021100600212006202140065023A
:1033C000160067020A0069020F00690216006D020A
:1033D00019006F02190072021B00740216007602B7
:1033E0001400780212007A0216007A0214007F029A
:1033F00016008102190083021B0085021600870255
:1034000014008A0211008C0216008C021400900233
:103410001600920214009402120097021100990201
:103420000D009B020A009D020F009D020D00A102EB
:103430000F00A4021100A6021200A8021400AA02A2
:103440001600AC020A00AE020F00AE021600B30274
:103450002200B3021900B5022500B5021900B70217
:103460002500B7021B00B9022700B9021600BC02F2
:103470002200BC021400BE022000BE021600C002E0
:103480002200C0021400C4022000C4021600C602BA
:103490002200C6021900C9022500C9021B00CB0286
:1034A0002700CB021600CD022200CD021400CF026D
:1034B0002000CF021600D1022200D1021400D60251
:1034C0002000D6021600D8022200D8021400DA0228
:1034D0002000DA021200DC021E00DC021100DE0213
:1034E0001D00DE020D00E0021900E0020F00E30201
:1034F0001B00E3020D00E7021900E7020F00E902DA
:103500001B00E9021100EB021D00EB021200EE02AB
:103510001E00EE021400F0022000F0021600F2027B
:103520002200F2020F00F4021B00F4021600F8025F
:103530002200F8021900FB022500FB021900FD021F
:103540002500FD021B00FF022700FF0216000103F9
:1035500022000103140003032000030316000503E7
:103560002200050314000A0320000A0316000C03BE
:1035700022000C0319000E0325000E031B0010038C
:103580002700100316001203220012031400150373
:103590002000150316001703220017031B001B034E
:1035A00027001B031D001D0329001D031E0020030F
:1035B0002A0020031D002203290022031B002403EC
:1035C00027002403190026032500260316002803DC
:1035D0002200280314002D0320002D0316002F03C2
:1035E00022002F03140031032000310312003303A3
:1035F0001E003303110035031D0035030D00370392
:10360000190037030F003A031B003A0316003E036C
:1036100019004003190042031B004403160047032E
:103620001400490316004B0314004F031600520305
:10363000190054031B0056031600580314005A03C4
:1036400016005C0314006103160063031400650395
:1036500012006703110069030D006C030F006E0375
:103660000D0072030F00740311007603120079033A
:1036700014007B0316007D030F007F0316008403F4
:1036800019008603190088031B008A0316008C03A7
:1036900014008E031600910314009503160097037F
:1036A000190099031B009B0316009E031400A0033E
:1036B0001600A2031400A6031600A8031400AB030F
:1036C0001200AD031100AF030D00B1030F00B303EF
:1036D0000D00B8030F00BA031100BC031200BE03B3
:1036E0001400C0031600C3030F00C5031600C9036E
:1036F0002200C9031900CB032500CB031900CD0319
:103700002500CD031B00D0032700D0031600D203F1
:103710002200D2031400D4032000D4031600D603E1
:103720002200D6031400DA032000DA031600DD03BA
:103730002200DD031900DF032500DF031B00E10386
:103740002700E1031600E3032200E3031400E5036E
:103750002000E5031600E8032200E8031400EC0350
:103760002000EC031600EE032200EE031400F00329
:103770002000F0031200F2031E00F2031100F50313
:103780001D00F5030D00F7031900F7030F00F903FF
:103790001B00F9030D00FD031900FD030F00FF03DB
:1037A0001B00FF03110002041D00020412000404A8
:1037B0001E00040414000604200006041600080479
:1037C000220008040F000A041B000A0416000F045C
:1037D00022000F041900110425001104190013041C
:1037E000250013041B0015042700150416001704F8
:1037F0002200170414001A0420001A0416001C04E6
:1038000022001C04140020042000200416002204BE
:103810002200220419002404250024041B0027048C
:1038200027002704160029042200290414002B0471
:1038300020002B0416002D0422002D041B0031044F
:10384000270031041D003404290034041E0036040E
:103850002A0036041D003804290038041B003A04ED
:1038600027003A0419003C0425003C0416003E04DD
:1038700022003E04140043042000430416004504C3
:1038800022004504140047042000470412004904A4
:103890001E00490411004C041D004C040D004E0490
:1038A00019004E040F0050041B005004FEFF5C047E
:1038B00003005C04FEFF5E0403005E0401005F047D
:1038C00003006004FEFF650403006504FEFF670457
:1038D000030067040100680403006904FEFF6D042F
:1038E00003006D04FEFF6F0403006F040100700409
:1038F00003007204030075040600760406007904D0
:1039000008007A04FEFF7F0403007F04FEFF8104A9
:10391000030081040100820403008304FEFF870486
:1039200003008704FEFF89040300890401008B045F
:1039300003008C04FEFF900403009004FEFF920439
:103940000300920401009304030094040600980409
:103950000800990403009C0406009D04FEFFA104D6
:103960000300A104FEFFA4040300A4040100A504B5
:103970000300A604FEFFAA040300AA04FEFFAC0491
:103980000300AC040100AD040300AE04FEFFB30469
:103990000300B304FEFFB5040300B5040100B60440
:1039A0000300B7040300BA040600BB040600BF040A
:1039B0000800C004FEFFC4040300C404FEFFC604E4
:1039C0000300C6040100C7040300C904FEFFCD04C0
:1039D0000300CD04FEFFCF040300CF040100D00498
:1039E0000300D104FEFFD6040300D604FEFFD80472
:1039F0000300D8040100D9040300DA040800DB0442
:103A00000600DC040800DE040600DF040300E10415
:103A10000600E2040F00E4041100E6041200E804CA
:103A20001400EA041600EC041B00F1041900F3046E
:103A30001600F5040F00F9041600FE04140000053A
:103A400012000205110004050F000605110009050A
:103A500012000B0514000D0516000F0514001405C7
:103A600012001605110018050F001A0511001C059B
:103A700012001E05110021050F0023050E0025056B
:103A8000110027050F00290511002B0512002E0536
:103A900014003005160032051B00360519003805E4
:103AA00016003B050F003F051600430514004605B0
:103AB0001200480511004A050F004C0511004E0583
:103AC0001200500514005305160055051400590541
:103AD00012005B0511005D05120062051400660509
:103AE00016006A050A006F050F006F0511007105C9
:103AF000120073051400750512007805160078058C
:103B00001B007C0519007E0512008005160080054B
:103B10000A0085050F0085051600890514008B0530
:103B200012008D0511008F050B0092050F00920504
:103B300011009405120096051400980512009A05CC
:103B400016009A0514009F051200A1050D00A3059B
:103B50001100A3050F00A5051100A7051200AA0575
:103B60000D00AC051100AC050F00AE050E00B00550
:103B70001100B2050A00B4050F00B4051100B70525
:103B80001200B9051400BB051200BD051600BD05E5
:103B90001B00C1051900C4051200C6051600C605A4
:103BA0000A00CA050F00CA051600CE051400D1058B
:103BB0001200D3051100D5050B00D7050F00D7055E
:103BC0001100D9051200DC051400DE051200E00525
:103BD0001600E0051400E4051200E6051100E905F1
:103BE0001200ED051400F1051600F6051900FA059E
:103BF0001B00FC051600FE0514000006120003065B
:103C000016000306140007061600090619000B0625
:103C10001B000E06160010061400120611001406F2
:103C2000160014061400180616001B0614001D06C4
:103C300012001F06110021060D0023060A002506AA
:103C40000F0025060D002A060F002C0611002E0677
:103C50001200300614003206160035060A00370638
:103C60000F00370616003B0619003D0619004006F6
:103C70001B004206160044061400460612004806C1
:103C80001600480614004D0616004F06190051068E
:103C90001B005306160055061400570611005A065D
:103CA00016005A0614005E0616006006140062062E
:103CB00012006406110067060D0069060A006B0613
:103CC0000F006B060D006F060F00720611007406E0
:103CD000120076061400780616007A060A007C06A2
:103CE0000F007C061600810622008106190083065B
:103CF0002500830619008506250085061B0087061A
:103D000027008706160089062200890614008C0603
:103D100020008C0616008E0622008E0614009206E5
:103D200020009206160094062200940619009606BA
:103D3000250096061B0099062700990616009B068B
:103D400022009B0614009D0620009D0616009F067B
:103D500022009F061400A4062000A4061600A60652
:103D60002200A6061400A8062000A8061200AA0633
:103D70001E00AA061100AC061D00AC060D00AE0622
:103D80001900AE060F00B1061B00B1060D00B50606
:103D90001900B5060F00B7061B00B7061100B906DB
:103DA0001D00B9061200BB061E00BB061400BE06AD
:103DB0002000BE061600C0062200C0060F00C20684
:103DC0001B00C2061600C6062200C6061900C80659
:103DD0002500C8061900CB062500CB061B00CD0622
:103DE0002700CD061600CF062200CF061400D1060C
:103DF0002000D1061600D3062200D3061400D806F0
:103E00002000D8061600DA062200DA061900DC06C1
:103E10002500DC061B00DE062700DE061600E00695
:103E20002200E0061400E3062000E3061600E50683
:103E30002200E5061B00E9062700E9061D00EB0647
:103E40002900EB061E00ED062A00ED061D00F00617
:103E50002900F0061B00F2062700F2061900F406FE
:103E60002500F4061600F6062200F6061400FA06EF
:103E70002000FA061600FD062200FD061400FF06CB
:103E80002000FF06120001071E00010711000307B2
:103E90001D0003070D000507190005070F0008079F
:103EA0001B00080717000C071A000E071A0010075E
:103EB0001C00120717001507150017071700190730
:103EC00015001D0717001F071A0022071C002407F2
:103ED000170026071500280717002A0715002F07C7
:103EE0001700310715003307130035071200370795
:103EF0000E003A0710003C070E0040071000420772
:103F000012004407130047071500490717004B0725
:103F100010004D07170051071A0054071A005607E2
:103F20001C00580717005A0715005C0717005E07AA
:103F300015006307170065071A0067071C0069076B
:103F400017006C0715006E0717007007150074073F
:103F5000170076071500790713007B0712007D070D
:103F60000E007F07100081070E00860710008807EB
:103F700012008A0713008C0715008E0717009007A0
:103F80001000930717009707230097071A00990757
:103F9000260099071A009B0726009B071C009E0716
:103FA00028009E071700A0072300A0071500A207FE
:103FB0002100A2071700A4072300A4071500A807E3
:103FC0002100A8071700AB072300AB071A00AD07B5
:103FD0002600AD071C00AF072800AF071700B10788
:103FE0002300B1071500B3072100B3071700B50779
:103FF0002300B5071500BA072100BA071700BC0750
:104000002300BC071500BE072100BE071300C00730
:104010001F00C0071200C2071E00C2070E00C5071E
:104020001A00C5071000C7071C00C7070E00CB0702
:104030001A00CB071000CD071C00CD071200D007D7
:104040001E00D0071300D2071F00D2071500D407A7
:104050002100D4071700D6072300D6071000D80781
:104060001C00D8071700DD072300DD071A00DF0753
:104070002600DF071A00E1072600E1071C00E3071E
:104080002800E3071700E5072300E5071500E70709
:104090002100E7071700EA072300EA071500EE07EB
:1040A0002100EE071700F0072300F0071A00F207BF
:1040B0002600F2071C00F4072800F4071700F70792
:1040C0002300F7071500F9072100F9071700FB0780
:1040D0002300FB071C00FF072800FF071E00020843
:1040E0002A0002081F0004082B0004081E0006080E
:1040F0002A0006081C000808280008081A000A08F8
:1041000026000A0817000C0823000C0815001108E7
:1041100021001108170013082300130815001508C3
:1041200021001508130017081F00170812001908AE
:104130001E0019080E001C081A001C0810001E089A
:104140001C001E0809002608090029080B002A087F
:1041500009002C080B002D0809002F080900310860
:104160000B003208090035080B0036080900380832
:1041700009003A080B003B0809003D080B003E0807
:1041800009004108090043080B00440809004608DB
:104190000B0047080900490809004B080B004D08AF
:1041A00009004F080B005008090052080900540884
:1041B0000B005508090057080B00580809005B0858
:1041C00009005D080B005E08090060080B0061082B
:1041D00009006308090066080B0067080900690800
:1041E0000B006A080B022A024B026E029302BA020B
:1041F000E40210033F037003A403DC031704550417
:104200009704DD0427057505C80520067D06E00630
:104210004907B8072D08A9082D09B9094D0AEA0A66
:10422000900B400CFA0CC00D910E6F0F0040004037
:104230001000000000800540100000000050004009
:1042400011000000009005401100000000600040D7
:104250001200000000A005401200000000700040A5
:104260001300000000B005401300000000400240B1
:104270001400000000C0054014000000005002407F
:104280002E00000000D005402E000000006002401B
:104290002F00000000E005402F00000000700240E9
:1042A0003000000000F005403000000000D0034066
:1042B00046000000000006404600000000100640D6
:1042C0004700000000200640480000000030064083
:1042D0007F000000004006408000000000500640C3
:1042E00084000000006006408C0000000040004098
:1042F0001000000000800540100000000050004049
:104300001100000000900540110000000060004016
:104310001200000000A005401200000000700040E4
:104320001300000000B005401300000000400240F0
:104330001400000000C005401400000000500240BE
:104340002E00000000D005402E000000006002405A
:104350002F00000000E005402F0000000070024028
:104360003000000000F005403000000000D00340A5
:10437000430000000000064043000000001006401B
:1043800044000000002006404500000000300640C8
:104390005800000000400640590000000050064050
:1043A0005C000000006006406400000000700640F1
:1043B0006C000000008006406D0000000090064088
:1043C0007F00000000400040008005400050004099
:1043D000009005400060004000A0054000700040D3
:1043E00000B005400040024000C0054000500240BF
:1043F00000D005400060024000E00540007002402F
:1044000000F0054000D003400000064000100640C8
:104410000010064000200640002006400030064004
:104420000030064000400640004006400050064074
:1044300000500640006006400060064000700640E4
:104440000070064000800640008006400090064054
:104450000090064000070000000600000005000074
:104460000004000000030000000200000001000042
:10447000000000000000000018ED00E01CED00E06E
:1044800020ED00E000E400E004E400E008E400E0E7
:104490000CE400E010E400E014E400E018E400E0C4
:1044A0001CE400E020E400E024E400E028E400E074
:1044B0002CE400E030E400E034E400E038E400E024
:1044C0003CE400E040E400E044E400E048E400E0D4
:1044D0004CE400E050E400E054E400E058E400E084
:1044E0005CE400E060E400E064E400E068E400E034
:1044F0006CE400E070E400E074E400E078E400E0E4
:104500007CE400E080E400E084E400E088E400E093
:1045100000E100E004E100E008E100E00CE100E07F
:1045200010E100E080E100E084E100E088E100E0EB
:104530008CE100E090E100E000E200E004E200E055
:1045400008E200E00CE200E010E200E080E200E0BF
:1045500084E200E088E200E08CE200E090E200E02B
:1045600000688909001C4E0E40420F0000201C000C
:1045700080841E0000802500999E3600004038008F
:1045800000093D0000803E0000004B00404B4C0005
:1045900000204E00808D5B0000C05D000080700038
:1045A00000127A0000007D0080969800001BB70082
:1045B0000080BB00C0E8CE00647ADA000024F4007A
:1045C0000000FA0080A81201002D310100366E01B2
:1045D00040787D0140000000000000000001000064
:1045E0003E0008000000000000010000A0000000E4
:1045F000020000000001000034540100000000002F
:10460000000100002B700600000000000001000007
:104610002800000000000000000100002700010049
:104620000000000000010000200000000000000069
:104630000001000050000000020000000001000026
:104640001AAC0000000000000001000017940900EF
:1046500000000000000100001698050000000000A6
:104660000001000014000000000000000001000034
:10467000138008000000000000010000A0000000FE
:104680000800000000010000100000000000000011
:1046900000010000280000000200000000010000EE
:1046A0004000000004000000000100006000000065
:1046B00000000000000100005D000C000000000090
:1046C0000001000050000000000000000001000098
:1046D0004E000200000000000001000041AC01009B
:1046E00000000000000100003C000000000000008D
:1046F000000100003A8009000000000000010000F5
:104700003000000000000000000100002800000050
:104710000000000000010000270001000000000070
:1047200000010000236006000000000000010000FE
:104730002160080000000000000100001E000000D1
:1047400000000000000100001DC004000000000087
:104750000001000050000000020000000001000005
:10476000180000000000000000010000140000001C
:1047700000000000000100006000000004000000D4
:10478000000100000024F40030003000005A6202F2
:104790009100910000879303D200D20000B4C404BA
:1047A0001301130100E1F50554015401000E270720
:1047B00095019501D4470000000000204000000052
:1047C0003C0200001448000040000020D00400001B
:1047D000580200000000000000000000000000007F
:1047E0000000000080966CCA250000000000000058
:1047F00000000000000000000000000005000002B2
:1048000000000000000000000000000000000000A8
:044810000024F4008C
:0400000500000201F4
:00000001FF
