:020000040000FA
:1000000030030020D1020000D9020000DB02000012
:10001000DD020000DF020000E1020000000000003D
:10002000000000000000000000000000E3020000EB
:10003000E502000000000000E7020000D11300000C
:10004000EB020000ED020000EF020000F1020000F0
:10005000F302000005260000F7020000F90200008C
:10006000FB020000FD020000FF020000010300008F
:10007000030300000503000007030000090300005C
:100080000B0300000D0300000F030000110300002C
:1000900013030000150300001703000019030000FC
:1000A0001B0300001D0300001F03000021030000CC
:1000B000230300002503000027030000290300009C
:1000C0002B0300002D0300002F030000310300006C
:1000D000330300003503000037030000390300003C
:1000E0003B0300003D0300003F030000410300000C
:1000F00043030000450300004703000049030000DC
:100100004B0300004D0300004F03000051030000AB
:10011000530300005503000057030000590300007B
:100120005B0300005D0300005F030000610300004B
:10013000630300006503000067030000690300001B
:100140006B0300006D0300006F03000089030000D3
:1001500000000000000000008B0300008D03000081
:100160008F030000910300000000000093030000D3
:100170009503000097030000990300009B03000013
:100180009D0300009F030000A1030000A3030000E3
:10019000A5030000A7030000A9030000AB030000B3
:1001A000AD030000AF030000B1030000B303000083
:1001B000B5030000B7030000B9030000BB03000053
:1001C000BD030000BF030000C1030000C303000023
:1001D000C5030000C7030000C9030000CB030000F3
:1001E000CD030000CF030000D1030000D3030000C3
:1001F000D5030000D7030000D9030000DB03000093
:1002000000F002F800F03CF80AA090E8000C8244EC
:100210008344AAF10107DA4501D100F031F8AFF2C9
:10022000090EBAE80F0013F0010F18BFFB1A43F0D4
:1002300001031847402E0000602E0000103A24BF32
:1002400078C878C1FAD8520724BF30C830C144BF3B
:1002500004680C607047000000230024002500267D
:10026000103A28BF78C1FBD8520728BF30C148BF19
:100270000B6070471FB502F018FC1FBD10B510BD14
:1002800000F0BDF91146FFF7F5FF02F06FFB00F03B
:10029000DBF903B4FFF7F2FF03BC00F0E3F9000061
:1002A0000138FDD170470000EFF3108072B670473F
:1002B000EFF310807047EFF3108062B6704730BFE5
:1002C000704780F311887047EFF31180704700008A
:1002D0004548804745480047FEE7FEE7FEE7FEE762
:1002E000FEE7FEE7FEE7FEE7FEE7FEE7FEE7FEE7E6
:1002F000FEE7FEE7FEE7FEE7FEE7FEE7FEE7FEE7D6
:10030000FEE7FEE7FEE7FEE7FEE7FEE7FEE7FEE7C5
:10031000FEE7FEE7FEE7FEE7FEE7FEE7FEE7FEE7B5
:10032000FEE7FEE7FEE7FEE7FEE7FEE7FEE7FEE7A5
:10033000FEE7FEE7FEE7FEE7FEE7FEE7FEE7FEE795
:10034000FEE7FEE7FEE7FEE7FEE7FEE7FEE7FEE785
:10035000FEE7FEE7FEE7FEE7FEE7FEE7FEE7FEE775
:10036000FEE7FEE7FEE7FEE7FEE7FEE7FEE7FEE765
:10037000FEE7FEE7FEE7FEE7FEE7FEE7FEE7FEE755
:10038000FEE7FEE7FEE7FEE7FEE7FEE7FEE7FEE745
:10039000FEE7FEE7FEE7FEE7FEE7FEE7FEE7FEE735
:1003A000FEE7FEE7FEE7FEE7FEE7FEE7FEE7FEE725
:1003B000FEE7FEE7FEE7FEE7FEE7FEE7FEE7FEE715
:1003C000FEE7FEE7FEE7FEE7FEE7FEE7FEE7FEE705
:1003D000FEE7FEE7FEE7FEE7FEE7FEE70448054925
:1003E000034A054B70470000E525000001020000AC
:1003F00030010020300300203001002053EA020CBD
:1004000000F069802DE9F04B4FF00006002B1FBF74
:10041000B3FA83F503FA05F424FA05F65E4012BF39
:100420001643B2FA82F502FA05F4C5F120051EBFA3
:1004300022FA05FC44EA0C04203556EA044C4FEA43
:10044000144418BF641C4FF000084FF0000990429C
:1004500071EB030C39D3002919BFB1FA81F701FA06
:1004600007F6B0FA80F700FA07F6C7F120071EBFBB
:1004700020FA07FC46EA0C062037B6FBF4FCA7EB93
:100480000507103F07F01F0BCBF120060CFA0BFB02
:100490002CFA06F644BFB3460026202FA4BF5E46C2
:1004A0004FF0000B5BEA060C08BF4FF0010B19EB95
:1004B0000B09ABFB027C48EB0608C01B06FB02CC19
:1004C0000BFB03CC71EB0C01C1E70B460246414626
:1004D0004846BDE8F08B13B54FF000004FF0000127
:1004E000AFF30080BDE81C407047401ECAB210F850
:1004F000011F8A4202D00029F9D10020704740EA4A
:10050000010370B59B072ED14FF00136042A2AD380
:1005100008C810C99D1B9D43121F15EAC61517D0A8
:10052000D8B2E1B2401A50EA056110D198B2A1B236
:10053000401A50EA05410AD123F07F4024F07F4160
:10054000401A50EA052102D1180EA0EB146070BDCC
:10055000A342DBD018BA21BA884201D9012070BD6C
:100560004FF0FF3070BD0AB9002070BD10F8013B9C
:1005700011F8014B63B1A3420AD1521E08D010F802
:10058000013B11F8014B1BB1A34201D1521EEDD129
:10059000181B70BD10B5203AC0F00B80B1E81850A0
:1005A000203AA0E81850B1E81850A0E81850BFF45D
:1005B000F5AF5FEA027C24BFB1E81850A0E81850FC
:1005C00044BF18C918C0BDE810405FEA827C24BF50
:1005D00051F8043B40F8043B08BF7047D20728BFDE
:1005E00031F8023B48BF11F8012B28BF20F8023B2D
:1005F00048BF00F8012B7047704770477047754639
:1006000000F02CF8AE4605006946534620F007007E
:10061000854618B020B5FFF7E1FEBDE820404FF059
:1006200000064FF000074FF000084FF0000B21F0DC
:100630000701AC46ACE8C009ACE8C009ACE8C009A9
:10064000ACE8C0098D46704710B50446AFF3008092
:100650002046BDE81040FFF71CBE00000048704770
:10066000D000002001491820ABBEFEE726000200A2
:100670007047002100E0491C8142FCD37047000014
:1006800010B50220FFF70CFE0C4CA06910F0010F12
:10069000FBD1E06910F00C0F0ED1094800F05EFEAE
:1006A0000220FFF7FDFDA06910F0010FFBD1E0690A
:1006B00010F00C0008BF10BD022010BD00F00A4071
:1006C000005800F02DE9F05FDFF848810646D8F8C1
:1006D000180010F0010FFAD18809C8F80400C1F31E
:1006E0008300C8F80800DFF83091DFF830A19508E2
:1006F0004FF0000B67D0C809012101FA00F0C74391
:10070000DAF8001046480140A1F18050B0F5A02071
:1007100002BFDAF8000080B2002813D10A20FFF7E8
:10072000BFFD0320C9F8FC000A20FFF7B9FD3D48D2
:10073000C0F8C0720A20FFF7B3FDC9F8FCB00A2068
:10074000FFF7AEFD3068C8F814000A20FFF7A8FDD7
:10075000D8F8184014F0010FFAD114F0100F24D07B
:10076000DAF800102E480140A1F18050B0F5A02029
:1007700002BFDAF8000080B2002813D10A20FFF788
:100780008FFD0320C9F8FC000A20FFF789FD2548EA
:10079000C0F8C0B20A20FFF783FDC9F8FCB00A20F8
:1007A000FFF77EFD2046BDE8F09F6D1E06F10406B2
:1007B00009D0D8F808000028A2D1D8F80400401CBD
:1007C000C8F804009CE7DAF8001015480140A1F1D0
:1007D0008050B0F5A02002BFDAF8000080B20028F7
:1007E00013D10A20FFF75CFD0320C9F8FC000A20A2
:1007F000FFF756FD0B48C0F8C0B20A20FFF750FDC6
:10080000C9F8FCB00A20FFF74BFDD8F81800BDE886
:10081000F09F000000F00A4000D00F4000E00F40C1
:100820000000FF7000E00A400B4B4FEA911CC3F838
:1008300004C0C1F383019960910808BF70475A69E9
:1008400040F8042B491E08BF70479A68002AF6D169
:100850005A68521C5A60F2E700F00A40D0F800349F
:1008600012F0010F14BF0B438B43C0F8003412F099
:10087000020FD0F8202414BF114322EA0101C0F86E
:10088000201470472DE9F00301264FF0000C0325DA
:10089000C2F3411706FA0CF40C4211D0D0F8C48F01
:1008A0004FEA4C0405FA04F928EA0908C0F8C48F95
:1008B000D0F8C48F07FA04F448EA0404C0F8C44F1F
:1008C0000CF1010C0CF0FF0CBCF1080FE2D3D0F8D6
:1008D00000C512F0010F14BF4CEA010C2CEA010C08
:1008E000C0F800C5D0F804C512F0020F14BF4CEADE
:1008F000010C2CEA010CC0F804C5D0F808C512F0B0
:10090000040F14BF4CEA010C2CEA010CC0F808C516
:10091000D0F818C512F0080F14BF4CEA010C2CEAED
:10092000010CC0F818C512F0100FD0F83C2514BF08
:100930000A438A43C0F83C25D0F80C2513F0010F78
:1009400014BF0A438A43C0F80C25D0F8102513F0D1
:10095000020F14BF0A438A43C0F81025D0F81425AB
:1009600013F0040F14BF0A438A43C0F81425D0F8CB
:100970001C2513F0080F14BF0A438A43C0F81C2536
:10098000D0F8442513F4007F14BF0A438A43C0F80B
:100990004425D0F8402513F4407F14BF0A438A430E
:1009A000C0F84025D0F82825002B0CBF114322EABF
:1009B0000101C0F82815BDE8F00370470E4AC0F3E6
:1009C0000741D26E01238B401A420C4A1ABF02EB38
:1009D000C101496852F83110020AD1F82C354FF0A4
:1009E0000F0C0CFA02FC00F00F0023EA0C039040FD
:1009F0001843C1F82C05704700E00F40842C00001C
:100A000050F82100704730B50C4605460022FFF72C
:100A100025FF21462846BDE8304008230122FFF784
:100A200031BF30B50C46054608230122FFF72AFFE7
:100A300021462846BDE830400122FFF70FBF30B500
:100A40000C4605460222FFF709FF21462846BDE86D
:100A5000304009230122FFF715BF30B50C4605468B
:100A60000222FFF7FBFE21462846BDE8304008235E
:100A70000122FFF707BF30B50C4605460222FFF7FB
:100A8000EDFE21462846BDE8304008230122FFF74D
:100A9000F9BE30B50C4605460222FFF7DFFE2146BF
:100AA0002846BDE830400A230122FFF7EBBE30B5EF
:100AB0000C4605460222FFF7D1FE21462846BDE836
:100AC000304008230122FFF7DDBE40F821207047A7
:100AD0002DE9F04104460E4600BF1C4800F078F8AE
:100AE0000028FAD100222146184800F0B9F8314612
:100AF000164800F077F80721144800F06FF800BF9F
:100B0000124800F05FF80028FAD1104800F071F8A0
:100B1000C7B20120FFF7ADFD012221460B4800F0CE
:100B20009FF80721094800F059F800BF074800F076
:100B300049F80028FAD1054800F052F8C5B2012062
:100B4000FFF797FD2846BDE8F08100000000024055
:100B50002DE9F04104460F46154600BF184800F045
:100B600037F80028FAD100222146154800F078F81D
:100B70003946134800F036F80321114800F02EF8EA
:100B800000BF0F4800F024F80028FAD10C4800F00C
:100B900030F8C6B229460A4800F024F80521084872
:100BA00000F01CF800BF064800F012F80028FAD147
:100BB000034800F01EF8C6B23046BDE8F0810000E0
:100BC00000000240406810F0400018BF012070474C
:100BD000406810F0010018BF012070474160704765
:100BE0008068704781607047016A41F010010162BE
:100BF0007047406810F0010F05D110F0120F1CBFB4
:100C000000F01C007047002070470000036A43F0AA
:100C100010030362002A14BF0E4A0F4A02EB82033C
:100C200001EB830302EB820292005B1EB3FBF2F244
:100C3000521EC260D0F8C02F12F0010F08BF7047DB
:100C4000064A1144521CB1FBF2F1491E41F08001E9
:100C5000C1607047801A0600A08601007F473701F7
:100C600042EA4101016070471649042804BF086840
:100C700040F4803018D0052804BF086840F40030E4
:100C800012D0062812D00F2815D0102838BF704770
:100C9000103800F01F01012202FA01F142090A484E
:100CA00050F822000160704708607047086840F4FF
:100CB0008020086070474FF0E020016941F0020198
:100CC0000161704724ED00E0D02D000010B5FFF762
:100CD000F2FA002818BF012010BD084401686FF324
:100CE00052011143016012F0020F14BFB0218C2198
:100CF000016214BF4FF4306140F60C01416270474D
:100D0000425842F00102425070470844016811F015
:100D1000020F14BF5108511E01617047002A8268FA
:100D200014BF114322EA01018160704721F03F03A3
:100D30001844036813F0020F18BF520803699A1A87
:100D400011F0010F14BFC26182617047036823F084
:100D50001E0319430160C2607047016841F0010140
:100D60000160704710B5114800F0CEFA00BF0F487F
:100D700000F0DEFA0028FAD00C48C01C00F0C4FADB
:100D800000BF0A48C01C00F0D3FA0028F9D00121A6
:100D90000748FFF746FE03210648FFF734FE0A2303
:100DA000012203210348FFF76DFD10BD050800F087
:100DB0000050024000D0034010B51E4800F0A4FAD5
:100DC0001D4800F0A1FA1D48FFF7F8FD1C48FFF789
:100DD000F5FD04211B48FFF740FE08211948FFF7E5
:100DE0002EFE0122184801681848FFF70FFF174828
:100DF000FFF7FAFEFF220C212220FFF7A9FE04468E
:100E000000220D212220FFF7A3FE044600220E211E
:100E10002220FFF79DFE0446002203211820FFF741
:100E200097FE0446FF2201211820FFF791FE044699
:100E300010BD0000002000F0010800F002080100D1
:100E4000020C0100005000400000002000000240A1
:100E500010B50B4800684FF47A71B0FBF1F42046EE
:100E600000F0B0FA00F0A0FA00F0A5FA5021054811
:100E700001F03AFC1520FFF7F7FEFFF727FF10BD42
:100E80000000002000C0004010B5002000F032FA41
:100E90001E4800F039FA00BF1C4800F049FA00284B
:100EA000FAD01B4800F030FA00BF194800F040FAB1
:100EB0000028FAD01748FFF781FD20211648FFF7D8
:100EC000DAFD00224FF480711448FFF706FF144842
:100ED00000684FF47A61B0FBF1F422464FF4807160
:100EE0000E48FFF712FF0E48006842F6E061B0FBC3
:100EF000F1F4224640F207110848FFF717FF4FF4BC
:100F000080710648FFF7FCFE10BD0000004000F0B5
:100F1000090800F006140900001006400080024095
:100F20000000002010B5164800F0EEF9154800F05A
:100F3000EBF900BF134800F0FBF90028FAD0124883
:100F4000FFF73CFD1148FFF739FD08211048FFF776
:100F500068FD002208210E48FFF7B7FD02210C486A
:100F6000FFF797FD04210A48FFF793FD642208214B
:100F70000848FFF7EBFE0748FFF7EFFE10BD000043
:100F80000A0800F0004400F006040A0006080A00FF
:100F90000020064000C0024010B5124800F0B4F92D
:100FA000114800F0B1F900BF0F4800F0C1F9002866
:100FB000FAD00120FFF702FD40F20140FFF7FEFCEE
:100FC00003214FF04020FFF772FD60234FF4E13220
:100FD00006480168064801F04EFB06A001F08EFBB2
:100FE00010BD0000001800F0000800F00000002014
:100FF00000C000400D0A48656C6C6F2C20776F7242
:101000006C64210D0A0000002DE9F003AF4D02468B
:101010002868AF4B1840A0F18053B3F5A02359D0F6
:1010200002F03809DFF8AC82C2F38414B9F1100F72
:1010300025D0B9F1300F04BF47F230504FF4001300
:101040000DD04FF03800904304BF4FF40040C3016F
:1010500005D012F0380F1CBF0020034613D09E4F5E
:1010600012F4605F4FF0000618BF00222CD057F832
:10107000324044457DD307EBC2025268E1E00023D1
:1010800040461524EBE7A4F10900122822D2934828
:10109000D5F87CC04FF04C7350F824002CF01C0C99
:1010A000072CA8BF4CF0100CC5F87CC02E6D4FF477
:1010B000002C16F4807FD2D1BCF1010C0AD02E6D29
:1010C00016F4807FF8D0CAE712F0380F18BFB9F1D4
:1010D000100F04D0BDE8F0034FF000007047C2F3DA
:1010E0000268DFF8FCC14FF0000257F83290E1458A
:1010F00003D307EBC202526803E0521C062AF4D362
:101100003246C5F8C020D5F8B020DFF8D8C102EAD1
:101110000C0242F00042C5F8B020DFF8CCC1A4F1C7
:1011200009024C1E5CF828C0A444BCFBF1FCD5F8B5
:10113000B0101943C5F8B01008EBC80101EB410429
:101140006A4902EB420201EBC40101EB82046468CC
:10115000C5F86441D5F864416FF0FF0808EB0C2C2A
:1011600044EA0C0CC5F864C151F82210D5F860218E
:1011700000E061E002F400021143C5F86011D5F807
:101180006011D5F86021C1F38921C2F30904D5F8B3
:101190006421C2F3042202F1010CD5F8642102F0AB
:1011A0001F02521CB0FBF2F04A09C2F1000844438E
:1011B000424301EB481104EB5212484302EB9020EA
:1011C000B0FBFCF041080846002257F832C08445C5
:1011D00003D307EBC200466802E0521C062AF4D390
:1011E000C5F8C060D5F8600110F4000F1DBFD5F838
:1011F000B00040F08040C5F8B000D5F8600104BFF1
:1012000040F40000C5F860014FF40040D5F86821B3
:1012100012F0010F02D1401E0028F7DC002808BFA1
:10122000002148D0D5F8B000184340F0010040F04C
:101230001040C5F8B0003EE0521C062AFFF417AF7C
:101240003246C5F8C020D5F8602122F40002C5F866
:101250006021D5F8B020DFF898C002EA0C0242F015
:101260000042C5F8B020002908BF4FF0000C0AD09A
:10127000B0FBF1FCBCF1000F18BFACF1010C0CF19C
:101280000101B0FBF1F10846002257F832408442D8
:1012900003D307EBC200466802E0521C062AF4D3CF
:1012A000C5F8C060D5F8B00043EA8C22104340F086
:1012B0000040C5F8B000D5F8B00020F47000C5F8C3
:1012C000B000BDE8F00308467047000000E00F40A2
:1012D0000000FF700024F40044300000282E0000BD
:1012E00040787D0100FC0FE0202E0000942E0000CD
:1012F000FF0300EF03490A6E22F4F0121043086660
:101300007047000000E00F40C0F307230749C0B258
:10131000194401F07043C1F3130143EA411141EA5A
:10132000800040F0007001220260704700E60F402C
:10133000C0F307220849C0B2114401F07042C1F362
:10134000130142EA411141EA800040F00070006858
:10135000002818BF0120704700EA0F40C0F30723A0
:101360000C49C0B2194401F07043C1F3130143EAC0
:10137000411141EA800040F0007181B001220A6011
:10138000002200920098401C00901028FAD30A60B6
:1013900001B0704700E50F40024901480860FEE7D0
:1013A0000400FA050CED00E04FF0E020016941F087
:1013B0000501016170474FF0E020016941F0020131
:1013C000016170474FF0E021401E48617047000006
:1013D0002DE9F0439FB00024FE4840681B90FD4873
:1013E00000681A9000200D900E900C9008900990C3
:1013F0000A900B900490059006900790039002903D
:101400000025DFF8D483F548D0E90010491C40F1ED
:101410000000F24AC2E90010A8F10200B0F86C0026
:10142000642809DAA8F10200B0F86C00401CA8F1A9
:101430000201A1F86C000EE0E748801EB0F86C00D5
:10144000642808D140F28670E349891EA1F86C0037
:101450000125881C886614220023E04903C9FEF791
:10146000CDFF00214A404B401A436DD1002432E0A9
:10147000D948801E0078C043204100F001000DA92A
:1014800008550DA8005D20B1D548005D08B90120C0
:1014900000E0002008A921F814004FF4FA7200239C
:1014A000CE4903C9FEF7AAFF00214A404B401A4328
:1014B00007D10DA8005D20B1C948005D08B1012029
:1014C00000E0002004A921F814000DA8005DC44923
:1014D0000855601CC4B2082CCADB002432E0BE48A8
:1014E000801E4078C043204100F001000CA908553F
:1014F0000CA8005D20B1BB48005D08B9012000E0E8
:10150000002003A921F814004FF4FA720023B34914
:1015100003C9FEF773FF00214A404B401A4307D12D
:101520000CA8005D20B1AF48005D08B1012000E0CB
:10153000002002A921F814000CA8005DA949085553
:10154000601CC4B2022CCADBBDF8080078B1BDF83B
:101550000A0060B1042211021AA8FFF7B3F80422AE
:1015600040F204411BA8FFF7ADF8FFF715FF9E48B6
:10157000407898B90A220023984903C9FEF73EFF34
:1015800000214A404B401A4308D19248D0E900302C
:10159000591C40F100008F4AC2E900100820009059
:1015A0008C480CC81CA801F025F98F48C078012888
:1015B0001DD10A220023894903C9FEF71FFF00211C
:1015C0004A404B401A4312D18848D0E9001051409C
:1015D0005040014303D103208349C87007E0834989
:1015E000D1E90060721E60F10000C1E90020002016
:1015F00000907E480CC817A801F0FCF8002431E0E8
:1016000000207B4901EBC4010090D1E9006304EBA9
:10161000440111AA02EB8100324601F0EBF804EB21
:10162000440011A901EB8000C088BDF87610884203
:1016300016D104EB440011A901EB80000089BDF82C
:10164000781088420CD104EB440011A901EB800012
:101650004089BDF87A10884202D10220624908719F
:10166000601CC4B2022CCBDB5F480079022805D194
:10167000BDF82E0010B100205B490871BDF80C00C8
:1016800048B159480078001D052190FBF1F201FB9B
:10169000120055490870BDF80E0048B15248007854
:1016A000401C052190FBF1F201FB12004E4908702D
:1016B00050480088002834DD022001F02DF88DF814
:1016C0003C00012001F028F88DF83D00092001F0D0
:1016D00023F88DF83E00012001F01EF88DF83F0040
:1016E000002001F019F88DF84000022001F014F8F4
:1016F0008DF84100072001F00FF88DF84200092015
:1017000001F00AF88DF84300FF20009033480CC820
:101710000FA801F0A9F937480088401E3549088014
:10172000FDE331480078062853D2DFE810F06C0161
:10173000380306005103EC040607BDF82A0030B157
:1017400001202949487005202B49087005E0BDF8A3
:101750002E0010B1002024494870BDF876000A21FF
:1017600090FBF1F0C2B2104600F0D6FF8DF83C00BD
:10177000BDF876000A2190FBF1F301FB1300C2B221
:10178000104600F0C9FF8DF83D00BDF878000A2131
:1017900090FBF1F0C2B2104600F0BEFF8DF83E00A3
:1017A000BDF878000A2190FBF1F301FB1300C2B2EF
:1017B000104600F0B1FF8DF83F00BDF87A000A2115
:1017C00090FBF1F0C2B2104600F0A6FF8DF8400089
:1017D00014E0EEE31000002042000020080000208A
:1017E0002C000020340000202200002018000020DF
:1017F000C00000202000002027000020BDF87A0053
:101800000A2190FBF1F301FB1300C2B2104600F075
:1018100083FF8DF8410064220023F64903C9FEF7D7
:10182000EDFD164619460A2200233046FEF7E6FD76
:1018300000F0FF09484600F06FFF8DF842000A22D1
:101840000023EC4903C9FEF7D9FDD6B2304600F0BB
:1018500063FF8DF84300E8484078012874D1BDF853
:10186000200048B1E5480078401D062190FBF1F2C8
:1018700001FB1200E1490870BDF8240048B1DF48BF
:101880000078401C062190FBF1F201FB1200DB49BD
:101890000870BDF82C00B0B3D8480078062849D2AB
:1018A000DFE800F0030E1925323ED248D0E90010DF
:1018B000D34BC91840F10000CE4AC2E900103AE00B
:1018C000CC48D0E90020CF4BD21840F10000C949E4
:1018D000C1E900202FE0C748D0E900104EF6602291
:1018E000891840F10000C34AC2E9001023E0C14852
:1018F000D0E9003041F270729A1840F10000BD4901
:10190000C1E9002017E017E0BA48D0E900304FF4F1
:101910007A729A1840F10000B649C1E900200AE045
:10192000B448D0E90010643140F10000B14AC2E986
:10193000001000E000BF00BFBDF82200C0B3AF48F8
:10194000007806284CD200E05CE0DFE800F0030EEF
:101950001925323EA748D0E90030A949591A60F14B
:101960000000A44AC2E900103BE0A248D0E9001000
:10197000A44BC91A60F100009E4AC2E9001030E091
:101980009C48D0E900204EF66023D21A60F1000096
:101990009849C1E9002024E09648D0E9001041F2BE
:1019A0007073C91A60F10000924AC2E9001018E091
:1019B00018E09048D0E900104FF47A73C91A60F12A
:1019C00000008C4AC2E900100BE08A48D0E90030E0
:1019D0006421591A60F10000864AC2E9001000E053
:1019E00000BF00BFC8220023874903C9FEF706FDD8
:1019F0006421511A73F1000304D220200FA97F4AF9
:101A0000127888547EE3BDF82A0030B101207A496B
:101A1000487007207D49087005E0BDF82E0010B120
:101A2000002075494870BDF8700042F2107190FBBB
:101A3000F1F301FB13004FF47A7190FBF1F0C2B2A5
:101A4000104600F069FE8DF83C00BDF870004FF4C0
:101A50007A7190FBF1F301FB1300642190FBF1F02C
:101A6000C2B2104600F058FE8DF83D00BDF870007F
:101A7000642190FBF1F301FB13000A2190FBF1F0CC
:101A8000C2B2104600F048FE8DF83E00BDF870006E
:101A90000A2190FBF1F301FB1300C2B2104600F0E3
:101AA0003BFE8DF83F00BDF87200401C642190FBA6
:101AB000F1F301FB13000A2190FBF1F0C2B21046D2
:101AC00000F02AFE8DF84000BDF87200401C0A218B
:101AD00090FBF1F301FB1300C2B2104600F01CFEB4
:101AE0008DF84100BDF87400401C642190FBF1F3B7
:101AF00001FB13000A2190FBF1F0C2B2104600F086
:101B00000BFE8DF84200BDF87400401C0A2190FBCA
:101B1000F1F301FB1300C2B2104600F0FDFD8DF899
:101B2000430035484078012872D1BDF82000D8B173
:101B300000BF36490978C81DC11700EB5171C910A3
:101B4000A0EBC101314A11701046007803280BD078
:101B500010460078052807D010460078062803D0E4
:101B6000104600780728E4D1BDF82400D8B100BFA2
:101B700026490978481CC11700EB5171C910A0EB28
:101B8000C101224A11701046007803280BD010467C
:101B90000078052807D010460078062803D01046A4
:101BA00000780728E4D1BDF82C0090B317480078DE
:101BB000082873D2DFE800F0040506073D3E5B66A7
:101BC0006DE06CE06BE0BDF87200022804DCBDF84B
:101BD000700000F0B1FE50B9BDF87200022819DDA6
:101BE000BDF87010491C88B200F0A6FE90B14FF409
:101BF000B77011E010000020220000202700002014
:101C000080EE3600407E05000800002028000020FD
:101C1000C4E045E040F26D10F9494843642148436F
:101C2000F84AD2E90032C01842F10001F54A03C275
:101C300035E034E0BDF8700000F07EFE28B1BDF85C
:101C40007200F14931F8100004E0BDF87200EF496C
:101C500031F81000EA49484364214843C117E94A72
:101C6000D2E90032C0185141E64A03C217E0E54804
:101C7000D0E90010E64A891840F10000E14AC2E9C3
:101C800000100CE0DF48D0E90020E24BD21840F110
:101C90000000DC49C1E9002001E0FFE700BF00BF10
:101CA000BDF8220090B3DC480078082864D2DFE851
:101CB00000F0040506072E2F4D585EE05DE05CE065
:101CC000BDF87200022804DCBDF8700000F034FE9C
:101CD00050B9BDF87200022809DDBDF87010491C2A
:101CE00088B200F029FE10B14FF4B77001E040F265
:101CF0006D10C349484364214843C249D1E90031CA
:101D0000181A61F10001BF4A03C236E036E034E040
:101D1000BDF8700000F010FE28B1BDF87200BA499D
:101D200031F8100004E0BDF87200B84931F8100035
:101D3000B349484364214843C217B249D1E900314D
:101D4000181A61EB0201AF4A03C216E0AD48D0E9B0
:101D50000010AF4BC91A60F10000AA4AC2E9001096
:101D60000BE0A848D0E90020AA4BD21A60F100008D
:101D7000A449C1E9002000E000BF00BFC822002341
:101D8000A64903C9FEF73AFB6421511A73F1000317
:101D900004D220200FA9A04A12788854E9E34120F8
:101DA0008DF83C0042208DF83D0043208DF83E0028
:101DB00044208DF83F0045208DF8400046208DF8E6
:101DC000410047208DF8420048208DF84300D0E3C1
:101DD000BDF82A0048B19248C078042801D10220F9
:101DE00000E004208E49C8700BE0BDF82E0040B121
:101DF0008B48C078022801D1012000E002208849E8
:101E0000C870BDF862000A2190FBF1F0C2B2104622
:101E100000F082FC8DF83C00BDF862000A2190FBC6
:101E2000F1F301FB1300C2B2104600F075FC8DF80F
:101E30003D00BDF864000A2190FBF1F0C2B21046EB
:101E400000F06AFC8DF83E00BDF864000A2190FBAA
:101E5000F1F301FB1300C2B2104600F05DFC8DF8F7
:101E60003F00BDF866000A2190FBF1F0C2B21046B7
:101E700000F052FC8DF84000BDF866000A2190FB8E
:101E8000F1F301FB1300C2B2104600F045FC8DF8DF
:101E9000410064220023634903C9FEF7AFFA1646E6
:101EA00019460A2200233046FEF7A8FA00F0FF097F
:101EB000484600F031FC8DF842000A2200235949BF
:101EC00003C9FEF79BFAD6B2304600F025FC8DF828
:101ED00043005348C078032813D1C82200234F4938
:101EE00003C9FEF78BFA6421511A73F1000308D27B
:101EF000002404E020200FA90855601CC4B2082C5F
:101F0000F8DB4748C078042878D1BDF8200058B1E4
:101F100045480078401D062190FBF1F200E029E3DE
:101F200001FB120040490870BDF8240048B13E484A
:101F30000078401C062190FBF1F201FB12003A49A7
:101F400008703848D0E90020324BD21840F1000028
:101F50003449C1E90020BDF82C0058B3324800785C
:101F6000062867D2DFE800F0030E1927333F2D481B
:101F7000D0E900102D4A891840F10000294AC2E931
:101F8000001058E02748D0E90010294BC91840F14B
:101F90000000244AC2E900104DE02248D0E90020A8
:101FA0004EF66023D21840F100001E49C1E900201E
:101FB00041E0DDE240E01B48D0E9003041F27071C1
:101FC000591840F10000174AC2E9001033E01548E3
:101FD000D0E900204FF47A71511840F10000114A05
:101FE000C2E9001027E00F48D0E9003064229A18B7
:101FF00040F100000B49C1E900201CE082E019E03B
:102000008051010010000020CC2A0000B42A0000FA
:10201000005C260500D68300280000200800002070
:1020200022000020180000202900002080EE360049
:10203000407E050000BF00BFBDF82200B0B3F748E6
:102040000078062849D2DFE800F0030E1925323E59
:10205000F348D0E90020F34BD21A60F10000F049B8
:10206000C1E900203AE0EE48D0E90010EE4BC91A71
:1020700060F10000EA4AC2E900102FE0E848D0E928
:1020800000304EF66021591A60F10000E44AC2E9BE
:10209000001023E0E248D0E9003041F270729A1A51
:1020A00060F10000DE49C1E9002017E017E0DC48DC
:1020B000D0E900304FF47A729A1A60F10000D849E2
:1020C000C1E900200AE0D648D0E90020643A60F176
:1020D0000000D349C1E9002000E000BF00BFD34A9F
:1020E0000023CF4903C9FEF789F9CD480CC0CB487E
:1020F000017801208840C0B20090CD480CC80FA8DC
:1021000000F0B2FC35E2BDF8280048B1C9490978B1
:10211000481C00EBD0714910A0EB4101C54A117079
:10212000BDF8260048B1C3490978481C00EBD071BE
:102130004910A0EB4101BF4A1170BDF82A0030B12F
:102140000120BD4908710720BC49087005E0BDF8B1
:102150002E0010B10020B8490871B648007800F090
:10216000DBFA8DF83C0020208DF83D00B148007866
:1021700000EB400011A901EB8000C0880A2190FB10
:10218000F1F0C2B2104600F0C7FA8DF83E00A9483F
:10219000007800EB400011A901EB8000C0880A2103
:1021A00090FBF1F301FB1300C2B2104600F0B4FA49
:1021B0008DF83F009F48007800EB400011A901EB2B
:1021C000800000890A2190FBF1F0C2B2104600F0B5
:1021D000A3FA8DF840009748007800EB400011A961
:1021E00001EB800000890A2190FBF1F301FB130051
:1021F000C2B2104600F090FA8DF841008D48007888
:1022000000EB400011A901EB800040890A2190FBFE
:10221000F1F0C2B2104600F07FFA8DF84200854816
:10222000007800EB400011A901EB800040890A21F1
:1022300090FBF1F301FB1300C2B2104600F06CFA00
:102240008DF843007C480079012875D1BDF8200045
:1022500050B17A480078C01C062190FBF1F201FBD6
:102260001200801C75490870BDF8240050B17348F5
:102270000078401E062190FBF1F201FB1200801C49
:102280006E4908706E486B49097800EBC100D0E9CF
:102290000010664A891840F10000694A654B1B78B6
:1022A00002EBC302C2E90010BDF82C0078B363480A
:1022B0000078801E06287BD2DFE800F003162A3F54
:1022C00053675F485B49097800EBC100D0E9002003
:1022D000544BD21840F100005949564B1B7801EB82
:1022E000C301C1E9002064E055485249097800EB78
:1022F000C100D0E900104C4BC91840F10000504A11
:102300004C4B1B7802EBC302C2E9001051E051E0D4
:102310004B484849097800EBC100D0E900204EF64F
:102320006021511840F10000454A424B1B7802EBF6
:10233000C302C2E900103CE0F3E041483D4909789E
:1023400000EBC100D0E9002041F27073D21840F1D7
:1023500000003B49374B1B7801EBC301C1E900206A
:1023600027E037483349097800EBC100D0E9001075
:102370004FF47A73C91840F10000314A2D4B1B7895
:1023800002EBC302C2E9001013E02D482949097885
:1023900000EBC100D0E90010643140F10000284A90
:1023A000244B1B7802EBC302C2E9001001E0FFE7F7
:1023B00000BF00BFBDF8220078B320480078801E1F
:1023C00006287BD2DFE800F003163E52667B1C48ED
:1023D0001849097800EBC100D0E90010114BC91A67
:1023E00060F10000164A134B1B7802EBC302C2E9EE
:1023F000001078E012480F49097800EBC100D0E9DD
:102400000020094BD21A60F100000D49094B1B78DE
:1024100001EBC301C1E9002065E065E0290000206F
:102420001800002080EE3600407E050000D68300B4
:10243000080000202B000020220000202A0000209D
:10244000C00000205D485E49097800EBC100D0E97A
:1024500000104EF66023C91A60F10000574A584B2D
:102460001B7802EBC302C2E900103CE05348544918
:10247000097800EBC100D0E9001041F27072891AAE
:1024800060F100004D4A4E4B1B7802EBC302C2E9DB
:10249000001028E049484A49097800EBC100D0E91A
:1024A00000204FF47A71511A60F10000434A444B06
:1024B0001B7802EBC302C2E9001014E012E03F48AF
:1024C0003F49097800EBC100D0E900206421511A8E
:1024D00060F10000394A3A4B1B7802EBC302C2E9B3
:1024E000001000E000BF00BF34483549097800EB18
:1024F000C101D1E90061334A00233046FDF77EFF78
:102500002E482F49097800EBC1000CC02E480178F5
:1025100001208840C0B200902C480CC80FA800F0E1
:10252000A3FA2B480079022806D1FF200090274803
:102530000CC80FA800F098FA1BE00220244908708C
:10254000042241021AA8FEF76FF9042240F2044166
:102550001BA8FEF769F90023DDE91A105918584144
:102560001C4AC2E9001041F270701B49088000E06B
:1025700000BF00BF00240AE00FA9085D00F0F2F8D8
:102580001649085520200FA90855601CC4B2082C14
:10259000F2DB0F480079022804D14FF4FA600F49AA
:1025A000C86002E000200D49C86025B103220CA1DB
:1025B0004046FDF7A4FF1FB0BDE8F083C000002037
:1025C0002B00002000D683002A00002008000020F5
:1025D000220000201000002020000020B000002079
:1025E000736574000448006840F470000249086094
:1025F000024803490860704788ED00E00024F400B9
:102600003800002010B501210F4800F071F8044691
:1026100021460D4800F066F80AE00B4800F018F873
:102620000A49896E08700948806E401C074988660F
:10263000054800F01BF80028EFD10449896E0870A6
:102640000249A1F86C0010BD00C00040400000200D
:10265000816911F0100F0CBF00684FF0FF30704718
:10266000826912F0200FFBD101607047806901215F
:1026700021EA10107047D0F818C01CF0080FFAD1EA
:10268000D0F82CC02CF0100CC0F82CC0D0F830C002
:102690002CF0010C2CF4407CC0F830C0D0F830C0D5
:1026A000B1EB021F34BF4CF0200C2CF0200CC0F812
:1026B00030C038BF5208C900B1FBF2F1491C4908CB
:1026C0008A09426201F03F018162C3620021816197
:1026D000C16A41F01001C162016B40F20132114345
:1026E0000163704741647047826B11438163704797
:1026F000002914BF006CC06B7047000010B5044681
:1027000004E014F8011B0348FFF7AAFF2078002813
:10271000F7D110BD00C000400146002905DB0929A2
:1027200003DC01F13000C0B2704701F16100C0B2BA
:10273000FAE770B504460D462A4605212220FEF729
:1027400007FA0120A040C2B206212220FEF700FABB
:102750004FF4FA60FDF78DFF002206212220FEF7DC
:10276000F7F970BD30B597B004462C220BA10CA828
:10277000FDF710FF2C2214A101A8FDF70BFF214645
:102780000CA8FDF7B2FE05462DB10CA8281A01A928
:10279000085C17B030BD0020FBE700003031323359
:1027A00034353637383941624243644445464748F8
:1027B0004A4B4C4D4E506F4F5152545355565758EB
:1027C000595A2E2D5F2000003F065B4F666D7D0736
:1027D0007F6F777C7C395E5E79713D760D723855FE
:1027E00054735C5C6F50786D3E1C6A1D6E4980406E
:1027F000080000002DE9F05F044615461E46DDF88E
:1028000028906422002328463146FDF7F7FD07464D
:102810003C220023FDF7F2FD62816422002328465A
:102820003146FDF7EBFD07464FF461620023FDF7EB
:10283000E5FD924619463C2200235046FDF7DEFD99
:1028400020816422002328463146FDF7D7FD074644
:10285000364A0023FDF7D2FD924619464FF46162D5
:1028600000235046FDF7CAFD10EB0900E0804FF051
:1028700064024FF0000328463146FDF7BFFD0746CE
:102880002A4A0023FDF7BAFDA080E088182805DB5E
:10289000E0881838E080A088401CA08040F2B27028
:1028A0002080002060800EE0208800F045F810B104
:1028B0004FF4B77001E040F26D10A188081AA080B3
:1028C0002088401C2080208800F036F810B14FF49A
:1028D000B77001E040F26D10A1888842E4DD12E09B
:1028E000208800F029F820B16088114931F81000E3
:1028F00003E060880F4931F81000A188081AA08011
:102900006088401C6080208800F016F820B1608844
:10291000074931F8100003E06088064931F81000DB
:10292000A1888842DCDDBDE8F09F000080510100F5
:10293000CC2A0000B42A000001460A46C81701EB61
:1029400090708010A1EB800070B9642091FBF0F3CF
:1029500000FB131030B94FF4C87091FBF0F300FB8B
:10296000131008B9012070470020FCE70024FF2560
:10297000364943F65050FEF747FB35490860354865
:10298000057040F286703349A1F86C00881C886697
:1029900000203149C860FEF7E5F9FEF70DFAFEF7B1
:1029A000FBFAFEF755FAFEF7BDFAFEF76DFA2B4873
:1029B000FEF7AAFC00BF2948FEF7BAFC0028FAD0AF
:1029C000FDF75EFE41E0002406E02348015D20465D
:1029D000FFF7AFFE601CC4B2082CF6DB1E48C068CF
:1029E00008B1012000E00020024680211C48FEF7CB
:1029F00095F91948C068D0B11748C06814490968EA
:102A0000B1FBF0F632464FF480711548FEF77DF9C0
:102A10001148C0680E490968B1FBF0F00321B0FB12
:102A2000F1F6324640F207110D48FEF77FF900211A
:102A30002220FEF74DF805460DB10648057003212A
:102A40000848FDF7DDFF03494870BCE70024F400A7
:102A50000000002040000020B0000020005800F0DE
:102A60000080024000D003402DE9F04105461646A3
:102A70001F46DDF81880C822002330463946FDF78E
:102A8000BDFC6421511A73F100030CD2002408E04C
:102A90000120A04000EA080008B120202855601C51
:102AA000C4B2082CF4DBBDE8F0814FF04070E1EED9
:102AB000100A70471F001C001F001E001F001E0090
:102AC0001F001F001E001F001E001F001F001D0012
:102AD0001F001E001F001E001F001F001E001F0001
:102AE0001E001F006D016E0100000000004000404C
:102AF0001000000000800540100000000050004061
:102B0000110000000090054011000000006000402E
:102B10001200000000A005401200000000700040FC
:102B20001300000000B00540130000000040024008
:102B30001400000000C005401400000000500240D6
:102B40002E00000000D005402E0000000060024072
:102B50002F00000000E005402F0000000070024040
:102B60003000000000F005403000000000D00340BD
:102B7000460000000000064046000000001006402D
:102B800047000000002006404800000000300640DA
:102B90007F0000000040064080000000005006401A
:102BA00084000000006006408C00000000400040EF
:102BB00010000000008005401000000000500040A0
:102BC000110000000090054011000000006000406E
:102BD0001200000000A0054012000000007000403C
:102BE0001300000000B00540130000000040024048
:102BF0001400000000C00540140000000050024016
:102C00002E00000000D005402E00000000600240B1
:102C10002F00000000E005402F000000007002407F
:102C20003000000000F005403000000000D00340FC
:102C30004300000000000640430000000010064072
:102C4000440000000020064045000000003006401F
:102C500058000000004006405900000000500640A7
:102C60005C00000000600640640000000070064048
:102C70006C000000008006406D00000000900640DF
:102C80007F000000004000400080054000500040F0
:102C9000009005400060004000A00540007000402A
:102CA00000B005400040024000C005400050024016
:102CB00000D005400060024000E005400070024086
:102CC00000F0054000D00340000006400010064020
:102CD000001006400020064000200640003006405C
:102CE00000300640004006400040064000500640CC
:102CF000005006400060064000600640007006403C
:102D000000700640008006400080064000900640AB
:102D100000900640000700000006000000050000CB
:102D20000004000000030000000200000001000099
:102D3000000000000000000018ED00E01CED00E0C5
:102D400020ED00E000E400E004E400E008E400E03E
:102D50000CE400E010E400E014E400E018E400E01B
:102D60001CE400E020E400E024E400E028E400E0CB
:102D70002CE400E030E400E034E400E038E400E07B
:102D80003CE400E040E400E044E400E048E400E02B
:102D90004CE400E050E400E054E400E058E400E0DB
:102DA0005CE400E060E400E064E400E068E400E08B
:102DB0006CE400E070E400E074E400E078E400E03B
:102DC0007CE400E080E400E084E400E088E400E0EB
:102DD00000E100E004E100E008E100E00CE100E0D7
:102DE00010E100E080E100E084E100E088E100E043
:102DF0008CE100E090E100E000E200E004E200E0AD
:102E000008E200E00CE200E010E200E080E200E016
:102E100084E200E088E200E08CE200E090E200E082
:102E200000688909001C4E0E40420F0000201C0063
:102E300080841E0000802500999E360000403800E6
:102E400000093D0000803E0000004B00404B4C005C
:102E500000204E00808D5B0000C05D00008070008F
:102E600000127A0000007D0080969800001BB700D9
:102E70000080BB00C0E8CE00647ADA000024F400D1
:102E80000000FA0080A81201002D310100366E0109
:102E900040787D01400000000000000000010000BB
:102EA0003E0008000000000000010000A00000003B
:102EB0000200000000010000345401000000000086
:102EC000000100002B70060000000000000100005F
:102ED00028000000000000000001000027000100A1
:102EE00000000000000100002000000000000000C1
:102EF000000100005000000002000000000100007E
:102F00001AAC000000000000000100001794090046
:102F100000000000000100001698050000000000FD
:102F2000000100001400000000000000000100008B
:102F3000138008000000000000010000A000000055
:102F40000800000000010000100000000000000068
:102F50000001000028000000020000000001000045
:102F600040000000040000000001000060000000BC
:102F700000000000000100005D000C0000000000E7
:102F800000010000500000000000000000010000EF
:102F90004E000200000000000001000041AC0100F2
:102FA00000000000000100003C00000000000000E4
:102FB000000100003A80090000000000000100004C
:102FC00030000000000000000001000028000000A8
:102FD00000000000000100002700010000000000C8
:102FE0000001000023600600000000000001000056
:102FF0002160080000000000000100001E00000029
:1030000000000000000100001DC0040000000000DE
:10301000000100005000000002000000000100005C
:103020001800000000000000000100001400000073
:10303000000000000001000060000000040000002B
:10304000000100000024F40030003000005A620249
:103050009100910000879303D200D20000B4C40411
:103060001301130100E1F50554015401000E270777
:103070009501950194300000000000203C00000004
:103080003C020000D03000003C000020F4020000B0
:1030900058020000000000000000000000000000D6
:1030A0000000000080966CCA2500000000000000AF
:1030B0000000000000000500000200000000000009
:1030C0000000000000000000000000000024F400E8
:0400000500000201F4
:00000001FF
