:020000040000FA
:10000000A8050020F5020000FD020000FF0200002C
:1000100001030000030300000503000000000000CE
:1000200000000000000000000000000007030000C6
:1000300009030000000000000B030000E5170000AA
:100040000F0300001103000013030000150300005C
:1000500017030000453100001B0300001D030000D2
:100060001F030000210300002303000025030000FC
:1000700027030000290300002B0300002D030000CC
:100080002F0300003103000033030000350300009C
:1000900037030000390300003B0300003D0300006C
:1000A0003F0300004103000043030000450300003C
:1000B00047030000490300004B0300004D0300000C
:1000C0004F030000510300005303000055030000DC
:1000D00057030000590300005B0300005D030000AC
:1000E0005F0300006103000063030000650300007C
:1000F00067030000690300006B0300006D0300004C
:100100006F0300007103000073030000750300001B
:1001100077030000790300007B0300007D030000EB
:100120007F030000810300008303000085030000BB
:1001300087030000890300008B0300008D0300008B
:100140008F0300009103000093030000AD03000043
:100150000000000000000000AF030000B103000039
:10016000B3030000B503000000000000B703000067
:10017000B9030000BB030000BD030000BF03000083
:10018000C1030000C3030000C5030000C703000053
:10019000C9030000CB030000CD030000CF03000023
:1001A000D1030000D3030000D5030000D7030000F3
:1001B000D9030000DB030000DD030000DF030000C3
:1001C000E1030000E3030000E5030000E703000093
:1001D000E9030000EB030000ED030000EF03000063
:1001E000F1030000F3030000F5030000F703000033
:1001F000F9030000FB030000FD030000FF03000003
:1002000000F002F800F04FF80AA090E8000C8244D9
:100210008344AAF10107DA4501D100F044F8AFF2B6
:10022000090EBAE80F0013F0010F18BFFB1A43F0D4
:1002300001031847644C0000844C0000103A24BFAE
:1002400078C878C1FAD8520724BF30C830C144BF3B
:1002500004680C607047000000230024002500267D
:10026000103A28BF78C1FBD8520728BF30C148BF19
:100270000B60704703681B0A28BF41F08001F52915
:1002800000F05A81002070471FB503F0E7FB00F033
:1002900097FB04000020002103F0CAFB401C6060B3
:1002A0001FBD10B510BD00F065FB1146FFF7ECFF58
:1002B00003F01EFA00F088FB03B4FFF7F2FF03BC63
:1002C00000F0D0FB0138FDD170470000EFF3108043
:1002D00072B67047EFF310807047EFF3108062B68C
:1002E000704730BF704780F311887047EFF311807B
:1002F000704700004548804745480047FEE7FEE755
:10030000FEE7FEE7FEE7FEE7FEE7FEE7FEE7FEE7C5
:10031000FEE7FEE7FEE7FEE7FEE7FEE7FEE7FEE7B5
:10032000FEE7FEE7FEE7FEE7FEE7FEE7FEE7FEE7A5
:10033000FEE7FEE7FEE7FEE7FEE7FEE7FEE7FEE795
:10034000FEE7FEE7FEE7FEE7FEE7FEE7FEE7FEE785
:10035000FEE7FEE7FEE7FEE7FEE7FEE7FEE7FEE775
:10036000FEE7FEE7FEE7FEE7FEE7FEE7FEE7FEE765
:10037000FEE7FEE7FEE7FEE7FEE7FEE7FEE7FEE755
:10038000FEE7FEE7FEE7FEE7FEE7FEE7FEE7FEE745
:10039000FEE7FEE7FEE7FEE7FEE7FEE7FEE7FEE735
:1003A000FEE7FEE7FEE7FEE7FEE7FEE7FEE7FEE725
:1003B000FEE7FEE7FEE7FEE7FEE7FEE7FEE7FEE715
:1003C000FEE7FEE7FEE7FEE7FEE7FEE7FEE7FEE705
:1003D000FEE7FEE7FEE7FEE7FEE7FEE7FEE7FEE7F5
:1003E000FEE7FEE7FEE7FEE7FEE7FEE7FEE7FEE7E5
:1003F000FEE7FEE7FEE7FEE7FEE7FEE7FEE7FEE7D5
:1004000004480549034A054B7047000025310000A8
:1004100001020000A8030020A8050020A803002076
:1004200053EA020C00F069802DE9F04B4FF0000612
:10043000002B1FBFB3FA83F503FA05F424FA05F67F
:100440005E4012BF1643B2FA82F502FA05F4C5F116
:1004500020051EBF22FA05FC44EA0C04203556EAAA
:10046000044C4FEA144418BF641C4FF000084FF0CE
:100470000009904271EB030C39D3002919BFB1FA7E
:1004800081F701FA07F6B0FA80F700FA07F6C7F12C
:1004900020071EBF20FA07FC46EA0C062037B6FBF1
:1004A000F4FCA7EB0507103F07F01F0BCBF120066C
:1004B0000CFA0BFB2CFA06F644BFB3460026202F9D
:1004C000A4BF5E464FF0000B5BEA060C08BF4FF07E
:1004D000010B19EB0B09ABFB027C48EB0608C01BB8
:1004E00006FB02CC0BFB03CC71EB0C01C1E70B4606
:1004F000024641464846BDE8F08B13B54FF0000078
:100500004FF00001AFF30080BDE81C4070470000D1
:100510000FB41CB5074B06AA7B44694600900598AA
:1005200000F007FA0020694600F016FA1CBC5DF8DE
:1005300014FB00003D0400002DE9F0418046D21D6F
:1005400022F007020025D2E90002F52915A614D0F1
:10055000011E72F1000106DA0023D0EB030063EB09
:10056000020211A608E0D8F800108B0701D50FA6EB
:1005700002E0490701D50EA601251146002408F125
:10058000240704E000F024F930323A55641C50EAA4
:100590000102F7D12B46324621464046BDE8F041E4
:1005A00000F068B9000000002D0000002B000000E2
:1005B000200000002DE9F0410F460546002028628A
:1005C0002846E968884770B3252805D0D5E9012178
:1005D0009047286A401CF2E7E968284600268847C9
:1005E0006C2804460AD0682C08D04C2C35D06A2CD4
:1005F00031D0742C31D07A2C2FD016E0E968064621
:1006000028468847B042044608D16C2E23D04FF4C8
:1006100080662846E9688847044606E06C2E03D0C9
:100620004FF4807601E01EE04026E4B1A4F14100E1
:10063000192802D8203446F400663A462146284656
:100640002E60FFF717FE60B1012808D0FF1D27F0CC
:1006500007070837B4E78026DBE70026D9E73F1D08
:10066000AEE72046B2E7286ABDE8F081401ECAB274
:1006700010F8011F8A4202D00029F9D100207047EA
:1006800010B504780CB10A4603E0002010BDA34267
:10069000FCD012F8013B002BF9D1401CF1E72DE909
:1006A000F041054690460E460020044600E0641CDA
:1006B00044450BD2285D00F0D0F80746305D00F0CD
:1006C000CCF8381A02D1295D0029F0D1BDE8F081BB
:1006D00040EA010370B59B072ED14FF00136042A82
:1006E0002AD308C810C99D1B9D43121F15EAC615C1
:1006F00017D0D8B2E1B2401A50EA056110D198B2D1
:10070000A1B2401A50EA05410AD123F07F4024F0FB
:100710007F41401A50EA052102D1180EA0EB146067
:1007200070BDA342DBD018BA21BA884201D901209A
:1007300070BD4FF0FF3070BD0AB9002070BD10F8D9
:10074000013B11F8014B63B1A3420AD1521E08D0FC
:1007500010F8013B11F8014B1BB1A34201D1521E0D
:10076000EDD1181B70BD10B5203AC0F00B80B1E878
:100770001850203AA0E81850B1E81850A0E81850D6
:10078000BFF4F5AF5FEA027C24BFB1E81850A0E8DF
:10079000185044BF18C918C0BDE810405FEA827CF9
:1007A00024BF51F8043B40F8043B08BF7047D20710
:1007B00028BF31F8023B48BF11F8012B28BF20F8B1
:1007C000023B48BF00F8012B7047704770477047E5
:1007D00030B5B0F10A024FEA900E71F100034EEA13
:1007E000817EB0EB0E0061EB91014FEA101E4EEAE4
:1007F000017E10EB0E0041EB11114FEA102E4EEA74
:10080000016E10EB0E0041EB11214FEA104E4EEA43
:10081000014E10EB0E0041EB1141401841F1000177
:100820004FEAD00040EA41704FEAD10110EB800559
:100830004FEA810444EA907444EB01046D1944EBDF
:100840000404521BA3414FF0000348BF0A3200D5F5
:1008500030BD401C41F1000130BD10B5044600F030
:1008600081F80068005DC00602D504F1200010BDCB
:10087000204610BD2DE9F0470D46994692460446A4
:1008800000F124080168880604D5E06921F0100110
:10089000216000E00120A84201DD471B00E00027A5
:1008A000A1697A1902EB0900081AA0612078C00634
:1008B00002D42046AFF30080002608E0D4E90121ED
:1008C0001AF806009047206A401C761C20624E45AC
:1008D000F4DB2078C0060AD52046AFF3008006E09E
:1008E000D4E9012130209047206A401C2062381E44
:1008F000A7F10107F4DC07E0D4E9012118F80500AD
:100900009047206A401C2062281EA5F10105F3DCF7
:100910002046AFF300802078000602D50220BDE813
:10092000F0870120FBE7000001694A1C026108789A
:10093000704700B58FB0CDE901310021059105491F
:100940007944CDE9031011466846FFF733FE0FB036
:1009500000BD0000E5FFFFFF0A6802F8010B0A6016
:100960007047000010B500F02BF8001D10BD00BF4F
:10097000C1300000754600F031F8AE46050069460A
:10098000534620F00700854618B020B5FFF738FD24
:10099000BDE820404FF000064FF000074FF0000880
:1009A0004FF0000B21F00701AC46ACE8C009ACE801
:1009B000C009ACE8C009ACE8C0098D46704700002A
:1009C000004870476803002010B50446AFF300806C
:1009D0002046BDE81040FFF76FBC0000004870479C
:1009E000480300204FF0013C50F8042B51F8043B21
:1009F0009A4221D1A2EB0C03934313EACC1317D1F3
:100A000050F8042B51F8043B9A4215D1A2EB0C0389
:100A1000934313EACC130BD150F8042B51F8043B49
:100A20009A4209D1A2EB0C03934313EACC13DBD017
:100A30004FF00000704700BFD01A01BAB1FA81F13F
:100A400001F0180122FA01F0CB40C1F12001DBB224
:100A5000C0B2C01A2CFA01F3D11A914311EAC311A2
:100A6000E6D1704701491820ABBEFEE72600020020
:100A70007047002100E0491C8142FCD37047000010
:100A800010B50220FFF71EFC0C4CA06910F0010FFE
:100A9000FBD1E06910F00C0F0ED1094800F068FEA0
:100AA0000220FFF70FFCA06910F0010FFBD1E069F5
:100AB00010F00C0008BF10BD022010BD00F00A406D
:100AC000005800F02DE9F05FDFF848810646D8F8BD
:100AD000180010F0010FFAD18809C8F80400C1F31A
:100AE0008300C8F80800DFF83091DFF830A19508DE
:100AF0004FF0000B67D0C809012101FA00F0C7438D
:100B0000DAF8001046480140A1F18050B0F5A0206D
:100B100002BFDAF8000080B2002813D10A20FFF7E4
:100B2000D1FB0320C9F8FC000A20FFF7CBFB3D48AE
:100B3000C0F8C0720A20FFF7C5FBC9F8FCB00A2054
:100B4000FFF7C0FB3068C8F814000A20FFF7BAFBB3
:100B5000D8F8184014F0010FFAD114F0100F24D077
:100B6000DAF800102E480140A1F18050B0F5A02025
:100B700002BFDAF8000080B2002813D10A20FFF784
:100B8000A1FB0320C9F8FC000A20FFF79BFB2548C6
:100B9000C0F8C0B20A20FFF795FBC9F8FCB00A20E4
:100BA000FFF790FB2046BDE8F09F6D1E06F104069E
:100BB00009D0D8F808000028A2D1D8F80400401CB9
:100BC000C8F804009CE7DAF8001015480140A1F1CC
:100BD0008050B0F5A02002BFDAF8000080B20028F3
:100BE00013D10A20FFF76EFB0320C9F8FC000A208E
:100BF000FFF768FB0B48C0F8C0B20A20FFF762FBA2
:100C0000C9F8FCB00A20FFF75DFBD8F81800BDE872
:100C1000F09F000000F00A4000D00F4000E00F40BD
:100C20000000FF7000E00A400B4B4FEA911CC3F834
:100C300004C0C1F383019960910808BF70475A69E5
:100C400040F8042B491E08BF70479A68002AF6D165
:100C50005A68521C5A60F2E700F00A40D0F800349B
:100C600012F0010F14BF0B438B43C0F8003412F095
:100C7000020FD0F8202414BF114322EA0101C0F86A
:100C8000201470472DE9F00301264FF0000C0325D6
:100C9000C2F3411706FA0CF40C4211D0D0F8C48FFD
:100CA0004FEA4C0405FA04F928EA0908C0F8C48F91
:100CB000D0F8C48F07FA04F448EA0404C0F8C44F1B
:100CC0000CF1010C0CF0FF0CBCF1080FE2D3D0F8D2
:100CD00000C512F0010F14BF4CEA010C2CEA010C04
:100CE000C0F800C5D0F804C512F0020F14BF4CEADA
:100CF000010C2CEA010CC0F804C5D0F808C512F0AC
:100D0000040F14BF4CEA010C2CEA010CC0F808C512
:100D1000D0F818C512F0080F14BF4CEA010C2CEAE9
:100D2000010CC0F818C512F0100FD0F83C2514BF04
:100D30000A438A43C0F83C25D0F80C2513F0010F74
:100D400014BF0A438A43C0F80C25D0F8102513F0CD
:100D5000020F14BF0A438A43C0F81025D0F81425A7
:100D600013F0040F14BF0A438A43C0F81425D0F8C7
:100D70001C2513F0080F14BF0A438A43C0F81C2532
:100D8000D0F8442513F4007F14BF0A438A43C0F807
:100D90004425D0F8402513F4407F14BF0A438A430A
:100DA000C0F84025D0F82825002B0CBF114322EABB
:100DB0000101C0F82815BDE8F00370470E4AC0F3E2
:100DC0000741D26E01238B401A420C4A1ABF02EB34
:100DD000C101496852F83110020AD1F82C354FF0A0
:100DE0000F0C0CFA02FC00F00F0023EA0C039040F9
:100DF0001843C1F82C05704700E00F40A84A0000D6
:100E000050F82100704730B50C4605460022FFF728
:100E100025FF21462846BDE8304008230122FFF780
:100E200031BF30B50C46054608230122FFF72AFFE3
:100E300021462846BDE830400122FFF70FBF30B5FC
:100E40000C4605460222FFF709FF21462846BDE869
:100E5000304009230122FFF715BF30B50C46054687
:100E60000222FFF7FBFE21462846BDE8304008235A
:100E70000122FFF707BF30B50C4605460222FFF7F7
:100E8000EDFE21462846BDE8304008230122FFF749
:100E9000F9BE30B50C4605460222FFF7DFFE2146BB
:100EA0002846BDE830400A230122FFF7EBBE30B5EB
:100EB0000C4605460222FFF7D1FE21462846BDE832
:100EC000304008230122FFF7DDBE40F821207047A3
:100ED0002DE9F04104460E4600BF1C4800F078F8AA
:100EE0000028FAD100222146184800F0B9F831460E
:100EF000164800F077F80721144800F06FF800BF9B
:100F0000124800F05FF80028FAD1104800F071F89C
:100F1000C7B20120FFF7ADFD012221460B4800F0CA
:100F20009FF80721094800F059F800BF074800F072
:100F300049F80028FAD1054800F052F8C5B201205E
:100F4000FFF797FD2846BDE8F08100000000024051
:100F50002DE9F04104460F46154600BF184800F041
:100F600037F80028FAD100222146154800F078F819
:100F70003946134800F036F80321114800F02EF8E6
:100F800000BF0F4800F024F80028FAD10C4800F008
:100F900030F8C6B229460A4800F024F8052108486E
:100FA00000F01CF800BF064800F012F80028FAD143
:100FB000034800F01EF8C6B23046BDE8F0810000DC
:100FC00000000240406810F0400018BF0120704748
:100FD000406810F0010018BF012070474160704761
:100FE0008068704781607047016A41F010010162BA
:100FF0007047406810F0010F05D110F0120F1CBFB0
:1010000000F01C007047002070470000036A43F0A6
:1010100010030362002A14BF0E4A0F4A02EB820338
:1010200001EB830302EB820292005B1EB3FBF2F240
:10103000521EC260D0F8C02F12F0010F08BF7047D7
:10104000064A1144521CB1FBF2F1491E41F08001E5
:10105000C1607047801A0600A08601007F473701F3
:1010600042EA4101016070471649042804BF08683C
:1010700040F4803018D0052804BF086840F40030E0
:1010800012D0062812D00F2815D0102838BF70476C
:10109000103800F01F01012202FA01F142090A484A
:1010A00050F822000160704708607047086840F4FB
:1010B0008020086070474FF0E020016941F0020194
:1010C0000161704724ED00E0F44B000010B5FFF71C
:1010D00004F9002818BF012010BD084401686FF30F
:1010E00052011143016012F0020F14BFB0218C2194
:1010F000016214BF4FF4306140F60C014162704749
:10110000425842F00102425070470844016811F011
:10111000020F14BF5108511E01617047002A8268F6
:1011200014BF114322EA01018160704721F03F039F
:101130001844036813F0020F18BF520803699A1A83
:1011400011F0010F14BFC26182617047036823F080
:101150001E0319430160C2607047406810F0020F1F
:1011600014BF4FF0FF3001207047016841F00101CA
:10117000016070478068704710B5114800F0CEFAE2
:1011800000BF0F4800F0DEFA0028FAD00C48C01C5F
:1011900000F0C4FA00BF0A48C01C00F0D3FA0028CF
:1011A000F9D00F210748FFF73CFE03210648FFF75F
:1011B0002AFE0A23012203210348FFF763FD10BD25
:1011C000050800F00050024000D0034010B51E4852
:1011D00000F0A4FA1D4800F0A1FA1D48FFF7EEFD4B
:1011E0001C48FFF7EBFD04211B48FFF736FE0821E2
:1011F0001948FFF724FE0122184801681848FFF734
:1012000005FF1748FFF7F0FEFF220C212220FFF711
:101210009FFE044600220D212220FFF799FE04467E
:1012200000220E212220FFF793FE04460022032114
:101230001820FFF78DFE0446FF2201211820FFF73A
:1012400087FE044610BD0000002000F0010800F0F9
:1012500002080100020C01000050004000000020C4
:101260000000024010B50B4800684FF47A71B0FBE3
:10127000F1F4204600F0B0FA00F0A0FA00F0A5FA70
:101280005021054801F0D0FF1520FFF7EDFEFFF7D4
:101290001DFF10BD0000002000C0004010B5002060
:1012A00000F032FA1E4800F039FA00BF1C4800F086
:1012B00049FA0028FAD01B4800F030FA00BF19485C
:1012C00000F040FA0028FAD01748FFF777FD2021F8
:1012D0001648FFF7D0FD00224FF480711448FFF745
:1012E000FCFE144800684FF47A61B0FBF1F422462A
:1012F0004FF480710E48FFF708FF0E48006842F671
:10130000E061B0FBF1F4224640F207110848FFF714
:101310000DFF4FF480710648FFF7F2FE10BD00008C
:10132000004000F0090800F0061409000010064013
:10133000008002400000002010B5164800F0EEF9D1
:10134000154800F0EBF900BF134800F0FBF9002846
:10135000FAD01248FFF732FD1148FFF72FFD0821A0
:101360001048FFF75EFD002208210E48FFF7ADFD93
:1013700002210C48FFF78DFD04210A48FFF789FD83
:10138000642208210848FFF7E1FE0748FFF7EDFE59
:1013900010BD00000A0800F0004400F006040A0036
:1013A00006080A000020064000C0024010B512489E
:1013B00000F0B4F9114800F0B1F900BF0F4800F097
:1013C000C1F90028FAD00120FFF7F8FC40F20140F3
:1013D000FFF7F4FC03214FF04020FFF768FD602386
:1013E0004FF4E13206480168064801F0E4FE06A029
:1013F00001F024FF10BD0000001800F0000800F00C
:101400000000002000C000400D0A48656C6C6F2C85
:1014100020776F726C64210D0A0000002DE9F00343
:10142000AF4D02462868AF4B1840A0F18053B3F58A
:10143000A02359D002F03809DFF8AC82C2F384143B
:10144000B9F1100F25D0B9F1300F04BF47F2305079
:101450004FF400130DD04FF03800904304BF4FF409
:101460000040C30105D012F0380F1CBF0020034616
:1014700013D09E4F12F4605F4FF0000618BF002299
:101480002CD057F8324044457DD307EBC202526856
:10149000E1E0002340461524EBE7A4F109001228FF
:1014A00022D29348D5F87CC04FF04C7350F82400FA
:1014B0002CF01C0C072CA8BF4CF0100CC5F87CC0FD
:1014C0002E6D4FF4002C16F4807FD2D1BCF1010CAC
:1014D0000AD02E6D16F4807FF8D0CAE712F0380FCC
:1014E00018BFB9F1100F04D0BDE8F0034FF00000B1
:1014F0007047C2F30268DFF8FCC14FF0000257F8F2
:101500003290E14503D307EBC202526803E0521C5C
:10151000062AF4D33246C5F8C020D5F8B020DFF84B
:10152000D8C102EA0C0242F00042C5F8B020DFF850
:10153000CCC1A4F109024C1E5CF828C0A444BCFB39
:10154000F1FCD5F8B0101943C5F8B01008EBC8018C
:1015500001EB41046A4902EB420201EBC40101EBD9
:1015600082046468C5F86441D5F864416FF0FF08EF
:1015700008EB0C2C44EA0C0CC5F864C151F822109D
:10158000D5F8602100E061E002F400021143C5F8E3
:101590006011D5F86011D5F86021C1F38921C2F33B
:1015A0000904D5F86421C2F3042202F1010CD5F834
:1015B000642102F01F02521CB0FBF2F04A09C2F192
:1015C00000084443424301EB481104EB52124843E4
:1015D00002EB9020B0FBFCF041080846002257F8CF
:1015E00032C0844503D307EBC200466802E0521CB8
:1015F000062AF4D3C5F8C060D5F8600110F4000FD6
:101600001DBFD5F8B00040F08040C5F8B000D5F857
:10161000600104BF40F40000C5F860014FF40040D1
:10162000D5F8682112F0010F02D1401E0028F7DC26
:10163000002808BF002148D0D5F8B000184340F07A
:10164000010040F01040C5F8B0003EE0521C062AF0
:10165000FFF417AF3246C5F8C020D5F8602122F458
:101660000002C5F86021D5F8B020DFF898C002EA82
:101670000C0242F00042C5F8B020002908BF4FF02C
:10168000000C0AD0B0FBF1FCBCF1000F18BFACF1AC
:10169000010C0CF10101B0FBF1F10846002257F8F2
:1016A0003240844203D307EBC200466802E0521C7A
:1016B000062AF4D3C5F8C060D5F8B00043EA8C22FE
:1016C000104340F00040C5F8B000D5F8B00020F459
:1016D0007000C5F8B000BDE8F00308467047000090
:1016E00000E00F400000FF700024F400684E00008E
:1016F0004C4C000040787D0100FC0FE0444C0000A1
:10170000B84C0000FF0300EF03490A6E22F4F01208
:10171000104308667047000000E00F40C0F3072345
:101720000749C0B2194401F07043C1F3130143EA01
:10173000411141EA800040F00070012202607047D0
:1017400000E60F40C0F307220849C0B2114401F07F
:101750007042C1F3130142EA411141EA800040F0B6
:1017600000700068002818BF0120704700EA0F4091
:10177000C0F307230C49C0B2194401F07043C1F310
:10178000130143EA411141EA800040F0007181B049
:1017900001220A60002200920098401C009010284C
:1017A000FAD30A6001B0704700E50F4002490148D2
:1017B0000860FEE70400FA050CED00E04FF0E020C1
:1017C000016941F00501016170474FF0E0200169B6
:1017D00041F00201016170474FF0E021401E486175
:1017E000704700002DE9F04FB3B04FF0000AFE48FB
:1017F0004168329101683191002130912F912B91F4
:101800002C912A9126912791289129912291239117
:1018100024912591219120911F91DFF8D0B3F448B4
:10182000D0E90030591C40F10000F14AC2E9001033
:10183000ABF10200B0F86C00642809DAABF10200E9
:10184000B0F86C00401CABF10201A1F86C000FE095
:10185000E648801EB0F86C00642809D140F286701A
:10186000E249891EA1F86C0001201F90881C88663F
:1018700014220023DE4903C9FEF7D2FD00214A40AD
:101880004B401A4375D18A4647E0D848801E0078FD
:10189000C04340FA0AF000F001002BA901F80A0049
:1018A0002BA810F80A0028B1D24810F80A0008B98D
:1018B000012000E0002026A921F81A002BA810F82A
:1018C0000A0040B1CB4810F80A0020B1CA4830F8ED
:1018D0001A00401C00E00020C74921F81A00084601
:1018E00030F81A0000280ADD084630F81A003221C4
:1018F00090FBF1F201FB120008B9012000E000208A
:1019000022A921F81A002BA810F80A00B94901F8F9
:101910000A000AF1010000F0FF0ABAF1080FB4DB77
:101920004FF0000A48E0B148801E4078C04340FABA
:101930000AF000F001002AA901F80A002AA810F80C
:101940000A0028B1AD4810F80A0008B9012000E0EB
:10195000002021A921F81A002AA810F80A0048B18D
:10196000A64810F80A0028B1A54830F81A00401C13
:1019700001E024E00020A24921F81A00084630F8CE
:101980001A0000280ADD084630F81A00322190FBC0
:10199000F1F201FB120008B9012000E0002020A9AB
:1019A00021F81A002AA810F80A00944901F80A0040
:1019B0000AF1010000F0FF0ABAF1020FB3DB642262
:1019C00000238B4903C9FEF72BFD00214A404B4001
:1019D0001A434AD18548801E90F86F00894991F9D1
:1019E000001088420DDA8148801E90F86F0085490A
:1019F00091F90010081A022801DB01200EE00020F6
:101A00000CE07A48801E90F86F007E4991F9001032
:101A1000401A022801DB012000E0002010B37348C7
:101A2000801E90F86F0040B2764908706F48801EA3
:101A300090F86E00744908706C48801E90F86E0033
:101A4000012804D10121309100212F910DE0674838
:101A5000801E90F96E00401C38B9002130910121A0
:101A60002F9102E0002130912F91BDF8800078B1D4
:101A7000BDF8820060B10422110231A8FFF722F8FC
:101A8000042240F2044132A8FFF71CF8FFF78EFE53
:101A90005E484078F0B90A220023554903C9FEF791
:101AA000BFFC00214A404B401A4313D14E48D0E9B5
:101AB0000010491C40F100004B4AC2E90010544894
:101AC00001F0CAFB5248808920B90120514948746D
:101AD0000A2088744D48C078012822D10A220023A8
:101AE000434903C9FEF79CFC00214A404B401A437E
:101AF00017D14948D0E9001000235940584001430C
:101B000003D103204149C8700BE04348D0E90020CD
:101B1000521E60F100004049C1E900203F4801F039
:101B2000A1FE4FF0000A28E0CAEBCA003C4901EBD5
:101B30004000C0883649C98888421AD1CAEBCA0019
:101B4000374901EB4000008931490989884210D1A9
:101B5000CAEBCA00324901EB400040892C4949894F
:101B6000884206D129480078052802D0022027495A
:101B700008710AF1010000F0FF0ABAF1020FD3DB8D
:101B800022480079022805D1BDF8A60010B1002036
:101B90001E4908711E48008822490988884221D0C0
:101BA0001B4800881F490880084601881E4801F02C
:101BB000EBFE4FF0000A12E008201B4901EBCA01BE
:101BC0000090D1E90043CAEBCA01184A02EB410078
:101BD000224601F02DFC0AF1010000F0FF0ABAF1E3
:101BE000180FE9DB24E00000100000204A0000206C
:101BF0000800002036000020280300203E000020BE
:101C00003803002029000020280000202A0000209E
:101C1000CC000020B800002018000020DA000020CE
:101C2000E80000202000002018010020D80100203A
:101C3000BDF8840048B1FC480078001D052190FBE8
:101C4000F1F201FB1200F8490870BDF8860048B1B6
:101C5000F5480078401C052190FBF1F201FB1200D1
:101C6000F1490870BDF8800048B1F048007C001DC3
:101C7000052190FBF1F201FB1200EC490874BDF85C
:101C8000820048B1E948007C401C052190FBF1F23C
:101C900001FB1200E5490874E5480088002845DD8D
:101CA000022001F045FB8DF8B400012001F040FB5B
:101CB0008DF8B500092001F03BFB8DF8B60001203E
:101CC00001F036FB8DF8B700002001F031FB8DF8F4
:101CD000B800022001F02CFB8DF8B900072001F0BC
:101CE00027FB8DF8BA00092001F022FB8DF8BB001C
:101CF000FF200090CF480CC82DA801F024FEC82278
:101D00000023CC4903C9FEF78BFB00214A404B401E
:101D10001A4304D1C548007AC043C4490872C44874
:101D20000088401EC249088001F068B80020BF4901
:101D30000872824607E020202DA901F80A000AF166
:101D4000010000F0FF0ABAF1080FF4DBB648007892
:101D5000062881F05180DFE810F079015903060070
:101D6000FE03B1050D080420B0490872BDF8A200B9
:101D700030B10120AC4948700520AF49087005E03A
:101D8000BDF8A60010B10020A7494870AB48C08834
:101D90000A2190FBF1F0C2B2104601F0C9FA8DF8A9
:101DA000B400A648C0880A2190FBF1F301FB1300A0
:101DB000C2B2104601F0BCFA8DF8B5009F48008908
:101DC0000A2190FBF1F0C2B2104601F0B1FA8DF891
:101DD000B6009A4800890A2190FBF1F301FB130039
:101DE000C2B2104601F0A4FA8DF8B70093484089BA
:101DF0000A2190FBF1F0C2B2104601F099FA8DF879
:101E0000B8008E4840890A2190FBF1F301FB1300D2
:101E1000C2B2104601F08CFA8DF8B900874880896B
:101E2000642190FBF1F301FB13000A2190FBF1F018
:101E3000C2B2104601F07CFA8DF8BA007F48808962
:101E40000A2190FBF1F301FB1300C2B2104601F02E
:101E50006FFA8DF8BB007448407801287ED1BDF838
:101E6000980048B174480078401D062190FBF1F2BB
:101E700001FB120070490870BDF89C0048B16E4823
:101E80000078401C062190FBF1F201FB12006A4928
:101E90000870BDF8A40008B93098B0B3664800785F
:101EA000062849D2DFE800F0030E1925323E6448C7
:101EB000D0E90010634A891840F10000604AC2E985
:101EC00000103AE05E48D0E900205F49511840F127
:101ED00000005B4AC2E900102FE05948D0E9001029
:101EE0004EF66023C91840F10000554AC2E90010BF
:101EF00023E05348D0E9002041F27073D21840F13A
:101F000000004F49C1E9002017E01EE04C48D0E92D
:101F100000304FF47A71591840F10000484AC2E984
:101F200000100AE04648D0E90020643240F1000089
:101F30004349C1E9002000E000BF00BF0820009035
:101F40003F480CC83D4801F073FABDF89A0008B943
:101F50002F98C0B338480078062800E063E049D2E3
:101F6000DFE800F0030E1925323E3548D0E90020A5
:101F7000344BD21A60F100003149C1E900203AE047
:101F80002F48D0E90020304BD21A60F100002C49D4
:101F9000C1E900202FE02A48D0E900204EF6602356
:101FA000D21A60F100002649C1E9002023E024484C
:101FB000D0E9002041F27073D21A60F1000020498C
:101FC000C1E9002017E01EE01D48D0E900304FF4C1
:101FD0007A729A1A60F100001949C1E900200AE0FA
:101FE0001748D0E90010643960F10000144AC2E9D2
:101FF000001000E000BF00BF0820009010480CC88F
:102000000E4801F015FAC82200230A4903C9FEF759
:1020100007FA6421511A73F1000304D220202DA97C
:10202000054A1278885495E22A000020B800002062
:10203000220000200800002031000020CC000020F9
:102040001000002080EE3600407E05000120FE4991
:102050000872BDF8A20030B10120FC498870072049
:10206000FB49087005E0BDF8A60010B10020F74953
:102070008870F848008842F2107190FBF1F301FB80
:1020800013004FF47A7190FBF1F0C2B2104601F0E8
:102090004FF98DF8B400EF4800884FF47A7190FB47
:1020A000F1F301FB1300642190FBF1F0C2B2104682
:1020B00001F03EF98DF8B500E6480088642190FBF8
:1020C000F1F301FB13000A2190FBF1F0C2B21046BC
:1020D00001F02EF98DF8B600DE4800880A2190FB49
:1020E000F1F301FB1300C2B2104601F021F98DF8A3
:1020F000B700D8484088401C642190FBF1F301FBF5
:1021000013000A2190FBF1F0C2B2104601F010F961
:102110008DF8B800CF484088401C0A2190FBF1F3AD
:1021200001FB1300C2B2104601F002F98DF8B900AC
:10213000C8488088401C642190FBF1F301FB130028
:102140000A2190FBF1F0C2B2104601F0F1F88DF8CF
:10215000BA00C0488088401C0A2190FBF1F301FBC3
:102160001300C2B2104601F0E3F88DF8BB00B74887
:102170008078012875D1BDF89800D8B100BFB44966
:102180000978C81DC11700EB5171C910A0EBC1013E
:10219000AF4A11701046007803280BD01046007823
:1021A000052807D010460078062803D0104600788E
:1021B0000728E4D1BDF89C00D8B100BFA449097834
:1021C000481CC11700EB5171C910A0EBC101A04A16
:1021D00011701046007803280BD0104600780528AF
:1021E00007D010460078062803D01046007807284C
:1021F000E4D1BDF8A40008B9309898B394480078A9
:10220000082863D2DFE800F0040506072F304C579A
:102210005DE05CE05BE08F484088022804DC8D498B
:10222000088801F04BFA50B98A484088022809DD35
:1022300088490988491C88B201F040FA10B14FF46E
:10224000B77001E040F26D10834948436421484370
:10225000824AD2E90032C01842F100017F4A03C22B
:1022600035E0D2E03BE032E07A49088801F026FA16
:1022700028B1784840887A4931F8100004E0754860
:102280004088784931F81000734948436421484335
:10229000C117724B0CCB80185941704A03C216E02B
:1022A0006E48D0E90010704BC91840F100006B4A2D
:1022B000C2E900100BE06948D0E900106B4BC91867
:1022C00040F10000654AC2E9001000E000BF00BF15
:1022D0000820009061480CC85E4801F0A9F8BDF8DC
:1022E0009A0008B92F9898B359480078082873D2F3
:1022F000DFE800F0040506072F305B666DE06CE058
:102300006BE054484088022804DC5249088801F0F8
:10231000D5F950B94F484088022809DD4D49098850
:10232000491C88B201F0CAF910B14FF4B77001E04E
:1023300040F26D1048494843642141434748D0E981
:102340000020511A60F10000444AC2E9001044E044
:102350004BE042E03F49088801F0B0F958B13D48F0
:1023600040880B300C2190FBF1F201FB12003C493C
:1023700031F810000AE0374840880B300C2190FB00
:10238000F1F201FB1200374931F81000324948439D
:1023900064214143CA173148D0E90030591A60EB33
:1023A00002002E4AC2E9001017E02C48D0E90010C4
:1023B0002D4A891A60F10000284AC2E900100CE099
:1023C0002648D0E90010294A891A60F10000234A02
:1023D000C2E9001001E0FFE700BF00BF0820009045
:1023E0001E480CC81B4801F023F8C82200232049CE
:1023F00003C9FEF715F86421511A73F1000304D2E2
:1024000020202DA9124A127888540CE602200E4989
:1024100008721048008842F2107190FBF1F301FB42
:1024200013004FF47A7190FBF1F0C2B2104600F045
:102430007FFF8DF8B400074800884FF47A7190FB55
:10244000F1F301FB130015E0B80000202A00002082
:1024500032000020CC00002080510100100000203C
:10246000803A0000683A0000005C260500D6830030
:1024700008000020642190FBF1F0C2B2104600F089
:1024800057FF8DF8B500FE480088642190FBF1F3FA
:1024900001FB13000A2190FBF1F0C2B2104600F0DC
:1024A00047FF8DF8B600F64800880A2190FBF1F34B
:1024B00001FB1300C2B2104600F03AFF8DF8B700DE
:1024C0004FF0000A42E0CAEBCA00EE4901EB4000BF
:1024D0004088EB494988884234D1CAEBCA00E949AF
:1024E00001EB40008088E649898888422AD153213F
:1024F0008DF8B81050218DF8B9100AF11600182186
:1025000090FBF1F301FB1300401C0A2190FBF1F05A
:10251000C2B2104600F00CFF8DF8BA000AF11600A6
:10252000182190FBF1F301FB1300401C0A2190FBE2
:10253000F1F301FB1300C2B2104600F0F9FE8DF872
:10254000BB0006E00AF1010000F0FF0ABAF1180F23
:10255000B9DB00BFFEE30820CB490872BDF8A2003A
:1025600048B1CA48C078042801D1022000E0042004
:10257000C649C8700BE0BDF8A60040B1C348C0789A
:10258000022801D1012000E00220C049C870C048E3
:10259000C0880A2190FBF1F0C2B2104600F0C8FEDC
:1025A0008DF8B400BA48C0880A2190FBF1F301FB12
:1025B0001300C2B2104600F0BBFE8DF8B500B4485F
:1025C00000890A2190FBF1F0C2B2104600F0B0FE83
:1025D0008DF8B600AE4800890A2190FBF1F301FBAB
:1025E0001300C2B2104600F0A3FE8DF8B700A84851
:1025F00040890A2190FBF1F0C2B2104600F098FE2B
:102600008DF8B800A24840890A2190FBF1F301FB44
:102610001300C2B2104600F08BFE8DF8B9009C4842
:102620008089642190FBF1F301FB13000A2190FBE8
:10263000F1F0C2B2104600F07BFE8DF8BA0094486B
:1026400080890A2190FBF1F301FB1300C2B210460E
:1026500000F06EFE8DF8BB008C48C078032818D1BE
:10266000C82200238B4903C9FDF7DAFE6420101A43
:1026700073F100030DD24FF0000A07E020202DA9CE
:1026800001F80A000AF1010000F0FF0ABAF1080F90
:10269000F4DB7E48C07804287ED1BDF8980048B1AC
:1026A0007D480078401D062190FBF1F201FB1200ED
:1026B00079490870BDF89C0048B177480078401C03
:1026C000062190FBF1F201FB120073490870BDF87E
:1026D000A40008B93098B0B36F480078062849D2F2
:1026E000DFE800F0030E1925323E6C48D0E90010F7
:1026F0006B4BC91840F10000684AC2E900103AE08B
:102700006648D0E90030674A9A1840F100006349F2
:10271000C1E900202FE06148D0E900204EF6602397
:10272000D21840F100005D49C1E9002023E05B4878
:10273000D0E9002041F27073D21840F100005749EF
:10274000C1E9002017E026E05448D0E900104FF41A
:102750007A72891840F10000504AC2E900100AE07C
:102760004E48D0E90020643240F100004B49C1E9F5
:10277000002000E000BF00BF4B4A0023474903C9C7
:10278000FDF74EFE45480CC00020009043480CC8A1
:102790003F4800F04DFE00E08FE0BDF89A0008B918
:1027A0002F98A0B33D48D0E900103F4BC91840F125
:1027B00000003A4AC2E9001037480078062849D29A
:1027C000DFE800F0030E1926323E3448D0E900104D
:1027D000334BC91A60F10000304AC2E900103AE0F8
:1027E0002E48D0E900102F4A891A60F100002B4AC8
:1027F000C2E900102FE02948D0E900104EF660220F
:10280000891A60F10000254AC2E9001023E032E095
:102810002248D0E9001041F27073C91A60F100003B
:102820001E4AC2E9001016E01C48D0E900204FF40F
:102830007A73D21A60F100001849C1E900200AE059
:102840001648D0E90010643960F10000134AC2E96B
:10285000001000E000BF00BF134A00230F4903C966
:10286000FDF7DEFD0D480CC0002000900B480CC8A1
:10287000074800F0DDFD084801780120884015E098
:10288000CC000020D8010020B80000202A00002041
:10289000DA0000200800002033000020180000208B
:1028A00080EE3600407E050000D68300C0B2009066
:1028B000FD480CC82DA801F046F89EE21020FB4907
:1028C0000872BDF8A00048B1F9490978481C00EB2E
:1028D000D0714910A0EB4101F54A1170BDF89E007E
:1028E00048B1F3490978481C00EBD0714910A0EBBE
:1028F0004101EF4A1170BDF8A20030B10120ED494D
:1029000008710720EC49087005E0BDF8A60010B179
:102910000020E8490871E648007800F009FD8DF8CC
:10292000B40020218DF8B510E1480078C0EBC0005C
:10293000E24901EB4000C0880A2190FBF1F0C2B2ED
:10294000104600F0F5FC8DF8B600D9480078C0EBD1
:10295000C000DA4901EB4000C0880A2190FBF1F386
:1029600001FB1300C2B2104600F0E2FC8DF8B70084
:10297000CF480078C0EBC000D04901EB400000898F
:102980000A2190FBF1F0C2B2104600F0D1FC8DF8A4
:10299000B800C7480078C0EBC000C84901EB400050
:1029A00000890A2190FBF1F301FB1300C2B210462B
:1029B00000F0BEFC8DF8B900BD480078C0EBC00047
:1029C000BE4901EB400040890A2190FBF1F0C2B200
:1029D000104600F0ADFC8DF8BA00B5480078C0EBA9
:1029E000C000B64901EB400040890A2190FBF1F399
:1029F00001FB1300C2B2104600F09AFC8DF8BB0038
:102A0000AC480079012879D1BDF8980050B1AA48A6
:102A10000078C01C062190FBF1F201FB1200801C23
:102A2000A5490870BDF89C0050B1A3480078401E2D
:102A3000062190FBF1F201FB1200801C9E490870F8
:102A4000BDF8A40008B9309878B39B480078801E80
:102A500006287CD2DFE800F003162A3E5367984828
:102A60009349097800EBC100D0E900309549591825
:102A700040F10000924A8E4B1B7802EBC302C2E980
:102A8000001065E08E488A49097800EBC100D0E962
:102A900000308D49591840F10000894A844B1B7859
:102AA00002EBC302C2E9001052E077E0844880499B
:102AB000097800EBC100D0E900104EF660228918B9
:102AC00040F100007E4A7A4B1B7802EBC302C2E958
:102AD00000103DE07A487649097800EBC100D0E962
:102AE000003041F270729A1840F100007449704B46
:102AF0001B7801EBC301C1E9002029E02EE17048F9
:102B00006B49097800EBC100D0E900304FF47A72CC
:102B10009A1840F100006A49654B1B7801EBC3012C
:102B2000C1E9002014E066486149097800EBC10062
:102B3000D0E9003064229A1840F1000060495C4BF3
:102B40001B7801EBC301C1E9002001E0FFE700BFF2
:102B500000BF5B485649097800EBC1005B4A00237F
:102B6000D0E900412046FDF75BFC55485049097803
:102B700000EBC1000CC0002051494D4A0090127872
:102B800001EBC201D1E9004349490978C1EBC10118
:102B90004A4A02EB4100224600F04AFCBDF89A0086
:102BA00008B92F98E8B346484149097800EBC100BD
:102BB000D0E90020454BD21840F1000040493C4B81
:102BC0001B7801EBC301C1E900203B480078801E5F
:102BD000062868D2DFE800F003162B3F537C384804
:102BE0003349097800EBC100D0E90020354BD21AF7
:102BF00060F1000032492E4B1B7801EBC301C1E9A3
:102C0000002078E02E482A49097800EBC100D0E97D
:102C100000102D4BC91A60F10000294A244B1B7883
:102C200000E08EE002EBC302C2E9001063E024483A
:102C30001F49097800EBC100D0E900204EF660235F
:102C4000D21A60F100001E49194B1B7801EBC30139
:102C5000C1E900204FE01A481549097800EBC1008E
:102C6000D0E9001041F27073C91A60F10000144AF3
:102C70000F4B1B7802EBC302C2E900103BE0104887
:102C80000B49097800EBC100D0E900104FF47A73CA
:102C9000C91A60F100000A4A054B1B7802EBC30217
:102CA000C2E9001027E025E008000020B80000205D
:102CB000350000202A00002034000020E800002019
:102CC0000801002080EE3600407E050000D683001B
:102CD000DA48DB49097800EBC100D0E9001064391B
:102CE00060F10000D54AD64B1B7802EBC302C2E963
:102CF000001000E000BF00BFD048D149097800EBC8
:102D0000C101D1E90041CF4A00232046FDF788FBED
:102D1000CA48CB49097800EBC1000CC00020C74964
:102D2000C74A0090127801EBC201D1E90043C449BF
:102D30000978C1EBC101C44A02EB4100224600F010
:102D400077FBC248017801208840C0B20090C0489B
:102D50000CC800E051E02DA800F0F5FDBD48007959
:102D6000022806D1FF200090B9480CC82DA800F019
:102D7000EAFD42E00220B74908700422410231A86E
:102D8000FDF752FF042240F2044132A8FDF74CFF48
:102D90000022DDE9311051185041AF4AC2E900105C
:102DA0000820009010460CC8AC4800F041FB002001
:102DB0000090AB480CC8AB4800F03AFB4FF0000A5B
:102DC00012E000209D4901EBCA010090D1E90043C7
:102DD000CAEBCA019C4A02EB4100224600F028FBE4
:102DE0000AF1010000F0FF0ABAF1020FE9DB41F23B
:102DF00070709D49088000E000BF00BF4FF0000ADE
:102E00000FE02DA911F80A0000F0CAFA974901F85D
:102E10000A0020202DA901F80A000AF1010000F0A3
:102E2000FF0ABAF1080FECDB8A480079022804D1C6
:102E30004FF4FA608D49C86044E086488079E8B371
:102E40000A220023824903C9FDF7EAFA00214A4019
:102E50004B401A4304D186480088401C84490880AE
:102E600084488549098830F8210058B98148824949
:102E7000098800EB8100408820B900207C49088047
:102E80007D49088004E07C480088401C7A4908801D
:102E9000784979480088401C01EB800040887449DB
:102EA00009888842EFDD73487349098830F82100AA
:102EB000724931F810006D49C86003E0FFE7002057
:102EC0006A49C8601F98002825D003226CA1584683
:102ED000FDF7E5FBF0BB09226AA10BF10400FDF749
:102EE000DEFBC8B900210BF10E0000F009FD04461D
:102EF0000D4622462B4666A106A8FDF709FB06A84B
:102F000000F09CF9544A30C20820009052480CC886
:102F1000524800F08DFA8DE005226CA10BF10400FF
:102F2000FDF7BDFBF0BB6BA10BF10A00FDF7A8FBA1
:102F3000059068A10598401CFDF7A2FB0490059838
:102F400000783A2803D1049800783A2809D062A181
:102F500006A800E04CE0FDF7DBFA06A800F06EF9E9
:102F600045E03A210BF10A0000F0CAFC8046894690
:102F70003A210598401C00F0C3FC04460D46002190
:102F80000498401C00F0BCFC06460F461821B8EB24
:102F9000010179F100000BD23C21611A75F10000AA
:102FA00006D200E046E03C21711A77F1000007D319
:102FB00049A106A8FDF7ACFA06A800F03FF915E014
:102FC00042464B4646A106A88DE8F000FDF7A0FA60
:102FD00006A800F033F92149A1F806800C814E8142
:102FE00008211E4800F0CCFA1B4A03C200BF21E0B2
:102FF000052246A15846FDF76BFBD8B9042245A12E
:103000000BF10600FDF764FB30B900201849088079
:103010000120104988710DE0042240A10BF1060047
:10302000FDF756FB30B900200A4988711049088025
:103030000E49C86033B0BDE8F08F000008010020E1
:103040003500002000D68300E80000203400002076
:10305000080000202A00002010000020CC000020E2
:1030600018000020DA00002022000020B800002014
:1030700024000020603B00002600002038480000AB
:103080007365740074696D657374616D7000000020
:103090005570646174696E672063757272656E74D1
:1030A0002074696D657374616D7020746F3A256C5E
:1030B0006C752874696D65732074656E206D696C1C
:1030C0006C697365636F6E6473290000636C6F6372
:1030D0006B0000003A0000004572726F7221000020
:1030E0005570646174696E672063757272656E7481
:1030F00020636C6F636B20746F3A256C6C753A2596
:103100006C6C753A256C6C75000000004D55534988
:1031100043000000504C41590000000053544F50F0
:10312000000000000448006840F470000249086094
:10313000024803490860704788ED00E00024F4006D
:103140004000002010B501210F4800F071F804463E
:1031500021460D4800F066F80AE00B4800F018F828
:103160000A49896E08700948806E401C07498866C4
:10317000054800F01BF80028EFD10449896E08705B
:103180000249A1F86C0010BD00C0004048000020BA
:10319000816911F0100F0CBF00684FF0FF307047CD
:1031A000826912F0200FFBD1016070478069012114
:1031B00021EA10107047D0F818C01CF0080FFAD19F
:1031C000D0F82CC02CF0100CC0F82CC0D0F830C0B7
:1031D0002CF0010C2CF4407CC0F830C0D0F830C08A
:1031E000B1EB021F34BF4CF0200C2CF0200CC0F8C7
:1031F00030C038BF5208C900B1FBF2F1491C490880
:103200008A09426201F03F018162C362002181614B
:10321000C16A41F01001C162016B40F201321143F9
:103220000163704741647047826B1143816370474B
:10323000002914BF006CC06B7047000010B5044635
:1032400004E014F8011B0348FFF7AAFF20780028C8
:10325000F7D110BD00C0004010B50446A089401C45
:10326000A081A08964285EDBA0896438A081608980
:10327000401C608160893C2855DB60893C38608156
:103280002089401C208120893C284CDB20893C3847
:103290002081E088401CE080E088182843DBE0883B
:1032A0001838E080A088401CA080208800F006FA32
:1032B00010B14FF4B77001E040F26D10A188884260
:1032C00031DC208800F0FAF910B14FF4B77001E05A
:1032D00040F26D10A188081AA0802088401C208030
:1032E000208800F0EBF920B160880F4931F8100018
:1032F00003E060880D4931F81000A188884212DC93
:10330000208800F0DBF920B16088074931F810000F
:1033100003E06088054931F81000A188081AA080F0
:103320006088401C608010BD803A0000683A000050
:103330000146002905DB092903DC01F13000C0B298
:10334000704701F16100C0B2FAE7000070B50446B1
:103350000D462A4605212220FDF7FAFD0120A04056
:10336000C2B206212220FDF7F3FD0C49097C4FF47F
:10337000487211FB02F0FDF77CFB0022062122209F
:10338000FDF7E6FD0549097CC1F104014FF44872DF
:1033900011FB02F0FDF76DFB70BD0000B8000020CE
:1033A00030B597B004462C220BA10CA8FDF7DBF931
:1033B0002C2214A101A8FDF7D6F921460CA8FDF78F
:1033C00055F905462DB10CA8281A01A9085C17B0BB
:1033D00030BD0020FBE70000303132333435363762
:1033E0003839416242436444454647484A4B4C4D54
:1033F0004E506F4F5152545355565758595A2E2DBF
:103400005F2000003F065B4F666D7D077F6F777C16
:103410007C395E5E79713D760D72385554735C5C13
:103420006F50786D3E1C6A1D6E4980400800000098
:103430002DE9F05F044615461E46DDF8289040F25F
:10344000B27020806422002328463146FCF7E8FF52
:10345000A2816422002328463146FCF7E1FF07469B
:103460003C220023FCF7DCFF628164220023284613
:103470003146FCF7D5FF07464FF461620023FCF7A5
:10348000CFFF924619463C2200235046FCF7C8FF66
:1034900020816422002328463146FCF7C1FF0746FD
:1034A000344A0023FCF7BCFF924619464FF4616290
:1034B00000235046FCF7B4FF10EB0900E0804FF00A
:1034C00064024FF0000328463146FCF7A9FF074687
:1034D000284A0023FCF7A4FFA080E088182805DB19
:1034E000E0881838E080A088401CA0800020608020
:1034F0000EE0208800F0E2F810B14FF4B77001E060
:1035000040F26D10A188081AA0802088401C2080FD
:10351000208800F0D3F810B14FF4B77001E040F20A
:103520006D10A1888842E4DD12E0208800F0C6F822
:1035300020B16088104931F8100003E060880F491D
:1035400031F81000A188081AA0806088401C6080B3
:10355000208800F0B3F820B16088074931F81000E6
:1035600003E06088054931F81000A1888842DCDD5D
:10357000BDE8F09F80510100803A0000683A0000E9
:103580002DE9F04F04468946E0884FF46161A0FBC5
:10359000011264234FF0000CA1FB030A02FB03A2FB
:1035A00001FB0C2122893C23A2FB03CA64224FF0B9
:1035B000000BACFB023E0AFB02E20CFB0B22844632
:1035C00008461CEB0301504162896423A2FB0323DC
:1035D0009C468B1840EB0C01A0891A1841EB0B009C
:1035E000A188314BA1FB033C4FF0640AA3FB0A1EE8
:1035F0000CFB0AEC03FB0BC3511858414FF46162FA
:10360000A9FB0223D446A2FB0CAE03FB0CE302FB96
:103610000B32B1EB0A0660EB0207002540F2B278EC
:103620000EE0404600F04AF810B12048002101E0C9
:103630001F48002186194F4108F101001FFA80F848
:1036400020884045EDDC27E0208800F037F880B185
:10365000184830F815001449A0FB010164224FF00E
:10366000000CA0FB023A01FB02A100FB0C11184662
:103670000EE0114830F815000B49A0FB0110642240
:103680000023A1FB02CA00FB02A001FB030160466C
:1036900086194F41681C85B26088A842D4DC304648
:1036A0003946BDE8F08F00008051010000F47BBC7A
:1036B000001EF8BB683A0000803A000001460A4646
:1036C000C81701EB90708010A1EB800070B96420E6
:1036D00091FBF0F300FB131030B94FF4C87091FB6D
:1036E000F0F300FB131008B9012070470020FCE73D
:1036F0000024FF25514943F65050FDF78FFE5049F5
:1037000008605048057040F286704E49A1F86C0080
:10371000881C8866012081F86E0000204A49C86034
:10372000042008740120487400208874FDF724FDEB
:10373000FDF74CFDFDF73AFEFDF794FDFDF7FCFDAE
:10374000FDF7ACFD4148FDF7E9FF00BF3F48FDF73D
:10375000F9FF0028FAD0FDF793F96DE03A48007AB6
:10376000C043C2B201211820FDF7F2FB3848FDF733
:10377000F4FC40B2334981F86E003548FDF7FAFC9D
:10378000304981F86F0000241EE000212220FDF75F
:103790009FFB05460DB12B4805702B48007C002887
:1037A00004DD2948015D2046FFF7D0FD2648807CD6
:1037B000002807DDC4F1080026490A5C0F212648CD
:1037C000FDF783FB601CC4B2082CDEDB1E48807C46
:1037D000002804DD1C48807C401E1B4988741A4860
:1037E000C06808B1012000E00020024680211B488B
:1037F000FDF794FC1448C068C0B11348C068104974
:103800000968B1FBF0F632464FF480711348FDF7BA
:103810007CFC0D48C0680A490968B1FBF0F08608D5
:10382000324640F207110D48FDF780FC03210C4899
:10383000FDF7E6FA0349487090E700000024F40021
:103840000000002048000020B8000020005800F0D0
:1038500000C002403048000000500240008002409A
:1038600000D0034010B50446A08900283ED1632053
:10387000A0816089002835D13B206081208968BB08
:103880003B202081E08828BB1720E080A088E8B991
:10389000608840B9208800B910BD2088401E208073
:1038A0000B20608002E06088401E60802088FFF767
:1038B00005FF20B16088104931F8100003E06088EE
:1038C0000E4931F81000401EA08012E0A088401E72
:1038D000A0800EE0E088401EE0800AE02089401EC3
:1038E000208106E06089401E608102E0A089401EC0
:1038F000A08100BFD0E70000803A0000683A0000D5
:103900002DE9F04302460C4600230026304631469E
:1039100012E04FF00A0800260546A5FB087901FBD6
:10392000089C00FB06CC1D465E1CB3B2555DA5F19C
:103930003006B8194CEBE671D55C15B1D55CA542E3
:10394000E7D1BDE8F0832DE9F041054616461F4654
:10395000DDF81880C822002330463946FCF760FDA8
:103960006421511A73F100030CD2002408E00120F5
:10397000A04000EA080008B120202855601CC4B20D
:10398000082CF4DBBDE8F08170B5024600200AE0A7
:10399000254B03EBC003D3E9004302EBC005C5E9A7
:1039A0000043431C98B21828F2DB40F2E5739942B9
:1039B0001ADA11E000200DE002EBC003D3E9004366
:1039C0001A4EA41B63F1000302EBC005C5E90043D6
:1039D000431C98B21828EFDB0B464C1CA1B240F2F6
:1039E000E574A342E6D11DE040F2E573994219DD8A
:1039F00011E000200DE002EBC003D3E900530B4EB1
:103A0000AD1943F1000302EBC004C4E90053431CA9
:103A100098B21828EFDB0B464C1EA1B240F2E574B9
:103A2000A342E6D170BD0000A03A0000D40B18BC40
:103A300010B500290AD00878002807D00548784436
:103A4000FCF7D0FF002801D0002010BD02487844C8
:103A500010BD00007A140000721400004FF0407096
:103A6000E1EE100A704700001F001C001F001E003E
:103A70001F001E001F001F001E001F001E001F0051
:103A80001F001D001F001E001F001E001F001F0042
:103A90001E001F001E001F006D016E0100000000CF
:103AA00094CF417B250000009866D6822500000057
:103AB0003CB7708A2500000030EC1292250000000F
:103AC000D05DC29925000000FCE97FA1250000001F
:103AD000E8354FA925000000080B2FB12500000094
:103AE000F8C620B92500000048CE20C125000000FE
:103AF000341D2EC925000000443643D125000000A6
:103B0000602F5DD925000000400676E12500000009
:103B1000F4F989E925000000002C94F1250000004B
:103B20007C4691F9250000001CD47E01260000008F
:103B3000B4F85A0926000000D41926112600000006
:103B40005856E01826000000BC988C202600000083
:103B50005CCE2C28260000009897C52F2600000078
:103B60003500000041001E00410032003F003C00D3
:103B7000410046003500500041006E0041008200C7
:103B80003F008C00410096003500A0004100BE00BF
:103B90004100D2003F00DC004100E6003500F000AB
:103BA0004100040144000E014600180144002C01AC
:103BB000460036013500400141005E0141007201BE
:103BC0003F007C0141008601350090014100AE01BB
:103BD0004100C2013F00CC014100D6013500E001A7
:103BE0004100FE01410012023F001C02410026027A
:103BF0003A0030024400440246004E0238005802A7
:103C000041006C02440076023500800241009E02B1
:103C10004100B2023F00BC024100C6023500D002A2
:103C20004100EE02410002033F000C034100160375
:103C30003500200341003E03410052033F005C0376
:103C400041006603350070034100840344008E0385
:103C5000460098034400AC034600B6033500C00399
:103C60004100DE034100F2033F00FC034100060473
:103C70003500100441002E04410042043F004C0472
:103C8000410056043500600441007E044100920466
:103C90003F009C044100A6043A00B0043800BD0473
:103CA0003A00CA043800D8043500E5043800F204AC
:103CB0003500000537001405380028053A003C059A
:103CC0003C005005410078053F008C053C00A005F4
:103CD0003500C8053C00F0053A0004063800180617
:103CE00037002C06350040063700540638006806B9
:103CF0003A007C063C0090063A00B8063800CC0634
:103D00003700E0063500F4063700080738001C07C6
:103D100037003007350044073400580737006C0778
:103D200035008007370094073800A8073A00BC0721
:103D30003C00D0074100F8073F000C083C00200879
:103D4000350048083C0070083A008408380098089C
:103D50003700AC083500C0083700D4083800E80840
:103D60003A00FC083C0010093A00380938004C09B8
:103D700037006009380088093A00B0093C00D809CA
:103D80003500000A3700140A3800280A3A003C0AB5
:103D90003C00500A4100780A3F008C0A3C00A00A0F
:103DA0003500C80A3C00F00A3A00040B3800180B32
:103DB00037002C0B3500400B3700540B3800680BD4
:103DC0003A007C0B3C00900B3A00B80B3800CC0B4F
:103DD0003700E00B3500F40B3700080C38001C0CE2
:103DE0003700300C3500440C3400580C37006C0C94
:103DF0003500800C3700940C3800A80C3A00BC0C3D
:103E00003C00D00C4100F80C3F000C0D3C00200D94
:103E10003500480D3C00700D3A00840D3800980DB7
:103E20003700AC0D3500C00D3700D40D3800E80D5B
:103E30003A00FC0D3C00100E3A00380E38004C0ED3
:103E40003700600E3800880E3A00B00E3C00D80EE5
:103E50003F00000F4100140F3C00280F3A003C0FB8
:103E60003C00500F3A00780F3C008C0F3F00A00F31
:103E70004100B40F3C00C80F3A00DC0F3C00F00FCB
:103E80003A0018103C002C103A0040103800541032
:103E90003700681033007C10350090103300B810E4
:103EA0003500CC103700E0103800F4103A0008114B
:103EB0003C001C11350030113C0058113F006C11C2
:103EC0003F008011410094113C00A8113A00BC1140
:103ED0003C00D0113A00F8113C000C123F002012B7
:103EE000410034123C0048123A005C123C0070124F
:103EF0003A0098123C00AC123A00C0123800D412BA
:103F00003700E8123300FC12350010133300381369
:103F100035004C1337006013380074133A008813CF
:103F20003C009C133500B0133C00D8133F00EC1349
:103F30003F000014410014143C0028143A003C14C3
:103F40003C0050143A0078143C008C143F00A0143C
:103F50004100B4143C00C8143A00DC143C00F014D6
:103F60003A0018153C002C153A004015380054153D
:103F70003700681533007C15350090153300B815EF
:103F80003500CC153700E0153800F4153A00081656
:103F90003C001C16350030163C0058163F006C16CD
:103FA0003F008016410094163C00A8163A00BC164B
:103FB0003C00D0163A00F8163C000C173F002017C2
:103FC000410034173C0048173A005C173C0070175A
:103FD000410098174300AC174400C0174300D417A2
:103FE0004100E8173F00FC173C0010183A00381851
:103FF0003C004C183A0060183800741837008818D4
:1040000033009C183500B0183C00D8183F00EC185D
:104010003F000019410014193C0028193A003C19CE
:104020003C0050193A0078193C008C193F00A01947
:104030004100B4193C00C8193A00DC193C00F019E1
:104040003A00181A3C002C1A3A00401A3800541A48
:104050003700681A33007C1A3500901A3300B81AFA
:104060003500CC1A3700E01A3800F41A3A00081B61
:104070003C001C1B3500301B3C00581B3F006C1BD8
:104080003F00801B4100941B3C00A81B3A00BC1B56
:104090003C00D01B3A00F81B3C000C1C3F00201CCD
:1040A0004100341C3C00481C3A005C1C3C00701C65
:1040B0003A00981C3C00AC1C3A00C01C3800D41CD0
:1040C0003700E81C3300FC1C3500101D3300381D80
:1040D00035004C1D3700601D3800741D3A00881DE6
:1040E0003C009C1D3500B01D3C00D81D3F00EC1D60
:1040F0003F00001E4100141E3C00281E3A003C1EDA
:104100003C00501E3A00781E3C008C1E3F00A01E52
:104110004100B41E3C00C81E3A00DC1E3C00F01EEC
:104120003A00181F3C002C1F3A00401F3800541F53
:104130003700681F33007C1F3500901F3300B81F05
:104140003500CC1F3700E01F3800F41F3A0008206C
:104150003C001C20350030203C0058203F006C20E3
:104160003F008020410094203C00A8203A00BC2061
:104170003C00D0203A00F8203C000C213F002021D8
:10418000410034213C0048213A005C213C00702170
:10419000410098214300AC214400C0214300D421B8
:1041A0004100E8213F00FC213C0010223A00382267
:1041B0003C004C223A0060223800742237008822EA
:1041C00033009C223500B0223500002341001E231D
:1041D000410032233F003C23410046233500502359
:1041E00041006E23410082233F008C23410096232F
:1041F0003500A0234100BE234100D2233F00DC2331
:104200004100E6233500F0234100042444000E243D
:104210004600182444002C2446003624350040244F
:1042200041005E24410072243F007C24410086242A
:10423000350090244100AE244100C2243F00CC242C
:104240004100D6243500E0244100FE24410012251F
:104250003F001C25410026253A0030254400442516
:1042600046004E253800582541006C25440076252F
:104270003500802541009E254100B2253F00BC2528
:104280004100C6253500D0254100EE25410002261B
:104290003F000C26410016263500202641003E2610
:1042A000410052263F005C264100662635007026FC
:1042B0004100842644008E26460098264400AC2601
:1042C0004600B6263500C0264100DE264100F22613
:1042D0003F00FC26410006273500102741002E270D
:1042E000410042273F004C274100562735006027F8
:1042F00041007E27410092273F009C274100A627CE
:104300003A00B0273800BD273A00CA273800D8271E
:104310003500E5273800F22735000028370014283B
:10432000380028283A003C283C00502841007828D2
:104330003F008C283C00A0283500C8283C00F0280D
:104340003A0004293800182937002C293500402963
:1043500037005429380068293A007C293C0090290C
:104360003A00B8293800CC293700E0293500F42973
:104370003700082A38001C2A3700302A3500442A22
:104380003400582A37006C2A3500802A3700942AD6
:104390003800A82A3A00BC2A3C00D02A4100F82A5A
:1043A0003F000C2B3C00202B3500482B3C00702B91
:1043B0003A00842B3800982B3700AC2B3500C02BEB
:1043C0003700D42B3800E82B3A00FC2B3C00102C93
:1043D0003A00382C38004C2C3700602C3800882CE0
:1043E0003A00B02C3C00D82C3500002D3700142D9D
:1043F0003800282D3A003C2D3C00502D4100782DEE
:104400003F008C2D3C00A02D3500C82D3C00F02D28
:104410003A00042E3800182E37002C2E3500402E7E
:104420003700542E3800682E3A007C2E3C00902E27
:104430003A00B82E3800CC2E3700E02E3500F42E8E
:104440003700082F38001C2F3700302F3500442F3D
:104450003400582F37006C2F3500802F3700942FF1
:104460003800A82F3A00BC2F3C00D02F4100F82F75
:104470003F000C303C002030350048303C007030AC
:104480003A008430380098303700AC303500C03006
:104490003700D4303800E8303A00FC303C001031AE
:1044A0003A00383138004C313700603138008831FB
:1044B0003A00B0313C00D8313F00003241001432A4
:1044C0003C0028323A003C323C0050323A0078320C
:1044D0003C008C323F00A0324100B4323C00C83274
:1044E0003A00DC323C00F0323A0018333C002C3306
:1044F0003A004033380054333700683333007C339C
:10450000350090333300B8333500CC333700E03317
:104510003800F4333A0008343C001C3435003034A1
:104520003C0058343F006C343F00803441009434E8
:104530003C00A8343A00BC343C00D0343A00F83493
:104540003C000C353F002035410034353C004835F7
:104550003A005C353C0070353A0098353C00AC358B
:104560003A00C0353800D4353700E8353300FC3523
:10457000350010363300383635004C36370060369B
:10458000380074363A0088363C009C363500B03628
:104590003C00D8363F00EC363F000037410014376E
:1045A0003C0028373A003C373C0050373A00783717
:1045B0003C008C373F00A0374100B4373C00C8377F
:1045C0003A00DC373C00F0373A0018383C002C3811
:1045D0003A004038380054383700683833007C38A7
:1045E000350090383300B8383500CC383700E03823
:1045F0003800F4383A0008393C001C3935003039AD
:104600003C0058393F006C393F00803941009439F3
:104610003C00A8393A00BC393C00D0393A00F8399E
:104620003C000C3A3F00203A4100343A3C00483A02
:104630003A005C3A3C00703A4100983A4300AC3A88
:104640004400C03A4300D43A4100E83A3F00FC3A03
:104650003C00103B3A00383B3C004C3B3A00603B8E
:104660003800743B3700883B33009C3B3500B03B3F
:104670003D00D83B4000EC3B4000003C4200143C75
:104680003D00283C3B003C3C3D00503C3B00783C1E
:104690003D008C3C4000A03C4200B43C3D00C83C86
:1046A0003B00DC3C3D00F03C3B00183D3D002C3D18
:1046B0003B00403D3900543D3800683D34007C3DAE
:1046C0003600903D3400B83D3600CC3D3800E03D2A
:1046D0003900F43D3B00083E3D001C3E3600303EB4
:1046E0003D00583E40006C3E4000803E4200943EFB
:1046F0003D00A83E3B00BC3E3D00D03E3B00F83EA6
:104700003D000C3F4000203F4200343F3D00483F09
:104710003B005C3F3D00703F3B00983F3D00AC3F9D
:104720003B00C03F3900D43F3800E83F3400FC3F35
:10473000360010403400384036004C4038006040AD
:10474000390074403B0088403D009C403600B0403A
:104750003D00D8404000EC40400000414200144180
:104760003D0028413B003C413D0050413B00784129
:104770003D008C414000A0414200B4413D00C84191
:104780003B00DC413D00F0413B0018423D002C4223
:104790003B004042390054423800684234007C42B9
:1047A000360090423400B8423600CC423800E04235
:1047B0003900F4423B0008433D001C4336003043BF
:1047C0003D00584340006C43400080434200944306
:1047D0003D00A8433B00BC433D00D0433B00F843B1
:1047E0003D000C4440002044420034443D00484415
:1047F0003B005C443D007044420098444400AC449B
:104800004500C0444400D4444200E8444000FC4415
:104810003D0010453B0038453D004C453B006045A0
:10482000390074453800884534009C453600B04551
:104830000901030206040C080000230025002700DC
:1048400029002C002E003100340037003A003E00D1
:10485000420046004A004E00530058005D006200CE
:1048600068006E0075007C0083008B0093009C0044
:10487000A500AF00BA00C500D000DD00EA00F800D6
:1048800007011601270138014B015F0173018901FE
:10489000A101BA01D401F0010D022C024E027102F5
:1048A0009602BD02E702130342037303A803E00369
:1048B0001B0459049B04E1042C057A05CE05260649
:1048C0008406E7065007BF073508B2083609C30952
:1048D000570AF40A9B0B4C0C070DCD0DA00E7E0F52
:1048E0006A1064116D128513AE14E9153717981804
:1048F0000E1A9B1B3F1DFC1ED420C822D9240A2758
:104900005C29D22B6D2E30311D3436377E3AF93D7D
:104910000040004010000000008005401000000032
:104920000050004011000000009005401100000000
:10493000006000401200000000A0054012000000CE
:10494000007000401300000000B00540130000009C
:10495000004002401400000000C0054014000000A8
:10496000005002402E00000000D005402E00000044
:10497000006002402F00000000E005402F00000012
:10498000007002403000000000F0054030000000E0
:1049900000D0034046000000000006404600000032
:1049A00000100640470000000020064048000000BC
:1049B000003006407F0000000040064080000000FC
:1049C0000050064084000000006006408C0000009B
:1049D0000040004010000000008005401000000072
:1049E0000050004011000000009005401100000040
:1049F000006000401200000000A00540120000000E
:104A0000007000401300000000B0054013000000DB
:104A1000004002401400000000C0054014000000E7
:104A2000005002402E00000000D005402E00000083
:104A3000006002402F00000000E005402F00000051
:104A4000007002403000000000F00540300000001F
:104A500000D0034043000000000006404300000077
:104A60000010064044000000002006404500000001
:104A70000030064058000000004006405900000089
:104A8000005006405C00000000600640640000002A
:104A9000007006406C000000008006406D000000C1
:104AA000009006407F00000000400040008005406C
:104AB00000500040009005400060004000A005400C
:104AC0000070004000B005400040024000C00540BA
:104AD0000050024000D005400060024000E0054068
:104AE0000070024000F0054000D003400000064086
:104AF000001006400010064000200640002006403E
:104B000000300640003006400040064000400640AD
:104B1000005006400050064000600640006006401D
:104B2000007006400070064000800640008006408D
:104B300000900640009006400007000000060000BC
:104B40000005000000040000000300000002000057
:104B500000010000000000000000000018ED00E06F
:104B60001CED00E020ED00E000E400E004E400E0E3
:104B700008E400E00CE400E010E400E014E400E0ED
:104B800018E400E01CE400E020E400E024E400E09D
:104B900028E400E02CE400E030E400E034E400E04D
:104BA00038E400E03CE400E040E400E044E400E0FD
:104BB00048E400E04CE400E050E400E054E400E0AD
:104BC00058E400E05CE400E060E400E064E400E05D
:104BD00068E400E06CE400E070E400E074E400E00D
:104BE00078E400E07CE400E080E400E084E400E0BD
:104BF00088E400E000E100E004E100E008E100E01A
:104C00000CE100E010E100E080E100E084E100E080
:104C100088E100E08CE100E090E100E000E200E0EB
:104C200004E200E008E200E00CE200E010E200E054
:104C300080E200E084E200E088E200E08CE200E054
:104C400090E200E000688909001C4E0E40420F000F
:104C500000201C0080841E0000802500999E3600E4
:104C60000040380000093D0000803E0000004B007D
:104C7000404B4C0000204E00808D5B0000C05D006A
:104C80000080700000127A0000007D00809698007D
:104C9000001BB7000080BB00C0E8CE00647ADA00D9
:104CA0000024F4000000FA0080A81201002D310158
:104CB00000366E0140787D014000000000000000D9
:104CC000000100003E00080000000000000100009C
:104CD000A0000000020000000001000034540100A8
:104CE00000000000000100002B7006000000000022
:104CF000000100002800000000000000000100008A
:104D0000270001000000000000010000200000005A
:104D10000000000000010000500000000200000040
:104D2000000100001AAC00000000000000010000BB
:104D3000179409000000000000010000169805000B
:104D4000000000000001000014000000000000004E
:104D500000010000138008000000000000010000B6
:104D6000A00000000800000000010000100000008A
:104D70000000000000010000280000000200000008
:104D800000010000400000000400000000010000DD
:104D90006000000000000000000100005D000C0049
:104DA00000000000000100005000000000000000B2
:104DB000000100004E0002000000000000010000A1
:104DC00041AC010000000000000100003C000000B8
:104DD00000000000000100003A800900000000000F
:104DE0000001000030000000000000000001000091
:104DF0002800000000000000000100002700010062
:104E00000000000000010000236006000000000018
:104E10000001000021600800000000000001000007
:104E20001E00000000000000000100001DC0040082
:104E3000000000000001000050000000020000001F
:104E40000001000018000000000000000001000048
:104E500014000000000000000001000060000000DD
:104E600004000000000100000024F40030003000C5
:104E7000005A62029100910000879303D200D20091
:104E800000B4C4041301130100E1F50554015401F9
:104E9000000E270795019501C84F00000000002073
:104EA000440000003C0200000C50000044000020C0
:104EB00064050000580200001001000043000000DB
:104EC000F8FFFFFF0040404040404040404041412B
:104ED00041414140404040404040404040404040CF
:104EE0004040404040050202020202020202020269
:104EF0000202020202202020202020202020200266
:104F000002020202020290909090909010101010F5
:104F10001010101010101010101010101010101091
:104F20000202020202028888888888880808080825
:104F300008080808080808080808080808080808F1
:104F40000202020240000000000000000000000019
:104F50000000000000000000000000000000000051
:104F60000000000000000000000000000000000041
:104F70000000000000000000000000000000000031
:104F80000000000000000000000000000000000021
:104F90000000000000000000000000000000000011
:104FA0000000000000000000000000000000000001
:104FB00000000000000000000000000000000000F1
:104FC00000000000000000000000000000000000E1
:104FD000000000000000000080966CCA2500000060
:104FE00000000000000000000000000000000000C1
:104FF00000000500000200000000000000000000AA
:0C50000000000000000000000024F4008C
:0400000500000201F4
:00000001FF
