:020000040000FA
:1000000020030020C9020000D1020000D30200003A
:10001000D5020000D7020000D90200000000000055
:10002000000000000000000000000000DB020000F3
:10003000DD02000000000000DF020000A11100004E
:10004000E3020000E5020000E7020000E902000010
:10005000EB020000D5220000EF020000F1020000D8
:10006000F3020000F5020000F7020000F9020000B0
:10007000FB020000FD020000FF020000010300007F
:10008000030300000503000007030000090300004C
:100090000B0300000D0300000F030000110300001C
:1000A00013030000150300001703000019030000EC
:1000B0001B0300001D0300001F03000021030000BC
:1000C000230300002503000027030000290300008C
:1000D0002B0300002D0300002F030000310300005C
:1000E000330300003503000037030000390300002C
:1000F0003B0300003D0300003F03000041030000FC
:1001000043030000450300004703000049030000CB
:100110004B0300004D0300004F030000510300009B
:10012000530300005503000057030000590300006B
:100130005B0300005D0300005F030000610300003B
:1001400063030000650300006703000081030000F3
:100150000000000000000000830300008503000091
:100160008703000089030000000000008B030000EB
:100170008D0300008F030000910300009303000033
:100180009503000097030000990300009B03000003
:100190009D0300009F030000A1030000A3030000D3
:1001A000A5030000A7030000A9030000AB030000A3
:1001B000AD030000AF030000B1030000B303000073
:1001C000B5030000B7030000B9030000BB03000043
:1001D000BD030000BF030000C1030000C303000013
:1001E000C5030000C7030000C9030000CB030000E3
:1001F000CD030000CF030000D1030000D3030000B3
:1002000000F002F800F03CF80AA090E8000C8244EC
:100210008344AAF10107DA4501D100F031F8AFF2C9
:10022000090EBAE80F0013F0010F18BFFB1A43F0D4
:1002300001031847B42A0000D42A0000103A24BF52
:1002400078C878C1FAD8520724BF30C830C144BF3B
:1002500004680C607047000000230024002500267D
:10026000103A28BF78C1FBD8520728BF30C148BF19
:100270000B6070471FB502F053FA1FBD10B510BDDB
:1002800000F0B9F91146FFF7F5FF02F0D7F900F0D9
:10029000D7F903B4FFF7F2FF03BC00F0DFF9000069
:1002A000EFF3108072B67047EFF310807047EFF3F2
:1002B000108062B6704730BF704780F31188704776
:1002C000EFF31180704700004548804745480047DC
:1002D000FEE7FEE7FEE7FEE7FEE7FEE7FEE7FEE7F6
:1002E000FEE7FEE7FEE7FEE7FEE7FEE7FEE7FEE7E6
:1002F000FEE7FEE7FEE7FEE7FEE7FEE7FEE7FEE7D6
:10030000FEE7FEE7FEE7FEE7FEE7FEE7FEE7FEE7C5
:10031000FEE7FEE7FEE7FEE7FEE7FEE7FEE7FEE7B5
:10032000FEE7FEE7FEE7FEE7FEE7FEE7FEE7FEE7A5
:10033000FEE7FEE7FEE7FEE7FEE7FEE7FEE7FEE795
:10034000FEE7FEE7FEE7FEE7FEE7FEE7FEE7FEE785
:10035000FEE7FEE7FEE7FEE7FEE7FEE7FEE7FEE775
:10036000FEE7FEE7FEE7FEE7FEE7FEE7FEE7FEE765
:10037000FEE7FEE7FEE7FEE7FEE7FEE7FEE7FEE755
:10038000FEE7FEE7FEE7FEE7FEE7FEE7FEE7FEE745
:10039000FEE7FEE7FEE7FEE7FEE7FEE7FEE7FEE735
:1003A000FEE7FEE7FEE7FEE7FEE7FEE7FEE7FEE725
:1003B000FEE7FEE7FEE7FEE7FEE7FEE7FEE7FEE715
:1003C000FEE7FEE7FEE7FEE7FEE7FEE7FEE7FEE705
:1003D000FEE7FEE704480549034A054B7047000065
:1003E000B5220000010200002001002020030020AF
:1003F0002001002053EA020C00F069802DE9F04B47
:100400004FF00006002B1FBFB3FA83F503FA05F483
:1004100024FA05F65E4012BF1643B2FA82F502FADC
:1004200005F4C5F120051EBF22FA05FC44EA0C04C0
:10043000203556EA044C4FEA144418BF641C4FF0B0
:1004400000084FF00009904271EB030C39D30029EA
:1004500019BFB1FA81F701FA07F6B0FA80F700FA8E
:1004600007F6C7F120071EBF20FA07FC46EA0C0674
:100470002037B6FBF4FCA7EB0507103F07F01F0B76
:10048000CBF120060CFA0BFB2CFA06F644BFB34660
:100490000026202FA4BF5E464FF0000B5BEA060C3F
:1004A00008BF4FF0010B19EB0B09ABFB027C48EBCB
:1004B0000608C01B06FB02CC0BFB03CC71EB0C0146
:1004C000C1E70B46024641464846BDE8F08B13B5EE
:1004D0004FF000004FF00001AFF30080BDE81C407A
:1004E0007047401ECAB210F8011F8A4202D000298C
:1004F000F9D10020704740EA010370B59B072ED167
:100500004FF00136042A2AD308C810C99D1B9D4309
:10051000121F15EAC61517D0D8B2E1B2401A50EA38
:10052000056110D198B2A1B2401A50EA05410AD132
:1005300023F07F4024F07F41401A50EA052102D188
:10054000180EA0EB146070BDA342DBD018BA21BA1C
:10055000884201D9012070BD4FF0FF3070BD0AB94B
:10056000002070BD10F8013B11F8014B63B1A342AC
:100570000AD1521E08D010F8013B11F8014B1BB1F3
:10058000A34201D1521EEDD1181B70BD10B5203A07
:10059000C0F00B80B1E81850203AA0E81850B1E83C
:1005A0001850A0E81850BFF4F5AF5FEA027C24BFF2
:1005B000B1E81850A0E8185044BF18C918C0BDE8E9
:1005C00010405FEA827C24BF51F8043B40F8043BB2
:1005D00008BF7047D20728BF31F8023B48BF11F867
:1005E000012B28BF20F8023B48BF00F8012B7047C1
:1005F000704770477047754600F02CF8AE4605000E
:100600006946534620F00700854618B020B5FFF72D
:10061000E1FEBDE820404FF000064FF000074FF02C
:1006200000084FF0000B21F00701AC46ACE8C00910
:10063000ACE8C009ACE8C009ACE8C0098D46704719
:1006400010B50446AFF300802046BDE81040FFF728
:1006500020BE000000487047C0000020014918205B
:10066000ABBEFEE7260002007047002100E0491CF7
:100670008142FCD37047D0F8003412F0010F14BF50
:100680000B438B43C0F8003412F0020FD0F8202443
:1006900014BF114322EA0101C0F8201470472DE96C
:1006A000F00301264FF0000C0325C2F3411706FAB0
:1006B0000CF40C4211D0D0F8C48F4FEA4C0405FA68
:1006C00004F928EA0908C0F8C48FD0F8C48F07FAE3
:1006D00004F448EA0404C0F8C44F0CF1010C0CF017
:1006E000FF0CBCF1080FE2D3D0F800C512F0010FE7
:1006F00014BF4CEA010C2CEA010CC0F800C5D0F87C
:1007000004C512F0020F14BF4CEA010C2CEA010CD4
:10071000C0F804C5D0F808C512F0040F14BF4CEAA5
:10072000010C2CEA010CC0F808C5D0F818C512F06D
:10073000080F14BF4CEA010C2CEA010CC0F818C5D4
:1007400012F0100FD0F83C2514BF0A438A43C0F8BA
:100750003C25D0F80C2513F0010F14BF0A438A433F
:10076000C0F80C25D0F8102513F0020F14BF0A436F
:100770008A43C0F81025D0F8142513F0040F14BFD5
:100780000A438A43C0F81425D0F81C2513F0080F3B
:1007900014BF0A438A43C0F81C25D0F8442513F43B
:1007A000007F14BF0A438A43C0F84425D0F840258F
:1007B00013F4407F14BF0A438A43C0F84025D0F8A1
:1007C0002825002B0CBF114322EA0101C0F828158F
:1007D000BDE8F003704700000E4AC0F30741D26E37
:1007E00001238B401A420C4A1ABF02EBC10149682F
:1007F00052F83110020AD1F82C354FF00F0C0CFAD8
:1008000002FC00F00F0023EA0C0390401843C1F8EB
:100810002C05704700E00F40F828000050F8210038
:10082000704730B50C4605460022FFF724FF2146ED
:100830002846BDE8304008230122FFF730BF30B51D
:100840000C46054608230122FFF729FF21462846CA
:10085000BDE830400122FFF70EBF30B50C4605461B
:100860000222FFF708FF21462846BDE83040092351
:100870000122FFF714BF30B50C4605460222FFF7F0
:10088000FAFE21462846BDE8304008230122FFF742
:1008900006BF30B50C4605460222FFF7ECFE2146A6
:1008A0002846BDE8304008230122FFF7F8BE30B5E6
:1008B0000C4605460222FFF7DEFE21462846BDE82B
:1008C00030400A230122FFF7EABE30B50C46054648
:1008D0000222FFF7D0FE21462846BDE8304008231B
:1008E0000122FFF7DCBE40F8212070472DE9F041DE
:1008F00004460E4600BF1C4800F078F80028FAD1E4
:1009000000222146184800F0B9F83146164800F098
:1009100077F80721144800F06FF800BF124800F084
:100920005FF80028FAD1104800F071F8C7B2012032
:10093000FFF79BFE012221460B4800F09FF807219C
:10094000094800F059F800BF074800F049F80028AE
:10095000FAD1054800F052F8C5B20120FFF785FE34
:100960002846BDE8F0810000000002402DE9F0417A
:1009700004460F46154600BF184800F037F8002817
:10098000FAD100222146154800F078F8394613487C
:1009900000F036F80321114800F02EF800BF0F4890
:1009A00000F024F80028FAD10C4800F030F8C6B264
:1009B00029460A4800F024F80521084800F01CF8F0
:1009C00000BF064800F012F80028FAD1034800F0F2
:1009D0001EF8C6B23046BDE8F081000000000240BB
:1009E000406810F0400018BF01207047406810F0C8
:1009F000010018BF01207047416070478068704750
:100A000081607047016A41F01001016270474068DF
:100A100010F0010F05D110F0120F1CBF00F01C00E8
:100A20007047002070470000036A43F01003036220
:100A3000002A14BF0E4A0F4A02EB820301EB830324
:100A400002EB820292005B1EB3FBF2F2521EC26006
:100A5000D0F8C02F12F0010F08BF7047064A1144AA
:100A6000521CB1FBF2F1491E41F08001C160704798
:100A7000801A0600A08601007F47370142EA410143
:100A8000016070471649042804BF086840F48030AC
:100A900018D0052804BF086840F4003012D006289A
:100AA00012D00F2815D0102838BF7047103800F02A
:100AB0001F01012202FA01F142090A4850F82200FE
:100AC0000160704708607047086840F48020086043
:100AD00070474FF0E020016941F002010161704769
:100AE00024ED00E0442A000010B5FFF7E0FB0028E9
:100AF00018BF012010BD084401686FF35201114373
:100B0000016012F0020F14BFB0218C21016214BFEA
:100B10004FF4306140F60C0141627047425842F098
:100B20000102425070470844016811F0020F14BFDF
:100B30005108511E01617047002A826814BF114399
:100B400022EA01018160704721F03F0318440368E5
:100B500013F0020F18BF520803699A1A11F0010F1F
:100B600014BFC26182617047036823F01E031943FA
:100B70000160C2607047016841F001010160704787
:100B800010B5114800F0CEFA00BF0F4800F0DEFAB1
:100B90000028FAD00C48C01C00F0C4FA00BF0A4874
:100BA000C01C00F0D3FA0028F9D001210748FFF754
:100BB00046FE03210648FFF734FE0A2301220321E3
:100BC0000348FFF76CFD10BD050800F0005002401F
:100BD00000D0034010B51E4800F0A4FA1D4800F0F4
:100BE000A1FA1D48FFF7F8FD1C48FFF7F5FD0421A9
:100BF0001B48FFF740FE08211948FFF72EFE01228F
:100C0000184801681848FFF70FFF1748FFF7FAFE6A
:100C1000FF220C212220FFF7A9FE044600220D210D
:100C20002220FFF7A3FE044600220E212220FFF718
:100C30009DFE0446002203211820FFF797FE04467C
:100C4000FF2201211820FFF791FE044610BD00008D
:100C5000002000F0010800F002080100020C010071
:100C600000500040000000200000024010B50B487A
:100C700000684FF47A71B0FBF1F4204600F08AFA74
:100C800000F07AFA00F07FFA5021054801F094FB59
:100C90001520FFF7F7FEFFF727FF10BD000000202B
:100CA00000C0004010B5002000F032FA1E4800F0ED
:100CB00039FA00BF1C4800F049FA0028FAD01B4856
:100CC00000F030FA00BF194800F040FA0028FAD0CE
:100CD0001748FFF781FD20211648FFF7DAFD0022B3
:100CE0004FF480711448FFF706FF144800684FF472
:100CF0007A61B0FBF1F422464FF480710E48FFF7A1
:100D000012FF0E48006842F6E061B0FBF1F42246A3
:100D100040F207110848FFF717FF4FF480710648AB
:100D2000FFF7FCFE10BD0000004000F0090800F0D5
:100D30000614090000100640008002400000002058
:100D400010B5164800F0EEF9154800F0EBF900BFB9
:100D5000134800F0FBF90028FAD01248FFF73CFDD9
:100D60001148FFF739FD08211048FFF768FD002200
:100D700008210E48FFF7B7FD02210C48FFF797FD49
:100D800004210A48FFF793FD642208210848FFF771
:100D9000EBFE0748FFF7EFFE10BD00000A0800F069
:100DA000004400F006040A0006080A00002006407D
:100DB00000C0024010B5124800F0B4F9114800F02C
:100DC000B1F900BF0F4800F0C1F90028FAD00120A6
:100DD000FFF702FD40F20140FFF7FEFC03214FF058
:100DE0004020FFF772FD60234FF4E13206480168AE
:100DF000064801F0A8FA06A001F0E8FA10BD0000CC
:100E0000001800F0000800F00000002000C00040C2
:100E10000D0A48656C6C6F2C20776F726C64210D25
:100E20000A0000002DE9F003AF4D02462868AF4BE1
:100E30001840A0F18053B3F5A02359D002F038092F
:100E4000DFF8AC82C2F38414B9F1100F25D0B9F1E8
:100E5000300F04BF47F230504FF400130DD04FF065
:100E60003800904304BF4FF40040C30105D012F096
:100E7000380F1CBF0020034613D09E4F12F4605F52
:100E80004FF0000618BF00222CD057F832404445DE
:100E90007DD307EBC2025268E1E0002340461524EF
:100EA000EBE7A4F10900122822D29348D5F87CC0C0
:100EB0004FF04C7350F824002CF01C0C072CA8BFEA
:100EC0004CF0100CC5F87CC02E6D4FF4002C16F4BD
:100ED000807FD2D1BCF1010C0AD02E6D16F4807F38
:100EE000F8D0CAE712F0380F18BFB9F1100F04D0CC
:100EF000BDE8F0034FF000007047C2F30268DFF86E
:100F0000FCC14FF0000257F83290E14503D307EBE4
:100F1000C202526803E0521C062AF4D33246C5F8D6
:100F2000C020D5F8B020DFF8D8C102EA0C0242F0A8
:100F30000042C5F8B020DFF8CCC1A4F109024C1E74
:100F40005CF828C0A444BCFBF1FCD5F8B0101943F0
:100F5000C5F8B01008EBC80101EB41046A4902EB87
:100F6000420201EBC40101EB82046468C5F86441EC
:100F7000D5F864416FF0FF0808EB0C2C44EA0C0C28
:100F8000C5F864C151F82210D5F8602100E061E095
:100F900002F400021143C5F86011D5F86011D5F8CC
:100FA0006021C1F38921C2F30904D5F86421C2F399
:100FB000042202F1010CD5F8642102F01F02521C38
:100FC000B0FBF2F04A09C2F100084443424301EB8E
:100FD000481104EB5212484302EB9020B0FBFCF0A6
:100FE00041080846002257F832C0844503D307EB76
:100FF000C200466802E0521C062AF4D3C5F8C0605D
:10100000D5F8600110F4000F1DBFD5F8B00040F016
:101010008040C5F8B000D5F8600104BF40F400007E
:10102000C5F860014FF40040D5F8682112F0010FB7
:1010300002D1401E0028F7DC002808BF002148D05C
:10104000D5F8B000184340F0010040F01040C5F85A
:10105000B0003EE0521C062AFFF417AF3246C5F836
:10106000C020D5F8602122F40002C5F86021D5F82F
:10107000B020DFF898C002EA0C0242F00042C5F846
:10108000B020002908BF4FF0000C0AD0B0FBF1FCE3
:10109000BCF1000F18BFACF1010C0CF10101B0FB69
:1010A000F1F10846002257F83240844203D307EB9F
:1010B000C200466802E0521C062AF4D3C5F8C0609C
:1010C000D5F8B00043EA8C22104340F00040C5F848
:1010D000B000D5F8B00020F47000C5F8B000BDE84D
:1010E000F00308467047000000E00F400000FF706A
:1010F0000024F400B82C00009C2A000040787D01F8
:1011000000FC0FE0942A0000082B0000FF0300EF12
:1011100003490A6E22F4F01210430866704700007B
:1011200000E00F40C0F307230749C0B2194401F0A3
:101130007043C1F3130143EA411141EA800040F0DA
:10114000007001220260704700E60F40C0F30722E2
:101150000849C0B2114401F07042C1F3130142EAE0
:10116000411141EA800040F000700068002818BF7B
:101170000120704700EA0F404FF0E020016941F084
:101180000501016170474FF0E020016941F0020163
:10119000016170474FF0E021401E48617047000038
:1011A0002DE9F0439DB0002400200D900E900C908E
:1011B000089009900A900B90049005900690079073
:1011C000039002900025DFF8EC83FB480068401C88
:1011D000F9490860A8F10200B0F86C00642809DA47
:1011E000A8F10200B0F86C00401CA8F10201A1F8BF
:1011F0006C000EE0EF48801EB0F86C00642808D147
:1012000040F28670EB49891EA1F86C000125881C0C
:101210008866E94800683221B0FBF1F201FB120058
:10122000002867D100242FE0E248801E0078C043E8
:10123000204100F001000DA908550DA8005D20B166
:10124000DE48005D08B9012000E0002008A921F86F
:101250001400D94800684FF4FA71B0FBF1F201FBB9
:10126000120038B90DA8005D20B1D448005D08B166
:10127000012000E0002004A921F814000DA8005D61
:10128000CE490855601CC4B2082CCDDB00242FE0E9
:10129000C848801E4078C043204100F001000CA9DE
:1012A00008550CA8005D20B1C548005D08B90120B3
:1012B00000E0002003A921F81400BF4800684FF4A3
:1012C000FA71B0FBF1F201FB120038B90CA8005D15
:1012D00020B1BB48005D08B1012000E0002002A958
:1012E00021F814000CA8005DB5490855601CC4B273
:1012F000022CCDDBB348407880B9AF4800680A21A2
:10130000B0FBF1F201FB120040B9AF48D0E9001088
:10131000491C40F10000AC4AC2E9001008200090CE
:10132000A9480CC81AA801F0CDF8A648C078012831
:101330001CD1A14800680A21B0FBF1F201FB1200A8
:10134000A0B9A248D0E900100023594058400143F9
:1013500003D103209B49C87008E09C48D0E90030C5
:101360005A1E60F100009949C1E900200020009058
:1013700096480CC817A801F0A5F8002431E0002019
:10138000934901EBC4010090D1E9006304EB4401EF
:1013900011AA02EB8100324601F094F804EB4400FC
:1013A00011A901EB8000C088BDF86E10884216D1EB
:1013B00004EB440011A901EB80000089BDF8701016
:1013C00088420CD104EB440011A901EB8000408954
:1013D000BDF87210884202D102207A490871601C5F
:1013E000C4B2022CCBDB77480079022805D1BDF8C6
:1013F0002E0010B1002073490871BDF80C0048B1EF
:1014000070480078001D052190FBF1F201FB1200ED
:101410006C490870BDF80E0048B16A480078401C5D
:10142000052190FBF1F201FB120066490870654945
:10143000087800F0D9FF06463146664800F078FF8C
:101440006048007805287DD2DFE810F06B013F038B
:1014500005005803C604BDF82A0030B101205949DF
:10146000487005205C49087005E0BDF82E0010B1F9
:10147000002054494870BDF86E000A2190FBF1F03D
:10148000C2B2104600F0B0FF8DF83C00BDF86E000F
:101490000A2190FBF1F301FB1300C2B2104600F0E9
:1014A000A3FF8DF83D00BDF870000A2190FBF1F01C
:1014B000C2B2104600F098FF8DF83E00BDF87000F3
:1014C0000A2190FBF1F301FB1300C2B2104600F0B9
:1014D0008BFF8DF83F00BDF872000A2190FBF1F000
:1014E000C2B2104600F080FF8DF84000BDF87200D7
:1014F0000A2190FBF1F301FB1300C2B2104600F089
:1015000073FF8DF84100642200232F4903C9FEF7C1
:1015100071FF164619460A2200233046FEF76AFF7D
:1015200000F0FF09484600F05FFF8DF842000A22F4
:101530000023254903C9FEF75DFFD6B2304600F00F
:1015400053FF00E0EBE38DF843001E48407801288C
:1015500076D1BDF8200048B11F480078401D062113
:1015600090FBF1F201FB12001B490870BDF824004A
:1015700048B119480078401C062190FBF1F201FBAC
:10158000120015490870BDF82C0048B312480078C5
:10159000062861D2DFE800F00325303C48550A48B0
:1015A000D0E900300D49591840F10000064AC2E95F
:1015B000001052E032000020040000202200002031
:1015C0002A00002018000020080000201000002041
:1015D000B000002000C000401D00002080EE36005A
:1015E0003CE0FE48D0E90020FD4BD21840F100005D
:1015F000FA49C1E9002030E0F848D0E900104EF681
:101600006023C91840F10000F44AC2E9001024E048
:10161000F248D0E9002041F27073D21840F1000086
:10162000EE49C1E9002018E0EC48D0E900204FF471
:101630007A73D21840F10000E849C1E900200CE0BB
:101640006EE0E648D0E900306421591840F100000E
:10165000E24AC2E9001000E000BF00BFBDF822006E
:10166000B0B3E048007806284AD2DFE800F0030E65
:101670001925323ED948D0E90020DB4BD21A60F15F
:101680000000D649C1E900203BE0D448D0E9001071
:10169000D34A891A60F10000D04AC2E9001030E054
:1016A000CE48D0E900104EF66023C91A60F1000060
:1016B000CA4AC2E9001024E0C848D0E9002041F23B
:1016C0007073D21A60F10000C449C1E9002018E02B
:1016D00018E0C248D0E900304FF47A729A1A60F1EB
:1016E0000000BE49C1E900200BE0BC48D0E9003051
:1016F00064229A1A60F10000B849C1E9002000E0B4
:1017000000BF00BFB9480068C821B0FBF1F201FB7F
:101710001200642804D220200FA9B24A12788854FB
:1017200059E3BDF82A0030B10120B14948700720C3
:10173000B049087005E0BDF82E0010B10020AC499A
:101740004870BDF8680042F2107190FBF1F301FBA4
:1017500013004FF47A7190FBF1F0C2B2104600F022
:1017600043FE8DF83C00BDF868004FF47A7190FBA1
:10177000F1F301FB1300642190FBF1F0C2B21046BB
:1017800000F032FE8DF83D00BDF86800642190FB4A
:10179000F1F301FB13000A2190FBF1F0C2B21046F5
:1017A00000F022FE8DF83E00BDF868000A2190FB93
:1017B000F1F301FB1300C2B2104600F015FE8DF8E4
:1017C0003F00BDF86A00401C642190FBF1F301FB6F
:1017D00013000A2190FBF1F0C2B2104600F004FEA3
:1017E0008DF84000BDF86A00401C0A2190FBF1F31F
:1017F00001FB1300C2B2104600F0F6FD8DF8410067
:10180000BDF86C00401C642190FBF1F301FB130058
:101810000A2190FBF1F0C2B2104600F0E5FD8DF810
:101820004200BDF86C00401C0A2190FBF1F301FB63
:101830001300C2B2104600F0D7FD8DF843006C488B
:101840004078012872D1BDF82000D8B100BF6949A5
:101850000978C81DC11700EB5171C910A0EBC10177
:10186000644A11701046007803280BD010460078A7
:10187000052807D010460078062803D010460078C7
:101880000728E4D1BDF82400D8B100BF5949097830
:10189000481CC11700EB5171C910A0EBC101554A9A
:1018A00011701046007803280BD0104600780528E8
:1018B00007D010460078062803D010460078072885
:1018C000E4D1BDF82C0090B34A480078082862D2D1
:1018D000DFE800F0040506072E2F4B565CE05BE0C6
:1018E0005AE0BDF86A00022804DCBDF8680000F088
:1018F0008BFE50B9BDF86A00022809DDBDF86810FA
:10190000491C88B200F080FE10B14FF4B77001E0BE
:1019100040F26D1038494843642148432F4B0CCBAB
:10192000801843F100012D4A03C235E0CCE034E0D9
:1019300032E0BDF8680000F067FE28B1BDF86A002B
:101940002E4931F8100004E0BDF86A002C4931F846
:1019500010002949484364214843C1171F4B0CCB51
:10196000801859411D4A03C216E01C48D0E90010F6
:10197000244BC91840F10000184AC2E900100BE0DE
:101980001648D0E90030204A9A1840F10000134967
:10199000C1E9002000E000BF00BFBDF82200A8B3ED
:1019A0001448007808287FD2DFE800F00405060715
:1019B0004748677379E078E077E0BDF86A0002286D
:1019C00004DCBDF8680000F01FFE20BBBDF86A0013
:1019D000022823DDBDF86810491C18E0080000202B
:1019E000407E05001D00002080EE3600040000202F
:1019F000180000201E000020805101004227000036
:101A00002A270000005C260500D683004EE088B23D
:101A100000F0FAFD10B14FF4B77001E040F26D1024
:101A2000FE49484364214843FD49D1E90031181A71
:101A300061F10001FA4A03C237E036E0BDF8680000
:101A400000F0E2FD28B1BDF86A00F64931F8100057
:101A500004E0BDF86A00F44931F81000EF4948434A
:101A600064214143CA17EE48D0E90030591A60EBAF
:101A70000200EB4AC2E9001017E0E948D0E9003063
:101A8000EA4A9A1A60F10000E549C1E900200CE039
:101A90000AE0E348D0E90010E54BC91A60F1000004
:101AA000DF4AC2E9001000E000BF00BFE148006863
:101AB000C821B0FBF1F201FB1200642804D22020FF
:101AC0000FA9DD4A12788854C9E341208DF83C0003
:101AD00042208DF83D0043208DF83E0044208DF8D3
:101AE0003F0045208DF8400046208DF841004720FA
:101AF0008DF8420048208DF84300B0E3BDF82A007D
:101B000048B1CE48C078042801D1022000E004206A
:101B1000CA49C8700BE0BDF82E0040B1C748C07874
:101B2000022801D1012000E00220C449C870BDF89C
:101B300062000A2190FBF1F0C2B2104600F054FCA2
:101B40008DF83C00BDF862000A2190FBF1F301FB27
:101B50001300C2B2104600F047FC8DF83D00BDF8FE
:101B600064000A2190FBF1F0C2B2104600F03CFC88
:101B70008DF83E00BDF864000A2190FBF1F301FBF3
:101B80001300C2B2104600F02FFC8DF83F00BDF8E4
:101B900066000A2190FBF1F0C2B2104600F024FC6E
:101BA0008DF84000BDF866000A2190FBF1F301FBBF
:101BB0001300C2B2104600F017FC8DF841006422F9
:101BC00000239F4903C9FEF715FC164619460A2251
:101BD00000233046FEF70EFC00F0FF09484600F0F7
:101BE00003FC8DF842000A220023954903C9FEF741
:101BF00001FCD6B2304600F0F7FB8DF843008F4869
:101C0000C078032811D18B480068C821B0FBF1F2DD
:101C100001FB1200642808D2002404E020200FA950
:101C20000855601CC4B2082CF8DB8448C07804282E
:101C300074D1BDF8200048B182480078401D0621CB
:101C400090FBF1F201FB12007E490870BDF8240000
:101C500048B17C480078401C062190FBF1F201FB62
:101C6000120078490870BDF82C00B0B375480078B0
:101C7000062849D2DFE800F0030E1925323E7048ED
:101C8000D0E90020704BD21840F100006C49C1E946
:101C900000203AE06A48D0E900306C49591840F118
:101CA0000000674AC2E900102FE06548D0E9001043
:101CB0004EF66023C91840F10000614AC2E90010E5
:101CC00023E05F48D0E9002041F27073D21840F160
:101CD00000005B49C1E9002017E017E05848D0E94F
:101CE00000204FF47A73D21840F100005449C1E942
:101CF00000200AE05248D0E90020643240F10000A0
:101D00004F49C1E9002000E000BF00BFBDF822003C
:101D1000C8B34C48007806284DD201E05BE09DE254
:101D2000DFE800F0030E1925323E4548D0E90020D7
:101D3000454BD21A60F100004149C1E900203BE067
:101D40003F48D0E90010414A891A60F100003C4A3E
:101D5000C2E9001030E03A48D0E900204EF6602396
:101D6000D21A60F100003649C1E9002024E034486D
:101D7000D0E9002041F27073D21A60F100003049BE
:101D8000C1E9002018E018E02D48D0E900204FF408
:101D90007A71511A60F10000294AC2E900100BE083
:101DA0002748D0E9003064229A1A60F100002449E3
:101DB000C1E9002000E000BF00BF1E480068C82144
:101DC000B0FBF1F201FB1200642804D220200FA91D
:101DD0001C4A1278885442E2BDF8280048B11C49D8
:101DE0000978481C00EBD0714910A0EB4101184A5A
:101DF0001170BDF8260048B115490978481C00EB60
:101E0000D0714910A0EB4101114A1170BDF82A00B0
:101E100018B301200949087107201BE08051010017
:101E200008000020422700002A270000005C260549
:101E300000D68300040000201E00002018000020AF
:101E4000100000201F00002080EE3600407E0500BC
:101E500021000020F949087005E0BDF82E0010B1FE
:101E60000020F7490871F748007800F0BDFA8DF8B6
:101E70003C0020208DF83D00F248007800EB400047
:101E800011A901EB8000C0880A2190FBF1F0C2B2D9
:101E9000104600F0A9FA8DF83E00EA48007800EB01
:101EA000400011A901EB8000C0880A2190FBF1F3EA
:101EB00001FB1300C2B2104600F096FA8DF83F0005
:101EC000E048007800EB400011A901EB8000008998
:101ED0000A2190FBF1F0C2B2104600F085FA8DF8AD
:101EE0004000D848007800EB400011A901EB8000C9
:101EF00000890A2190FBF1F301FB1300C2B21046E6
:101F000000F072FA8DF84100CE48007800EB4000F6
:101F100011A901EB800040890A2190FBF1F0C2B2C7
:101F2000104600F061FA8DF84200C648007800EBD8
:101F3000400011A901EB800040890A2190FBF1F3D8
:101F400001FB1300C2B2104600F04EFA8DF84300B8
:101F5000BB480079012875D1BDF8200050B1B748C1
:101F60000078C01C062190FBF1F201FB1200801CDE
:101F7000B2490870BDF8240050B1B0480078401E46
:101F8000062190FBF1F201FB1200801CAB490870A6
:101F9000AD48AC49097800EBC100D0E90010AB4A6C
:101FA000891840F10000A84AA64B1B7802EBC30237
:101FB000C2E90010BDF82C0078B3A0480078801E5C
:101FC00006287CD2DFE800F003162A3F53679E48BC
:101FD0009C49097800EBC100D0E900209C4BD11846
:101FE00040F10000984A974B1B7802EBC302C2E90C
:101FF000001065E094489349097800EBC100D0E9EE
:102000000010944BC91840F100008F4A8D4B1B788B
:1020100002EBC302C2E9001052E052E08A4889494B
:10202000097800EBC100D0E900104EF66023C91812
:1020300040F10000844A834B1B7802EBC302C2E9E3
:1020400000103DE0E3E080487E49097800EBC100E4
:10205000D0E9003041F27072991840F100007A4ADC
:10206000784B1B7802EBC302C2E9001028E07648E7
:102070007449097800EBC100D0E900304FF47A725E
:102080009A1840F1000070496E4B1B7801EBC301B8
:10209000C1E9002014E06C486A49097800EBC100EE
:1020A000D0E9003064229A1840F100006649654B7F
:1020B0001B7801EBC301C1E9002001E0FFE700BF8D
:1020C00000BFBDF8220078B35C480078801E062867
:1020D0007BD2DFE800F003162A3E52665A4859497F
:1020E000097800EBC100D0E90030594A9A1A60F132
:1020F00000005549534B1B7801EBC301C1E9002097
:1021000064E051484F49097800EBC100D0E9001064
:10211000504BC91A60F100004B4A4A4B1B7802EB46
:10212000C302C2E9001051E051E04748454909782F
:1021300000EBC100D0E900104EF66023C91A60F12F
:102140000000414A3F4B1B7802EBC302C2E900107A
:102150003CE03D483B49097800EBC100D0E9003044
:1021600041F27071591A60F10000374A354B1B7803
:1021700002EBC302C2E9001028E033483149097874
:1021800000EBC100D0E900104FF47A72891A60F1B7
:1021900000002D4A2B4B1B7802EBC302C2E9001052
:1021A00014E029482749097800EBC100D0E9002054
:1021B0006421511A60F10000234A224B1B7802EB84
:1021C000C302C2E9001001E0FFE700BF00BF1E48E4
:1021D0001C49097800EBC1001C4A0023D0E90061CA
:1021E0003046FEF707F918481649097800EBC10098
:1021F0000CC019480068C821B0FBF1F201FB1200C5
:10220000642804D220200FA90C4A127888540C4864
:102210000079022811D110480068C821B0FBF1F202
:1022200001FB1200642808D2002404E020200FA93A
:102230000855601CC4B2082CF8DB10E02000002018
:102240001800002021000020B000002000D68300EC
:1022500080EE3600407E05000400002000BF00BF75
:1022600000240AE00FA9085D00F0E4F80E490855C3
:1022700020200FA90855601CC4B2082CF2DB0B48C3
:102280000079022804D14FF4FA600749C86002E0DF
:1022900000200549C86025B1032205A14046FEF78C
:1022A0002AF91DB0BDE8F083A0000020180000202E
:1022B000736574000448006840F4700002490860C7
:1022C000024803490860704788ED00E00024F400EC
:1022D0002C00002010B501210F4800F071F80446D1
:1022E00021460D4800F066F80AE00B4800F018F8A7
:1022F0000A49896E08700948806E401C0749886643
:10230000054800F01BF80028EFD10449896E0870D9
:102310000249A1F86C0010BD00C000403000002050
:10232000816911F0100F0CBF00684FF0FF3070474B
:10233000826912F0200FFBD1016070478069012192
:1023400021EA10107047D0F818C01CF0080FFAD11D
:10235000D0F82CC02CF0100CC0F82CC0D0F830C035
:102360002CF0010C2CF4407CC0F830C0D0F830C008
:10237000B1EB021F34BF4CF0200C2CF0200CC0F845
:1023800030C038BF5208C900B1FBF2F1491C4908FE
:102390008A09426201F03F018162C36200218161CA
:1023A000C16A41F01001C162016B40F20132114378
:1023B0000163704741647047826B114381637047CA
:1023C000002914BF006CC06B7047000010B50446B4
:1023D00004E014F8011B0348FFF7AAFF2078002847
:1023E000F7D110BD00C000400146002905DB0929D6
:1023F00003DC01F13000C0B2704701F16100C0B2EE
:10240000FAE770B504460D462A4605212220FEF75C
:10241000ADFA0120A040C2B206212220FEF7A6FAA2
:102420004FF4FA60FEF721F9002206212220FEF780
:102430009DFA70BD30B597B004462C220BA10CA8B4
:10244000FEF7A4F82C2214A101A8FEF79FF821465C
:102450000CA8FEF746F805462DB10CA8281A01A9CC
:10246000085C17B030BD0020FBE70000303132338C
:10247000343536373839416242436444454647482B
:102480004A4B4C4D4E506F4F51525453555657581E
:10249000595A2E2D5F2000003F065B4F666D7D0769
:1024A0007F6F777C7C395E5E79713D760D72385531
:1024B00054735C5C6F50786D3E1C6A1D6E498040A1
:1024C000080000002DE9F05F044615461E46DDF8C1
:1024D00028906422002328463146FDF78BFF0746EB
:1024E0003C220023FDF786FF6281642200232846F8
:1024F0003146FDF77FFF07464FF461620023FDF789
:1025000079FF924619463C2200235046FDF772FFA0
:1025100020816422002328463146FDF76BFF0746E1
:10252000364A0023FDF766FF924619464FF4616272
:1025300000235046FDF75EFF10EB0900E0804FF0EE
:1025400064024FF0000328463146FDF753FF07466B
:102550002A4A0023FDF74EFFA080E088182805DBFB
:10256000E0881838E080A088401CA08040F2B2705B
:102570002080002060800EE0208800F045F810B137
:102580004FF4B77001E040F26D10A188081AA080E6
:102590002088401C2080208800F036F810B14FF4CD
:1025A000B77001E040F26D10A1888842E4DD12E0CE
:1025B000208800F029F820B16088114931F8100016
:1025C00003E060880F4931F81000A188081AA08044
:1025D0006088401C6080208800F016F820B1608878
:1025E000074931F8100003E06088064931F810000F
:1025F000A1888842DCDDBDE8F09F00008051010029
:10260000422700002A27000001460A46C81701EBAE
:1026100090708010A1EB800070B9642091FBF0F302
:1026200000FB131030B94FF4C87091FBF0F300FBBE
:10263000131008B9012070470020FCE70024FF2593
:10264000314943F65050FEF7EDFB30490860304801
:10265000057040F286702E49A1F86C00881C8866CF
:1026600000202C49C860FEF78BFAFEF7B3FAFEF79C
:10267000A1FBFEF7FBFAFEF763FBFEF713FB41E05D
:10268000002406E02348015D2046FFF7BAFE601CE7
:10269000C4B2082CF6DB1F48C06808B1012000E076
:1026A0000020024680211C48FEF746FA1948C068FF
:1026B000D0B11848C06815490968B1FBF0F6324638
:1026C0004FF480711448FEF72EFA1248C0680F4983
:1026D0000968B1FBF0F00321B0FBF1F6324640F29D
:1026E00007110D48FEF730FA00212220FEF7FEF810
:1026F00005460DB10648057003210848FEF78EF81F
:1027000003494870BCE700000024F40000000020EA
:1027100030000020A00000200080024000D00340D4
:102720004FF04070E1EE100A70471F001C001F00C0
:102730001E001F001E001F001F001E001F001E00A5
:102740001F001F001D001F001E001F001E001F0095
:102750001F001E001F001E001F006D016E01000003
:102760000040004010000000008005401000000004
:1027700000500040110000000090054011000000D2
:10278000006000401200000000A0054012000000A0
:10279000007000401300000000B00540130000006E
:1027A000004002401400000000C00540140000007A
:1027B000005002402E00000000D005402E00000016
:1027C000006002402F00000000E005402F000000E4
:1027D000007002403000000000F0054030000000B2
:1027E00000D0034046000000000006404600000004
:1027F000001006404700000000200640480000008E
:10280000003006407F0000000040064080000000CD
:102810000050064084000000006006408C0000006C
:102820000040004010000000008005401000000043
:102830000050004011000000009005401100000011
:10284000006000401200000000A0054012000000DF
:10285000007000401300000000B0054013000000AD
:10286000004002401400000000C0054014000000B9
:10287000005002402E00000000D005402E00000055
:10288000006002402F00000000E005402F00000023
:10289000007002403000000000F0054030000000F1
:1028A00000D0034043000000000006404300000049
:1028B00000100640440000000020064045000000D3
:1028C000003006405800000000400640590000005B
:1028D000005006405C0000000060064064000000FC
:1028E000007006406C000000008006406D00000093
:1028F000009006407F00000000400040008005403E
:1029000000500040009005400060004000A00540DD
:102910000070004000B005400040024000C005408B
:102920000050024000D005400060024000E0054039
:102930000070024000F0054000D003400000064057
:10294000001006400010064000200640002006400F
:10295000003006400030064000400640004006407F
:1029600000500640005006400060064000600640EF
:10297000007006400070064000800640008006405F
:10298000009006400090064000070000000600008E
:102990000005000000040000000300000002000029
:1029A00000010000000000000000000018ED00E041
:1029B0001CED00E020ED00E000E400E004E400E0B5
:1029C00008E400E00CE400E010E400E014E400E0BF
:1029D00018E400E01CE400E020E400E024E400E06F
:1029E00028E400E02CE400E030E400E034E400E01F
:1029F00038E400E03CE400E040E400E044E400E0CF
:102A000048E400E04CE400E050E400E054E400E07E
:102A100058E400E05CE400E060E400E064E400E02E
:102A200068E400E06CE400E070E400E074E400E0DE
:102A300078E400E07CE400E080E400E084E400E08E
:102A400088E400E000E100E004E100E008E100E0EB
:102A50000CE100E010E100E080E100E084E100E052
:102A600088E100E08CE100E090E100E000E200E0BD
:102A700004E200E008E200E00CE200E010E200E026
:102A800080E200E084E200E088E200E08CE200E026
:102A900090E200E000688909001C4E0E40420F00E1
:102AA00000201C0080841E0000802500999E3600B6
:102AB0000040380000093D0000803E0000004B004F
:102AC000404B4C0000204E00808D5B0000C05D003C
:102AD0000080700000127A0000007D00809698004F
:102AE000001BB7000080BB00C0E8CE00647ADA00AB
:102AF0000024F4000000FA0080A81201002D31012A
:102B000000366E0140787D014000000000000000AA
:102B1000000100003E00080000000000000100006D
:102B2000A000000002000000000100003454010079
:102B300000000000000100002B70060000000000F3
:102B4000000100002800000000000000000100005B
:102B5000270001000000000000010000200000002C
:102B60000000000000010000500000000200000012
:102B7000000100001AAC000000000000000100008D
:102B800017940900000000000001000016980500DD
:102B90000000000000010000140000000000000020
:102BA0000001000013800800000000000001000088
:102BB000A00000000800000000010000100000005C
:102BC00000000000000100002800000002000000DA
:102BD00000010000400000000400000000010000AF
:102BE0006000000000000000000100005D000C001B
:102BF0000000000000010000500000000000000084
:102C0000000100004E000200000000000001000072
:102C100041AC010000000000000100003C00000089
:102C200000000000000100003A80090000000000E0
:102C30000001000030000000000000000001000062
:102C40002800000000000000000100002700010033
:102C500000000000000100002360060000000000EA
:102C600000010000216008000000000000010000D9
:102C70001E00000000000000000100001DC0040054
:102C800000000000000100005000000002000000F1
:102C9000000100001800000000000000000100001A
:102CA00014000000000000000001000060000000AF
:102CB00004000000000100000024F4003000300097
:102CC000005A62029100910000879303D200D20063
:102CD00000B4C4041301130100E1F50554015401CB
:102CE000000E270795019501082D00000000002027
:102CF000300000003C020000382D000030000020B1
:102D0000F002000058020000000000000000000077
:102D100080966CCA25000000000000000000000042
:102D200000000002000000000000000000000000A1
:082D3000000000000024F40083
:0400000500000201F4
:00000001FF
