:020000040000FA
:10000000A8050020F5020000FD020000FF0200002C
:1000100001030000030300000503000000000000CE
:1000200000000000000000000000000007030000C6
:1000300009030000000000000B030000E5170000AA
:100040000F0300001103000013030000150300005C
:1000500017030000A13600001B0300001D03000071
:100060001F030000210300002303000025030000FC
:1000700027030000290300002B0300002D030000CC
:100080002F0300003103000033030000350300009C
:1000900037030000390300003B0300003D0300006C
:1000A0003F0300004103000043030000450300003C
:1000B00047030000490300004B0300004D0300000C
:1000C0004F030000510300005303000055030000DC
:1000D00057030000590300005B0300005D030000AC
:1000E0005F0300006103000063030000650300007C
:1000F00067030000690300006B0300006D0300004C
:100100006F0300007103000073030000750300001B
:1001100077030000790300007B0300007D030000EB
:100120007F030000810300008303000085030000BB
:1001300087030000890300008B0300008D0300008B
:100140008F0300009103000093030000AD03000043
:100150000000000000000000AF030000B103000039
:10016000B3030000B503000000000000B703000067
:10017000B9030000BB030000BD030000BF03000083
:10018000C1030000C3030000C5030000C703000053
:10019000C9030000CB030000CD030000CF03000023
:1001A000D1030000D3030000D5030000D7030000F3
:1001B000D9030000DB030000DD030000DF030000C3
:1001C000E1030000E3030000E5030000E703000093
:1001D000E9030000EB030000ED030000EF03000063
:1001E000F1030000F3030000F5030000F703000033
:1001F000F9030000FB030000FD030000FF03000003
:1002000000F002F800F04FF80AA090E8000C8244D9
:100210008344AAF10107DA4501D100F044F8AFF2B6
:10022000090EBAE80F0013F0010F18BFFB1A43F0D4
:1002300001031847C4510000E4510000103A24BFE4
:1002400078C878C1FAD8520724BF30C830C144BF3B
:1002500004680C607047000000230024002500267D
:10026000103A28BF78C1FBD8520728BF30C148BF19
:100270000B60704703681B0A28BF41F08001F52915
:1002800000F05A81002070471FB503F095FE00F082
:1002900097FB04000020002103F078FE401C606002
:1002A0001FBD10B510BD00F065FB1146FFF7ECFF58
:1002B00003F0CCFC00F088FB03B4FFF7F2FF03BCB3
:1002C00000F0D0FB0138FDD170470000EFF3108043
:1002D00072B67047EFF310807047EFF3108062B68C
:1002E000704730BF704780F311887047EFF311807B
:1002F000704700004548804745480047FEE7FEE755
:10030000FEE7FEE7FEE7FEE7FEE7FEE7FEE7FEE7C5
:10031000FEE7FEE7FEE7FEE7FEE7FEE7FEE7FEE7B5
:10032000FEE7FEE7FEE7FEE7FEE7FEE7FEE7FEE7A5
:10033000FEE7FEE7FEE7FEE7FEE7FEE7FEE7FEE795
:10034000FEE7FEE7FEE7FEE7FEE7FEE7FEE7FEE785
:10035000FEE7FEE7FEE7FEE7FEE7FEE7FEE7FEE775
:10036000FEE7FEE7FEE7FEE7FEE7FEE7FEE7FEE765
:10037000FEE7FEE7FEE7FEE7FEE7FEE7FEE7FEE755
:10038000FEE7FEE7FEE7FEE7FEE7FEE7FEE7FEE745
:10039000FEE7FEE7FEE7FEE7FEE7FEE7FEE7FEE735
:1003A000FEE7FEE7FEE7FEE7FEE7FEE7FEE7FEE725
:1003B000FEE7FEE7FEE7FEE7FEE7FEE7FEE7FEE715
:1003C000FEE7FEE7FEE7FEE7FEE7FEE7FEE7FEE705
:1003D000FEE7FEE7FEE7FEE7FEE7FEE7FEE7FEE7F5
:1003E000FEE7FEE7FEE7FEE7FEE7FEE7FEE7FEE7E5
:1003F000FEE7FEE7FEE7FEE7FEE7FEE7FEE7FEE7D5
:1004000004480549034A054B704700008136000047
:1004100001020000A8030020A8050020A803002076
:1004200053EA020C00F069802DE9F04B4FF0000612
:10043000002B1FBFB3FA83F503FA05F424FA05F67F
:100440005E4012BF1643B2FA82F502FA05F4C5F116
:1004500020051EBF22FA05FC44EA0C04203556EAAA
:10046000044C4FEA144418BF641C4FF000084FF0CE
:100470000009904271EB030C39D3002919BFB1FA7E
:1004800081F701FA07F6B0FA80F700FA07F6C7F12C
:1004900020071EBF20FA07FC46EA0C062037B6FBF1
:1004A000F4FCA7EB0507103F07F01F0BCBF120066C
:1004B0000CFA0BFB2CFA06F644BFB3460026202F9D
:1004C000A4BF5E464FF0000B5BEA060C08BF4FF07E
:1004D000010B19EB0B09ABFB027C48EB0608C01BB8
:1004E00006FB02CC0BFB03CC71EB0C01C1E70B4606
:1004F000024641464846BDE8F08B13B54FF0000078
:100500004FF00001AFF30080BDE81C4070470000D1
:100510000FB41CB5074B06AA7B44694600900598AA
:1005200000F007FA0020694600F016FA1CBC5DF8DE
:1005300014FB00003D0400002DE9F0418046D21D6F
:1005400022F007020025D2E90002F52915A614D0F1
:10055000011E72F1000106DA0023D0EB030063EB09
:10056000020211A608E0D8F800108B0701D50FA6EB
:1005700002E0490701D50EA601251146002408F125
:10058000240704E000F024F930323A55641C50EAA4
:100590000102F7D12B46324621464046BDE8F041E4
:1005A00000F068B9000000002D0000002B000000E2
:1005B000200000002DE9F0410F460546002028628A
:1005C0002846E968884770B3252805D0D5E9012178
:1005D0009047286A401CF2E7E968284600268847C9
:1005E0006C2804460AD0682C08D04C2C35D06A2CD4
:1005F00031D0742C31D07A2C2FD016E0E968064621
:1006000028468847B042044608D16C2E23D04FF4C8
:1006100080662846E9688847044606E06C2E03D0C9
:100620004FF4807601E01EE04026E4B1A4F14100E1
:10063000192802D8203446F400663A462146284656
:100640002E60FFF717FE60B1012808D0FF1D27F0CC
:1006500007070837B4E78026DBE70026D9E73F1D08
:10066000AEE72046B2E7286ABDE8F081401ECAB274
:1006700010F8011F8A4202D00029F9D100207047EA
:1006800010B504780CB10A4603E0002010BDA34267
:10069000FCD012F8013B002BF9D1401CF1E72DE909
:1006A000F041054690460E460020044600E0641CDA
:1006B00044450BD2285D00F0D0F80746305D00F0CD
:1006C000CCF8381A02D1295D0029F0D1BDE8F081BB
:1006D00040EA010370B59B072ED14FF00136042A82
:1006E0002AD308C810C99D1B9D43121F15EAC615C1
:1006F00017D0D8B2E1B2401A50EA056110D198B2D1
:10070000A1B2401A50EA05410AD123F07F4024F0FB
:100710007F41401A50EA052102D1180EA0EB146067
:1007200070BDA342DBD018BA21BA884201D901209A
:1007300070BD4FF0FF3070BD0AB9002070BD10F8D9
:10074000013B11F8014B63B1A3420AD1521E08D0FC
:1007500010F8013B11F8014B1BB1A34201D1521E0D
:10076000EDD1181B70BD10B5203AC0F00B80B1E878
:100770001850203AA0E81850B1E81850A0E81850D6
:10078000BFF4F5AF5FEA027C24BFB1E81850A0E8DF
:10079000185044BF18C918C0BDE810405FEA827CF9
:1007A00024BF51F8043B40F8043B08BF7047D20710
:1007B00028BF31F8023B48BF11F8012B28BF20F8B1
:1007C000023B48BF00F8012B7047704770477047E5
:1007D00030B5B0F10A024FEA900E71F100034EEA13
:1007E000817EB0EB0E0061EB91014FEA101E4EEAE4
:1007F000017E10EB0E0041EB11114FEA102E4EEA74
:10080000016E10EB0E0041EB11214FEA104E4EEA43
:10081000014E10EB0E0041EB1141401841F1000177
:100820004FEAD00040EA41704FEAD10110EB800559
:100830004FEA810444EA907444EB01046D1944EBDF
:100840000404521BA3414FF0000348BF0A3200D5F5
:1008500030BD401C41F1000130BD10B5044600F030
:1008600081F80068005DC00602D504F1200010BDCB
:10087000204610BD2DE9F0470D46994692460446A4
:1008800000F124080168880604D5E06921F0100110
:10089000216000E00120A84201DD471B00E00027A5
:1008A000A1697A1902EB0900081AA0612078C00634
:1008B00002D42046AFF30080002608E0D4E90121ED
:1008C0001AF806009047206A401C761C20624E45AC
:1008D000F4DB2078C0060AD52046AFF3008006E09E
:1008E000D4E9012130209047206A401C2062381E44
:1008F000A7F10107F4DC07E0D4E9012118F80500AD
:100900009047206A401C2062281EA5F10105F3DCF7
:100910002046AFF300802078000602D50220BDE813
:10092000F0870120FBE7000001694A1C026108789A
:10093000704700B58FB0CDE901310021059105491F
:100940007944CDE9031011466846FFF733FE0FB036
:1009500000BD0000E5FFFFFF0A6802F8010B0A6016
:100960007047000010B500F02BF8001D10BD00BF4F
:100970001D360000754600F031F8AE4605006946A8
:10098000534620F00700854618B020B5FFF738FD24
:10099000BDE820404FF000064FF000074FF0000880
:1009A0004FF0000B21F00701AC46ACE8C009ACE801
:1009B000C009ACE8C009ACE8C0098D46704700002A
:1009C000004870476803002010B50446AFF300806C
:1009D0002046BDE81040FFF76FBC0000004870479C
:1009E000480300204FF0013C50F8042B51F8043B21
:1009F0009A4221D1A2EB0C03934313EACC1317D1F3
:100A000050F8042B51F8043B9A4215D1A2EB0C0389
:100A1000934313EACC130BD150F8042B51F8043B49
:100A20009A4209D1A2EB0C03934313EACC13DBD017
:100A30004FF00000704700BFD01A01BAB1FA81F13F
:100A400001F0180122FA01F0CB40C1F12001DBB224
:100A5000C0B2C01A2CFA01F3D11A914311EAC311A2
:100A6000E6D1704701491820ABBEFEE72600020020
:100A70007047002100E0491C8142FCD37047000010
:100A800010B50220FFF71EFC0C4CA06910F0010FFE
:100A9000FBD1E06910F00C0F0ED1094800F068FEA0
:100AA0000220FFF70FFCA06910F0010FFBD1E069F5
:100AB00010F00C0008BF10BD022010BD00F00A406D
:100AC000005800F02DE9F05FDFF848810646D8F8BD
:100AD000180010F0010FFAD18809C8F80400C1F31A
:100AE0008300C8F80800DFF83091DFF830A19508DE
:100AF0004FF0000B67D0C809012101FA00F0C7438D
:100B0000DAF8001046480140A1F18050B0F5A0206D
:100B100002BFDAF8000080B2002813D10A20FFF7E4
:100B2000D1FB0320C9F8FC000A20FFF7CBFB3D48AE
:100B3000C0F8C0720A20FFF7C5FBC9F8FCB00A2054
:100B4000FFF7C0FB3068C8F814000A20FFF7BAFBB3
:100B5000D8F8184014F0010FFAD114F0100F24D077
:100B6000DAF800102E480140A1F18050B0F5A02025
:100B700002BFDAF8000080B2002813D10A20FFF784
:100B8000A1FB0320C9F8FC000A20FFF79BFB2548C6
:100B9000C0F8C0B20A20FFF795FBC9F8FCB00A20E4
:100BA000FFF790FB2046BDE8F09F6D1E06F104069E
:100BB00009D0D8F808000028A2D1D8F80400401CB9
:100BC000C8F804009CE7DAF8001015480140A1F1CC
:100BD0008050B0F5A02002BFDAF8000080B20028F3
:100BE00013D10A20FFF76EFB0320C9F8FC000A208E
:100BF000FFF768FB0B48C0F8C0B20A20FFF762FBA2
:100C0000C9F8FCB00A20FFF75DFBD8F81800BDE872
:100C1000F09F000000F00A4000D00F4000E00F40BD
:100C20000000FF7000E00A400B4B4FEA911CC3F834
:100C300004C0C1F383019960910808BF70475A69E5
:100C400040F8042B491E08BF70479A68002AF6D165
:100C50005A68521C5A60F2E700F00A40D0F800349B
:100C600012F0010F14BF0B438B43C0F8003412F095
:100C7000020FD0F8202414BF114322EA0101C0F86A
:100C8000201470472DE9F00301264FF0000C0325D6
:100C9000C2F3411706FA0CF40C4211D0D0F8C48FFD
:100CA0004FEA4C0405FA04F928EA0908C0F8C48F91
:100CB000D0F8C48F07FA04F448EA0404C0F8C44F1B
:100CC0000CF1010C0CF0FF0CBCF1080FE2D3D0F8D2
:100CD00000C512F0010F14BF4CEA010C2CEA010C04
:100CE000C0F800C5D0F804C512F0020F14BF4CEADA
:100CF000010C2CEA010CC0F804C5D0F808C512F0AC
:100D0000040F14BF4CEA010C2CEA010CC0F808C512
:100D1000D0F818C512F0080F14BF4CEA010C2CEAE9
:100D2000010CC0F818C512F0100FD0F83C2514BF04
:100D30000A438A43C0F83C25D0F80C2513F0010F74
:100D400014BF0A438A43C0F80C25D0F8102513F0CD
:100D5000020F14BF0A438A43C0F81025D0F81425A7
:100D600013F0040F14BF0A438A43C0F81425D0F8C7
:100D70001C2513F0080F14BF0A438A43C0F81C2532
:100D8000D0F8442513F4007F14BF0A438A43C0F807
:100D90004425D0F8402513F4407F14BF0A438A430A
:100DA000C0F84025D0F82825002B0CBF114322EABB
:100DB0000101C0F82815BDE8F00370470E4AC0F3E2
:100DC0000741D26E01238B401A420C4A1ABF02EB34
:100DD000C101496852F83110020AD1F82C354FF0A0
:100DE0000F0C0CFA02FC00F00F0023EA0C039040F9
:100DF0001843C1F82C05704700E00F400850000070
:100E000050F82100704730B50C4605460022FFF728
:100E100025FF21462846BDE8304008230122FFF780
:100E200031BF30B50C46054608230122FFF72AFFE3
:100E300021462846BDE830400122FFF70FBF30B5FC
:100E40000C4605460222FFF709FF21462846BDE869
:100E5000304009230122FFF715BF30B50C46054687
:100E60000222FFF7FBFE21462846BDE8304008235A
:100E70000122FFF707BF30B50C4605460222FFF7F7
:100E8000EDFE21462846BDE8304008230122FFF749
:100E9000F9BE30B50C4605460222FFF7DFFE2146BB
:100EA0002846BDE830400A230122FFF7EBBE30B5EB
:100EB0000C4605460222FFF7D1FE21462846BDE832
:100EC000304008230122FFF7DDBE40F821207047A3
:100ED0002DE9F04104460E4600BF1C4800F078F8AA
:100EE0000028FAD100222146184800F0B9F831460E
:100EF000164800F077F80721144800F06FF800BF9B
:100F0000124800F05FF80028FAD1104800F071F89C
:100F1000C7B20120FFF7ADFD012221460B4800F0CA
:100F20009FF80721094800F059F800BF074800F072
:100F300049F80028FAD1054800F052F8C5B201205E
:100F4000FFF797FD2846BDE8F08100000000024051
:100F50002DE9F04104460F46154600BF184800F041
:100F600037F80028FAD100222146154800F078F819
:100F70003946134800F036F80321114800F02EF8E6
:100F800000BF0F4800F024F80028FAD10C4800F008
:100F900030F8C6B229460A4800F024F8052108486E
:100FA00000F01CF800BF064800F012F80028FAD143
:100FB000034800F01EF8C6B23046BDE8F0810000DC
:100FC00000000240406810F0400018BF0120704748
:100FD000406810F0010018BF012070474160704761
:100FE0008068704781607047016A41F010010162BA
:100FF0007047406810F0010F05D110F0120F1CBFB0
:1010000000F01C007047002070470000036A43F0A6
:1010100010030362002A14BF0E4A0F4A02EB820338
:1010200001EB830302EB820292005B1EB3FBF2F240
:10103000521EC260D0F8C02F12F0010F08BF7047D7
:10104000064A1144521CB1FBF2F1491E41F08001E5
:10105000C1607047801A0600A08601007F473701F3
:1010600042EA4101016070471649042804BF08683C
:1010700040F4803018D0052804BF086840F40030E0
:1010800012D0062812D00F2815D0102838BF70476C
:10109000103800F01F01012202FA01F142090A484A
:1010A00050F822000160704708607047086840F4FB
:1010B0008020086070474FF0E020016941F0020194
:1010C0000161704724ED00E05451000010B5FFF7B6
:1010D00004F9002818BF012010BD084401686FF30F
:1010E00052011143016012F0020F14BFB0218C2194
:1010F000016214BF4FF4306140F60C014162704749
:10110000425842F00102425070470844016811F011
:10111000020F14BF5108511E01617047002A8268F6
:1011200014BF114322EA01018160704721F03F039F
:101130001844036813F0020F18BF520803699A1A83
:1011400011F0010F14BFC26182617047036823F080
:101150001E0319430160C2607047406810F0020F1F
:1011600014BF4FF0FF3001207047016841F00101CA
:10117000016070478068704710B5114800F0CEFAE2
:1011800000BF0F4800F0DEFA0028FAD00C48C01C5F
:1011900000F0C4FA00BF0A48C01C00F0D3FA0028CF
:1011A000F9D00F210748FFF73CFE03210648FFF75F
:1011B0002AFE0A23012203210348FFF763FD10BD25
:1011C000050800F00050024000D0034010B51E4852
:1011D00000F0A4FA1D4800F0A1FA1D48FFF7EEFD4B
:1011E0001C48FFF7EBFD04211B48FFF736FE0821E2
:1011F0001948FFF724FE0122184801681848FFF734
:1012000005FF1748FFF7F0FEFF220C212220FFF711
:101210009FFE044600220D212220FFF799FE04467E
:1012200000220E212220FFF793FE04460022032114
:101230001820FFF78DFE0446FF2201211820FFF73A
:1012400087FE044610BD0000002000F0010800F0F9
:1012500002080100020C01000050004000000020C4
:101260000000024010B50B4800684FF47A71B0FBE3
:10127000F1F4204600F0B0FA00F0A0FA00F0A5FA70
:101280005021054802F07EFA1520FFF7EDFEFFF72A
:101290001DFF10BD0000002000C0004010B5002060
:1012A00000F032FA1E4800F039FA00BF1C4800F086
:1012B00049FA0028FAD01B4800F030FA00BF19485C
:1012C00000F040FA0028FAD01748FFF777FD2021F8
:1012D0001648FFF7D0FD00224FF480711448FFF745
:1012E000FCFE144800684FF47A61B0FBF1F422462A
:1012F0004FF480710E48FFF708FF0E48006842F671
:10130000E061B0FBF1F4224640F207110848FFF714
:101310000DFF4FF480710648FFF7F2FE10BD00008C
:10132000004000F0090800F0061409000010064013
:10133000008002400000002010B5164800F0EEF9D1
:10134000154800F0EBF900BF134800F0FBF9002846
:10135000FAD01248FFF732FD1148FFF72FFD0821A0
:101360001048FFF75EFD002208210E48FFF7ADFD93
:1013700002210C48FFF78DFD04210A48FFF789FD83
:10138000642208210848FFF7E1FE0748FFF7EDFE59
:1013900010BD00000A0800F0004400F006040A0036
:1013A00006080A000020064000C0024010B512489E
:1013B00000F0B4F9114800F0B1F900BF0F4800F097
:1013C000C1F90028FAD00120FFF7F8FC40F20140F3
:1013D000FFF7F4FC03214FF04020FFF768FD602386
:1013E0004FF4E13206480168064802F092F906A07F
:1013F00002F0D2F910BD0000001800F0000800F063
:101400000000002000C000400D0A48656C6C6F2C85
:1014100020776F726C64210D0A0000002DE9F00343
:10142000AF4D02462868AF4B1840A0F18053B3F58A
:10143000A02359D002F03809DFF8AC82C2F384143B
:10144000B9F1100F25D0B9F1300F04BF47F2305079
:101450004FF400130DD04FF03800904304BF4FF409
:101460000040C30105D012F0380F1CBF0020034616
:1014700013D09E4F12F4605F4FF0000618BF002299
:101480002CD057F8324044457DD307EBC202526856
:10149000E1E0002340461524EBE7A4F109001228FF
:1014A00022D29348D5F87CC04FF04C7350F82400FA
:1014B0002CF01C0C072CA8BF4CF0100CC5F87CC0FD
:1014C0002E6D4FF4002C16F4807FD2D1BCF1010CAC
:1014D0000AD02E6D16F4807FF8D0CAE712F0380FCC
:1014E00018BFB9F1100F04D0BDE8F0034FF00000B1
:1014F0007047C2F30268DFF8FCC14FF0000257F8F2
:101500003290E14503D307EBC202526803E0521C5C
:10151000062AF4D33246C5F8C020D5F8B020DFF84B
:10152000D8C102EA0C0242F00042C5F8B020DFF850
:10153000CCC1A4F109024C1E5CF828C0A444BCFB39
:10154000F1FCD5F8B0101943C5F8B01008EBC8018C
:1015500001EB41046A4902EB420201EBC40101EBD9
:1015600082046468C5F86441D5F864416FF0FF08EF
:1015700008EB0C2C44EA0C0CC5F864C151F822109D
:10158000D5F8602100E061E002F400021143C5F8E3
:101590006011D5F86011D5F86021C1F38921C2F33B
:1015A0000904D5F86421C2F3042202F1010CD5F834
:1015B000642102F01F02521CB0FBF2F04A09C2F192
:1015C00000084443424301EB481104EB52124843E4
:1015D00002EB9020B0FBFCF041080846002257F8CF
:1015E00032C0844503D307EBC200466802E0521CB8
:1015F000062AF4D3C5F8C060D5F8600110F4000FD6
:101600001DBFD5F8B00040F08040C5F8B000D5F857
:10161000600104BF40F40000C5F860014FF40040D1
:10162000D5F8682112F0010F02D1401E0028F7DC26
:10163000002808BF002148D0D5F8B000184340F07A
:10164000010040F01040C5F8B0003EE0521C062AF0
:10165000FFF417AF3246C5F8C020D5F8602122F458
:101660000002C5F86021D5F8B020DFF898C002EA82
:101670000C0242F00042C5F8B020002908BF4FF02C
:10168000000C0AD0B0FBF1FCBCF1000F18BFACF1AC
:10169000010C0CF10101B0FBF1F10846002257F8F2
:1016A0003240844203D307EBC200466802E0521C7A
:1016B000062AF4D3C5F8C060D5F8B00043EA8C22FE
:1016C000104340F00040C5F8B000D5F8B00020F459
:1016D0007000C5F8B000BDE8F00308467047000090
:1016E00000E00F400000FF700024F400C853000029
:1016F000AC51000040787D0100FC0FE0A4510000D7
:1017000018520000FF0300EF03490A6E22F4F012A2
:10171000104308667047000000E00F40C0F3072345
:101720000749C0B2194401F07043C1F3130143EA01
:10173000411141EA800040F00070012202607047D0
:1017400000E60F40C0F307220849C0B2114401F07F
:101750007042C1F3130142EA411141EA800040F0B6
:1017600000700068002818BF0120704700EA0F4091
:10177000C0F307230C49C0B2194401F07043C1F310
:10178000130143EA411141EA800040F0007181B049
:1017900001220A60002200920098401C009010284C
:1017A000FAD30A6001B0704700E50F4002490148D2
:1017B0000860FEE70400FA050CED00E04FF0E020C1
:1017C000016941F00501016170474FF0E0200169B6
:1017D00041F00201016170474FF0E021401E486175
:1017E0007047000010B5C2B000204090F948416831
:1017F0003F9101683E9100213D913C913891399192
:10180000379133913491359136912F9130913191B7
:1018100032912E912D912C91EF482B90EF48D0E9E9
:101820000010491C40F10000EC4AC2E90010EA48EF
:10183000801EB0F86C00642809DAE748801EB0F812
:101840006C00401CE449891EA1F86C0010E0E248DD
:10185000801EB0F86C0064280AD140F28670DE4920
:10186000891EA1F86C0001212C91DB48811E88663D
:1018700014220023D94903C9FEF7D2FD00214A40B2
:101880004B401A437DD1002040904CE0D248801E4E
:101890000078C0434099084100F0010138AA4098FF
:1018A000115438A94098085C28B1CD494098085C8B
:1018B00008B9012100E0002133AA409822F8101055
:1018C00038A94098085C48B1C5494098085C28B1DF
:1018D000C449409831F81000401C00E0002081B25B
:1018E000C04A409822F810101146409831F8100074
:1018F00000280ADD409831F81000322190FBF1F207
:1019000001FB120008B9012100E000212FAA409834
:1019100022F8101038A94098095CB14A1154409837
:10192000401CC1B2409140980828AFDB0021409193
:101930004DE0A948801E4078C0434099084100F01E
:10194000010137AA4098115437A94098085C28B182
:10195000A5494098085C08B9012100E000212EAAA1
:10196000409822F8101037A94098085C50B19E4961
:101970004098085C30B19D49409831F81000401CF7
:1019800001E027E0002081B2984A409822F8101028
:101990001146409831F8100000280ADD409831F8CF
:1019A0001000322190FBF1F201FB120008B9012175
:1019B00000E000212DAA409822F8101037A9409885
:1019C000095C894A11544098401CC1B2409140982A
:1019D0000228AEDB64220023804903C9FEF720FD04
:1019E00000214A404B401A434AD17B48801E90F860
:1019F0006F007F4991F9001088420DDA7648801E09
:101A000090F86F007A4991F90010081A022801DB5A
:101A100001200EE000200CE06F48801E90F86F005F
:101A2000734991F90010401A022801DB012000E0FF
:101A3000002010B36848801E90F86F0040B26C49D7
:101A400008706548801E90F86E006A490870624808
:101A5000801E90F86E00012804D101213D910021E3
:101A60003C910DE05C48801E90F96E00401C38B936
:101A700000213D9101213C9102E000213D913C91EA
:101A8000BDF8B40078B1BDF8B60060B1042211020F
:101A90003EA8FFF717F8042240F204413FA8FFF7E1
:101AA00011F8FFF783FE54484078F0B90A2200236A
:101AB0004A4903C9FEF7B4FC00214A404B401A438F
:101AC00013D14448D0E90020521C40F100004149A4
:101AD000C1E90020494801F06DFE4848808920B9DD
:101AE0000120474948740A2088744348C078012877
:101AF00021D10A220023394903C9FEF791FC0021B4
:101B00004A404B401A4316D13E48D0E9001051409C
:101B10005040014303D103203749C8700BE03948D6
:101B2000D0E90010491E60F10000364AC2E90010F9
:101B3000354802F045F9002140912BE04098C0EB78
:101B4000C000324901EB4000C0882C49C988884256
:101B50001CD14098C0EBC0002C4901EB400000892B
:101B600026490989884211D14098C0EBC000274915
:101B700001EB4000408921494989884206D11E482D
:101B80000078052802D002201B4908714098401CAB
:101B9000C1B2409140980228D0DB17480079022852
:101BA00005D1BDF8DA0010B10020134908711348BF
:101BB000008817490988884249D01048008814498C
:101BC000088008460188134802F08CF900214091F2
:101BD0003AE00000100000204A0000200800002029
:101BE00036000020280300203E000020380300209B
:101BF00029000020280000202A000020CC0000201E
:101C0000B800002018000020DA000020E8000020C2
:101C100020000020180100200820F649009040987C
:101C200001EBC00103C9CDE928014098C0EBC00019
:101C3000F14901EB40002790DDE9282301F0A6FEE1
:101C40004098401CC1B2409140981828E4DBBDF890
:101C5000B80048B1E9480078001D052190FBF1F279
:101C600001FB1200E5490870BDF8BA0048B1E3482D
:101C70000078401C052190FBF1F201FB1200DF49C6
:101C80000870BDF8B40048B1DD48007C001D052196
:101C900090FBF1F201FB1200D9490874BDF8B600BF
:101CA00048B1D748007C401C052190FBF1F201FBB4
:101CB0001200D3490874D3480088002845DD02206B
:101CC00001F0E4FD8DF8E800012001F0DFFD8DF862
:101CD000E900092001F0DAFD8DF8EA00012001F0A9
:101CE000D5FD8DF8EB00002001F0D0FD8DF8EC0063
:101CF000022001F0CBFD8DF8ED00072001F0C6FDBC
:101D00008DF8EE00092001F0C1FD8DF8EF00FF20F5
:101D10000090BD480CC83AA802F0C3F8C8220023BE
:101D2000B94903C9FEF77CFB00214A404B401A43E6
:101D300004D1B348007AC043B1490872B148008861
:101D4000401EB049088001F0B5B80020AC490872C7
:101D5000409007E020213AAA409811544098401C36
:101D6000C1B2409140980828F4DBA44800780628C6
:101D700081F09E80DFE810F084018F0306002404C8
:101D8000E405550804209E490872BDF8D60030B11C
:101D900001209A49487005209C49087005E0BDF86B
:101DA000DA0010B10020954948709948C0880A218E
:101DB00090FBF1F0C0B22A9001F068FD8DF8E800C8
:101DC0009348C0880A2190FBF1F201FB1200C1B2D6
:101DD00008462A9101F05AFD8DF8E9008C480089E7
:101DE0000A2190FBF1F0C1B208462A9101F04EFDA4
:101DF0008DF8EA00864800890A2190FBF1F201FB88
:101E00001200C1B208462A9101F040FD8DF8EB00A6
:101E10007F4840890A2190FBF1F0C1B208462A911F
:101E200001F034FD8DF8EC00794840890A2190FBDF
:101E3000F1F201FB1200C1B208462A9101F026FD21
:101E40008DF8ED0072488089642190FBF1F201FB6E
:101E500012000A2190FBF1F0C1B208462A9101F06C
:101E600015FD8DF8EE006A4880890A2190FBF1F299
:101E700001FB1200C1B208462A9101F007FD8DF85E
:101E8000EF005E48407801287ED1BDF8CC0048B113
:101E90005E480078401D062190FBF1F201FB120024
:101EA0005A490870BDF8D00048B158480078401C25
:101EB000062190FBF1F201FB120054490870BDF8B5
:101EC000D80008B93D98B0B350480078062849D2E8
:101ED000DFE800F0030E1925323E4E48D0E900201D
:101EE0004D4BD21840F100004A49C1E900203AE0C8
:101EF0004848D0E90020494BD21840F1000045493C
:101F0000C1E900202FE04348D0E900204EF66023CD
:101F1000D21840F100003F49C1E9002023E03D48CC
:101F2000D0E9001041F27073C91840F10000394A3D
:101F3000C2E9001017E01EE03648D0E900204FF457
:101F40007A73D21840F100003249C1E900200AE05A
:101F50003048D0E90020643240F100002D49C1E949
:101F6000002000E000BF00BF0820009029480CC8F6
:101F7000274801F00BFDBDF8CE0008B93C98C0B36E
:101F800022480078062800E079E05FD2DFE800F020
:101F9000030E192548541F48D0E900201E4BD21AC1
:101FA00060F100001B49C1E9002050E01948D0E968
:101FB00000201A4BD21A60F100001649C1E9002036
:101FC00045E01448D0E900104EF66023C91A60F1CC
:101FD0000000104AC2E9001039E00E48D0E90020A4
:101FE00041F27073D21A60F100000A49C1E9002081
:101FF0002DE034E018010020D80100202A00002044
:10200000B80000202200002008000020310000203D
:10201000CC0000201000002080EE3600407E05003D
:10202000F848D0E900304FF47A71591A60F1000095
:10203000F44AC2E900100AE0F248D0E90020643A0C
:1020400060F10000EF49C1E9002000E000BF00BFDF
:1020500008200090EB480CC8EB4801F097FCC82220
:102060000023EA4903C9FEF7DBF96421511A73F131
:10207000000304D220203AA9E54A127888549EE24F
:102080000120E4490872BDF8D60030B10120E249D0
:1020900088700720E149087005E0BDF8DA0010B14A
:1020A0000020DD498870D848008842F2107190FB0A
:1020B000F1F201FB12004FF47A7190FBF1F0C0B223
:1020C0002A9001F0E3FB8DF8E800CF4800884FF438
:1020D0007A7190FBF1F201FB1200642190FBF1F0A8
:1020E000C1B208462A9101F0D1FB8DF8E900C6483B
:1020F0000088642190FBF1F201FB12000A2190FBA1
:10210000F1F0C1B208462A9101F0C0FB8DF8EA0057
:10211000BD4800880A2190FBF1F201FB1200C1B218
:1021200008462A9101F0B2FB8DF8EB00B6484088D2
:10213000401C642190FBF1F201FB12000A2190FB8C
:10214000F1F0C1B208462A9101F0A0FB8DF8EC0035
:10215000AD484088401C0A2190FBF1F201FB1200BF
:10216000C1B208462A9101F091FB8DF8ED00A64816
:102170008088401C642190FBF1F201FB12000A21CF
:1021800090FBF1F0C1B208462A9101F07FFB8DF877
:10219000EE009D488088401C0A2190FBF1F201FB73
:1021A0001200C1B208462A9101F070FB8DF8EF00D1
:1021B0009948807801287AD1BDF8CC00E8B100BFF9
:1021C00096480078C01DC1172A9000EB5170C110CD
:1021D0002A98A0EBC100C1B2904801700078032892
:1021E0000BD08E480078052807D08C480078062848
:1021F00003D08A4800780728E2D1BDF8D000E8B1C2
:1022000000BF86480078401CC1172A9000EB51702F
:10221000C1102A98A0EBC1008049087008460078D8
:1022200003280BD008460078052807D00846007818
:10223000062803D0084600780728E2D1BDF8D80068
:1022400008B93D98A0B375480078082868D2DFE83F
:1022500000F0040506073031515C62E061E060E0A7
:1022600069484088022805DC674800882A9001F008
:10227000D3FC58B96448408802280ADD62480088C7
:10228000401C80B22A9001F0C7FC10B14FF4B77027
:1022900001E040F26D106249484364214843594BC4
:1022A0000CCB801843F10001564A03C239E0F1E03B
:1022B0003FE036E0544800882A9001F0ADFC28B198
:1022C00051484088574931F8100004E04E48408892
:1022D000554931F81000524948436421484349495F
:1022E000D1E900320146C91842EBE070454AC2E923
:1022F000001016E04348D0E900304C4A9A1840F1EB
:1023000000004049C1E900200BE03E48D0E9003020
:10231000474A9A1840F100003A49C1E9002000E01C
:1023200000BF00BF0820009036480CC8364801F0B6
:102330002DFBBDF8CE0008B93C98A8B3374800780B
:10234000082877D2DFE800F00405060731327782EB
:1023500088E087E086E02C484088022805DC2A488F
:1023600000882A9001F058FC58B927484088022874
:102370000ADD25480088401C80B22A9001F04CFC00
:1023800010B14FF4B77001E040F26D10244948439A
:10239000642141431B48D0E90020511A60F100003C
:1023A000184AC2E900105DE064E05BE0164800886E
:1023B0002A9001F031FC58B1134840880B300C21B1
:1023C00090FBF1F201FB1200164931F810000AE00F
:1023D0000D4840880B300C2190FBF1F201FB1200FC
:1023E000114931F810000E49484364214143CB178D
:1023F0000448D0E90020511A60EB0300014AC2E909
:1024000000102FE010000020CC0000200800002069
:1024100031000020B80000202A00002032000020F7
:1024200080510100E03F0000C83F0000005C26052D
:1024300000D6830015E0FE48D0E90020FD4BD21AFB
:1024400060F10000FA49C1E900200BE0F848D0E94A
:102450000020F94BD21A60F10000F549C1E90020D3
:1024600000E000BF00BF08200090F1480CC8F3480E
:1024700001F08CFAC8220023F14903C9FDF7D0FF0F
:102480006421511A73F1000304D220203AA9ED4AC5
:1024900012788854F3E50220EB490872E748008877
:1024A00042F2107190FBF1F201FB12004FF47A71CD
:1024B00090FBF1F0C0B22A9001F0E8F98DF8E80045
:1024C000DE4800884FF47A7190FBF1F201FB1200B4
:1024D000642190FBF1F0C1B208462A9101F0D6F9CF
:1024E0008DF8E900D5480088642190FBF1F201FBEA
:1024F00012000A2190FBF1F0C1B208462A9101F0C6
:10250000C5F98DF8EA00CD4800880A2190FBF1F268
:1025100001FB1200C1B208462A9101F0B7F98DF80B
:10252000EB000021409146E04098C0EBC000C74955
:1025300001EB40004088C1494988884237D1409822
:10254000C0EBC000C14901EB40008088BB498988CD
:1025500088422CD153218DF8EC1050218DF8ED10CC
:1025600040981630182190FBF1F201FB1200401C3C
:102570000A2190FBF1F0C1B208462A9101F086F9D8
:102580008DF8EE0040981630182190FBF1F201FB17
:102590001200401C0A2190FBF1F201FB1200C1B2B3
:1025A00008462A9101F072F98DF8EF0006E0409894
:1025B000401CC1B2409140981828B5DB00BFEEE343
:1025C0000820A1490872BDF8D60048B1A048C078DB
:1025D000042801D1022000E004209D49C8700BE0CE
:1025E000BDF8DA0040B19A48C078022801D1012034
:1025F00000E002209649C8709648C0880A2190FBE6
:10260000F1F0C0B22A9001F041F98DF8E80091484C
:10261000C0880A2190FBF1F201FB1200C1B208460A
:102620002A9101F033F98DF8E9008A4800890A21DE
:1026300090FBF1F0C1B208462A9101F027F98DF81C
:10264000EA00844800890A2190FBF1F201FB1200A4
:10265000C1B208462A9101F019F98DF8EB007D48C6
:1026600040890A2190FBF1F0C1B208462A9101F09D
:102670000DF98DF8EC00774840890A2190FBF1F2C2
:1026800001FB1200C1B208462A9101F0FFF88DF853
:10269000ED0070488089642190FBF1F201FB12008B
:1026A0000A2190FBF1F0C1B208462A9101F0EEF840
:1026B0008DF8EE00674880890A2190FBF1F201FB5A
:1026C0001200C1B208462A9101F0E0F88DF8EF003F
:1026D0005F48C078032818D1C8220023584903C98D
:1026E000FDF79EFE6421511A73F100030DD2002004
:1026F000409007E020213AAA409811544098401C8D
:10270000C1B2409140980828F4DB5148C0780428B1
:102710007ED1BDF8CC0048B14F480078401D06215D
:1027200090FBF1F201FB12004B490870BDF8D0009C
:1027300048B149480078401C062190FBF1F201FBAA
:10274000120045490870BDF8D80008B93D98B0B3EB
:1027500041480078062849D2DFE800F0030E192529
:10276000323E3E48D0E900303D4A9A1840F1000020
:102770003A49C1E900203AE03848D0E90020394B15
:10278000D21840F100003549C1E900202FE033485C
:10279000D0E900304EF660229A1840F100002F492F
:1027A000C1E9002023E02D48D0E9002041F27073F8
:1027B000D21840F100002949C1E9002017E026E0C5
:1027C0002648D0E900204FF47A73D21840F1000077
:1027D0002249C1E900200AE02048D0E90020643203
:1027E00040F100001D49C1E9002000E000BF00BF2A
:1027F000114A0023194903C9FDF712FE17480CC0FE
:102800000020009015480CC8124801F0BFF800E005
:1028100095E0BDF8CE0008B93C9840B10F48D0E92A
:102820000020054BD21840F100000C491CE07BE071
:1028300010000020005C260500D68300CC0000209C
:102840000800002032000020B8000020D80100203D
:102850002A000020DA0000203300002018000020A9
:1028600080EE3600407E0500C1E90020FE48007879
:10287000062848D2DFE800F0030E1925313DFB4859
:10288000D0E90010FA4A891A60F10000F74AC2E95B
:10289000001039E0F548D0E90030F64A9A1A60F1A4
:1028A0000000F249C1E900202EE0F048D0E9002004
:1028B0004EF66023D21A60F10000EC49C1E9002015
:1028C00022E0EA48D0E9003041F270729A1A60F1D1
:1028D0000000E649C1E9002016E0E448D0E9001014
:1028E0004FF47A72891A60F10000E04AC2E90010E0
:1028F0000AE0DE48D0E90010643960F10000DB4AEC
:10290000C2E9001000E000BF00BFDB4A0023D74946
:1029100003C9FDF785FDD5480CC000200090D348C1
:102920000CC8D64801F032F8CF4801780120884021
:10293000C0B20090D2480CC83AA801F0B2FAB8E28E
:102940001020D0490872BDF8D40060B1CE4800789C
:10295000401C2A9000EBD07041102A98A0EB410057
:10296000C1B2C9480170BDF8D20058B1C64800785C
:10297000401C2A9000EBD07041102A98A0EB410037
:10298000C1490870BDF8D60030B10120BF490871B7
:102990000720BF49087005E0BDF8DA0010B100203B
:1029A000BA490871B848007800F070FF8DF8E80067
:1029B00020218DF8E910B4480078C0EBC000B5497B
:1029C00001EB4000C0880A2190FBF1F0C1B208463B
:1029D0002A9100F05BFF8DF8EA00AB480078C0EB6D
:1029E000C000AC4901EB4000C0880A2190FBF1F225
:1029F00001FB1200C1B208462A9100F047FF8DF892
:102A0000EB00A1480078C0EBC000A24901EB4000F8
:102A100000890A2190FBF1F0C1B208462A9100F02A
:102A200035FF8DF8EC0098480078C0EBC00099495C
:102A300001EB400000890A2190FBF1F201FB12003A
:102A4000C1B208462A9100F021FF8DF8ED008E48B2
:102A50000078C0EBC0008F4901EB400040890A219B
:102A600090FBF1F0C1B208462A9100F00FFF8DF8FB
:102A7000EE0085480078C0EBC000864901EB4000BD
:102A800040890A2190FBF1F201FB1200C1B2084615
:102A90002A9100F0FBFE8DF8EF007C4800790128B8
:102AA00079D1BDF8CC0050B179480078C01C06211E
:102AB00090FBF1F201FB1200801C75490870BDF813
:102AC000D00050B172480078401E062190FBF1F210
:102AD00001FB1200801C6E490870BDF8D80008B9CF
:102AE0003D9878B36A480078801E06287BD2DFE8DC
:102AF00000F003162A3E536767486349097800EBE4
:102B0000C100D0E900105A4BC91840F10000624AD8
:102B10005D4B1B7802EBC302C2E9001064E05E4823
:102B20005949097800EBC100D0E90010514BC91890
:102B300040F10000584A544B1B7802EBC302C2E933
:102B4000001051E079E054484F49097800EBC1008A
:102B5000D0E900204EF66023D21840F100004E4923
:102B6000494B1B7801EBC301C1E900203CE04A4816
:102B70004549097800EBC100D0E9002041F27073AB
:102B8000D11840F10000444A3F4B1B7802EBC302CE
:102B9000C2E9001028E038E13F483B49097800EBE2
:102BA000C100D0E900104FF47A72891840F100009A
:102BB000394A354B1B7802EBC302C2E9001013E01F
:102BC00035483149097800EBC100D0E90010643183
:102BD00040F10000304A2C4B1B7802EBC302C2E9E3
:102BE000001001E0FFE700BF00BF2B48264909782D
:102BF00000EBC10003C8204A0023CDE92801FDF7FE
:102C00000FFC25482049097800EBC1000CC00020CA
:102C1000009021481C49097800EBC10103C9CDE9A6
:102C2000280119480078C0EBC0001A4901EB4000A8
:102C30002790DDE9282300F0A9FEBDF8CE0008B9F1
:102C40003C9880B114481049097800EBC100D0E9E4
:102C50000010094A891840F100000F4A0A4B1B78FE
:102C600002EBC3021AE0C5E0330000201800002088
:102C700080EE3600407E050000D68300DA0000209A
:102C800008000020B8000020350000202A000020A5
:102C900034000020E800002008010020C2E90010F4
:102CA000F9480078801E06287AD2DFE800F0031683
:102CB000293D5165F548F649097800EBC100D0E996
:102CC0000010F44A891A60F10000F04AF04B1B78BA
:102CD00002EBC302C2E9001063E0EC48EC4909785A
:102CE00000EBC100D0E90010EB4BC91A60F1000005
:102CF000E64AE74B1B7802EBC302C2E9001050E042
:102D0000E248E349097800EBC100D0E900204EF623
:102D10006023D21A60F10000DC49DD4B1B7801EB27
:102D2000C301C1E900203CE0D848D949097800EB4B
:102D3000C100D0E9001041F27073C91A60F10000BF
:102D4000D24AD34B1B7802EBC302C2E9001028E041
:102D5000CE48CF49097800EBC100D0E900204FF4FC
:102D60007A73D21A60F10000C849C94B1B7801EB95
:102D7000C301C1E9002014E0C448C549097800EB4B
:102D8000C100D0E90020643A60F10000BF49C04BA7
:102D90001B7801EBC301C1E9002002E000E088E0FC
:102DA00000BF00BFB948BA49097800EBC10103C9A7
:102DB000BA4A0023CDE92801FDF732FBB348B449F4
:102DC000097800EBC1000CC000200090AF48B0496A
:102DD000097800EBC10103C9CDE92801AC480078AE
:102DE000C0EBC001AE4800EB41002790DDE928238D
:102DF00000F0CCFDA448017801208840C0B20090CA
:102E0000A8480CC83AA801F04CF8A7480079022855
:102E100006D1FF200090A3480CC83AA801F041F861
:102E200047E00220A0490870042241023EA8FDF7B5
:102E3000FBFE042240F204413FA8FDF7F5FE00220C
:102E4000DDE93E1051185041984AC2E900100820AF
:102E5000009010460CC8964800F098FD00200090A5
:102E600094480CC8944800F091FD0020409017E071
:102E7000002086490090409801EBC00103C9CDE9CC
:102E800028014098C0EBC001854800EB4100279025
:102E9000DDE9282300F07AFD4098401CC1B2409142
:102EA00040980228E4DB41F270708449088000E019
:102EB00000BF00BF0020409012E03AA94098095C92
:102EC00008462A9100F01AFD01467D4A40981154A7
:102ED00020213AAA409811544098401CC1B2409118
:102EE00040980828E9DB70480079022804D14FF4A3
:102EF000FA607349C86044E06B488079E8B30A22FD
:102F00000023684903C9FDF78BFA00214A404B4072
:102F10001A4304D16B480088401C6A4908806A48FB
:102F20006A49098830F8210058B967486749098813
:102F300000EB8100408820B9002062490880634985
:102F4000088004E061480088401C604908805E49B0
:102F50005E480088401C01EB800040885949098880
:102F60008842EFDD58485949098830F8210058490E
:102F700031F810005249C86003E0FFE700205049D3
:102F8000C8602C98002870D0032252A12B98FDF71E
:102F900086FB002822D109224FA12B98001DFDF7A6
:102FA0007EFBE0B900212B980E3000F057FFCDE9F1
:102FB00028014CA10FA8DDE92823FDF7A9FA0FA8E5
:102FC00000F0EAFB394ADDE92810C2E900100820C8
:102FD000009010460CC8364800F0D8FC3BE30522B0
:102FE0004FA12B98001DFDF75AFBE8BB4EA12B9873
:102FF0000A30FDF745FB11904BA11198401CFDF7DD
:103000003FFB1090119800783A2803D1109800786F
:103010003A2807D045A112A8FDF77AFA12A800F0C5
:10302000BBFBA8E03A212B980A3000F017FFCDE94E
:103030000E013A211198401C00F010FFCDE90C015F
:1030400000211098401C00F009FFCDE90A01DDE9DC
:103050000E10183970F100000ED2DDE90C103C3969
:1030600070F1000008D201E086E0D2E2DDE90A104A
:103070003C3970F100005DD32CA112A8FDF748FA8D
:1030800012A800F089FB75E0340000200801002040
:103090003500002080EE3600407E050000D683001B
:1030A000E8000020080000202A0000201000002076
:1030B000CC00002018000020DA00002022000020B0
:1030C000B800002024000020C0400000260000209E
:1030D000984D00007365740074696D657374616D5B
:1030E000700000005570646174696E6720637572CA
:1030F00072656E742074696D657374616D7020748F
:103100006F3A256C6C752874696D65732074656EF3
:10311000206D696C6C697365636F6E647329000060
:10312000636C6F636B0000003A0000004572726FC1
:1031300072210000DDE90A01CDE90201DDE90C019F
:10314000CDE90001F2A112A8DDE90E23FDF7E0F9B7
:1031500012A800F021FB0E9881B2F848C180F7490F
:103160000C9808810A9848810821F44800F0B6FCC0
:10317000F34A03C200BF6EE20822F2A12B98001DA1
:10318000FDF78DFAF0BBF2A12B980D30FDF778FA20
:103190001190EFA11198401CFDF772FA1090119850
:1031A0000078202803D110980078202808D0AFF2AA
:1031B000840112A8FDF7ACF912A800F0EDFA76E050
:1031C00020212B980D3000F049FECDE90E01202181
:1031D0001198401C00F042FE04460846611E60F152
:1031E0000000CDE90C1000211098401C00F036FEC4
:1031F00004460846611E60F10000CDE90A1040F265
:10320000B27300E054E0DDE90E10C91A70F100005D
:103210001CD3DDE90C100C3970F1000016D20E98A9
:1032200081B20846099100F0F7FC20B1C9490C9819
:1032300031F8100003E0C8490C9831F8100001463D
:10324000C317DDE90A20511A984108D3AFF22411BF
:1032500012A8FDF75DF912A800F09EFA26E0DDE95C
:103260000A10491C40F10000CDE90210DDE90C1004
:10327000491C40F10000CDE90010B8A112A8DDE919
:103280000E23FDF745F912A800F086FAAB490E9817
:1032900008800C9881B2A9484180A8490A98888082
:1032A0000821A64800F01AFCA54A03C200BFD2E1DB
:1032B0000922B5A12B98001DFDF7F1F9E8BBAFF28B
:1032C00098112B980E30FDF7DBF91190AFF2A81191
:1032D0001198401CFDF7D4F91090119800783A2805
:1032E00003D1109800783A2808D0AFF2C01112A884
:1032F000FDF70EF912A800F04FFA54E03A212B988E
:103300000E3000F0ABFDCDE90E013A211198401CC2
:1033100000F0A4FDCDE90C0100211098401C00F044
:103320009DFDCDE90A01DDE90E10183970F10000AC
:103330000DD2DDE90C103C3900E035E070F1000001
:1033400005D2DDE90A103C3970F1000008D3AFF274
:10335000242112A8FDF7DCF812A800F01DFA21E0E4
:10336000DDE90A01CDE90201DDE90C01CDE9000149
:1033700088A112A8DDE90E23FDF7CAF812A800F013
:103380000BFA90490E98C8800C9881B28D48018143
:103390000A9881B28B4841810821684800F09EFB61
:1033A000894A03C200BF56E1052288A12B98001D5F
:1033B000FDF775F9F0BB66A12B980930FDF760F9B0
:1033C000119063A11198401CFDF75AF91090AFF2CB
:1033D000A8211098401CFDF753F90F90AFF2B821C7
:1033E0000F98401CFDF74CF90E901198007820289A
:1033F00007D10F9800783A2803D10E9800783A2820
:1034000008D0AFF2D82112A8FDF782F812A800F078
:10341000C3F97BE020211198401C00F01FFDCDE98D
:103420000C013A211098401C00F018FDCDE90A016A
:103430003A2100E0E8E00F98401C00F00FFDCDE9D4
:10344000080100210E98401C00F008FDCDE906019E
:10345000DDE90A10183970F1000012D2DDE9081018
:103460003C3970F100000CD2DDE906103C3970F1F6
:10347000000006D20021DDE90C20D2F101028141D9
:1034800008D2AFF2583112A8FDF742F812A800F0A6
:1034900083F93AE0DDE90601CDE90401DDE908013F
:1034A000CDE90201DDE90A01CDE9000149A112A837
:1034B000DDE90C23FDF72CF812A800F06DF94F4957
:1034C0000978C1EBC1014E4A02EB41010A98C8805C
:1034D000089882B249480078C0EBC000484901EB27
:1034E0004000028145490978C1EBC101444A02EB21
:1034F0004101069848810821104800F0EFFA414A3E
:103500003E4B1B7802EBC30203C200BFA3E00000E6
:103510005570646174696E672063757272656E744C
:1035200020636C6F636B20746F3A256C6C753A2561
:103530006C6C753A256C6C7500000000CC000020A6
:103540001000002063616C656E646572000000000D
:1035500020000000E03F0000C83F0000557064619B
:1035600074696E672063757272656E742063616C36
:10357000656E64657220746F3A256C6C752D256CD0
:103580006C752D256C6C7500636F756E74646F7748
:103590006E0000005570646174696E672063757217
:1035A00072656E7420636F756E74646F776E2074CD
:1035B0006F3A256C6C753A256C6C753A256C6C7598
:1035C00000000000DA00002018000020616C617229
:1035D0006D0000005570646174696E6720616C61F4
:1035E000726D20256C6C7520746F3A256C6C753A81
:1035F000256C6C753A256C6C750000003500002058
:10360000E800002008010020AFF2E04000F0C4F81C
:1036100021E0052211A12B98FDF75AF8D8B9042210
:1036200010A12B98801DFDF753F830B900200F49E9
:10363000088001200E4988710DE004220DA12B980D
:10364000801DFDF745F830B9002009498871074908
:1036500008800A49C86042B010BD00004D5553496A
:1036600043000000504C415900000000240000209D
:103670002A00002053544F5000000000B8000020E2
:103680000448006840F47000024908600248034999
:103690000860704788ED00E00024F400400000203E
:1036A00010B501210F4800F071F8044621460D487D
:1036B00000F066F80AE00B4800F018F80A49896E35
:1036C00008700948806E401C07498866054800F06C
:1036D0001BF80028EFD10449896E08700249A1F84F
:1036E0006C0010BD00C0004048000020816911F04E
:1036F000100F0CBF00684FF0FF307047826912F066
:10370000200FFBD1016070478069012121EA101070
:103710007047D0F818C01CF0080FFAD1D0F82CC0B0
:103720002CF0100CC0F82CC0D0F830C02CF0010CDC
:103730002CF4407CC0F830C0D0F830C0B1EB021F90
:1037400034BF4CF0200C2CF0200CC0F830C038BF37
:103750005208C900B1FBF2F1491C49088A094262CA
:1037600001F03F018162C36200218161C16A41F0C1
:103770001001C162016B40F20132114301637047D5
:1037800041647047826B114381637047002914BF05
:10379000006CC06B7047000010B5044604E014F8DC
:1037A000011B0348FFF7AAFF20780028F7D110BDBE
:1037B00000C0004010B50446A089401CA081A0892B
:1037C00064285EDBA0896438A0816089401C608128
:1037D00060893C2855DB60893C3860812089401C29
:1037E000208120893C284CDB20893C382081E088DE
:1037F000401CE080E088182843DBE0881838E0802F
:10380000A088401CA080208800F006FA10B14FF478
:10381000B77001E040F26D10A188884231DC208849
:1038200000F0FAF910B14FF4B77001E040F26D10FA
:10383000A188081AA0802088401C2080208800F0E1
:10384000EBF920B160880F4931F8100003E060887F
:103850000D4931F81000A188884212DC208800F060
:10386000DBF920B16088074931F8100003E0608877
:10387000054931F81000A188081AA0806088401C12
:10388000608010BDE03F0000C83F000001460029F5
:1038900005DB092903DC01F13000C0B2704701F1FA
:1038A0006100C0B2FAE7000070B504460D462A4632
:1038B00005212220FDF74CFB0120A040C2B20621C9
:1038C0002220FDF745FB0C49097C4FF4487211FB9F
:1038D00002F0FDF7CEF8002206212220FDF738FB8A
:1038E0000549097CC1F104014FF4487211FB02F053
:1038F000FDF7BFF870BD0000B800002030B597B0EC
:1039000004462C220BA10CA8FCF72DFF2C2214A19D
:1039100001A8FCF728FF21460CA8FCF7A7FE0546E6
:103920002DB10CA8281A01A9085C17B030BD0020E1
:10393000FBE70000303132333435363738394162F5
:1039400042436444454647484A4B4C4D4E506F4FA6
:103950005152545355565758595A2E2D5F20000036
:103960003F065B4F666D7D077F6F777C7C395E5EBF
:1039700079713D760D72385554735C5C6F50786D7B
:103980003E1C6A1D6E498040080000002DE9F05F72
:10399000044615461E46DDF8289040F2B27020809D
:1039A0006422002328463146FCF73AFDA2816422B6
:1039B000002328463146FCF733FD07463C2200230E
:1039C000FCF72EFD62816422002328463146FCF775
:1039D00027FD07464FF461620023FCF721FD924664
:1039E00019463C2200235046FCF71AFD2081642230
:1039F000002328463146FCF713FD0746344A0023CE
:103A0000FCF70EFD924619464FF4616200235046C2
:103A1000FCF706FD10EB0900E0804FF064024FF068
:103A2000000328463146FCF7FBFC0746284A0023E2
:103A3000FCF7F6FCA080E088182805DBE088183841
:103A4000E080A088401CA080002060800EE02088DC
:103A500000F0E2F810B14FF4B77001E040F26D10E1
:103A6000A188081AA0802088401C2080208800F0AF
:103A7000D3F810B14FF4B77001E040F26D10A18897
:103A80008842E4DD12E0208800F0C6F820B16088AA
:103A9000104931F8100003E060880F4931F8100038
:103AA000A188081AA0806088401C6080208800F0EF
:103AB000B3F820B16088074931F8100003E060884E
:103AC000054931F81000A1888842DCDDBDE8F09F8F
:103AD00080510100E03F0000C83F00002DE9F04F99
:103AE00004468946E0884FF46161A0FB011264231B
:103AF0004FF0000CA1FB030A02FB03A201FB0C2107
:103B000022893C23A2FB03CA64224FF0000BACFBCA
:103B1000023E0AFB02E20CFB0B22844608461CEB29
:103B20000301504162896423A2FB03239C468B1846
:103B300040EB0C01A0891A1841EB0B00A188314B16
:103B4000A1FB033C4FF0640AA3FB0A1E0CFB0AEC2A
:103B500003FB0BC3511858414FF46162A9FB0223C8
:103B6000D446A2FB0CAE03FB0CE302FB0B32B1EB21
:103B70000A0660EB0207002540F2B2780EE04046EC
:103B800000F04AF810B12048002101E01F48002150
:103B900086194F4108F101001FFA80F8208840453E
:103BA000EDDC27E0208800F037F880B1184830F8C5
:103BB00015001449A0FB010164224FF0000CA0FB8A
:103BC000023A01FB02A100FB0C1118460EE011485D
:103BD00030F815000B49A0FB011064220023A1FB63
:103BE00002CA00FB02A001FB0301604686194F4197
:103BF000681C85B26088A842D4DC30463946BDE8EE
:103C0000F08F00008051010000F47BBC001EF8BB67
:103C1000C83F0000E03F000001460A46C81701EB1C
:103C200090708010A1EB800070B9642091FBF0F3DC
:103C300000FB131030B94FF4C87091FBF0F300FB98
:103C4000131008B9012070470020FCE70024FF256D
:103C5000514943F65050FDF7E1FB50490860504888
:103C6000057040F286704E49A1F86C00881C886689
:103C7000012081F86E0000204A49C86004200874C1
:103C80000120487400208874FDF776FAFDF79EFA4B
:103C9000FDF78CFBFDF7E6FAFDF74EFBFDF7FEFAAC
:103CA0004148FDF73BFD00BF3F48FDF74BFD0028B5
:103CB000FAD0FCF7E5FE6DE03A48007AC043C2B2A4
:103CC00001211820FDF744F93848FDF746FA40B2C3
:103CD000334981F86E003548FDF74CFA304981F8D8
:103CE0006F0000241EE000212220FDF7F1F80546B8
:103CF0000DB12B4805702B48007C002804DD2948B5
:103D0000015D2046FFF7D0FD2648807C002807DDB6
:103D1000C4F1080026490A5C0F212648FDF7D5F8B2
:103D2000601CC4B2082CDEDB1E48807C002804DD49
:103D30001C48807C401E1B4988741A48C06808B122
:103D4000012000E00020024680211B48FDF7E6F933
:103D50001448C068C0B11348C06810490968B1FB75
:103D6000F0F632464FF480711348FDF7CEF90D4856
:103D7000C0680A490968B1FBF0F08608324640F293
:103D800007110D48FDF7D2F903210C48FDF738F86B
:103D90000349487090E700000024F4000000002070
:103DA00048000020B8000020005800F000C0024089
:103DB000904D0000005002400080024000D00340BF
:103DC00010B50446A08900283ED16320A0816089F7
:103DD000002835D13B206081208968BB3B202081B1
:103DE000E08828BB1720E080A088E8B9608840B947
:103DF000208800B910BD2088401E20800B206080E4
:103E000002E06088401E60802088FFF705FF20B137
:103E10006088104931F8100003E060880E4931F8DD
:103E20001000401EA08012E0A088401EA0800EE07E
:103E3000E088401EE0800AE02089401E208106E0E4
:103E40006089401E608102E0A089401EA08100BF01
:103E5000D0E70000E03F0000C83F00002DE9F0433C
:103E600002460C46002300263046314612E04FF051
:103E70000A0800260546A5FB087901FB089C00FB03
:103E800006CC1D465E1CB3B2555DA5F13006B819CF
:103E90004CEBE671D55C15B1D55CA542E7D1BDE828
:103EA000F0832DE9F041054616461F46DDF81880DF
:103EB000C822002330463946FCF7B2FA6421511A71
:103EC00073F100030CD2002408E00120A04000EAB6
:103ED000080008B120202855601CC4B2082CF4DB6F
:103EE000BDE8F08170B5024600200AE0254B03EBE7
:103EF000C003D3E9004302EBC005C5E90043431CFE
:103F000098B21828F2DB40F2E57399421ADA11E010
:103F100000200DE002EBC003D3E900431A4EA41BBE
:103F200063F1000302EBC005C5E90043431C98B2EE
:103F30001828EFDB0B464C1CA1B240F2E574A342FB
:103F4000E6D11DE040F2E573994219DD11E0002051
:103F50000DE002EBC003D3E900530B4EAD1943F162
:103F6000000302EBC004C4E90053431C98B21828B4
:103F7000EFDB0B464C1EA1B240F2E574A342E6D142
:103F800070BD000000400000D40B18BC10B5002923
:103F90000AD00878002807D005487844FCF722FDAD
:103FA000002801D0002010BD0248784410BD000058
:103FB0007E140000761400004FF04070E1EE100A0D
:103FC00070470000000000001F001C001F001E00C2
:103FD0001F001E001F001F001E001F001E001F00EC
:103FE0001F001D001F001E001F001E001F001F00DD
:103FF0001E001F001E001F006D016E01000000006A
:1040000094CF417B250000009866D68225000000F1
:104010003CB7708A2500000030EC129225000000A9
:10402000D05DC29925000000FCE97FA125000000B9
:10403000E8354FA925000000080B2FB1250000002E
:10404000F8C620B92500000048CE20C12500000098
:10405000341D2EC925000000443643D12500000040
:10406000602F5DD925000000400676E125000000A4
:10407000F4F989E925000000002C94F125000000E6
:104080007C4691F9250000001CD47E01260000002A
:10409000B4F85A0926000000D419261126000000A1
:1040A0005856E01826000000BC988C20260000001E
:1040B0005CCE2C28260000009897C52F2600000013
:1040C0003500000041001E00410032003F003C006E
:1040D000410046003500500041006E004100820062
:1040E0003F008C00410096003500A0004100BE005A
:1040F0004100D2003F00DC004100E6003500F00046
:104100004100040144000E014600180144002C0146
:10411000460036013500400141005E014100720158
:104120003F007C0141008601350090014100AE0155
:104130004100C2013F00CC014100D6013500E00141
:104140004100FE01410012023F001C024100260214
:104150003A0030024400440246004E023800580241
:1041600041006C02440076023500800241009E024C
:104170004100B2023F00BC024100C6023500D0023D
:104180004100EE02410002033F000C034100160310
:104190003500200341003E03410052033F005C0311
:1041A00041006603350070034100840344008E0320
:1041B000460098034400AC034600B6033500C00334
:1041C0004100DE034100F2033F00FC03410006040E
:1041D0003500100441002E04410042043F004C040D
:1041E000410056043500600441007E044100920401
:1041F0003F009C044100A6043A00B0043800BD040E
:104200003A00CA043800D8043500E5043800F20446
:104210003500000537001405380028053A003C0534
:104220003C005005410078053F008C053C00A0058E
:104230003500C8053C00F0053A00040638001806B1
:1042400037002C0635004006370054063800680653
:104250003A007C063C0090063A00B8063800CC06CE
:104260003700E0063500F4063700080738001C0761
:1042700037003007350044073400580737006C0713
:1042800035008007370094073800A8073A00BC07BC
:104290003C00D0074100F8073F000C083C00200814
:1042A000350048083C0070083A0084083800980837
:1042B0003700AC083500C0083700D4083800E808DB
:1042C0003A00FC083C0010093A00380938004C0953
:1042D00037006009380088093A00B0093C00D80965
:1042E0003500000A3700140A3800280A3A003C0A50
:1042F0003C00500A4100780A3F008C0A3C00A00AAA
:104300003500C80A3C00F00A3A00040B3800180BCC
:1043100037002C0B3500400B3700540B3800680B6E
:104320003A007C0B3C00900B3A00B80B3800CC0BE9
:104330003700E00B3500F40B3700080C38001C0C7C
:104340003700300C3500440C3400580C37006C0C2E
:104350003500800C3700940C3800A80C3A00BC0CD7
:104360003C00D00C4100F80C3F000C0D3C00200D2F
:104370003500480D3C00700D3A00840D3800980D52
:104380003700AC0D3500C00D3700D40D3800E80DF6
:104390003A00FC0D3C00100E3A00380E38004C0E6E
:1043A0003700600E3800880E3A00B00E3C00D80E80
:1043B0003F00000F4100140F3C00280F3A003C0F53
:1043C0003C00500F3A00780F3C008C0F3F00A00FCC
:1043D0004100B40F3C00C80F3A00DC0F3C00F00F66
:1043E0003A0018103C002C103A00401038005410CD
:1043F0003700681033007C10350090103300B8107F
:104400003500CC103700E0103800F4103A000811E5
:104410003C001C11350030113C0058113F006C115C
:104420003F008011410094113C00A8113A00BC11DA
:104430003C00D0113A00F8113C000C123F00201251
:10444000410034123C0048123A005C123C007012E9
:104450003A0098123C00AC123A00C0123800D41254
:104460003700E8123300FC12350010133300381304
:1044700035004C1337006013380074133A0088136A
:104480003C009C133500B0133C00D8133F00EC13E4
:104490003F000014410014143C0028143A003C145E
:1044A0003C0050143A0078143C008C143F00A014D7
:1044B0004100B4143C00C8143A00DC143C00F01471
:1044C0003A0018153C002C153A00401538005415D8
:1044D0003700681533007C15350090153300B8158A
:1044E0003500CC153700E0153800F4153A000816F1
:1044F0003C001C16350030163C0058163F006C1668
:104500003F008016410094163C00A8163A00BC16E5
:104510003C00D0163A00F8163C000C173F0020175C
:10452000410034173C0048173A005C173C007017F4
:10453000410098174300AC174400C0174300D4173C
:104540004100E8173F00FC173C0010183A003818EB
:104550003C004C183A00601838007418370088186E
:1045600033009C183500B0183C00D8183F00EC18F8
:104570003F000019410014193C0028193A003C1969
:104580003C0050193A0078193C008C193F00A019E2
:104590004100B4193C00C8193A00DC193C00F0197C
:1045A0003A00181A3C002C1A3A00401A3800541AE3
:1045B0003700681A33007C1A3500901A3300B81A95
:1045C0003500CC1A3700E01A3800F41A3A00081BFC
:1045D0003C001C1B3500301B3C00581B3F006C1B73
:1045E0003F00801B4100941B3C00A81B3A00BC1BF1
:1045F0003C00D01B3A00F81B3C000C1C3F00201C68
:104600004100341C3C00481C3A005C1C3C00701CFF
:104610003A00981C3C00AC1C3A00C01C3800D41C6A
:104620003700E81C3300FC1C3500101D3300381D1A
:1046300035004C1D3700601D3800741D3A00881D80
:104640003C009C1D3500B01D3C00D81D3F00EC1DFA
:104650003F00001E4100141E3C00281E3A003C1E74
:104660003C00501E3A00781E3C008C1E3F00A01EED
:104670004100B41E3C00C81E3A00DC1E3C00F01E87
:104680003A00181F3C002C1F3A00401F3800541FEE
:104690003700681F33007C1F3500901F3300B81FA0
:1046A0003500CC1F3700E01F3800F41F3A00082007
:1046B0003C001C20350030203C0058203F006C207E
:1046C0003F008020410094203C00A8203A00BC20FC
:1046D0003C00D0203A00F8203C000C213F00202173
:1046E000410034213C0048213A005C213C0070210B
:1046F000410098214300AC214400C0214300D42153
:104700004100E8213F00FC213C0010223A00382201
:104710003C004C223A006022380074223700882284
:1047200033009C223500B0223500002341001E23B7
:10473000410032233F003C234100462335005023F3
:1047400041006E23410082233F008C2341009623C9
:104750003500A0234100BE234100D2233F00DC23CB
:104760004100E6233500F0234100042444000E24D8
:104770004600182444002C244600362435004024EA
:1047800041005E24410072243F007C2441008624C5
:10479000350090244100AE244100C2243F00CC24C7
:1047A0004100D6243500E0244100FE2441001225BA
:1047B0003F001C25410026253A00302544004425B1
:1047C00046004E253800582541006C2544007625CA
:1047D0003500802541009E254100B2253F00BC25C3
:1047E0004100C6253500D0254100EE2541000226B6
:1047F0003F000C26410016263500202641003E26AB
:10480000410052263F005C26410066263500702696
:104810004100842644008E26460098264400AC269B
:104820004600B6263500C0264100DE264100F226AD
:104830003F00FC26410006273500102741002E27A7
:10484000410042273F004C27410056273500602792
:1048500041007E27410092273F009C274100A62768
:104860003A00B0273800BD273A00CA273800D827B9
:104870003500E5273800F2273500002837001428D6
:10488000380028283A003C283C005028410078286D
:104890003F008C283C00A0283500C8283C00F028A8
:1048A0003A0004293800182937002C2935004029FE
:1048B00037005429380068293A007C293C009029A7
:1048C0003A00B8293800CC293700E0293500F4290E
:1048D0003700082A38001C2A3700302A3500442ABD
:1048E0003400582A37006C2A3500802A3700942A71
:1048F0003800A82A3A00BC2A3C00D02A4100F82AF5
:104900003F000C2B3C00202B3500482B3C00702B2B
:104910003A00842B3800982B3700AC2B3500C02B85
:104920003700D42B3800E82B3A00FC2B3C00102C2D
:104930003A00382C38004C2C3700602C3800882C7A
:104940003A00B02C3C00D82C3500002D3700142D37
:104950003800282D3A003C2D3C00502D4100782D88
:104960003F008C2D3C00A02D3500C82D3C00F02DC3
:104970003A00042E3800182E37002C2E3500402E19
:104980003700542E3800682E3A007C2E3C00902EC2
:104990003A00B82E3800CC2E3700E02E3500F42E29
:1049A0003700082F38001C2F3700302F3500442FD8
:1049B0003400582F37006C2F3500802F3700942F8C
:1049C0003800A82F3A00BC2F3C00D02F4100F82F10
:1049D0003F000C303C002030350048303C00703047
:1049E0003A008430380098303700AC303500C030A1
:1049F0003700D4303800E8303A00FC303C00103149
:104A00003A00383138004C31370060313800883195
:104A10003A00B0313C00D8313F000032410014323E
:104A20003C0028323A003C323C0050323A007832A6
:104A30003C008C323F00A0324100B4323C00C8320E
:104A40003A00DC323C00F0323A0018333C002C33A0
:104A50003A004033380054333700683333007C3336
:104A6000350090333300B8333500CC333700E033B2
:104A70003800F4333A0008343C001C34350030343C
:104A80003C0058343F006C343F0080344100943483
:104A90003C00A8343A00BC343C00D0343A00F8342E
:104AA0003C000C353F002035410034353C00483592
:104AB0003A005C353C0070353A0098353C00AC3526
:104AC0003A00C0353800D4353700E8353300FC35BE
:104AD000350010363300383635004C363700603636
:104AE000380074363A0088363C009C363500B036C3
:104AF0003C00D8363F00EC363F0000374100143709
:104B00003C0028373A003C373C0050373A007837B1
:104B10003C008C373F00A0374100B4373C00C83719
:104B20003A00DC373C00F0373A0018383C002C38AB
:104B30003A004038380054383700683833007C3841
:104B4000350090383300B8383500CC383700E038BD
:104B50003800F4383A0008393C001C393500303947
:104B60003C0058393F006C393F008039410094398E
:104B70003C00A8393A00BC393C00D0393A00F83939
:104B80003C000C3A3F00203A4100343A3C00483A9D
:104B90003A005C3A3C00703A4100983A4300AC3A23
:104BA0004400C03A4300D43A4100E83A3F00FC3A9E
:104BB0003C00103B3A00383B3C004C3B3A00603B29
:104BC0003800743B3700883B33009C3B3500B03BDA
:104BD0003D00D83B4000EC3B4000003C4200143C10
:104BE0003D00283C3B003C3C3D00503C3B00783CB9
:104BF0003D008C3C4000A03C4200B43C3D00C83C21
:104C00003B00DC3C3D00F03C3B00183D3D002C3DB2
:104C10003B00403D3900543D3800683D34007C3D48
:104C20003600903D3400B83D3600CC3D3800E03DC4
:104C30003900F43D3B00083E3D001C3E3600303E4E
:104C40003D00583E40006C3E4000803E4200943E95
:104C50003D00A83E3B00BC3E3D00D03E3B00F83E40
:104C60003D000C3F4000203F4200343F3D00483FA4
:104C70003B005C3F3D00703F3B00983F3D00AC3F38
:104C80003B00C03F3900D43F3800E83F3400FC3FD0
:104C9000360010403400384036004C403800604048
:104CA000390074403B0088403D009C403600B040D5
:104CB0003D00D8404000EC4040000041420014411B
:104CC0003D0028413B003C413D0050413B007841C4
:104CD0003D008C414000A0414200B4413D00C8412C
:104CE0003B00DC413D00F0413B0018423D002C42BE
:104CF0003B004042390054423800684234007C4254
:104D0000360090423400B8423600CC423800E042CF
:104D10003900F4423B0008433D001C433600304359
:104D20003D00584340006C434000804342009443A0
:104D30003D00A8433B00BC433D00D0433B00F8434B
:104D40003D000C4440002044420034443D004844AF
:104D50003B005C443D007044420098444400AC4435
:104D60004500C0444400D4444200E8444000FC44B0
:104D70003D0010453B0038453D004C453B0060453B
:104D8000390074453800884534009C453600B045EC
:104D90000901030206040C08000023002500270077
:104DA00029002C002E003100340037003A003E006C
:104DB000420046004A004E00530058005D00620069
:104DC00068006E0075007C0083008B0093009C00DF
:104DD000A500AF00BA00C500D000DD00EA00F80071
:104DE00007011601270138014B015F017301890199
:104DF000A101BA01D401F0010D022C024E02710290
:104E00009602BD02E702130342037303A803E00303
:104E10001B0459049B04E1042C057A05CE052606E3
:104E20008406E7065007BF073508B2083609C309EC
:104E3000570AF40A9B0B4C0C070DCD0DA00E7E0FEC
:104E40006A1064116D128513AE14E915371798189E
:104E50000E1A9B1B3F1DFC1ED420C822D9240A27F2
:104E60005C29D22B6D2E30311D3436377E3AF93D18
:104E700000400040100000000080054010000000CD
:104E8000005000401100000000900540110000009B
:104E9000006000401200000000A005401200000069
:104EA000007000401300000000B005401300000037
:104EB000004002401400000000C005401400000043
:104EC000005002402E00000000D005402E000000DF
:104ED000006002402F00000000E005402F000000AD
:104EE000007002403000000000F00540300000007B
:104EF00000D00340460000000000064046000000CD
:104F00000010064047000000002006404800000056
:104F1000003006407F000000004006408000000096
:104F20000050064084000000006006408C00000035
:104F3000004000401000000000800540100000000C
:104F400000500040110000000090054011000000DA
:104F5000006000401200000000A0054012000000A8
:104F6000007000401300000000B005401300000076
:104F7000004002401400000000C005401400000082
:104F8000005002402E00000000D005402E0000001E
:104F9000006002402F00000000E005402F000000EC
:104FA000007002403000000000F0054030000000BA
:104FB00000D0034043000000000006404300000012
:104FC000001006404400000000200640450000009C
:104FD0000030064058000000004006405900000024
:104FE000005006405C0000000060064064000000C5
:104FF000007006406C000000008006406D0000005C
:10500000009006407F000000004000400080054006
:1050100000500040009005400060004000A00540A6
:105020000070004000B005400040024000C0054054
:105030000050024000D005400060024000E0054002
:105040000070024000F0054000D003400000064020
:1050500000100640001006400020064000200640D8
:105060000030064000300640004006400040064048
:1050700000500640005006400060064000600640B8
:105080000070064000700640008006400080064028
:105090000090064000900640000700000006000057
:1050A00000050000000400000003000000020000F2
:1050B00000010000000000000000000018ED00E00A
:1050C0001CED00E020ED00E000E400E004E400E07E
:1050D00008E400E00CE400E010E400E014E400E088
:1050E00018E400E01CE400E020E400E024E400E038
:1050F00028E400E02CE400E030E400E034E400E0E8
:1051000038E400E03CE400E040E400E044E400E097
:1051100048E400E04CE400E050E400E054E400E047
:1051200058E400E05CE400E060E400E064E400E0F7
:1051300068E400E06CE400E070E400E074E400E0A7
:1051400078E400E07CE400E080E400E084E400E057
:1051500088E400E000E100E004E100E008E100E0B4
:105160000CE100E010E100E080E100E084E100E01B
:1051700088E100E08CE100E090E100E000E200E086
:1051800004E200E008E200E00CE200E010E200E0EF
:1051900080E200E084E200E088E200E08CE200E0EF
:1051A00090E200E000688909001C4E0E40420F00AA
:1051B00000201C0080841E0000802500999E36007F
:1051C0000040380000093D0000803E0000004B0018
:1051D000404B4C0000204E00808D5B0000C05D0005
:1051E0000080700000127A0000007D008096980018
:1051F000001BB7000080BB00C0E8CE00647ADA0074
:105200000024F4000000FA0080A81201002D3101F2
:1052100000366E0140787D01400000000000000073
:10522000000100003E000800000000000001000036
:10523000A000000002000000000100003454010042
:1052400000000000000100002B70060000000000BC
:105250000001000028000000000000000001000024
:1052600027000100000000000001000020000000F5
:1052700000000000000100005000000002000000DB
:10528000000100001AAC0000000000000001000056
:1052900017940900000000000001000016980500A6
:1052A00000000000000100001400000000000000E9
:1052B0000001000013800800000000000001000051
:1052C000A000000008000000000100001000000025
:1052D00000000000000100002800000002000000A3
:1052E0000001000040000000040000000001000078
:1052F0006000000000000000000100005D000C00E4
:10530000000000000001000050000000000000004C
:10531000000100004E00020000000000000100003B
:1053200041AC010000000000000100003C00000052
:1053300000000000000100003A80090000000000A9
:10534000000100003000000000000000000100002B
:1053500028000000000000000001000027000100FC
:1053600000000000000100002360060000000000B3
:1053700000010000216008000000000000010000A2
:105380001E00000000000000000100001DC004001D
:1053900000000000000100005000000002000000BA
:1053A00000010000180000000000000000010000E3
:1053B0001400000000000000000100006000000078
:1053C00004000000000100000024F4003000300060
:1053D000005A62029100910000879303D200D2002C
:1053E00000B4C4041301130100E1F5055401540194
:1053F000000E2707950195012855000000000020A8
:10540000440000003C0200006C55000044000020F5
:105410006405000058020000100100004300000075
:10542000F8FFFFFF004040404040404040404141C5
:105430004141414040404040404040404040404069
:105440004040404040050202020202020202020203
:105450000202020202202020202020202020200200
:105460000202020202029090909090901010101090
:10547000101010101010101010101010101010102C
:1054800002020202020288888888888808080808C0
:10549000080808080808080808080808080808088C
:1054A00002020202400000000000000000000000B4
:1054B00000000000000000000000000000000000EC
:1054C00000000000000000000000000000000000DC
:1054D00000000000000000000000000000000000CC
:1054E00000000000000000000000000000000000BC
:1054F00000000000000000000000000000000000AC
:10550000000000000000000000000000000000009B
:10551000000000000000000000000000000000008B
:10552000000000000000000000000000000000007B
:10553000000000000000000080966CCA25000000FA
:10554000000000000000000000000000000000005B
:105550000000050000020000000000000000000044
:0C55600000000000000000000024F40027
:0400000500000201F4
:00000001FF
