:020000040000FA
:10000000A8050020F5020000FD020000FF0200002C
:1000100001030000030300000503000000000000CE
:1000200000000000000000000000000007030000C6
:1000300009030000000000000B030000B1170000DE
:100040000F0300001103000013030000150300005C
:1000500017030000D12E00001B0300001D03000049
:100060001F030000210300002303000025030000FC
:1000700027030000290300002B0300002D030000CC
:100080002F0300003103000033030000350300009C
:1000900037030000390300003B0300003D0300006C
:1000A0003F0300004103000043030000450300003C
:1000B00047030000490300004B0300004D0300000C
:1000C0004F030000510300005303000055030000DC
:1000D00057030000590300005B0300005D030000AC
:1000E0005F0300006103000063030000650300007C
:1000F00067030000690300006B0300006D0300004C
:100100006F0300007103000073030000750300001B
:1001100077030000790300007B0300007D030000EB
:100120007F030000810300008303000085030000BB
:1001300087030000890300008B0300008D0300008B
:100140008F0300009103000093030000AD03000043
:100150000000000000000000AF030000B103000039
:10016000B3030000B503000000000000B703000067
:10017000B9030000BB030000BD030000BF03000083
:10018000C1030000C3030000C5030000C703000053
:10019000C9030000CB030000CD030000CF03000023
:1001A000D1030000D3030000D5030000D7030000F3
:1001B000D9030000DB030000DD030000DF030000C3
:1001C000E1030000E3030000E5030000E703000093
:1001D000E9030000EB030000ED030000EF03000063
:1001E000F1030000F3030000F5030000F703000033
:1001F000F9030000FB030000FD030000FF03000003
:1002000000F002F800F04FF80AA090E8000C8244D9
:100210008344AAF10107DA4501D100F044F8AFF2B6
:10022000090EBAE80F0013F0010F18BFFB1A43F0D4
:10023000010318474C4800006C480000103A24BFE6
:1002400078C878C1FAD8520724BF30C830C144BF3B
:1002500004680C607047000000230024002500267D
:10026000103A28BF78C1FBD8520728BF30C148BF19
:100270000B60704703681B0A28BF41F08001F52915
:1002800000F05A81002070471FB503F0DBF900F041
:1002900087FB04000020002103F0BEF9401C6060D1
:1002A0001FBD10B510BD00F055FB1146FFF7ECFF68
:1002B00003F046F800F078FB03B4FFF7F2FF03BC4D
:1002C00000F0C0FB0138FDD170470000EFF3108053
:1002D00072B67047EFF310807047EFF3108062B68C
:1002E000704730BF704780F311887047EFF311807B
:1002F000704700004548804745480047FEE7FEE755
:10030000FEE7FEE7FEE7FEE7FEE7FEE7FEE7FEE7C5
:10031000FEE7FEE7FEE7FEE7FEE7FEE7FEE7FEE7B5
:10032000FEE7FEE7FEE7FEE7FEE7FEE7FEE7FEE7A5
:10033000FEE7FEE7FEE7FEE7FEE7FEE7FEE7FEE795
:10034000FEE7FEE7FEE7FEE7FEE7FEE7FEE7FEE785
:10035000FEE7FEE7FEE7FEE7FEE7FEE7FEE7FEE775
:10036000FEE7FEE7FEE7FEE7FEE7FEE7FEE7FEE765
:10037000FEE7FEE7FEE7FEE7FEE7FEE7FEE7FEE755
:10038000FEE7FEE7FEE7FEE7FEE7FEE7FEE7FEE745
:10039000FEE7FEE7FEE7FEE7FEE7FEE7FEE7FEE735
:1003A000FEE7FEE7FEE7FEE7FEE7FEE7FEE7FEE725
:1003B000FEE7FEE7FEE7FEE7FEE7FEE7FEE7FEE715
:1003C000FEE7FEE7FEE7FEE7FEE7FEE7FEE7FEE705
:1003D000FEE7FEE7FEE7FEE7FEE7FEE7FEE7FEE7F5
:1003E000FEE7FEE7FEE7FEE7FEE7FEE7FEE7FEE7E5
:1003F000FEE7FEE7FEE7FEE7FEE7FEE7FEE7FEE7D5
:1004000004480549034A054B70470000B12E00001F
:1004100001020000A8030020A8050020A803002076
:1004200053EA020C00F069802DE9F04B4FF0000612
:10043000002B1FBFB3FA83F503FA05F424FA05F67F
:100440005E4012BF1643B2FA82F502FA05F4C5F116
:1004500020051EBF22FA05FC44EA0C04203556EAAA
:10046000044C4FEA144418BF641C4FF000084FF0CE
:100470000009904271EB030C39D3002919BFB1FA7E
:1004800081F701FA07F6B0FA80F700FA07F6C7F12C
:1004900020071EBF20FA07FC46EA0C062037B6FBF1
:1004A000F4FCA7EB0507103F07F01F0BCBF120066C
:1004B0000CFA0BFB2CFA06F644BFB3460026202F9D
:1004C000A4BF5E464FF0000B5BEA060C08BF4FF07E
:1004D000010B19EB0B09ABFB027C48EB0608C01BB8
:1004E00006FB02CC0BFB03CC71EB0C01C1E70B4606
:1004F000024641464846BDE8F08B13B54FF0000078
:100500004FF00001AFF30080BDE81C4070470000D1
:100510000FB41CB5074B06AA7B44694600900598AA
:1005200000F0F7F90020694600F006FA1CBC5DF8FF
:1005300014FB00001D0400002DE9F0418046D21D8F
:1005400022F007020025D2E90002F52915A614D0F1
:10055000011E72F1000106DA0023D0EB030063EB09
:10056000020211A608E0D8F800108B0701D50FA6EB
:1005700002E0490701D50EA601251146002408F125
:10058000240704E000F015F930323A55641C50EAB3
:100590000102F7D12B46324621464046BDE8F041E4
:1005A00000F059B9000000002D0000002B000000F1
:1005B000200000002DE9F0410F460546002028628A
:1005C0002846E968884770B3252805D0D5E9012178
:1005D0009047286A401CF2E7E968284600268847C9
:1005E0006C2804460AD0682C08D04C2C35D06A2CD4
:1005F00031D0742C31D07A2C2FD016E0E968064621
:1006000028468847B042044608D16C2E23D04FF4C8
:1006100080662846E9688847044606E06C2E03D0C9
:100620004FF4807601E01EE04026E4B1A4F14100E1
:10063000192802D8203446F400663A462146284656
:100640002E60FFF717FE60B1012808D0FF1D27F0CC
:1006500007070837B4E78026DBE70026D9E73F1D08
:10066000AEE72046B2E7286ABDE8F081401ECAB274
:1006700010F8011F8A4202D00029F9D100207047EA
:100680002DE9F041054690460E460020044600E064
:10069000641C44450BD2285D00F0D0F80746305D5D
:1006A00000F0CCF8381A02D1295D0029F0D1BDE85C
:1006B000F08140EA010370B59B072ED14FF001365F
:1006C000042A2AD308C810C99D1B9D43121F15EA8E
:1006D000C61517D0D8B2E1B2401A50EA056110D160
:1006E00098B2A1B2401A50EA05410AD123F07F40E6
:1006F00024F07F41401A50EA052102D1180EA0EBE8
:10070000146070BDA342DBD018BA21BA884201D967
:10071000012070BD4FF0FF3070BD0AB9002070BDE0
:1007200010F8013B11F8014B63B1A3420AD1521EEC
:1007300008D010F8013B11F8014B1BB1A34201D1C5
:10074000521EEDD1181B70BD10B5203AC0F00B80C1
:10075000B1E81850203AA0E81850B1E81850A0E8C5
:100760001850BFF4F5AF5FEA027C24BFB1E818501F
:10077000A0E8185044BF18C918C0BDE810405FEA8F
:10078000827C24BF51F8043B40F8043B08BF70470B
:10079000D20728BF31F8023B48BF11F8012B28BF10
:1007A00020F8023B48BF00F8012B704770477047A4
:1007B000704730B5B0F10A024FEA900E71F10003B4
:1007C0004EEA817EB0EB0E0061EB91014FEA101E04
:1007D0004EEA017E10EB0E0041EB11114FEA102E94
:1007E0004EEA016E10EB0E0041EB11214FEA104E64
:1007F0004EEA014E10EB0E0041EB1141401841F161
:1008000000014FEAD00040EA41704FEAD10110EBFD
:1008100080054FEA810444EA907444EB01046D19A9
:1008200044EB0404521BA3414FF0000348BF0A32BB
:1008300000D530BD401C41F1000130BD10B504466B
:1008400000F080F80068005DC00602D504F12000C9
:1008500010BD204610BD2DE9F0470D469946924641
:10086000044600F124080168880604D5E06921F0F7
:100870001001216000E00120A84201DD471B00E0DB
:100880000027A1697A1902EB0900081AA0612078F3
:10089000C00602D42046AFF30080002608E0D4E969
:1008A00001211AF806009047206A401C761C20623D
:1008B0004E45F4DB2078C0060AD52046AFF3008011
:1008C00006E0D4E9012130209047206A401C2062D4
:1008D000381EA7F10107F4DC07E0D4E9012118F87C
:1008E00005009047206A401C2062281EA5F10105E2
:1008F000F3DC2046AFF300802078000602D502200A
:10090000BDE8F0870120FBE701694A1C0261087815
:10091000704700B58FB0CDE901310021059105493F
:100920007944CDE9031011466846FFF743FE0FB046
:1009300000BD0000E5FFFFFF0A6802F8010B0A6036
:100940007047000010B500F02BF8001D10BD00BF6F
:10095000C92C0000754600F031F8AE460500694626
:10096000534620F00700854618B020B5FFF748FD34
:10097000BDE820404FF000064FF000074FF00008A0
:100980004FF0000B21F00701AC46ACE8C009ACE821
:10099000C009ACE8C009ACE8C0098D46704700004A
:1009A000004870476803002010B50446AFF300808C
:1009B0002046BDE81040FFF77FBC000000487047AC
:1009C000480300204FF0013C50F8042B51F8043B41
:1009D0009A4221D1A2EB0C03934313EACC1317D113
:1009E00050F8042B51F8043B9A4215D1A2EB0C03AA
:1009F000934313EACC130BD150F8042B51F8043B6A
:100A00009A4209D1A2EB0C03934313EACC13DBD037
:100A10004FF00000704700BFD01A01BAB1FA81F15F
:100A200001F0180122FA01F0CB40C1F12001DBB244
:100A3000C0B2C01A2CFA01F3D11A914311EAC311C2
:100A4000E6D1704701491820ABBEFEE72600020040
:100A50007047002100E0491C8142FCD37047000030
:100A600010B50220FFF72EFC0C4CA06910F0010F0E
:100A7000FBD1E06910F00C0F0ED1094800F05EFECA
:100A80000220FFF71FFCA06910F0010FFBD1E06905
:100A900010F00C0008BF10BD022010BD00F00A408D
:100AA000005800F02DE9F05FDFF848810646D8F8DD
:100AB000180010F0010FFAD18809C8F80400C1F33A
:100AC0008300C8F80800DFF83091DFF830A19508FE
:100AD0004FF0000B67D0C809012101FA00F0C743AD
:100AE000DAF8001046480140A1F18050B0F5A0208E
:100AF00002BFDAF8000080B2002813D10A20FFF705
:100B0000E1FB0320C9F8FC000A20FFF7DBFB3D48AE
:100B1000C0F8C0720A20FFF7D5FBC9F8FCB00A2064
:100B2000FFF7D0FB3068C8F814000A20FFF7CAFBB3
:100B3000D8F8184014F0010FFAD114F0100F24D097
:100B4000DAF800102E480140A1F18050B0F5A02045
:100B500002BFDAF8000080B2002813D10A20FFF7A4
:100B6000B1FB0320C9F8FC000A20FFF7ABFB2548C6
:100B7000C0F8C0B20A20FFF7A5FBC9F8FCB00A20F4
:100B8000FFF7A0FB2046BDE8F09F6D1E06F10406AE
:100B900009D0D8F808000028A2D1D8F80400401CD9
:100BA000C8F804009CE7DAF8001015480140A1F1EC
:100BB0008050B0F5A02002BFDAF8000080B2002813
:100BC00013D10A20FFF77EFB0320C9F8FC000A209E
:100BD000FFF778FB0B48C0F8C0B20A20FFF772FBA2
:100BE000C9F8FCB00A20FFF76DFBD8F81800BDE883
:100BF000F09F000000F00A4000D00F4000E00F40DE
:100C00000000FF7000E00A400B4B4FEA911CC3F854
:100C100004C0C1F383019960910808BF70475A6905
:100C200040F8042B491E08BF70479A68002AF6D185
:100C30005A68521C5A60F2E700F00A40D0F80034BB
:100C400012F0010F14BF0B438B43C0F8003412F0B5
:100C5000020FD0F8202414BF114322EA0101C0F88A
:100C6000201470472DE9F00301264FF0000C0325F6
:100C7000C2F3411706FA0CF40C4211D0D0F8C48F1D
:100C80004FEA4C0405FA04F928EA0908C0F8C48FB1
:100C9000D0F8C48F07FA04F448EA0404C0F8C44F3B
:100CA0000CF1010C0CF0FF0CBCF1080FE2D3D0F8F2
:100CB00000C512F0010F14BF4CEA010C2CEA010C24
:100CC000C0F800C5D0F804C512F0020F14BF4CEAFA
:100CD000010C2CEA010CC0F804C5D0F808C512F0CC
:100CE000040F14BF4CEA010C2CEA010CC0F808C533
:100CF000D0F818C512F0080F14BF4CEA010C2CEA0A
:100D0000010CC0F818C512F0100FD0F83C2514BF24
:100D10000A438A43C0F83C25D0F80C2513F0010F94
:100D200014BF0A438A43C0F80C25D0F8102513F0ED
:100D3000020F14BF0A438A43C0F81025D0F81425C7
:100D400013F0040F14BF0A438A43C0F81425D0F8E7
:100D50001C2513F0080F14BF0A438A43C0F81C2552
:100D6000D0F8442513F4007F14BF0A438A43C0F827
:100D70004425D0F8402513F4407F14BF0A438A432A
:100D8000C0F84025D0F82825002B0CBF114322EADB
:100D90000101C0F82815BDE8F00370470E4AC0F302
:100DA0000741D26E01238B401A420C4A1ABF02EB54
:100DB000C101496852F83110020AD1F82C354FF0C0
:100DC0000F0C0CFA02FC00F00F0023EA0C03904019
:100DD0001843C1F82C05704700E00F409046000012
:100DE00050F82100704730B50C4605460022FFF749
:100DF00025FF21462846BDE8304008230122FFF7A1
:100E000031BF30B50C46054608230122FFF72AFF03
:100E100021462846BDE830400122FFF70FBF30B51C
:100E20000C4605460222FFF709FF21462846BDE889
:100E3000304009230122FFF715BF30B50C460546A7
:100E40000222FFF7FBFE21462846BDE8304008237A
:100E50000122FFF707BF30B50C4605460222FFF717
:100E6000EDFE21462846BDE8304008230122FFF769
:100E7000F9BE30B50C4605460222FFF7DFFE2146DB
:100E80002846BDE830400A230122FFF7EBBE30B50B
:100E90000C4605460222FFF7D1FE21462846BDE852
:100EA000304008230122FFF7DDBE40F821207047C3
:100EB0002DE9F04104460E4600BF1C4800F078F8CA
:100EC0000028FAD100222146184800F0B9F831462E
:100ED000164800F077F80721144800F06FF800BFBB
:100EE000124800F05FF80028FAD1104800F071F8BD
:100EF000C7B20120FFF7ADFD012221460B4800F0EB
:100F00009FF80721094800F059F800BF074800F092
:100F100049F80028FAD1054800F052F8C5B201207E
:100F2000FFF797FD2846BDE8F08100000000024071
:100F30002DE9F04104460F46154600BF184800F061
:100F400037F80028FAD100222146154800F078F839
:100F50003946134800F036F80321114800F02EF806
:100F600000BF0F4800F024F80028FAD10C4800F028
:100F700030F8C6B229460A4800F024F8052108488E
:100F800000F01CF800BF064800F012F80028FAD163
:100F9000034800F01EF8C6B23046BDE8F0810000FC
:100FA00000000240406810F0400018BF0120704768
:100FB000406810F0010018BF012070474160704781
:100FC0008068704781607047016A41F010010162DA
:100FD0007047406810F0010F05D110F0120F1CBFD0
:100FE00000F01C007047002070470000036A43F0C7
:100FF00010030362002A14BF0E4A0F4A02EB820359
:1010000001EB830302EB820292005B1EB3FBF2F260
:10101000521EC260D0F8C02F12F0010F08BF7047F7
:10102000064A1144521CB1FBF2F1491E41F0800105
:10103000C1607047801A0600A08601007F47370113
:1010400042EA4101016070471649042804BF08685C
:1010500040F4803018D0052804BF086840F4003000
:1010600012D0062812D00F2815D0102838BF70478C
:10107000103800F01F01012202FA01F142090A486A
:1010800050F822000160704708607047086840F41B
:101090008020086070474FF0E020016941F00201B4
:1010A0000161704724ED00E0DC47000010B5FFF758
:1010B00014F9002818BF012010BD084401686FF31F
:1010C00052011143016012F0020F14BFB0218C21B4
:1010D000016214BF4FF4306140F60C014162704769
:1010E000425842F00102425070470844016811F032
:1010F000020F14BF5108511E01617047002A826817
:1011000014BF114322EA01018160704721F03F03BF
:101110001844036813F0020F18BF520803699A1AA3
:1011200011F0010F14BFC26182617047036823F0A0
:101130001E0319430160C2607047016841F001015C
:101140000160704710B5114800F0CEFA00BF0F489B
:1011500000F0DEFA0028FAD00C48C01C00F0C4FAF7
:1011600000BF0A48C01C00F0D3FA0028F9D00F21B4
:101170000748FFF746FE03210648FFF734FE0A231F
:10118000012203210348FFF76DFD10BD050800F0A3
:101190000050024000D0034010B51E4800F0A4FAF1
:1011A0001D4800F0A1FA1D48FFF7F8FD1C48FFF7A5
:1011B000F5FD04211B48FFF740FE08211948FFF701
:1011C0002EFE0122184801681848FFF70FFF174844
:1011D000FFF7FAFEFF220C212220FFF7A9FE0446AA
:1011E00000220D212220FFF7A3FE044600220E213B
:1011F0002220FFF79DFE0446002203211820FFF75E
:1012000097FE0446FF2201211820FFF791FE0446B5
:1012100010BD0000002000F0010800F002080100ED
:10122000020C0100005000400000002000000240BD
:1012300010B50B4800684FF47A71B0FBF1F420460A
:1012400000F0B0FA00F0A0FA00F0A5FA502105482D
:1012500001F0B0FE1520FFF7F7FEFFF727FF10BDE6
:101260000000002000C0004010B5002000F032FA5D
:101270001E4800F039FA00BF1C4800F049FA002867
:10128000FAD01B4800F030FA00BF194800F040FACD
:101290000028FAD01748FFF781FD20211648FFF7F4
:1012A000DAFD00224FF480711448FFF706FF14485E
:1012B00000684FF47A61B0FBF1F422464FF480717C
:1012C0000E48FFF712FF0E48006842F6E061B0FBDF
:1012D000F1F4224640F207110848FFF717FF4FF4D8
:1012E00080710648FFF7FCFE10BD0000004000F0D2
:1012F000090800F0061409000010064000800240B2
:101300000000002010B5164800F0EEF9154800F076
:10131000EBF900BF134800F0FBF90028FAD012489F
:10132000FFF73CFD1148FFF739FD08211048FFF792
:1013300068FD002208210E48FFF7B7FD02210C4886
:10134000FFF797FD04210A48FFF793FD6422082167
:101350000848FFF7EBFE0748FFF7EFFE10BD00005F
:101360000A0800F0004400F006040A0006080A001B
:101370000020064000C0024010B5124800F0B4F949
:10138000114800F0B1F900BF0F4800F0C1F9002882
:10139000FAD00120FFF702FD40F20140FFF7FEFC0A
:1013A00003214FF04020FFF772FD60234FF4E1323C
:1013B00006480168064801F0C4FD06A001F004FEDD
:1013C00010BD0000001800F0000800F00000002030
:1013D00000C000400D0A48656C6C6F2C20776F725E
:1013E0006C64210D0A0000002DE9F003AF4D0246A8
:1013F0002868AF4B1840A0F18053B3F5A02359D013
:1014000002F03809DFF8AC82C2F38414B9F1100F8E
:1014100025D0B9F1300F04BF47F230504FF400131C
:101420000DD04FF03800904304BF4FF40040C3018B
:1014300005D012F0380F1CBF0020034613D09E4F7A
:1014400012F4605F4FF0000618BF00222CD057F84E
:10145000324044457DD307EBC2025268E1E00023ED
:1014600040461524EBE7A4F10900122822D2934844
:10147000D5F87CC04FF04C7350F824002CF01C0CB5
:10148000072CA8BF4CF0100CC5F87CC02E6D4FF493
:10149000002C16F4807FD2D1BCF1010C0AD02E6D45
:1014A00016F4807FF8D0CAE712F0380F18BFB9F1F0
:1014B000100F04D0BDE8F0034FF000007047C2F3F6
:1014C0000268DFF8FCC14FF0000257F83290E145A6
:1014D00003D307EBC202526803E0521C062AF4D37E
:1014E0003246C5F8C020D5F8B020DFF8D8C102EAEE
:1014F0000C0242F00042C5F8B020DFF8CCC1A4F1E4
:1015000009024C1E5CF828C0A444BCFBF1FCD5F8D1
:10151000B0101943C5F8B01008EBC80101EB410445
:101520006A4902EB420201EBC40101EB82046468E8
:10153000C5F86441D5F864416FF0FF0808EB0C2C46
:1015400044EA0C0CC5F864C151F82210D5F86021AA
:1015500000E061E002F400021143C5F86011D5F823
:101560006011D5F86021C1F38921C2F30904D5F8CF
:101570006421C2F3042202F1010CD5F8642102F0C7
:101580001F02521CB0FBF2F04A09C2F100084443AA
:10159000424301EB481104EB5212484302EB902006
:1015A000B0FBFCF041080846002257F832C08445E1
:1015B00003D307EBC200466802E0521C062AF4D3AC
:1015C000C5F8C060D5F8600110F4000F1DBFD5F854
:1015D000B00040F08040C5F8B000D5F8600104BF0D
:1015E00040F40000C5F860014FF40040D5F86821D0
:1015F00012F0010F02D1401E0028F7DC002808BFBE
:10160000002148D0D5F8B000184340F0010040F068
:101610001040C5F8B0003EE0521C062AFFF417AF98
:101620003246C5F8C020D5F8602122F40002C5F882
:101630006021D5F8B020DFF898C002EA0C0242F031
:101640000042C5F8B020002908BF4FF0000C0AD0B6
:10165000B0FBF1FCBCF1000F18BFACF1010C0CF1B8
:101660000101B0FBF1F10846002257F832408442F4
:1016700003D307EBC200466802E0521C062AF4D3EB
:10168000C5F8C060D5F8B00043EA8C22104340F0A2
:101690000040C5F8B000D5F8B00020F47000C5F8DF
:1016A000B000BDE8F00308467047000000E00F40BE
:1016B0000000FF700024F400504A0000344800008D
:1016C00040787D0100FC0FE02C480000A04800009D
:1016D000FF0300EF03490A6E22F4F012104308667C
:1016E0007047000000E00F40C0F307230749C0B275
:1016F000194401F07043C1F3130143EA411141EA77
:10170000800040F0007001220260704700E60F4048
:10171000C0F307220849C0B2114401F07042C1F37E
:10172000130142EA411141EA800040F00070006874
:10173000002818BF0120704700EA0F40C0F30723BC
:101740000C49C0B2194401F07043C1F3130143EADC
:10175000411141EA800040F0007181B001220A602D
:10176000002200920098401C00901028FAD30A60D2
:1017700001B0704700E50F40024901480860FEE7EC
:101780000400FA050CED00E04FF0E020016941F0A3
:101790000501016170474FF0E020016941F002014D
:1017A000016170474FF0E021401E48617047000022
:1017B0002DE9F047ACB00024FE4841682B91016848
:1017C0002A910021269127912591219122912391FF
:1017D00024911D911E911F9120911C911B9188466F
:1017E000F54DF648D0E90010491C40F10000F34ADD
:1017F000C2E90010A81EB0F86C00642807DAA81E21
:10180000B0F86C00401CA91EA1F86C000FE0EA487B
:10181000801EB0F86C00642809D140F28670E64959
:10182000891EA1F86C004FF00108881C88660A2206
:101830000023E24903C9FEF7F3FD00214A404B4073
:101840001A4377D100243DE0DB48801E0078C04376
:10185000204100F0010026A9085526A8005D20B10E
:10186000D748005D08B9012000E0002021A921F837
:10187000140026A8005D38B1D148005D20B1D148E0
:1018800030F81400401C00E00020CE4921F814007C
:10189000084630F8140000280ADD084630F8140025
:1018A000322190FBF1F201FB120008B9012000E0A7
:1018B00000201DA921F8140026A8005DC049085584
:1018C000601CC4B2082CBFDB00243EE0BA48801E76
:1018D0004078C043204100F0010025A9085525A803
:1018E000005D20B1B848005D08B9012000E000208B
:1018F0001CA921F8140025A8005D38B1B248005D8C
:1019000020B1B24830F81400401C00E00020AF497C
:1019100021F81400084630F8140000280BDD0846B2
:1019200030F81400322190FBF1F201FB120010B9E3
:10193000012001E00BE000201BA921F8140025A8DC
:10194000005DA1490855601CC4B2022CBEDBBDF885
:101950006C0078B1BDF86E0060B1042211022AA8B3
:10196000FFF7A0F8042240F204412BA8FFF79AF8F1
:10197000FFF702FF96484078F0B90A2200238F490A
:1019800003C9FEF74DFD00214A404B401A4313D1D5
:101990008848D0E900305A1C40F100008549C1E96F
:1019A00000208C4801F01EFB8A48808920B9012064
:1019B000894948740A2088748548C078012822D152
:1019C0000A2200237D4903C9FEF72AFD00214A406F
:1019D0004B401A4317D18148D0E9001000235940E9
:1019E0005840014303D103207949C8700BE07B487C
:1019F000D0E90010491E60F10000784AC2E90010E9
:101A0000774801F045FD002426E0C4EBC400754989
:101A100001EB4000C0886F49C98888421AD1C4EBE5
:101A2000C400704901EB400000896A490989884275
:101A300010D1C4EBC4006B4901EB400040896549FB
:101A40004989884206D162480078052802D00220E0
:101A50005F490871601CC4B2022CD6DB5C48007977
:101A6000022805D1BDF8920010B100205849087134
:101A7000584800885C49098888421DD0554800882C
:101A80005949088008460188584801F071FD002432
:101A900010E00820554901EBC4010090D1E9006332
:101AA000C4EBC401524A02EB4100324601F086FB0E
:101AB000601CC4B2182CECDBBDF8700048B144487F
:101AC0000078001D052190FBF1F201FB1200404956
:101AD0000870BDF8720048B13D480078401C0521EF
:101AE00090FBF1F201FB120039490870BDF86C005F
:101AF00048B13948007C001D052190FBF1F201FB43
:101B0000120035490874BDF86E0048B13248007CB7
:101B1000401C052190FBF1F201FB12002E490874D4
:101B200034480088002868DD022001F0C7FA8DF8EB
:101B3000A000012001F0C2FA8DF8A100092001F0F7
:101B4000BDFA8DF8A200012001F0B8FA8DF8A300CB
:101B5000002001F0B3FA8DF8A400022001F0AEFAE3
:101B60008DF8A500072001F0A9FA8DF8A60009203C
:101B700001F0A4FA8DF8A700FF2000900F480CC8D0
:101B800028A801F0D3FCC82200230C4903C9FEF7A2
:101B900047FC00214A404B401A4304D10E48007ACA
:101BA000C0430D49087213480088401E114908803F
:101BB00001F05CB8100000204A000020080000205E
:101BC00034000020280300203C00002038030020BF
:101BD00028000020CC000020B800002018000020C1
:101BE000DA000020E800002020000020180100207A
:101BF000D801002022000020FFE70020FE490872E3
:101C0000002404E0202028A90855601CC4B2082C38
:101C1000F8DBFA480078062881F02680DFE810F02B
:101C2000630152030600DC038A05E6070420F2493B
:101C30000872BDF88E0030B10120F04948700520CF
:101C4000EF49087005E0BDF8920010B10020EB49A3
:101C50004870EC48C0880A2190FBF1F0C2B21046EF
:101C600001F02CFA8DF8A000E648C0880A2190FB0C
:101C7000F1F301FB1300C2B2104601F01FFA8DF818
:101C8000A100E04800890A2190FBF1F0C2B21046A1
:101C900001F014FA8DF8A200DA4800890A2190FBBD
:101CA000F1F301FB1300C2B2104601F007FA8DF800
:101CB000A300D44840890A2190FBF1F0C2B210463B
:101CC00001F0FCF98DF8A400CE4840890A2190FB70
:101CD000F1F301FB1300C2B2104601F0EFF98DF8E9
:101CE000A500C8488089642190FBF1F301FB130033
:101CF0000A2190FBF1F0C2B2104601F0DFF98DF835
:101D0000A600C04880890A2190FBF1F301FB130073
:101D1000C2B2104601F0D2F98DF8A700B74840785A
:101D200001287BD1BDF8840048B1B5480078401D3A
:101D3000062190FBF1F201FB1200B1490870BDF8D9
:101D4000880048B1AE480078401C062190FBF1F2B3
:101D500001FB1200AA490870BDF89000B0B3A84872
:101D60000078062849D2DFE800F0030E1925323E3C
:101D7000A548D0E90010A54BC91840F10000A24ABF
:101D8000C2E900103AE0A048D0E90030A04A9A1811
:101D900040F100009C49C1E900202FE09A48D0E9B9
:101DA00000104EF66023C91840F10000964AC2E9BF
:101DB000001023E09448D0E9001041F27073C91874
:101DC00040F10000904AC2E9001017E01EE08E4882
:101DD000D0E900104FF47A73C91840F100008A4A24
:101DE000C2E900100AE08848D0E90010643140F1EF
:101DF0000000854AC2E9001000E000BF00BF0820D3
:101E0000009081480CC87F4801F0D8F9BDF88600E1
:101E1000C0B37B48007806284BD200E062E0DFE8E0
:101E200000F0030E1925323E7748D0E90020774BA9
:101E3000D21A60F100007449C1E900203AE072480A
:101E4000D0E90010724BC91A60F100006E4AC2E975
:101E500000102FE06C48D0E900204EF66023D21A23
:101E600060F100006849C1E9002023E06648D0E93C
:101E7000002041F27073D21A60F100006249C1E99A
:101E8000002017E01EE06048D0E900104FF47A739C
:101E9000C91A60F100005C4AC2E900100AE05A4821
:101EA000D0E90020643A60F100005749C1E9002000
:101EB00000E000BF00BF0820009053480CC8514804
:101EC00001F07CF9C8220023524903C9FEF7A8FAA1
:101ED0006420101A73F1000304D2202028A9484A74
:101EE0001278885477E2012043490872BDF88E00C9
:101EF00030B101204149887007204749087005E04A
:101F0000BDF8920010B100203C4988703D4800881F
:101F100042F2107190FBF1F301FB13004FF47A7160
:101F200090FBF1F0C2B2104601F0C8F88DF8A000A5
:101F3000344800884FF47A7190FBF1F301FB1300F1
:101F4000642190FBF1F0C2B2104601F0B7F88DF8B1
:101F5000A1002C480088642190FBF1F301FB1300E1
:101F60000A2190FBF1F0C2B2104601F0A7F88DF8FB
:101F7000A200244800880A2190FBF1F301FB130022
:101F8000C2B2104601F09AF88DF8A3001D484088AF
:101F9000401C642190FBF1F301FB13000A2190FB2C
:101FA000F1F0C2B2104601F089F88DF8A40015488E
:101FB0004088401C0A2190FBF1F301FB1300C2B2E0
:101FC000104601F07BF88DF8A5000E488088401C73
:101FD000642190FBF1F301FB13000A2190FBF1F067
:101FE000C2B2104601F06AF88DF8A6000548808854
:101FF000401C0A2112E00000B80000202800002048
:102000002F000020CC0000201000002080EE3600C1
:10201000407E0500080000203000002090FBF1F316
:1020200001FB1300C2B2104601F048F88DF8A7007A
:10203000FE488078012872D1BDF88400D8B100BF75
:10204000FB490978C81DC11700EB5171C910A0EBFD
:10205000C101F74A11701046007803280BD01046D2
:102060000078052807D010460078062803D01046CF
:1020700000780728E4D1BDF88800D8B100BFEC494A
:102080000978481CC11700EB5171C910A0EBC101C0
:10209000E74A11701046007803280BD010460078EC
:1020A000052807D010460078062803D0104600788F
:1020B0000728E4D1BDF8900090B3DD4800780828E7
:1020C00063D2DFE800F0040506072E2F4C575DE0D1
:1020D0005CE05BE0D7484088022804DCD5490888EA
:1020E00001F014F950B9D3484088022809DDD149DC
:1020F0000988491C88B201F009F910B14FF4B77092
:1021000001E040F26D10CC49484364214843CB4B79
:102110000CCB801843F10001C84A03C236E0D0E07E
:102120003CE033E0C349088801F0F0F828B1C14829
:102130004088C34931F8100004E0BE484088C149D6
:1021400031F81000BC49484364214843C117BB4AD9
:10215000D2E90032C0185141B84A03C216E0B7486C
:10216000D0E90030B84A9A1840F10000B349C1E9FB
:1021700000200BE0B148D0E90020B44BD21840F168
:102180000000AE49C1E9002000E000BF00BF082008
:102190000090AA480CC8A74801F010F8BDF88600C6
:1021A00098B3A3480078082872D2DFE800F004054D
:1021B00006072F305A656CE06BE06AE09D48408866
:1021C000022804DC9B49088801F0A0F850B999481E
:1021D0004088022809DD97490988491C88B201F026
:1021E00095F810B14FF4B77001E040F26D109249CC
:1021F0004843642141439148D0E90030591A60F1C5
:1022000000008E4AC2E9001043E04AE041E08949FB
:10221000088801F07BF858B1864840880B300C21C3
:1022200090FBF1F201FB1200854931F810000AE041
:10223000804840880B300C2190FBF1F201FB12002A
:10224000804931F810007C49484364214843C21753
:102250007A49D1E90031181A61EB0201774A03C2C9
:1022600017E07648D0E90010774BC91A60F10000FA
:10227000724AC2E900100CE07048D0E90010734BBC
:10228000C91A60F100006D4AC2E9001001E0FFE7E1
:1022900000BF00BF0820009068480CC8654800F0E7
:1022A0008DFFC82200236A4903C9FEF7B9F86421EB
:1022B000511A73F1000304D2202028A95C4A127835
:1022C00088540FE60220634908725A48008842F297
:1022D000107190FBF1F301FB13004FF47A7190FB46
:1022E000F1F0C2B2104600F0E9FE8DF8A0005148AE
:1022F00000884FF47A7190FBF1F301FB1300642125
:1023000090FBF1F0C2B2104600F0D8FE8DF8A100AB
:1023100048480088642190FBF1F301FB13000A2177
:1023200090FBF1F0C2B2104600F0C8FE8DF8A2009A
:10233000404800880A2190FBF1F301FB1300C2B270
:10234000104600F0BBFE8DF8A300002440E0C4EB73
:10235000C400414901EB4000408836494988884221
:1023600034D1C4EBC4003C4901EB400080883149C2
:10237000898888422AD153218DF8A41050218DF8E4
:10238000A51004F11600182190FBF1F301FB1300D6
:10239000401C0A2190FBF1F0C2B2104600F08EFE04
:1023A0008DF8A60004F11600182190FBF1F301FB53
:1023B0001300401C0A2190FBF1F301FB1300C2B291
:1023C000104600F07BFE8DF8A70003E0601CC4B24D
:1023D000182CBCDB00BFFDE308201E490872BDF8C5
:1023E0008E0048B11148C078042801D1022000E0D5
:1023F00004200E49C8700BE0BDF8920040B10B48B4
:10240000C078022801D1012000E002200749C870ED
:102410001248C0880A2190FBF1F0C2B2104600F0C9
:102420004DFE8DF8A0000D48C08819E0280000205E
:1024300030000020CC00002080510100100000205E
:102440006836000050360000005C260500D6830088
:1024500008000020B8000020D8010020DA00002089
:102460000A2190FBF1F301FB1300C2B2104600F009
:1024700025FE8DF8A100FE4800890A2190FBF1F0AD
:10248000C2B2104600F01AFE8DF8A200F84800898A
:102490000A2190FBF1F301FB1300C2B2104600F0D9
:1024A0000DFE8DF8A300F24840890A2190FBF1F05F
:1024B000C2B2104600F002FE8DF8A400EC4840893C
:1024C0000A2190FBF1F301FB1300C2B2104600F0A9
:1024D000F5FD8DF8A500E6488089642190FBF1F3B5
:1024E00001FB13000A2190FBF1F0C2B2104600F08C
:1024F000E5FD8DF8A600DE4880890A2190FBF1F306
:1025000001FB1300C2B2104600F0D8FD8DF8A70001
:10251000D848C078032813D1C8220023D64903C95C
:10252000FDF77EFF6421511A73F1000308D20024E5
:1025300004E0202028A90855601CC4B2082CF8DB50
:10254000CC48C07804287CD1BDF8840048B1CB4881
:102550000078401D062190FBF1F201FB1200C749F3
:102560000870BDF8880048B1C4480078401C0621B6
:1025700090FBF1F201FB1200C0490870BDF8900019
:10258000B0B3BE480078062849D2DFE800F0030E59
:102590001925323EBA48D0E90020BA4BD21840F192
:1025A0000000B749C1E900203AE0B548D0E9002071
:1025B000B54BD21840F10000B149C1E900202FE02D
:1025C000AF48D0E900204EF66023D21840F1000059
:1025D000AB49C1E9002023E0A948D0E9002041F23D
:1025E0007073D21840F10000A549C1E9002017E03E
:1025F00026E0A348D0E900204FF47A73D21840F1C6
:1026000000009F49C1E900200AE09D48D0E9001080
:10261000643140F100009A4AC2E9001000E000BFB6
:1026200000BF9A4A0023964903C9FDF7F9FE944872
:102630000CC00020009092480CC88D4800F0BEFDF0
:1026400000E076E0BDF88600A0B38D48D0E9001028
:102650008E4A891840F10000894AC2E90010874873
:102660000078062849D2DFE800F0030E1926323E32
:102670008348D0E900208349511A60F10000804A64
:10268000C2E900103AE07E48D0E900107E4BC91A3A
:1026900060F100007A4AC2E900102FE07848D0E9E2
:1026A00000204EF66023D21A60F100007449C1E99F
:1026B000002023E032E07248D0E9002041F270733C
:1026C000D21A60F100006E49C1E9002016E06C48A2
:1026D000D0E900204FF47A73D21A60F10000684903
:1026E000C1E900200AE06648D0E90020643A60F1C0
:1026F00000006349C1E9002000E000BF00BF634A59
:1027000000235F4903C9FDF78BFE5D480CC0002024
:1027100000905B480CC8564800F050FD57480178BF
:1027200001208840C0B2009053480CC828A800F08F
:10273000FDFE9AE2102056490872BDF88C0048B19F
:1027400054490978481C00EBD0714910A0EB4101B5
:10275000504A1170BDF88A0048B14E490978481CAA
:1027600000EBD0714910A0EB41014A4A1170BDF84D
:102770008E0030B101203F4908710720464908709A
:1027800005E0BDF8920010B100203A4908714148B7
:10279000007800F093FC8DF8A00020218DF8A110A6
:1027A0003C480078C0EBC0003C4901EB4000C088C9
:1027B0000A2190FBF1F0C2B2104600F07FFC8DF8C8
:1027C000A20034480078C0EBC000344901EB40005F
:1027D000C0880A2190FBF1F301FB1300C2B210463E
:1027E00000F06CFC8DF8A3002A480078C0EBC00014
:1027F0002A4901EB400000890A2190FBF1F0C2B2A6
:10280000104600F05BFC8DF8A40022480078C0EB75
:10281000C000224901EB400000890A2190FBF1F33E
:1028200001FB1300C2B2104600F048FC8DF8A50071
:1028300018480078C0EBC000184901EB40004089FF
:102840000A2190FBF1F0C2B2104600F037FC8DF87F
:10285000A60010480078C0EBC000104901EB400012
:1028600040890A2190FBF1F301FB1300C2B217E08B
:10287000DA0000202800002008000020310000209D
:102880001800002080EE3600407E050000D6830050
:10289000B80000203300002032000020E8000020B3
:1028A000104600F00BFC8DF8A700FE4800790128C7
:1028B00077D1BDF8840050B1FB480078C01C0621D8
:1028C00090FBF1F201FB1200801CF7490870BDF883
:1028D000880050B1F4480078401E062190FBF1F2C8
:1028E00001FB1200801CF0490870BDF8900078B31D
:1028F000ED480078801E06287BD2DFE800F0031642
:102900002A3E5367E948EA49097800EBC100D0E95B
:102910000030E84A9A1840F10000E449E44B1B7883
:1029200001EBC301C1E9002064E0E048E049097817
:1029300000EBC100D0E90010DF4BC91840F10000E6
:10294000DA4ADB4B1B7802EBC302C2E9001051E00C
:1029500076E0D648D649097800EBC100D0E90030CE
:102960004EF660229A1840F10000D049D04B1B78F7
:1029700001EBC301C1E900203CE0CC48CC49097817
:1029800000EBC100D0E9002041F27073D21840F191
:102990000000C649C64B1B7801EBC301C1E900200A
:1029A00028E015E1C148C249097800EBC100D0E92F
:1029B00000104FF47A73C91840F10000BB4ABC4BB9
:1029C0001B7802EBC302C2E9001013E0B748B84914
:1029D000097800EBC100D0E90020643240F100002A
:1029E000B249B34B1B7801EBC301C1E9002001E000
:1029F000FFE700BF00BFAD48AD49097800EBC1005B
:102A0000AE4A0023D0E900613046FDF709FDA74832
:102A1000A749097800EBC1000CC00020A349A44AD3
:102A20000090127801EBC202A1490978C1EBC10103
:102A3000D2E90063A24A02EB4100324600F0BEFB3D
:102A4000BDF88600E8B399489949097800EBC100C0
:102A5000D0E90010994A891840F10000934A944B3C
:102A60001B7802EBC302C2E900108F480078801E79
:102A700006287BD2DFE800F003162B3F53678B4814
:102A80008B49097800EBC100D0E90010894BC91AC5
:102A900060F10000854A864B1B7802EBC302C2E955
:102AA000001064E081488249097800EBC100D0E958
:102AB0000010814BC91A60F100007C4A7C4B1B78E6
:102AC00000E07AE002EBC302C2E900104FE0774871
:102AD0007749097800EBC100D0E900104EF6602379
:102AE000C91A60F10000714A714B1B7802EBC302F6
:102AF000C2E900103BE06D486D49097800EBC10068
:102B0000D0E9003041F270729A1A60F10000674912
:102B1000674B1B7801EBC301C1E9002027E0634844
:102B20006349097800EBC100D0E900304FF47A72B4
:102B30009A1A60F100005D495D4B1B7801EBC301FF
:102B4000C1E9002013E059485949097800EBC10058
:102B5000D0E90010643960F10000544A544B1B78EE
:102B600002EBC302C2E9001001E0FFE700BF00BFB3
:102B70004E484F49097800EBC100504A0023D0E984
:102B800000613046FDF74CFC48484949097800EBA4
:102B9000C1000CC000204549454A0090127801EB65
:102BA000C201D1E9006342490978C1EBC101444A3D
:102BB00002EB4100324600F001FB3B480178012066
:102BC0008840C0B200903F480CC828A800F0AEFC76
:102BD000344800E049E00079022806D1FF20009047
:102BE00038480CC828A800F0A1FC3EE002202D497E
:102BF0000870042241022AA8FEF706F8042240F2D7
:102C000004412BA8FEF700F80023DDE92A1059182B
:102C100058412D4AC2E900100820009010460CC807
:102C20002A4800F0CBFA0020009029480CC8294817
:102C300000F0C4FA002410E000201C4901EBC4019C
:102C40000090D1E90063C4EBC4011D4A02EB4100CE
:102C5000324600F0B3FA601CC4B2022CECDB41F245
:102C600070701D49088000E000BF00BF00240AE02A
:102C700028A9085D00F05AFA18490855202028A90B
:102C80000855601CC4B2082CF2DB06480079022803
:102C900003D00448C078032822D14FF4FA600F49CA
:102CA000C8605DE0280000203200002008010020FC
:102CB0003300002080EE3600407E050000D6830001
:102CC000E80000200800002010000020CC000020B8
:102CD00018000020DA00002022000020B8000020A8
:102CE00051488079E0B30A220023504903C9FDF717
:102CF00097FB00214A404B401A4304D14C480088BE
:102D0000401C4B4908804B484B49098830F821004A
:102D100058B948484849098800EB8100408820B9E3
:102D20000020434908804449088004E04248008864
:102D3000401C414908803F493F480088401C01EB46
:102D4000800040883A4909888842EFDD39483A498D
:102D5000098830F82100394931F810003849C86035
:102D6000B8F1000F5CD0032236A12846FDF788FC9D
:102D7000A8BB092234A1281DFDF782FC70BB4FF0CF
:102D80000E0900200646074612E00A234FF0000C09
:102D90003246A2FB031A07FB03A006FB0C024846BF
:102DA000431C1FFA83F9285C30380E1842EBE07799
:102DB00015F809000028E8D132463B4625A102A8B3
:102DC000FDF7A6FB02A800F0FFF83148C0C00820BC
:102DD00000902F480CC82F4800F0F0F920E0FFE7E2
:102DE00005222DA12846FDF764FCC8B904222CA1B8
:102DF000A81DFDF75EFC30B900200D4908800120B8
:102E0000094988710CE0042227A1A81DFDF751FC97
:102E100030B9002004498871054908800849C86014
:102E20002CB0BDE8F087000028000020080000203A
:102E30002400002048370000260000202044000025
:102E4000B80000207365740074696D657374616DFA
:102E5000700000005570646174696E67206375725C
:102E600072656E742074696D657374616D70207421
:102E70006F3A256C6C752874696D65732074656E86
:102E8000206D696C6C697365636F6E6473290000F3
:102E900010000020CC0000204D5553494300000095
:102EA000504C41590000000053544F5000000000A6
:102EB0000448006840F47000024908600248034971
:102EC0000860704788ED00E00024F4004000002016
:102ED00010B501210F4800F071F8044621460D4855
:102EE00000F066F80AE00B4800F018F80A49896E0D
:102EF00008700948806E401C07498866054800F044
:102F00001BF80028EFD10449896E08700249A1F826
:102F10006C0010BD00C0004048000020816911F025
:102F2000100F0CBF00684FF0FF307047826912F03D
:102F3000200FFBD1016070478069012121EA101048
:102F40007047D0F818C01CF0080FFAD1D0F82CC088
:102F50002CF0100CC0F82CC0D0F830C02CF0010CB4
:102F60002CF4407CC0F830C0D0F830C0B1EB021F68
:102F700034BF4CF0200C2CF0200CC0F830C038BF0F
:102F80005208C900B1FBF2F1491C49088A094262A2
:102F900001F03F018162C36200218161C16A41F099
:102FA0001001C162016B40F20132114301637047AD
:102FB00041647047826B114381637047002914BFDD
:102FC000006CC06B7047000010B5044604E014F8B4
:102FD000011B0348FFF7AAFF20780028F7D110BD96
:102FE00000C0004010B50446A089401CA081A08903
:102FF00064285EDBA0896438A0816089401C608100
:1030000060893C2855DB60893C3860812089401C00
:10301000208120893C284CDB20893C382081E088B5
:10302000401CE080E088182843DBE0881838E08006
:10303000A088401CA080208800F068F910B14FF4EF
:10304000B77001E040F26D10A188884231DC208821
:1030500000F05CF910B14FF4B77001E040F26D1070
:10306000A188081AA0802088401C2080208800F0B9
:103070004DF920B160880F4931F8100003E06088F5
:103080000D4931F81000A188884212DC208800F038
:103090003DF920B16088074931F8100003E06088ED
:1030A000054931F81000A188081AA0806088401CEA
:1030B000608010BD683600005036000001460029CF
:1030C00005DB092903DC01F13000C0B2704701F1D2
:1030D0006100C0B2FAE7000070B504460D462A460A
:1030E00005212220FDF724FF0120A040C2B20621C5
:1030F0002220FDF71DFF0C49097C4FF4487211FB9B
:1031000002F0FDF7A6FC002206212220FDF710FFA9
:103110000549097CC1F104014FF4487211FB02F02A
:10312000FDF797FC70BD0000B800002030B597B0E7
:1031300004462C220BA10CA8FDF706FB2C2214A19F
:1031400001A8FDF701FB21460CA8FDF78FFA054603
:103150002DB10CA8281A01A9085C17B030BD0020B9
:10316000FBE70000303132333435363738394162CD
:1031700042436444454647484A4B4C4D4E506F4F7E
:103180005152545355565758595A2E2D5F2000000E
:103190003F065B4F666D7D077F6F777C7C395E5E97
:1031A00079713D760D72385554735C5C6F50786D53
:1031B0003E1C6A1D6E498040080000002DE9F05F4A
:1031C000044615461E46DDF8289040F2B270208075
:1031D0006422002328463146FDF722F9A2816422A9
:1031E000002328463146FDF71BF907463C22002301
:1031F000FDF716F962816422002328463146FDF767
:103200000FF907464FF461620023FDF709F9924672
:1032100019463C2200235046FDF702F92081642222
:10322000002328463146FDF7FBF80746344A0023C1
:10323000FDF7F6F8924619464FF4616200235046B6
:10324000FDF7EEF810EB0900E0804FF064024FF05C
:10325000000328463146FDF7E3F80746284A0023D5
:10326000FDF7DEF8A080E088182805DBE088183834
:10327000E080A088401CA080002060800EE02088B4
:1032800000F044F810B14FF4B77001E040F26D1057
:10329000A188081AA0802088401C2080208800F087
:1032A00035F810B14FF4B77001E040F26D10A1880D
:1032B0008842E4DD12E0208800F028F820B1608820
:1032C000104931F8100003E060880F4931F8100010
:1032D000A188081AA0806088401C6080208800F0C7
:1032E00015F820B16088074931F8100003E06088C4
:1032F000054931F81000A1888842DCDDBDE8F09F67
:1033000080510100683600005036000001460A4630
:10331000C81701EB90708010A1EB800070B9642099
:1033200091FBF0F300FB131030B94FF4C87091FB20
:10333000F0F300FB131008B9012070470020FCE7F0
:103340000024FF25494943F65050FEF74DF84849FF
:1033500008604848057040F286704649A1F86C0044
:10336000881C886600204449C86004200874012035
:10337000487400208874FDF7E5FEFDF70DFFFDF7AA
:10338000FBFFFDF755FFFDF7BDFFFDF76DFF3B4868
:10339000FEF7AAF900BF3948FEF7BAF90028FAD0BB
:1033A000FDF75EFB60E03448007AC043C2B2012101
:1033B0001820FDF7BDFD00241EE000212220FDF7AE
:1033C00077FD05460DB12B4805702B48007C002881
:1033D00004DD2948015D2046FFF77EFE2648807CFB
:1033E000002807DDC4F1080025490A5C0F212548A3
:1033F000FDF75BFD601CC4B2082CDEDB1E48807C40
:10340000002804DD1C48807C401E1B4988741A4833
:10341000C06808B1012000E00020024680211A485F
:10342000FDF76CFE1448C068C0B11348C06810496D
:103430000968B1FBF0F632464FF480711248FDF78F
:1034400054FE0D48C0680A490968B1FBF0F08608CF
:10345000324640F207110C48FDF758FE03210B4895
:10346000FDF7BEFC034948709DE700000024F4000E
:103470000000002048000020B8000020005800F0A4
:1034800018440000005002400080024000D0034079
:1034900010B50446A08900283ED16320A081608930
:1034A000002835D13B206081208968BB3B202081EA
:1034B000E08828BB1720E080A088E8B9608840B980
:1034C000208800B910BD2088401E20800B2060801D
:1034D00002E06088401E60802088FFF717FF20B15F
:1034E0006088104931F8100003E060880E4931F817
:1034F0001000401EA08012E0A088401EA0800EE0B8
:10350000E088401EE0800AE02089401E208106E01D
:103510006089401E608102E0A089401EA08100BF3A
:10352000D0E7000068360000503600002DE9F04179
:10353000054616461F46DDF81880C822002330468F
:103540003946FCF76DFF6421511A73F100030CD268
:10355000002408E00120A04000EA080008B1202073
:103560002855601CC4B2082CF4DBBDE8F0810000D3
:1035700070B5024600200AE0254B03EBC003D3E9F7
:10358000004302EBC005C5E90043431C98B218286C
:10359000F2DB40F2E57399421ADA11E000200DE007
:1035A00002EBC003D3E900431A4EA41B63F10003EE
:1035B00002EBC005C5E90043431C98B21828EFDBB5
:1035C0000B464C1CA1B240F2E574A342E6D11DE0CB
:1035D00040F2E573994219DD11E000200DE002EBA5
:1035E000C003D3E900530B4EAD1943F1000302EBC6
:1035F000C004C4E90053431C98B21828EFDB0B4603
:103600004C1EA1B240F2E574A342E6D170BD0000A9
:1036100088360000D40B18BC10B500290AD00878F1
:10362000002807D005487844FDF7CCF9002801D0E0
:10363000002010BD0248784410BD00007A1400003C
:10364000721400004FF04070E1EE100A7047000065
:103650001F001C001F001E001F001E001F001F0077
:103660001E001F001E001F001F001D001F001E0067
:103670001F001E001F001F001E001F001E001F0055
:103680006D016E010000000094CF417B2500000019
:103690009866D682250000003CB7708A250000009D
:1036A00030EC129225000000D05DC2992500000088
:1036B000FCE97FA125000000E8354FA925000000A6
:1036C000080B2FB125000000F8C620B92500000026
:1036D00048CE20C125000000341D2EC92500000061
:1036E000443643D125000000602F5DD9250000003D
:1036F000400676E125000000F4F989E92500000084
:10370000002C94F1250000007C4691F92500000072
:103710001CD47E0126000000B4F85A0926000000DF
:10372000D4192611260000005856E0182600000083
:10373000BC988C20260000005CCE2C2826000000BF
:103740009897C52F260000003500000041001E009C
:10375000410032003F003C0041004600350050006F
:1037600041006E00410082003F008C004100960045
:103770003500A0004100BE004100D2003F00DC0047
:103780004100E6003500F0004100040144000E0154
:103790004600180144002C01460036013500400166
:1037A00041005E01410072013F007C014100860141
:1037B000350090014100AE014100C2013F00CC0143
:1037C0004100D6013500E0014100FE014100120236
:1037D0003F001C02410026023A003002440044022D
:1037E00046004E023800580241006C024400760246
:1037F0003500800241009E024100B2023F00BC023F
:103800004100C6023500D0024100EE024100020331
:103810003F000C03410016033500200341003E0326
:10382000410052033F005C03410066033500700312
:103830004100840344008E03460098034400AC0317
:103840004600B6033500C0034100DE034100F20329
:103850003F00FC03410006043500100441002E0423
:10386000410042043F004C0441005604350060040E
:1038700041007E04410092043F009C044100A604E4
:103880003A00B0043800BD043A00CA043800D80435
:103890003500E5043800F204350000053700140552
:1038A000380028053A003C053C00500541007805E9
:1038B0003F008C053C00A0053500C8053C00F00524
:1038C0003A0004063800180637002C06350040067A
:1038D00037005406380068063A007C063C00900623
:1038E0003A00B8063800CC063700E0063500F4068A
:1038F0003700080738001C07370030073500440739
:103900003400580737006C073500800737009407EC
:103910003800A8073A00BC073C00D0074100F80770
:103920003F000C083C002008350048083C007008A7
:103930003A008408380098083700AC083500C00801
:103940003700D4083800E8083A00FC083C001009A9
:103950003A00380938004C093700600938008809F6
:103960003A00B0093C00D8093500000A3700140AB3
:103970003800280A3A003C0A3C00500A4100780A04
:103980003F008C0A3C00A00A3500C80A3C00F00A3F
:103990003A00040B3800180B37002C0B3500400B95
:1039A0003700540B3800680B3A007C0B3C00900B3E
:1039B0003A00B80B3800CC0B3700E00B3500F40BA5
:1039C0003700080C38001C0C3700300C3500440C54
:1039D0003400580C37006C0C3500800C3700940C08
:1039E0003800A80C3A00BC0C3C00D00C4100F80C8C
:1039F0003F000C0D3C00200D3500480D3C00700DC3
:103A00003A00840D3800980D3700AC0D3500C00D1C
:103A10003700D40D3800E80D3A00FC0D3C00100EC4
:103A20003A00380E38004C0E3700600E3800880E11
:103A30003A00B00E3C00D80E3F00000F4100140FBA
:103A40003C00280F3A003C0F3C00500F3A00780F22
:103A50003C008C0F3F00A00F4100B40F3C00C80F8A
:103A60003A00DC0F3C00F00F3A0018103C002C101C
:103A70003A004010380054103700681033007C10B2
:103A8000350090103300B8103500CC103700E0102E
:103A90003800F4103A0008113C001C1135003011B8
:103AA0003C0058113F006C113F00801141009411FF
:103AB0003C00A8113A00BC113C00D0113A00F811AA
:103AC0003C000C123F002012410034123C0048120E
:103AD0003A005C123C0070123A0098123C00AC12A2
:103AE0003A00C0123800D4123700E8123300FC123A
:103AF000350010133300381335004C1337006013B2
:103B0000380074133A0088133C009C133500B0133E
:103B10003C00D8133F00EC133F0000144100141484
:103B20003C0028143A003C143C0050143A0078142D
:103B30003C008C143F00A0144100B4143C00C81495
:103B40003A00DC143C00F0143A0018153C002C1527
:103B50003A004015380054153700681533007C15BD
:103B6000350090153300B8153500CC153700E01539
:103B70003800F4153A0008163C001C1635003016C3
:103B80003C0058163F006C163F008016410094160A
:103B90003C00A8163A00BC163C00D0163A00F816B5
:103BA0003C000C173F002017410034173C00481719
:103BB0003A005C173C007017410098174300AC179F
:103BC0004400C0174300D4174100E8173F00FC171A
:103BD0003C0010183A0038183C004C183A006018A5
:103BE000380074183700881833009C183500B01856
:103BF0003C00D8183F00EC183F0000194100141990
:103C00003C0028193A003C193C0050193A00781938
:103C10003C008C193F00A0194100B4193C00C819A0
:103C20003A00DC193C00F0193A00181A3C002C1A32
:103C30003A00401A3800541A3700681A33007C1AC8
:103C40003500901A3300B81A3500CC1A3700E01A44
:103C50003800F41A3A00081B3C001C1B3500301BCE
:103C60003C00581B3F006C1B3F00801B4100941B15
:103C70003C00A81B3A00BC1B3C00D01B3A00F81BC0
:103C80003C000C1C3F00201C4100341C3C00481C24
:103C90003A005C1C3C00701C3A00981C3C00AC1CB8
:103CA0003A00C01C3800D41C3700E81C3300FC1C50
:103CB0003500101D3300381D35004C1D3700601DC8
:103CC0003800741D3A00881D3C009C1D3500B01D55
:103CD0003C00D81D3F00EC1D3F00001E4100141E9B
:103CE0003C00281E3A003C1E3C00501E3A00781E44
:103CF0003C008C1E3F00A01E4100B41E3C00C81EAC
:103D00003A00DC1E3C00F01E3A00181F3C002C1F3D
:103D10003A00401F3800541F3700681F33007C1FD3
:103D20003500901F3300B81F3500CC1F3700E01F4F
:103D30003800F41F3A0008203C001C2035003020D9
:103D40003C0058203F006C203F0080204100942020
:103D50003C00A8203A00BC203C00D0203A00F820CB
:103D60003C000C213F002021410034213C0048212F
:103D70003A005C213C007021410098214300AC21B5
:103D80004400C0214300D4214100E8213F00FC2130
:103D90003C0010223A0038223C004C223A006022BB
:103DA000380074223700882233009C223500B0226C
:103DB0003500002341001E23410032233F003C23F5
:103DC000410046233500502341006E2341008223E9
:103DD0003F008C23410096233500A0234100BE23E1
:103DE0004100D2233F00DC234100E6233500F023CD
:103DF0004100042444000E244600182444002C24CE
:103E0000460036243500402441005E2441007224DF
:103E10003F007C2441008624350090244100AE24DC
:103E20004100C2243F00CC244100D6243500E024C8
:103E30004100FE24410012253F001C25410026259B
:103E40003A0030254400442546004E2538005825C8
:103E500041006C25440076253500802541009E25D3
:103E60004100B2253F00BC254100C6253500D025C4
:103E70004100EE25410002263F000C264100162697
:103E80003500202641003E26410052263F005C2698
:103E900041006626350070264100842644008E26A7
:103EA000460098264400AC264600B6263500C026BB
:103EB0004100DE264100F2263F00FC264100062795
:103EC0003500102741002E27410042273F004C2794
:103ED000410056273500602741007E274100922788
:103EE0003F009C274100A6273A00B0273800BD2795
:103EF0003A00CA273800D8273500E5273800F227CE
:103F00003500002837001428380028283A003C28BB
:103F10003C005028410078283F008C283C00A02815
:103F20003500C8283C00F0283A0004293800182938
:103F300037002C29350040293700542938006829DA
:103F40003A007C293C0090293A00B8293800CC2955
:103F50003700E0293500F4293700082A38001C2AE8
:103F60003700302A3500442A3400582A37006C2A9A
:103F70003500802A3700942A3800A82A3A00BC2A43
:103F80003C00D02A4100F82A3F000C2B3C00202B9B
:103F90003500482B3C00702B3A00842B3800982BBE
:103FA0003700AC2B3500C02B3700D42B3800E82B62
:103FB0003A00FC2B3C00102C3A00382C38004C2CDA
:103FC0003700602C3800882C3A00B02C3C00D82CEC
:103FD0003500002D3700142D3800282D3A003C2DD7
:103FE0003C00502D4100782D3F008C2D3C00A02D31
:103FF0003500C82D3C00F02D3A00042E3800182E54
:1040000037002C2E3500402E3700542E3800682EF5
:104010003A007C2E3C00902E3A00B82E3800CC2E70
:104020003700E02E3500F42E3700082F38001C2F03
:104030003700302F3500442F3400582F37006C2FB5
:104040003500802F3700942F3800A82F3A00BC2F5E
:104050003C00D02F4100F82F3F000C303C002030B6
:10406000350048303C0070303A00843038009830D9
:104070003700AC303500C0303700D4303800E8307D
:104080003A00FC303C0010313A00383138004C31F5
:1040900037006031380088313A00B0313C00D83107
:1040A0003F000032410014323C0028323A003C32DA
:1040B0003C0050323A0078323C008C323F00A03253
:1040C0004100B4323C00C8323A00DC323C00F032ED
:1040D0003A0018333C002C333A0040333800543354
:1040E0003700683333007C33350090333300B83306
:1040F0003500CC333700E0333800F4333A0008346D
:104100003C001C34350030343C0058343F006C34E3
:104110003F008034410094343C00A8343A00BC3461
:104120003C00D0343A00F8343C000C353F002035D8
:10413000410034353C0048353A005C353C00703570
:104140003A0098353C00AC353A00C0353800D435DB
:104150003700E8353300FC3535001036330038368B
:1041600035004C3637006036380074363A008836F1
:104170003C009C363500B0363C00D8363F00EC366B
:104180003F000037410014373C0028373A003C37E5
:104190003C0050373A0078373C008C373F00A0375E
:1041A0004100B4373C00C8373A00DC373C00F037F8
:1041B0003A0018383C002C383A004038380054385F
:1041C0003700683833007C38350090383300B83811
:1041D0003500CC383700E0383800F4383A00083978
:1041E0003C001C39350030393C0058393F006C39EF
:1041F0003F008039410094393C00A8393A00BC396D
:104200003C00D0393A00F8393C000C3A3F00203AE3
:104210004100343A3C00483A3A005C3A3C00703A7B
:104220004100983A4300AC3A4400C03A4300D43AC3
:104230004100E83A3F00FC3A3C00103B3A00383B72
:104240003C004C3B3A00603B3800743B3700883BF5
:1042500033009C3B3500B03B3D00D83B4000EC3B7D
:104260004000003C4200143C3D00283C3B003C3CEC
:104270003D00503C3B00783C3D008C3C4000A03C65
:104280004200B43C3D00C83C3B00DC3C3D00F03CFF
:104290003B00183D3D002C3D3B00403D3900543D66
:1042A0003800683D34007C3D3600903D3400B83D18
:1042B0003600CC3D3800E03D3900F43D3B00083E7F
:1042C0003D001C3E3600303E3D00583E40006C3EF6
:1042D0004000803E4200943E3D00A83E3B00BC3E74
:1042E0003D00D03E3B00F83E3D000C3F4000203FEB
:1042F0004200343F3D00483F3B005C3F3D00703F83
:104300003B00983F3D00AC3F3B00C03F3900D43FED
:104310003800E83F3400FC3F36001040340038409D
:1043200036004C4038006040390074403B00884003
:104330003D009C403600B0403D00D8404000EC407D
:1043400040000041420014413D0028413B003C41F7
:104350003D0050413B0078413D008C414000A04170
:104360004200B4413D00C8413B00DC413D00F0410A
:104370003B0018423D002C423B0040423900544271
:104380003800684234007C42360090423400B84223
:104390003600CC423800E0423900F4423B0008438A
:1043A0003D001C43360030433D00584340006C4301
:1043B00040008043420094433D00A8433B00BC437F
:1043C0003D00D0433B00F8433D000C4440002044F6
:1043D000420034443D0048443B005C443D0070448E
:1043E000420098444400AC444500C0444400D444D6
:1043F0004200E8444000FC443D0010453B00384585
:104400003D004C453B006045390074453800884507
:1044100034009C453600B0450901030206040C082F
:10442000000023002500270029002C002E00310069
:10443000340037003A003E00420046004A004E0079
:10444000530058005D00620068006E0075007C003B
:1044500083008B0093009C00A500AF00BA00C5004C
:10446000D000DD00EA00F80007011601270138013D
:104470004B015F0173018901A101BA01D401F0016F
:104480000D022C024E0271029602BD02E7021303D6
:1044900042037303A803E0031B0459049B04E104D3
:1044A0002C057A05CE0526068406E7065007BF07C9
:1044B0003508B2083609C309570AF40A9B0B4C0C9D
:1044C000070DCD0DA00E7E0F6A1064116D128513BD
:1044D000AE14E915371798180E1A9B1B3F1DFC1ECA
:1044E000D420C822D9240A275C29D22B6D2E303142
:1044F0001D3436377E3AF93D004000401000000080
:104500000080054010000000005000401100000035
:104510000090054011000000006000401200000003
:1045200000A00540120000000070004013000000D1
:1045300000B00540130000000040024014000000DD
:1045400000C0054014000000005002402E00000092
:1045500000D005402E000000006002402F00000047
:1045600000E005402F000000007002403000000015
:1045700000F005403000000000D00340460000007D
:104580000000064046000000001006404700000002
:104590000020064048000000003006407F00000078
:1045A00000400640800000000050064084000000EB
:1045B000006006408C000000004000401000000039
:1045C0000080054010000000005000401100000075
:1045D0000090054011000000006000401200000043
:1045E00000A0054012000000007000401300000011
:1045F00000B005401300000000400240140000001D
:1046000000C0054014000000005002402E000000D1
:1046100000D005402E000000006002402F00000086
:1046200000E005402F000000007002403000000054
:1046300000F005403000000000D0034043000000BF
:104640000000064043000000001006404400000047
:1046500000200640450000000030064058000000E1
:104660000040064059000000005006405C00000079
:104670000060064064000000007006406C0000000E
:10468000008006406D000000009006407F000000A2
:104690000040004000800540005000400090054070
:1046A0000060004000A005400070004000B00540E0
:1046B0000040024000C005400050024000D00540CC
:1046C0000060024000E005400070024000F005403C
:1046D00000D00340000006400010064000100640D5
:1046E0000020064000200640003006400030064012
:1046F0000040064000400640005006400050064082
:1047000000600640006006400070064000700640F1
:104710000080064000800640009006400090064061
:104720000007000000060000000500000004000073
:104730000003000000020000000100000000000073
:104740000000000018ED00E01CED00E020ED00E0AE
:1047500000E400E004E400E008E400E00CE400E031
:1047600010E400E014E400E018E400E01CE400E0E1
:1047700020E400E024E400E028E400E02CE400E091
:1047800030E400E034E400E038E400E03CE400E041
:1047900040E400E044E400E048E400E04CE400E0F1
:1047A00050E400E054E400E058E400E05CE400E0A1
:1047B00060E400E064E400E068E400E06CE400E051
:1047C00070E400E074E400E078E400E07CE400E001
:1047D00080E400E084E400E088E400E000E100E040
:1047E00004E100E008E100E00CE100E010E100E09D
:1047F00080E100E084E100E088E100E08CE100E09D
:1048000090E100E000E200E004E200E008E200E005
:104810000CE200E010E200E080E200E084E200E070
:1048200088E200E08CE200E090E200E000688909A4
:10483000001C4E0E40420F0000201C0080841E0011
:1048400000802500999E36000040380000093D0098
:1048500000803E0000004B00404B4C0000204E000A
:10486000808D5B0000C05D000080700000127A0047
:1048700000007D0080969800001BB7000080BB0000
:10488000C0E8CE00647ADA000024F4000000FA00E8
:1048900080A81201002D310100366E0140787D01A3
:1048A0004000000000000000000100003E00080081
:1048B0000000000000010000A00000000200000055
:1048C000000100003454010000000000000100005D
:1048D0002B7006000000000000010000280000000E
:1048E000000000000001000027000100000000009F
:1048F0000001000020000000000000000001000096
:104900005000000002000000000100001AAC00008E
:1049100000000000000100001794090000000000E2
:1049200000010000169805000000000000010000D2
:1049300014000000000000000001000013800800C7
:104940000000000000010000A000000008000000BE
:104950000001000010000000000000000001000045
:1049600028000000020000000001000040000000DC
:1049700004000000000100006000000000000000D2
:10498000000100005D000C000000000000010000BC
:104990005000000000000000000100004E00020076
:1049A000000000000001000041AC01000000000018
:1049B000000100003C0000000000000000010000B9
:1049C0003A800900000000000001000030000000F3
:1049D00000000000000100002800000000000000AE
:1049E000000100002700010000000000000100009D
:1049F00023600600000000000001000021600800A4
:104A000000000000000100001E0000000000000087
:104A1000000100001DC004000000000000010000B3
:104A2000500000000200000000010000180000001B
:104A30000000000000010000140000000000000061
:104A40000001000060000000040000000001000000
:104A50000024F40030003000005A620291009100FE
:104A600000879303D200D20000B4C40413011301E1
:104A700000E1F50554015401000E27079501950149
:104A8000B04B000000000020440000003C02000089
:104A9000F44B0000440000206405000058020000B0
:104AA0001001000043000000F8FFFFFF00404040FD
:104AB00040404040404041414141414040404040F1
:104AC000404040404040404040404040400502029D
:104AD000020202020202020202020202022020205C
:104AE00020202020202020020202020202029090B8
:104AF00090909090101010101010101010101010B6
:104B00001010101010101010020202020202888809
:104B10008888888808080808080808080808080815
:104B200008080808080808080202020240000000FD
:104B30000000000000000000000000000000000075
:104B40000000000000000000000000000000000065
:104B50000000000000000000000000000000000055
:104B60000000000000000000000000000000000045
:104B70000000000000000000000000000000000035
:104B80000000000000000000000000000000000025
:104B90000000000000000000000000000000000015
:104BA0000000000000000000000000000000000005
:104BB00000000000000000000000000000000000F5
:104BC00080966CCA25000000000000000000000074
:104BD00000000000000000000500000200000000CE
:104BE00000000000000000000000000000000000C5
:044BF0000024F400A9
:0400000500000201F4
:00000001FF
